:020000041000EA
:1000000000200008EB0000100D0000004D01001062
:1000100000000000000000000000000000000000E0
:100020000000000000000000000000004901001076
:10003000000000000000000049010010490100100C
:100040004901001049010010490100104901001048
:100050004901001049010010490100104901001038
:100060004901001049010010490100104901001028
:100070004901001049010010490100104901001018
:1000800010B5064C2378002B07D1054B002B02D06E
:10009000044800E000BF0123237010BDB003000836
:1000A0000000000014150010044B10B5002B03D005
:1000B0000349044800E000BF10BDC0460000000036
:1000C000B4030008141500100230800803D001307A
:1000D0000238FCD1C046C0467047EFF3108072B6BC
:1000E000704780F3108870477047FFF7FDFF72B6C6
:1000F0000F4C104DAC4209DA21686268A368043BDA
:1001000002DBC858D050FAE70C34F3E70A490B4A2F
:100110000020521A02DD043A8850FCDC08480949E4
:100120000860BFF34F8F00F0FFFE00F0AFFEFEE768
:100130002015001038150010B0030008C80500088D
:100140000000000808ED00E0FEE7FEE700B504202F
:100150007146084202D0EFF3098001E0EFF3088016
:10016000043000F093FCFEE7014B18607047C04676
:10017000C4050008044B1B681A00BA3212881B6AB7
:100180005043C0187047C046C40500081D4B984234
:100190000FD010D840282FD005D8002830D01028F4
:1001A00028D019481EE0802828D080235B00984280
:1001B000F7D1144816E0154B984214D008D8A02364
:1001C0001B0698421CD0124B9842EAD1A0200BE0AB
:1001D000104B98420AD0104B984209D00F4B9842CE
:1001E000DFD10F487047A420C003FBE70D48F9E7B3
:1001F0000D48F7E70D48F5E70D48F3E70D48F1E73F
:100200000020EFE706005200FF005200010000F05E
:10021000090000A0040000F0050000F0030000F059
:100220000100520002005200030052000100500081
:10023000020050000500520010B50020FFF79AFFA1
:100240000A4B1C682300BC331B68C0180368002BD2
:100250000ADB074B1868FFF799FF012263689A6071
:100260009A68002AFCD110BD0248FCE7C4050008CA
:10027000CC03000802005000064B1B68BC331B680F
:10028000C3181B68002B03DA89B241600020704755
:100290000148FCE7C405000801008A000368002B40
:1002A00004DA89B2C2608160002070470048FCE730
:1002B00001008A00064B1B68BC331B68C3181B680F
:1002C000002B03DAC36800200B6070470148FCE78D
:1002D000C405000801008A00024B1A68002A00D1F8
:1002E00018607047E0030008F0B52C246043154CFB
:1002F0001F0024681D0A2018FF2425402740124CA7
:100300001B0C26680760346A45608360BA363688FD
:1003100077433F1907612F0080376D017F01E7198F
:1003200064190A4D47611F043B436419236000238D
:100330008361059BC2610162002B01D01B88838110
:10034000F0BDC046E0030008C40500080810000026
:10035000F0B5836885B002AD2B80154B02681B6831
:10036000066A1B8F476A9B186B8043680095826AF8
:10037000C16A040003930369C068FFF7B5FF002159
:100380003B000A0000913000FFF7AEFF216B280010
:1003900000F030FB0022AB5E002B06DB1F22134077
:1003A0001E3A9A401300034A136005B0F0BDC046E0
:1003B000C405000800E100E0F7B52C25134C6843A4
:1003C000266869433418256901937118002D19D0E6
:1003D0008869002818D12E68002E15DA6768012474
:1003E00026004B689E40B44613689EB263461B04C9
:1003F0001E431660EA608C61BC40019BA4B24B6254
:10040000AC60FEBD0248FCE70248FAE7E0030008E2
:1004100004028A0007028A0073B5002642690400BC
:10042000D56801962B0CB34221D01B0413601368CE
:10043000194B00691B68BC331B68C3181B68B342A7
:1004400015DA01A9FFF736FFB0420CD10198E26935
:1004500003681E0CDBB29A4205D9226A9B009B58A6
:10046000002B00D0984731002069FFF705FFADB29F
:10047000002D09D063691D6000251B68636AAB42CB
:1004800005D098476562A56163691B6873BDA36A5F
:10049000002BF8D09847F6E7C40500082C2310B5C8
:1004A0004343034A1068C018FFF7B6FF10BDC046AB
:1004B000E0030008F8B5194B0F001B681A0033322F
:1004C0001278824227D9002925D01F250A681540B5
:1004D00021D11900BA310C88114E60431C6AD20830
:1004E000041929007868346000F07EFF290020009C
:1004F000FFF7C2FE3A0029003068FFF7CFFE041E66
:1005000007D101003068FFF7B7FE03002000002B81
:1005100000D00448F8BD0448FCE7C046C405000804
:10052000E403000801018A0003018A0010B5002AD3
:100530000DD1002914D10B4B1A681300BA331B8854
:100540005843136AC018084B1860080010BD0029F2
:1005500006D0064B196019005A60FFF7ABFFF5E7AC
:100560000348F3E7C4050008E40300087803000823
:1005700003018A00F7B5184F04003B680191DE685B
:100580003368834226D90025A94202D1FFF7A5FD91
:10059000050038680368002B1ADA1F220123224065
:1005A000934064097268A4001419226813420DD0A4
:1005B0009A43226000240021FFF75EFE019B002B7E
:1005C00002D12800FFF78DFD2000FEBD034CF2E7AD
:1005D000034CF3E7034CF7E7E4030008020188004B
:1005E0000301880004018A000A4B1B68DB681A6853
:1005F00082420DD959681F23420918401E3B83408F
:10060000920050581840431E9841034BC018704741
:100610000248FCE7E40300080001880004018A00A6
:10062000054B1B681A0088321B6812689B181868F3
:10063000000AC0B27047C046C4050008044B1B68DE
:100640001A0088321B6812689B181868000E7047E1
:10065000C4050008024B18694007C00F7047C04628
:1006600000002740A6220549D2008B580220DB4318
:100670009B0702D00123885818407047000026408D
:1006800010B5FFF7EFFF0023022801D1014B1B68D3
:10069000180010BDEC030008094A83009B18D02203
:1006A0009200985807221040042807D1C0229200D7
:1006B00098581F2303408020400018437047C046CD
:1006C0000000264010B5FFF7E7FF02281CD005D830
:1006D000002824D0012814D0002014E01223FF3376
:1006E000984214D01423FF33984215D0033B98420C
:1006F000F2D10C4A0C4BD358002BEDDA80200002CB
:1007000001E00A4B186810BDFFF7BAFFFBE7FFF7DF
:10071000A1FF0028E0D0F1E7024A054BEBE70548CE
:10072000F1E7C046000026400C050000E803000881
:100730003C05000000127A00B023154ADB00D358B4
:1007400010B59903DB01DB0F890BC371114B0160FD
:10075000D3580F24D904DB01DB0D0381B123DB0067
:10076000D358C90C81801900214081721909214098
:10077000C172D9029B009B0F8373074BC90CD358DE
:1007800081815A05DB01520FDB0D8271038210BD9E
:1007900000002640840500008C05000010B5104BB9
:1007A000421E1B683F331B78934216D97F221F24B9
:1007B0008030FF300B4B8000C3581A400A701A0C6F
:1007C0002240180A8A701A012040E2404870002036
:1007D0009B009B0FCA700B7110BD0348FCE7C0461D
:1007E000C40500080000264001004A00F0B589B0A9
:1007F00003AC14220021200000F0F6FD2000FFF7DA
:100800009BFFB0231A4ADB00D25800239A4203DA36
:10081000A37B023B5A1E9341E57900266A1E95414F
:100820000135B34221D0A488B4421ED0039B3000CE
:100830000193FFF747FF2A00330007003100200033
:1008400000F0BCFC0C0005003300019A31003800B8
:1008500000F0B4FCE6076A08324363088018594187
:100860002A00230000F08AFC0600300009B0F0BD29
:1008700000002640F0B50026244B85B01B68070019
:100880003F331B78B3423ED0B0423CD083423AD390
:100890000522310002A800F0A7FD02A93800FFF7E9
:1008A0007DFF3B008033FF33194A9B009B58B342C6
:1008B00029DA02AB1B79022B25D002AB5C78B4425B
:1008C00021D09D78B5421ED01B7838000193FFF7E8
:1008D000F9FE2A00330007003100200000F06EFC12
:1008E0000C0005003300019A3100380000F066FC6E
:1008F000E6076A0832436308801859412A0023003A
:1009000000F03CFC0600300005B0F0BDC405000856
:100910000000264010B5041E04D1FFF767FF002831
:1009200006D008E0064B1B683F331B78834203D296
:100930002000FFF7C7FE10BDFFF79CFFEFE7C046A2
:10094000C4050008E02210B50124094B8000920084
:10095000C018835880589B069B0F9C400F2318405B
:10096000FFF7D8FF63081818210000F07BFB10BDCB
:1009700000002640144B30B51A68072413002C33AE
:100980001B781F2B15D883081D00A5432C1E0FD1E3
:1009900003342040A040814012689B002032D318CD
:1009A0000A00FF2181401C686240114061401960CB
:1009B00030BD802320401B06184380239B01126812
:1009C000C91889008850F3E7C4050008064B9A68E7
:1009D0000300064810339B00824202D19858995078
:1009E0007047034AD058FBE700ED00E00000000824
:1009F00000000010F8B506000D0000283AD00023D2
:100A0000C05E002828DB7188FFF7B4FF0024FF22B6
:100A1000032794460023F05E716883B21F40FF00F5
:100A20006646BA4089013140D243B940002815DBFF
:100A3000114E83089B009B19C026B6009F593A406F
:100A4000114399510D4B9A680D4B9A4202D12900DE
:100A5000FFF7BCFF2000F8BD0A4CD8E70F26334053
:100A6000083B064E9B089B009B19DE6932401143F0
:100A7000D961E7E7034CEDE700E100E000ED00E0BD
:100A80000000000801005600FEE7000002680A4B63
:100A900010B51A6042685A6082689A60C268DA606B
:100AA00002691A6142695A6182699A61C269DA61AE
:100AB000FFF7EAFF10BDC04690030008B0235B05B6
:100AC0005A782120002A01D05878C0B27047B0234C
:100AD0005B059A89002A02D0988980B270478020ED
:100AE0004000FBE77FB5274B86000D00F458042932
:100AF00001D0012927D100200FE0A3682B420BD1A0
:100B0000E36829001A685B6802920193039302A8C4
:100B1000236898471C4B1C606469002C0BD01B4B4E
:100B20009842EAD1012DE8D1174B18481A68184BA2
:100B30009A5104B070BD012DFBD1144B9842F3D0F3
:100B4000134B9C51F5E7022906D10F4B1B68181E69
:100B5000EFD01C6903E01C006369002BFBD100206F
:100B6000002CE6D0A3682B4209D1E36829001A685B
:100B70005B6802920193039302A823689847246953
:100B8000EEE7C046300400082C040008FF004200D5
:100B9000180400081A4B1B68190088311A68096884
:100BA00051180968016219008C31096852181268DD
:100BB00042621A0046321278002A1FD09A68E03248
:100BC0001268D2061AD5F222DB68D2019A58026066
:100BD000F022D2019A5842600A4A9A5882600A4A20
:100BE0009A58C260094A9A580261094A9A58426161
:100BF000084A9A588261084A9B58C3617047C046A8
:100C0000C405000804780000087800000C78000093
:100C10001078000014780000187800001A4B1B6848
:100C20001A008832196812688A18016A11601A005D
:100C30008C32196812688A18416A11601A004632AB
:100C40001278002A1ED09A68E0321268D20619D5AE
:100C5000F0224168DB68D201995081680B4A9950B3
:100C6000C1680B4A995001690A4A995041690A4A78
:100C700099508169094A9950C169094A9950016896
:100C8000E83299507047C046C40500080478000057
:100C9000087800000C78000010780000147800003C
:100CA00018780000F7B50700FFF708FF664D06004B
:100CB0006B68002B00D07DE0FFF70FFA6B680090A7
:100CC000002B00D089E0614C22681300BA331988E8
:100CD00007234B43126A9B181A68002AFCDADB6868
:100CE000DA0021D51B0F1B0759480193FFF752FF6C
:100CF0005849212E00D075E02268902013008833D7
:100D00001C68136800011C1923680B40034323600F
:100D100013008C3312681B68D3181A6811400843FB
:100D200018604B4B019A13438022484E920531685C
:100D300013430A00BA321088072200244243096A8A
:100D40005218D36054605368FFF7C1FE80235B00E4
:100D500098425DD1380000F05BFB32681300BA3373
:100D6000198807234B43126A9B181A68002AFCDA79
:100D7000DF68FB0003D538010009FFF74FFF364B52
:100D800032681F401300BA33198807234B43126A95
:100D900000989B180022DF605A60FFF7A2F9002C30
:100DA0000FD16B68002B03D008210120FFF79AFEBA
:100DB0002000FEBD01210800FFF794FE041E00D1B3
:100DC0007AE76B68002B03D002210120FFF78AFE2F
:100DD000224B9C42ECD0224CEAE704210120FFF791
:100DE00081FE70E720688022030088331C68036856
:100DF00052001C1923680B401343236003008C33FB
:100E000000681B68C318186801400A431A6088E725
:100E100033681A00BC32196A126852181168002926
:100E200010DBBA331B889A181368002B0ADB0423E3
:100E30000C4A11690B431361012F01D030BF8CE7BD
:100E400020BF8AE7054C88E730040008C405000885
:100E5000F0030008FF00FFFFFFFFFFDF0500420077
:100E6000FF00420000ED00E0C02280200649520051
:100E70008B58C0059B009B0803438B5080238858E8
:100E80001B0603438B5070470000264010B562B626
:100E9000034800F0C1F80020FFF704FFFBE7C0465D
:100EA0000020001010B50020FFF7F8FA10BD7047C1
:100EB00010B50020FFF746FD041E25D0134B186027
:100EC000FFF7BCFB411C200000F0CCF8104B0400E5
:100ED0001860FFF7A5FB411C200000F0C3F80D4B84
:100EE000441E18600C49200000F0BCF8FA210B4B9E
:100EF000013018708900200000F0B4F8084B013070
:100F00001860084BC003186010BDC046840000087C
:100F1000880000088000000840420F00940000088C
:100F2000900000088C00000810B52048FFF71CF95D
:100F3000B022E02130201E4CD200A35889005B0073
:100F40005B08A35063588343635080235B04A35022
:100F5000184B194AE250A02204339201E250FF22BA
:100F6000164BE250FFF780FFC02201215200A35828
:100F70008B43A350FFF79BFFFFF79AFF104B032013
:100F80001A681300BA33198807234B43126A802169
:100F90009B180022DA605A600A4AFFF7C7FA0A482B
:100FA000FFF79AF90948FFF7D3F910BD2014001094
:100FB0000000264084050000010002008C050000AE
:100FC000C40500088003000844040008E014001071
:100FD0009023034A5B01D058032318407047C04652
:100FE0000000204010B59024FFF777F8074B64010C
:100FF0001A5907491140074A0A431A5110225968E1
:101000001142FCD0FFF76DF810BDC0460000204033
:10101000FCFF00000100FA05F8B590250E4C6D01AB
:101020000700FFF75AF863590600DB439B0701D11D
:10103000FFF7D8FF80239B00E7506359074A1A4007
:10104000074B13436351102362681A42FCD03000EF
:10105000FFF747F8F8BDC04600002040FCFF000045
:101060000300FA05002243088B4274D303098B4224
:101070005FD3030A8B4244D3030B8B4228D3030C68
:101080008B420DD3FF22090212BA030C8B4202D30A
:101090001212090265D0030B8B4219D300E0090A32
:1010A000C30B8B4201D3CB03C01A5241830B8B423B
:1010B00001D38B03C01A5241430B8B4201D34B0324
:1010C000C01A5241030B8B4201D30B03C01A524189
:1010D000C30A8B4201D3CB02C01A5241830A8B420E
:1010E00001D38B02C01A5241430A8B4201D34B02F7
:1010F000C01A5241030A8B4201D30B02C01A52415B
:10110000CDD2C3098B4201D3CB01C01A524183090E
:101110008B4201D38B01C01A524143098B4201D348
:101120004B01C01A524103098B4201D30B01C01A73
:101130005241C3088B4201D3CB00C01A52418308ED
:101140008B4201D38B00C01A524143088B4201D31A
:101150004B00C01A5241411A00D20146524110467A
:101160007047FFE701B5002000F006F802BDC04659
:101170000029F7D076E770477047C046002B11D1A1
:10118000002A0FD1002900D1002802D00021C94334
:10119000081C07B4024802A14018029003BDC046D3
:1011A000D9FFFFFF03B4684601B5029800F030F89C
:1011B000019B9E4602B00CBC7047C046F0B5CE46BF
:1011C000474615042D0C2E0080B50704140C3F0C67
:1011D0009946030C7E435D43674363437F19340C98
:1011E000E4199C46A54203D980235B029846C44477
:1011F0004B4643435143250C36046544360C2404C6
:10120000A4195B19591820000CBC90469946F0BDF2
:10121000F0B54F464646D646C0B5040082B00D0034
:10122000914698468B422FD82CD04146484600F034
:10123000CFF829000600200000F0CAF8331A9C46B7
:10124000203B9A4600D576E04B46524693401F001D
:101250004B46624693401E00AF4228D825D05346E5
:10126000A41BBD41002B00DA7BE00022002300928A
:101270000193012352469340019301236246934018
:10128000009318E08242D0D90022002300920193FB
:101290000A9B002B01D01C605D600098019902B090
:1012A0001CBC90469946A246F0BDA342D7D9002265
:1012B0000023009201936346002BE9D0FB07984678
:1012C000414672080A437B0866460EE0AB4201D1F4
:1012D000A2420CD8A41A9D41012024196D4100217D
:1012E000013E24184D41002E06D0AB42EED9013EFE
:1012F00024196D41002EF8D1009801995346001928
:101300006941002B23DB2B005246D3402A00644660
:10131000E2401C0053461500002B2DDB26005746EB
:10132000BE40330026006746BE403200801A994115
:1013300000900191ACE7624620239B1A4A46DA40AE
:101340006146130042468A4017001F4380E7624609
:1013500020239B1A2A0066469A402300F340134339
:10136000D4E76246202300219B1A002200910192BB
:101370000122DA40019280E72023624626009B1A70
:10138000DE402F00B0466646B74046463B0033433A
:10139000C8E7C0461C2101231B04984201D3000C5E
:1013A00010391B0A984201D3000A08391B099842D8
:1013B00001D30009043902A2105C40187047C046EE
:1013C000040302020101010100000000000000000E
:1013D00010B5002903D1FFF7DDFF203002E0081C23
:1013E000FFF7D8FF10BDC04603001218934200D18A
:1013F000704719700133F9E7F8B5C046F8BC08BC6E
:101400009E467047F8B5C046F8BC08BC9E4670477B
:1014100001B40248844601BC604700BF6102000875
:1014200000002040000024400000004000000000B8
:1014300000002340000030400000314000009F4089
:10144000000022400000104000009D40202020208D
:1014500020101010101D1D8017007500FF030602DC
:1014600006003604102000007FC0000000040000C9
:10147000000000000019324B647D00000000008075
:101480004000080B100000000000FF012002001FB8
:1014900000800004FF081018001000140018001C41
:1014A0004044484C500000000810000008000000B4
:1014B00004000000041000000012000004210000DD
:1014C000002100000016000040114002C413001368
:1014D0008013A01340138813A81320001C000000E1
:1014E00003000000010000000100000000000000F7
:1014F000050360000400000001000000000000007F
:10150000010000000604600008000000A4050008B7
:10151000A50E001000000000F8FCFF7F0100000095
:1015200000000010000000088000000040150010BE
:1015300080000008F8020000B00300081802000054
:1015400000093D0000127A0000093D000000D007AC
:10155000A00F000004000000A9000010810000108E
:1015600080B230B5C00020D0104B07221C68230089
:10157000BA331B885A43236AD31819680029FCDA46
:101580003E210B4B062519600A4B0B491960A3211C
:101590000A4BC9005D500A4958505858206A121821
:1015A000002050605A58002AFCDA30BDC4050008FB
:1015B00004012640080126401E1F000000002640AE
:1015C0001C05000010B54378FF2B11D100F0ECF89A
:1015D0000400032000F0F8F8C3685A68012311687A
:1015E0001943116011681942FCD1200000F00CF978
:1015F00010BDF7B500900020019100F0E5F83F4DD7
:1016000006002B681A005033BC3214681B7804198A
:10161000002B5AD000F0E0F8070003281BD000F0A0
:10162000C3F8374A374B0500D358002B3EDA364A09
:101630000121300000F0F0F8002837D10198FFF7C1
:101640008FFF009B002B3ED02368002BFCDB00F0BB
:10165000B3F804002BE0062000F0B6F82B68BC338A
:101660001B68C0180368002B02DA284C2000FEBD5E
:10167000002000F0B9F8264B9842F6D00023254A06
:1016800019001268012000F0B7F80025A842ECD13B
:10169000002000F0A9F81E4A1F4B904203D09D4243
:1016A000E3D00135F4E79D42B9D1DEE7174C032FB3
:1016B00005D10121002000F0B7F80028F9D1280059
:1016C00000F0A2F8D2E7154CF1E700F06DF80E4AF1
:1016D00005000121300000F09FF8002809D1009B8F
:1016E000002B08D02368002BFCDB00F065F8040019
:1016F000E5E7064CE3E7094CE1E7C046C40500080E
:10170000000026401C050000CC0300080500520024
:1017100001018800DC030008F049020001005000CC
:10172000184BF7B51B68184A5C68042311690B4312
:101730001361012824D030BF2300FC331B69002B28
:101740001DD1A320114B1249124AC0000F681E5828
:1017500015680195104D0D6006251D503E20106046
:101760000E483E351D501D58002DFCDA0C48FC3447
:1017700020610F60A321C9005E50019B1360F7BD7B
:1017800020BFD9E7C405000800ED00E000002640B6
:1017900008012640040126401E1F00001C05000011
:1017A000AAAAAAAA0000000001B40248844601BC0B
:1017B000604700BFDB00001001B40248844601BC52
:1017C000604700BF3902001001B40248844601BCE2
:1017D000604700BF7501001001B40248844601BC97
:1017E000604700BFD10F001001B40248844601BC1D
:1017F000604700BFE905001001B40248844601BCFF
:10180000604700BFB903001001B40248844601BC20
:10181000604700BFE300001001B40248844601BCE9
:10182000604700BF9D02001001B40248844601BC1D
:10183000604700BF750500100000000000000000B8
:101840000000000000000000000000000000000098
:1020000000F80F08252300100D0000009923001090
:10201000992300109923001099230010000000005C
:10202000000000000000000000000000B16400108B
:10203000952300100000000051650010516400104D
:102040009523001095230010952300109523001070
:102050009523001095230010952300109523001060
:102060009523001095230010952300109523001050
:102070009523001095230010952300109523001040
:1022E00010B5054C237833B9044B13B10448AFF350
:1022F00000800123237010BD642C00080000000042
:10230000F4840D1008B5034B1BB103490348AFF328
:10231000008008BD00000000682C0008F4840D1047
:1023200070477047FFF7FCFF72B6144C144DAC4277
:1023300009DA21686268A368043BA2BFC858D0507C
:10234000FAE70C34F3E70F490F4A00209142BCBF73
:1023500041F8040BFAE70D480D490860BFF34F8FB1
:1023600000F03CFA00F020FA03F0C0FE54F088F9C7
:1023700000F088FA54F03EF9FEE7000000850D10E9
:1023800018850D10642C0008802F0108002000081B
:1023900008ED00E0FEE7FEE700B5042071460842C4
:1023A00002D0EFF3098001E0EFF30880043044F03D
:1023B00085FDFEE708B500F0ADF800F007F800F085
:1023C0009BF800F017F800F01DF808BD08B50021D3
:1023D000084643F063FCFF220021084643F0DCFA84
:1023E0000021084643F01CFC01483CF08FF808BD72
:1023F00030CC051008B5002211462F2043F0D8FB41
:1024000008BD000010B5264C264A002120463FF0AA
:10241000BFFD25483CF07AF8244A012120463FF0D0
:10242000B7FD23483CF072F822483CF06FF804F501
:102430004074214A042120463FF0AAFD1F483CF089
:1024400065F81F4A062120463FF0A2FD1D483CF0DA
:102450005DF81D4A072120463FF09AFD1B483CF0DD
:1024600055F81B483CF052F81A483CF04FF81A480F
:102470003CF04CF819483CF049F819483CF046F853
:1024800018483CF043F818483CF040F817483CF036
:102490003DF817483CF03AF816483CF037F810BDC4
:1024A0000000314008CD05103CCD051040CD051091
:1024B00074CD05105CCC0510D0CC051004CD0510F2
:1024C00098CC0510CCCC051060CC051094CC051030
:1024D00034CC051038CC05103CCC051040CC051090
:1024E00044CC051048CC05104CCC051050CC051040
:1024F00054CC051058CC0510044B332242F208018D
:102500005A5042F210015A50704700BF000030404C
:10251000FEE7000030B583B09621002044F020FD96
:1025200044F0B0FCB0B9724B1C6804F03F0444F0B6
:1025300099FC30B1012044F08BFC6E4B9B6C002B5E
:1025400023DB6B4B1C6043F02BFE43F017FE012096
:1025500043F03AFE012045F045FA45F0EDF945F02B
:10256000C5FA45F0AFFA0021084643F0A7FD002068
:1025700043F012FD012043F0F7FC002043F00AFC79
:102580005D4B1B6893F83F4006E00620FFF7C0FF55
:10259000204644F075F8013C002CF9D100210120BF
:1025A00043F080FE002043F077FD002800F0848097
:1025B00043F02CFF0021084643F074FE002108463A
:1025C00043F04AFD4D4D0024009423462246214607
:1025D00028463FF0E3FB009423462246012128468B
:1025E0003FF0DCFB464843F0A3FD002870D10120FA
:1025F00043F0A2FC002043F0CFFC002043F0B4FCE9
:10260000002043F0C7FB0021012043F04BFE0021D6
:10261000084643F047FE0021022043F043FE00211C
:10262000032043F03FFE0021042043F03BFE002145
:10263000052043F037FE334843F002FF00284AD11B
:10264000314843F0ADFF002848D10021084643F04F
:1026500003FD0021084643F031FD2C49012044F0E0
:1026600035F800283DD142F21071012044F0B6F84F
:10267000002839D1002043F0F7FB43F07FFD012013
:1026800043F0A2FD6421002044F06AFC00F052F8FF
:102690001F483BF03BFF1F483BF038FF1E483BF014
:1026A00035FF1E483BF032FF1D483BF02FFF1D4811
:1026B0003BF02CFF03B030BD43F022FE40F211137B
:1026C00098427FF475AF0121002043F0C5FC6FE70D
:1026D0000520FFF71DFF0420FFF71AFF0420FFF776
:1026E00017FF0320FFF714FF0320FFF711FF00BFC0
:1026F00000FF274000002740742A010800003140F5
:1027000040420F0078CD0510400D0300A4CD051008
:102710008CCD051090CD051094CD051098CD0510E9
:102720009CCD0510A0CD051008B501203FF05CFE42
:1027300008BD704710B5002044F06EFA00B910BD16
:102740000446114B186043F01DFC0130B4FBF0F05F
:102750000E4B186043F02EFC0130B4FBF0F40C4B30
:102760001C60013C0B4BA3FB04239B0C01330A4A66
:1027700013700A4BA3FB04239B090133084A13601F
:10278000DB03084A1360DAE7E4220008E8220008C5
:10279000E022000883DE1B43F4220008D34D6210C0
:1027A000F0220008EC22000808B509483EF0CEFFF0
:1027B000FFF7BFFFFFF7BEFF0022114603203FF0E7
:1027C0005FFE04483FF0DEFC03483FF02FFD08BDEC
:1027D000D4C30610802C0008ACCD051008B500F05D
:1027E00058FD074AD2F8883043F47003C2F88830A5
:1027F000BFF34F8FBFF36F8F00F04FFD08BD00BFD9
:1028000000ED00E008B5044844F02AFD08B10020BE
:1028100008BD0248FCE700BFF822000800000206DD
:1028200000487047082E000810B584B03BF06CFEDD
:10283000044638B154B1FFF7BDFD6CB184B12046F8
:1028400004B010BD3EF0D8F80446F3E740F6E4418A
:1028500000203EF063F9EEE7FFF7D4FF0446EDE712
:1028600013230293122301931123009310231522A3
:10287000142102483DF0A4FA0446E0E7082E0008BF
:102880007047000010B582B0FFF7CEFF00B101BE67
:1028900062B64FF4E1322821292045F0B9FA0E48FA
:1028A00055F088FB0D4855F00BFC0D4855F008FC21
:1028B0000C4855F005FC00240194022300932346A4
:1028C0004FF400620849094804F05FFF04F0F2FF8A
:1028D00001BE204602B010BDE0CD0510ECCD0510C4
:1028E0002CCE051044CE051088CE0510CD2C00103E
:1028F00010B584B039F05EFF50BB1D4A136843F039
:10290000040313604FF4007003F044FF194B186088
:1029100018B3174A136843F008031360164B029369
:1029200000230193154B0093154B164A12684FF480
:10293000007139F099FF0446A8B90D4A136843F0B5
:1029400010031360104855F0BBFB204604B010BDC7
:1029500004460E4855F0B4FBF7E70D4855F0B0FBC0
:102960004FF0FF34F1E70B4855F0AAFBEDE700BF4D
:102970006C740008782E000870740008592C001040
:10298000142300087C23000860DF051014DF051005
:102990003CDF05108CDF051030B5A5B048F05EFDBA
:1029A00018B10025284625B030BD6C22002109A8A9
:1029B00053F0EAFF2A4B06AC0FCB07C42380294B08
:1029C00007CBCDF83900CDF83D10CDF841201B885C
:1029D000ADF84530244B1F9306A9244855F0EAFA78
:1029E00000242546772C32D801A906A848F01EFB02
:1029F000054668B1C4F1770341F2883201461C48AC
:102A000055F0D8FA41F2883005F0DCF80134E9E7F6
:102A100006A9184855F0CEFA174A136843F0020386
:102A200013609DF80430042B09D0062BBAD102A8FC
:102A30000EF092F80146114855F0BCFAB2E702A830
:102A40000CF08EF901460E4855F0B4FAAAE70D488D
:102A500055F036FB0A210C4855F0ACFAA2E700BF4E
:102A6000ACDF0510BCDF051004004000CCDF051012
:102A700054E00510ECDF05106C74000838E0051018
:102A80001CE00510B4E00510E4E0051010B50446A4
:102A900003F079F80346064A1821204655F048FC11
:102AA000002801DB002010BD4FF0FF30FBE700BF26
:102AB0001CE1051070B588B002AC344D0FCD0FC4C9
:102AC0002B6823800023CDF81A30ADF81E30304B30
:102AD000304A9A60304A1A610A229A810F229A82F9
:102AE00002A8FFF7D3FF054688B9294E02AC34602F
:102AF000204655F0CDFC81B2B180284B1A68009277
:102B00009B882246264855F055FA2C4617E0254862
:102B100055F0D6FA2FE01E49234B186839F0D0FF44
:102B2000054600B3C4F195034FF4FA6201461F480D
:102B300055F040FA4FF4FA6005F044F80134952C52
:102B40001CD848F08BFC0028E5D1194855F0B8FA9C
:102B5000184A136823F002031360FFF71DFF0546B0
:102B60000028D8D007E0144855F0AAFA114A136893
:102B700043F020031360284608B070BD0F4855F09D
:102B80009FFA05210E4855F015FAF4E780E5051087
:102B90001C23000834E1051040E10510142300084F
:102BA00050E105108CE105107074000840E205103A
:102BB000D0E105106C74000820E2051094E20510C5
:102BC000C0E2051008B51F4B1B6813F0200F19D188
:102BD0001C4B1B6813F0100F1CD11A4B1B6813F011
:102BE000080F1CD1174B1B6813F0040F1CD1154B99
:102BF0001B6813F0020F1AD1124B1B6813F0010F60
:102C00001DD108BD104855F05BFA104B18683AF01A
:102C100009FBDDE70D4B18683AF03CFBDDE70C4B98
:102C2000186803F0C7FDDDE73AF082FBDFE748F004
:102C30009FF90028E0D1074855F042FADCE748F058
:102C40003DFDDEE76C740008F4E2051070740008C6
:102C5000782E00081CE3051084B000B583B005A8E9
:102C600080E80E009DF81430D3B1012B21D1134A16
:102C7000136823F020031360114855F021FA022352
:102C80008DF8073000234FF0FF320DF107010D489A
:102C9000006803F043FF03B05DF804EB04B0704735
:102CA000064A136843F04003136007A800F0A0FA37
:102CB000F1E7054855F004FAEDE700BF6C74000831
:102CC0003CE30510687400086CE3051010B588B08B
:102CD00000228DF80C200121032003F0C1FE5D4B82
:102CE000186003A847F0E6FF08BB5B4A136843F08F
:102CF00001031360594855F0E3F9FFF74DFEC8B9D9
:102D0000FFF7F6FDB0B9FFF7D5FE98B9544B019324
:102D10000223009300234FF480625249524804F08A
:102D200034FD012822D0514855F0CAF902E050483C
:102D300055F0C6F94F4855F0C3F9494B186808B12A
:102D400004F058FD4C4B186808B104F053FD4B4B90
:102D5000186808B104F04EFDFFF734FF484855F0FD
:102D6000AFF9002004F046FD08B010BD4FF4FA6042
:102D700004F028FF404B01930223009300234FF4FB
:102D800080624049404804F000FD012803D03F48DC
:102D900055F096F9CEE7394B0193032300930023B6
:102DA0004FF480623A493B4804F0EFFC012803D01D
:102DB000394855F0FFF8BDE73848FFF761FD1BE0E3
:102DC000374855F07DF9FFF775FE0028B2D1002491
:102DD0008DF81C4023464FF0FF3207A931480068A8
:102DE00003F09CFE8DF8104023464FF0FF3204A9FB
:102DF0002D48006803F092FE4FF0FF320DF11F01E5
:102E0000144B186804F062F80128F5D19DF81F30C2
:102E1000022BF1D101238DF8103000234FF0FF3247
:102E200004A92148006803F079FE204B18683AF0A5
:102E3000F9F948F013FB0028C2D1074A136823F0C0
:102E4000020313601A4855F03BF9FFF7A5FD00286F
:102E5000B6D06FE7687400086C740008CCE3051006
:102E600084740008F4E305106531001004E40510D3
:102E700098E3051024E505107874000874740008C0
:102E800054E505102CE40510812F00103CE40510DA
:102E900060E405103D30001078E40510A8E405104A
:102EA00004E50510807400087C7400087074000844
:102EB000E0E4051008B501230222002104203BF0C4
:102EC000F1F80022084904203BF032F901230522E1
:102ED000022104203BF044F9044B5B68044A054995
:102EE000054855F067F808BDFD2E00108023000846
:102EF00098E50510A4E50510ACE5051000B585B012
:102F00000023039302238DF800300F4B02930F4BE5
:102F10001B68ABB90E4B0193002303AA69460D4809
:102F2000006803F0F5FE039B3BB10B4B4FF0805262
:102F30001A60BFF34F8FBFF36F8F05B05DF804FBCE
:102F4000064B0193E8E700BFF4E505109423000861
:102F500098E505107C74000804ED00E0A4E5051078
:102F600008B50022114604203BF0E2F800230522B8
:102F7000022104203BF0F4F804203BF0C1F908BD25
:102F800070B584B0FFF796FF00220C21032003F0F8
:102F900067FD234B186001E0FFF7E2FF4FF0FF32BF
:102FA00001A91F4B186803F091FF0128F6D19DF885
:102FB0000430012BF0D0022B04D0002BEED1FFF710
:102FC00079FFEBE7039E174C6660304655F060FAD8
:102FD0002081029DE560284655F05AFA206132466C
:102FE0002946114854F0E6FF2146104B186839F085
:102FF00055FE014618B90E48FFF742FCCEE70D48D2
:1030000054F0D8FF01238DF8033000234FF0FF3236
:103010000DF103010848006803F080FDEBE700BFF5
:103020007C7400088023000800E605107074000816
:103030006CE6051034E605106874000810B52DED37
:10304000028B88B002238DF81430502053F056FCC8
:103050000446002003F07CF855F03AF8164B07932D
:1030600042F2107004F0AEFD55F060F8134B83FB94
:103070000023A3EBE07303EB4303C31A153307EEFE
:10308000903AB8EEE78A002003F062F8029018EE5A
:10309000100A52F077FDCDE90001012208492046CF
:1030A00055F07AF9069400234FF47A7205A9054881
:1030B000006803F033FDD1E7A0E6051056555555DD
:1030C000ACE605107C74000830B583B000242546BA
:1030D00004E04FF47A7004F075FD0134022C0ED830
:1030E00001221149114B186839F0CEFE054600281F
:1030F000EFD10D4B5A6819890D4854F05BFF0DB99B
:1031000003B030BD032229460A4854F053FF002380
:103110008DF807304FF0FF320DF1070106480068C7
:1031200003F0FCFCECE700BF982300087074000873
:10313000E0E605101CE705106874000808B50122D8
:103140000549064B186839F0A9FF00B908BD0146CA
:10315000034854F02FFFF9E7982300087074000823
:103160005CE7051000B583B00123022219466F20E9
:103170003AF098FFFFF7A8FF00220221012003F098
:103180006FFC174B186001E0FFF7D8FF4FF0FF32DC
:1031900001A9134B186803F099FE0128F6D19DF898
:1031A0000430012BF0D0022B04D0002BEED1FFF71E
:1031B0008BFFEBE79DF805200A4B1B689869003AE6
:1031C00018BF0122072100F5D0603EF049FE9DF8AE
:1031D0000520054B1A600548FFF752FBD6E700BFF4
:1031E00080740008742A01089423000894E70510ED
:1031F00030B585B0C56804690195009490F9003038
:1032000042680189174854F0D5FE02238DF80C302E
:10321000072C17D0082C20D122462946124855F0F9
:103220003FF9D0B901238DF80D301048FFF728FB86
:1032300000234FF0FF3203A90D48006803F06EFC35
:1032400005B030BD224629460A4855F029F9002824
:10325000E0D100238DF80D30E7E7074854F030FF48
:10326000EEE700BFC0E7051098E5051078E8051007
:1032700080740008A4E505103CE80510000000007B
:103280000230800803D001300238FCD100BF00BFFB
:103290007047EFF3108072B6704780F31088704764
:1032A000034B0360034B0B6080231360704700BF28
:1032B00094340008942E0008034B0360034B0B600A
:1032C0004FF4807313607047903500089430000805
:1032D00070B582B00546002301931F4B1B68C3B134
:1032E0001D4B1B689BB1FFF7D4FF044604F074FE2E
:1032F00050B14FF47A7000FB05F01849A1FB003182
:103300008E09B0F57A7F0ED22046FFF7C6FF02B0D5
:1033100070BD13483BF050FC18B90F4B104A1A60AF
:10332000DEE701BEDCE7012301AA31460A48006856
:103330003DF096FB0028E7D1019BB34200D901BEC6
:10334000019B4FF47A7000FB03F0044BA3FB0030A9
:10335000800904F015FBD7E77C2E0008D34D6210DE
:10336000802E000808B505F0F7F903680BB1406836
:10337000984708BD2DE9F04784B00C9D002843D044
:103380000F4690461C468146B5F5967F3ED313B155
:1033900013F0070F3ED184B3002606F5847003F0C6
:1033A000F9F98246002837D025F00705AD083CB36F
:1033B000564403220021012003F052FBC6F8FC0012
:1033C00000B3184BC6F80031C6F804A116F0070F79
:1033D00000D001BE029601949DF8343000930E9BFC
:1033E0002A464146384604F08FF9C9F80000864263
:1033F00014D0A8B101BE002009E025F00706CCE7F3
:103400000446D5E701BEDCE7074800E0064804B003
:10341000BDE8F0870548FAE70548F8E70020F6E739
:103420000020F4E701EFCDAB05000E0606000E0606
:1034300001000E0610B504F0F3FD0446D0F800219B
:10344000074B9A4204D001BE204604F085FCFBE7FE
:1034500000231A461946D0F8FC0003F05FFBF3E79F
:1034600001EFCDABE0B110B50446006804F0C2F93D
:10347000246804F077FAD4F800210A4B9A4203D06A
:1034800004F024FB002010BD0023C4F80031D4F860
:10349000FC0003F049FFD4F8040103F08BF9EFE7D7
:1034A0000148704701EFCDAB05000E06A8B110B57D
:1034B00004460368D3F80011094A914203D0002062
:1034C0000023236010BD4FF0FF31D3F8FC0003F060
:1034D000ABFD2046FFF7C6FFF2E70248704700BF8A
:1034E00001EFCDAB05000E0680B110B504460171A9
:1034F00031B1042003F0E0FB206028B1002010BDB2
:10350000012003F0D9FBF7E70148F8E701487047CD
:1035100001000E0605000E06B0B108B54FF47A732F
:1035200003FB01F1094BA3FB0131890903792BB19D
:10353000006803F049FE28B1002008BD006803F0D0
:1035400073FDF8E70248F8E702487047D34D621070
:1035500000000E0605000E0688B110B503792BB1E8
:10356000006803F0B4FB40B1002010BD00231A46F0
:103570001946006803F0D2FAF5E70248F5E7024879
:10358000704700BF02000E0605000E0628B108B500
:10359000006803F0C9FE002008BD0148704700BF65
:1035A00005000E0660B110B50B46114604461846DC
:1035B00003F094FA206008B1002010BD0148FCE738
:1035C0000148704701000E0605000E0610B582B0D6
:1035D00000230193D0B1044602B1C9B94FF47A7304
:1035E00003FB01F10D4BA3FB0131890942B101AA93
:1035F0000021206803F009FE60B1002002B010BD78
:10360000206803F011FD38B10020F7E70448F5E722
:103610000348F3E70348F1E70248EFE7D34D6210B0
:1036200005000E0600000E0610B582B000230193BF
:10363000D8B171B101A9006803F0E1FB019B73B13E
:103640000B4B4FF080521A60BFF34F8FBFF36F8F59
:1036500005E000231A461946006803F05FFA10B12E
:10366000002002B010BD0348FBE70348F9E700BFA4
:1036700004ED00E002000E0605000E0628B108B5B4
:10368000006803F051FE002008BD0148704700BFEC
:1036900005000E0668B110B50B461146044600221F
:1036A000184603F0DDF9206008B1002010BD024883
:1036B000FCE70248704700BF01000E0605000E0639
:1036C000C8B110B5C9B13BB100231A46006803F078
:1036D0001FFB70B1002010BD4FF47A7303FB02F2A0
:1036E000074BA3FB023200239209006803F016FA8D
:1036F000EFE70448EFE7044870470348EBE700BFF3
:10370000D34D621002000E0605000E06B8B110B5CA
:10371000B9B133B10022006803F077FD68B1002031
:1037200010BD4FF47A7303FB02F2074BA3FB023286
:103730009209006803F0CAFBF0E70448F0E7044888
:1037400070470348ECE700BFD34D621002000E063D
:1037500005000E0628B108B5006803F0E5FD00205D
:1037600008BD0148704700BF05000E0630B32DE9C3
:10377000F04182B014461D4607460AB3B1B94FF076
:103780000108082053F0BAF80646D8B10460456035
:103790000D4B00930346424601210C4804F014FEF1
:1037A000386030B1002002B0BDE8F0814FF0000871
:1037B000E7E7304653F0AAF80548F4E705487047B4
:1037C0000448F0E70248EEE7653300103451061074
:1037D00001000E0605000E0618B310B582B00446AF
:1037E0004FF47A7202FB01F20F49A1FB023200236F
:1037F000009392090421006804F002FE012803D01E
:1038000068B1002002B010BD246804F0B3F802468D
:10381000002300930121204604F0F2FDF0E7034865
:10382000F0E70348704700BFD34D621002000E0658
:1038300005000E0670B110B582B00022009213464A
:103840000321006804F0DCFD10B1002002B010BDBF
:103850000148FBE70148704702000E0605000E060E
:1038600058B110B50C4651B1006804F05AFF003849
:1038700018BF01202070002010BD02487047014889
:10388000FAE700BF05000E06B0B130B583B00546BB
:10389000006804F061FF04460022009213460521EF
:1038A000286804F0ADFD10B9044803B030BD2046CF
:1038B00053F02CF80020F8E70148704702000E068C
:1038C00005000E0630B110B5044604F053F8206030
:1038D000002010BD0048704705000E0608B54FF4E3
:1038E0007A7303FB00F0044BA3FB0030800904F063
:1038F00069F9002008BD00BFD34D621010B582B039
:10390000044600234FF0FF3269462046FFF7FEFED3
:103910000028F6D1009B13B101989847F1E7FFF713
:1039200089FD02B010BD000070B584B004460E469B
:1039300001B100B901BEB36813B1736803B901BE28
:10394000002323606360A360E360316901B9102143
:1039500008222046FFF79EFE054680B90123237307
:1039600004F10800F2686AB1029433780193736835
:103970000093B3680749FFF7FDFC054620B92846C8
:1039800004B070BD044AEFE7002323732046FFF71D
:10399000E1FEF4E7FD38001094E8051070B582B040
:1039A0000446FFF776FC0546237B002B3ED0012B17
:1039B00013D00026237B042B29D1237BBBB32846BD
:1039C000FFF76BFC2046FFF7C5FE064690BBFFF7EE
:1039D00060FC05460023237329E003232373FFF7CC
:1039E0005CFC002200920192EFF305839B1A18BF42
:1039F000012369462046FFF763FE06460028D9D01A
:103A0000FFF747FC01232373FFF747FC12E028462A
:103A1000FFF743FC04F10800FFF748FD064648B9EC
:103A2000FFF737FC054604232373C6E70026284624
:103A3000FFF733FC304602B070BD000070B582B0B5
:103A40000D461646044640B34DB3FFF722FC237BD8
:103A5000013BDBB2012B24D863680133636002238E
:103A60002373FFF71AFC00950196EFF30583003BE3
:103A700018BF0123002269462046FFF721FE0546B4
:103A8000FFF707FC6368013B63600BB901232373F5
:103A9000FFF703FC284602B070BD01BED4E701BEAB
:103AA000D3E7FFF7FAFB014DF4E700BF20000E0655
:103AB000401A70470238032803D8DFE800F00A04F0
:103AC0000608002070475020704762207047702021
:103AD00070474020704720B129B132B13BB100207E
:103AE0007047012070470120704701207047012076
:103AF000704748B151B10B7803B14AB10B694BB172
:103B0000CB684BB1002070470120704701207047FF
:103B10000120704700207047012070472DE9F047D1
:103B200068B10F4615460646836E7BB1426DA2B161
:103B3000D1B1984780464FF00009CA462FE0264B86
:103B4000264A40F25E21264852F058FC254B234A73
:103B500040F25F21224852F051FC234B1F4A4FF4A0
:103B600018711F4852F04AFC204B1C4A40F2612158
:103B70001B4852F043FC1E4B184A40F27E21184865
:103B800052F03CFCB36E98474146FFF791FF09287D
:103B900005D94FF0010902E04FF00109A2469DB19D
:103BA000B9F1000F10D1736D2A463946B06D9847B0
:103BB000041EF1DBE6DDB36E98478046AC42DAD8EE
:103BC0002D1BA2442744EAE7BAF1000F01DDC6F835
:103BD00070805046BDE8F087A0E805102CEB05107A
:103BE000B4E805101CE9051038E9051064E9051072
:103BF00074E905102DE9F04F83B0A8B10D46804659
:103C0000036E8B4217D3D0F868B0BBF1000F19D008
:103C1000D0F850A0BAF1000F1BD0C66D06B3D8473C
:103C200001900027B94633E0244B254A40F2D621C3
:103C3000244852F0E3FB244B214A40F2D72121488B
:103C400052F0DCFB214B1E4A4FF436711D4852F0F6
:103C5000D5FB1F4B1A4A40F2D9211A4852F0CEFB2D
:103C60001C4B174A40F2DA21164852F0C7FB1A4B98
:103C7000134A40F2FA21134852F0C0FBD847019989
:103C8000FFF716FF092803D9012701E00127A14604
:103C900085B17FB92A463146D8F85800D047041E6E
:103CA000F4DBEBDDD8470190AC42E0D82D1BA144FA
:103CB0002644EDE7484603B0BDE8F08FA0E80510C4
:103CC00050EB0510B4E805109CE905101CE905103F
:103CD000C8E90510F4E905101CEA05102DE9F84FB4
:103CE00068B10E4693468046D0F868A0BAF1000F3E
:103CF0000CD0046ED047814600273D4614E0164B99
:103D0000164A40F22231164852F078FB154B134AFE
:103D100040F22331124852F071FB21464046FFF732
:103D200069FF844208D00127B5420ED26FB9731BD8
:103D3000A342F2D21C46F0E70544D0474946FFF7BC
:103D4000B7FE5845F0D30127EEE7B54202D0042074
:103D5000BDE8F88F0720FBE7A0E805105CEB051035
:103D6000B4E805101CE9051010B584B004AC04E9F2
:103D70000E0058B1C26D82B1039C026E944213D9F9
:103D8000069A2146FFF7AAFF04B010BD0B4B0C4A60
:103D900040F25F310B4852F031FB0B4B084A4FF4B5
:103DA0005871084852F02AFB2146FFF723FF84424E
:103DB00001D00420E8E70020E6E700BFA0E80510F6
:103DC0006CEB0510B4E80510F4E9051050280FD08D
:103DD00062280FD040280FD0702801D103207047EF
:103DE00008B5064B064A40F2C121064852F006FBD0
:103DF00001207047022070470020704744EA0510F8
:103E000038EB0510B4E8051070B5A0B10C461546A6
:103E10000646B9B1EAB1C16D11B323690BB1E368CC
:103E20002BB32A463046FFF779FE85422FDC226904
:103E300022BB002070BD184B184A40F27951184837
:103E400052F0DCFA174B154A40F27A51144852F0FE
:103E5000D5FA154B114A40F27B51114852F0CEFA77
:103E6000124B0E4A40F27C510D4852F0C7FA104BEB
:103E70000A4A40F27D510A4852F0C0FAE1683046E1
:103E8000FFF74CFE2369834203DC0020D2E70320C6
:103E9000D0E70320CEE700BFA0E80510F4EB051043
:103EA000B4E805106CEA051084EA0510F4E9051081
:103EB00094EA05102DE9F04F83B068B10F469346A0
:103EC000984606467BB1D0F868A0BAF1000F11D031
:103ED000D047814600251FE02E4B2F4A4FF4B76193
:103EE0002E4852F08BFA2E4B2B4A40F2B9512B48F8
:103EF00052F084FA2B4B284A40F2BA51274852F02C
:103F00007DFAD0474946FFF7D3FDB84234BF0020C1
:103F10000120072C0FD170B94246B16D306D01F010
:103F2000CEFA0446002FECD1012D94BF00200120D1
:103F30000135ADB2EDE7ACB9D0474946FFF7B8FD62
:103F4000874206D93F1A98F80030202B03D0052469
:103F500009E00027F7E7009798E80E003046FFF7E2
:103F600003FF044654B12CB9BBF1000F02D00C9BE7
:103F70001B786BB9204603B0BDE8F08FF36DC8F82D
:103F800004300C9A0021404601F051FA0446EAE759
:103F90000524EFE7A0E8051000EC0510B4E80510D3
:103FA000E0EA05101CE90510F0B585B000238DF896
:103FB0000F3048B10D4606461046FFF77BFD04461C
:103FC00048B9204605B0F0BD144B154A40F2B13156
:103FD000144852F013FAFFF7F9FE07462A46214625
:103FE00006F15C0001F0A4F908B10324E9E704221A
:103FF000F16D3046FFF792FD042801D00324E0E77D
:10400000012386F874300DF10F03009300233A4624
:104010002946304601F045FD0446D2E7A0E80510E8
:104020007CEB0510B4E8051030B583B00023019394
:104030008DF8033048B10546F9B10DF1030201A92D
:1040400001F081FD0146002413E0134B134A4FF4A5
:10405000C661134852F0D2F99DF803202846FFF7B5
:10406000A3FF04460DF1030201A9284601F06BFDF0
:10407000014669B1002CEFD00AE028242246002135
:1040800052F082FC22460021281952F07DFC0024C7
:10409000204603B030BD00BFA0E8051010EC0510AD
:1040A000B4E80510F0B587B000238DF8173020B3C1
:1040B0000C46054641B3C76E6FB30878FFF786FE1E
:1040C0000646002205A9204601F0B1F950B390B987
:1040D000BDF81430ADF808308DF8100000230393BC
:1040E00002AA21462846B8479DF81720BDF81410AB
:1040F0002846FFF759FF07B0F0BD104B104A40F2B9
:104100008141104852F07AF90F4B0D4A40F282413A
:104110000C4852F073F90D4B094A40F283410948AB
:1041200052F06CF90DF11703009301233246BDF8EC
:104130001410284601F0B5FCC9E700BFA0E805103F
:10414000B4EB0510B4E80510E0EA0510F8EA051034
:10415000F0B585B00023ADF80E30A8B10C46154679
:104160000646C1B1C76EEFB10B78B02B27D034D85B
:10417000702B04D021D8502B01D0622B19D12146AD
:104180003046FFF78FFF26E0284B294A4FF499610C
:10419000284852F033F9284B254A40F2C9412548B6
:1041A00052F02CF9254B224A40F2CA41214852F0E4
:1041B00025F9402BE3D005200DE0902B0AD10022F9
:1041C0000DF10E01204601F032F9F0B106281AD0A7
:1041D00000231BE0052005B0F0BDD02B0AD1002242
:1041E0000DF10E01204601F022F9034620B925B950
:1041F000012302E00520EEE7002338B935B10022A3
:1042000086F87C2002E0012300E00123002BE2D0AD
:10421000BDF80E30ADF800308DF80800002501958E
:104220006A4621463046B8472846D4E7A0E805103C
:10423000C8EB0510B4E80510E0EA0510F8EA05102F
:10424000F0B585B01D4600230393029360B10C4680
:104250001646074679B1ADB102AA03A9204600F07F
:10426000EFFFB0B105B0F0BD0E4B0F4A4FF4CB617C
:104270000E4852F0C3F80E4B0B4A40F259610B48FE
:1042800052F0BCF80B4B084A40F25A61074852F012
:10429000B5F8009507F15C03039A3146204600F01B
:1042A000EAFFDFE7A0E8051028EC0510B4E80510E8
:1042B0006CEA051018EB051070B58CB000238DF872
:1042C0002F30ADF82C3030B30D46064651B3C36ED7
:1042D0007BB306AA0BA9284601F08FF8044678B3F1
:1042E000B4B90022BDF82C30ADF80C3006AB049305
:1042F0008DF8144022B9F36E03AA29463046984738
:104300009DF82F20BDF82C103046FFF74DFE0446D7
:1043100020460CB070BD184B184A40F20F411848A7
:1043200052F06CF8174B154A4FF48261144852F062
:1043300065F8154B114A40F21141114852F05EF8F0
:104340000DF12F0300939DF818300122BDF82C10B9
:10435000304601F04FFB60B1092801D00446BFE7A9
:104360009DF81810012001F032FB8DF82F0001227A
:10437000B8E70446B4E700BFA0E805109CEB0510C1
:10438000B4E80510E0EA0510F8EA051058B32DE985
:10439000F0410C4617461E46804631B3069B3BB3A0
:1043A00042B34EB30B684BB34B684BB38022002132
:1043B00052F0EAFA002588F8665008F1500394E8B4
:1043C000070083E80700C8F86870C8F86C6008F157
:1043D0005C03069A92E8030083E803000123A8F82F
:1043E0006430284602E0012070470120BDE8F081DA
:1043F0000120FBE70120F9E70120F7E70120F5E7BD
:104400000120F3E72DE9F04389B00D469046994627
:10441000109E0024079406940394049405948DF848
:104420000C40074648B1E1B1EEB106AB07AA4146E0
:10443000284600F021FE044600E00124ACB1ECB1B6
:1044400034B374B34CB9012387F866306B88A7F88E
:104450007630002387F87C30BB67204609B0BDE882
:10446000F0830124EAE70124E8E707F15C03079AF7
:104470004146284600F036FE0446E0E7069AF96D0C
:104480003846FFF74BFB069B8342D9DD0324D8E770
:10449000009603AB2A7849463846FFF70BFD0446E1
:1044A000CFE731783846FFF7BFFD0446CAE72DE96C
:1044B000F04184B005460E46174698460024039402
:1044C0000294FFF708FB044628B164B1B4B120465A
:1044D00004B0BDE8F08102AB03AA3946304600F0D3
:1044E00027FE0446F1E705F15C030093039B424677
:1044F0003946304600F032FE0446E7E7029AE96D9D
:104500002846FFF70BFB029B8342E0DD0324DEE736
:1045100070B584B005460C461646002303938DF80B
:104520000B30FFF7E6FA68B108B922788AB920B9EA
:10453000039A21462846FFF767FC08B9237893B908
:1045400004B070BD03AB324621462846FFF778FE23
:10455000EAE73146284601F025FA0928E7D1A37891
:10456000002BE5D1E3E70DF10B020092002231466A
:10457000284601F03FFAE3E730B583B0002301930A
:10458000054640B101A800F01BFF04462CB154B110
:10459000204603B030BD0124F8E705F15C0000F0CF
:1045A00016FF0446F3E7019AE96D2846FFF7B6FACD
:1045B000019B834205DC2B6FAB67012385F87C30C0
:1045C000E6E70324E4E7000070B5E8B10546836E32
:1045D0000BB398470646B5F876304FF47A7404FB6F
:1045E00003F41CB3296FFFF763FAA04220D995F8B2
:1045F0007C30BBB1A96F3046FFF75AFA41F28833DD
:10460000984217D8002012E00B4B0C4A40F2E731D9
:104610000B4851F0F3FE0B4B084A4FF47A710848EF
:1046200051F0ECFE2846FFF7A7FF00E0002070BD28
:104630000020FCE70A20FAE7A0E805108CEB051043
:10464000B4E805101CE90510F0B587B008B30E46B4
:1046500017460546C36D1BB303AA816D006D00F0BC
:104660002EFF0446072822D050B36CB9EB6D04939B
:104670009DF80C3003F0F003302B2AD03A4603A902
:104680002846FFF765FD0446072C28D0204607B0D2
:10469000F0BD144B144A40F20E51144851F0AEFED6
:1046A000134B114A40F20F51104851F0A7FE1FB9A9
:1046B0000028E9D00446D8E72846FFF785FFF7E74A
:1046C000009606AB13E90E002846FFF74DFB0446A3
:1046D000CBE703A92846FFF7EFFD0446D4E7002403
:1046E000D4E700BFA0E80510DCEB0510B4E8051026
:1046F000F4E905102DE9F04184B005460E46174651
:104700009846002403940294FFF7E5F9044628B183
:1047100064B1B4B1204604B0BDE8F08102AB03AA95
:104720003946304600F04BFD0446F1E705F15C03E5
:104730000093039B42463946304600F056FD04463E
:10474000E7E7029AE96D2846FFF7E8F9029B834202
:10475000E0DD0324DEE730B583B000230193054696
:1047600060B101A800F00FFE04464CB174B114B959
:10477000002385F86630204603B030BD0124F4E7FD
:1047800005F15C0000F006FE0446EFE7019AE96DD2
:104790002846FFF7C3F9019B8342E8DD0324EAE7DB
:1047A0002DE9F0410F460646D8B1836EEBB1C26DDC
:1047B000FAB198478046002586F874503C46E5B922
:1047C000012221463046FFF73FFF05460028F6D17B
:1047D000B36E98474146FFF76BF987420DD93C1AF3
:1047E000EDE74FF000080125E8E74FF0000801254C
:1047F000E4E74FF000080125E0E72846BDE8F08136
:10480000034668B1B0F864004FF6FF72904203D0DF
:10481000421CA3F8642070470122A3F8642070476B
:1048200000207047B0B10346B1B1BAB1007890280A
:1048300001D001207047586890B110B49C68022CD8
:1048400010D9023008609B68023B136000205DF8BD
:10485000044B7047012070470120704701207047CA
:10486000012070470120F2E77F2807D9B0F5804F7B
:1048700006D3B0F5001F05D2032070470120704712
:1048800002207047042070472DE9F04182B00746AE
:104890000E4600248DF80740A046012512E09DF841
:1048A000073003F07F0305FB0344ED0108F1010825
:1048B00001E04FF08054B4F1805F10D09DF90730D3
:1048C000002B0CDAB5F5001FF3D801220DF107011A
:1048D0003046B8470128E2D04FF08054EBE7B4F1FE
:1048E000805F06D02046FFF7BFFF804501D04FF024
:1048F0008054204602B0BDE8F08100F0F003602B48
:1049000022D006D9B02B28D014D9D02B1AD0002011
:104910007047402B1DD003D9502B09D00020704781
:10492000202B18D0302B01D0002070470120704779
:1049300001207047702B12D0902B01D000207047BF
:10494000012070470120704710F0020F09D10020AC
:1049500070470120704701207047012070470120F7
:1049600070470120704719B9824206D8084670473F
:104970000232824203D8002070470520704705208C
:10498000704738B5049D7DB11C4678B12B687BB16A
:1049900081B18AB12046FFF767FF031901336A68C6
:1049A0009A420BD3002000E0012038BD0120FCE733
:1049B0000120FAE70120F8E70120F6E70220F4E7FA
:1049C00008B560B90A4B0B4A40F2D9110A4851F0B8
:1049D00015FD42F0800200F8012B7F2B06D901F073
:1049E0007F020B46C9097F2BF5D9F2E708BD00BF4E
:1049F0003CEC051030EF051054EC05102DE9F041AA
:104A000096469DF8182050B19846844671B1BEF183
:104A1000000F12D0C3B10226002007461DE0214B33
:104A2000214A40F2F531214851F0E8FC204B1E4A62
:104A300040F2F6311D4851F0E1FC1E4B1A4A40F29B
:104A4000F7311A4851F0DAFC1B4B174A4FF47E71CC
:104A5000164851F0D3FC0127013088420FD200EBF9
:104A600040040CEB84042589AB199E1C02B9DE1CA2
:104A7000002DF0D06368002BEED10127ECE7B6F1F2
:104A8000805F0AD257B9CEF800603046FFF7ECFEDF
:104A900001300644C8F8006000E001273846BDE850
:104AA000F08100BFC4EC0510C8EF051054EC0510F0
:104AB000E0EC0510F8EC051014ED05102DE9F041BF
:104AC000E8B10F461646034601B332B30289901C83
:104AD000197801B1101D174C241AD3F81080A04585
:104AE00022D808EB00052846FFF7BEFE241AA04591
:104AF0001DD83D60013028443060012015E00E4B88
:104B00000E4A40F21E210E4851F078FC0D4B0B4A24
:104B100040F21F210A4851F071FC0B4B074A4FF439
:104B20000871074851F06AFC0020BDE8F0810020C0
:104B3000FBE700BFFEFFFF0F6CEA051058EF051002
:104B400054EC0510F8EC051014ED051008B581B112
:104B50000B4610F0040F13D010F0020F19D10222EF
:104B60000A7000F001025A70C0F3C0009870002073
:104B700008BD094B094A40F24B31094851F03EFC4F
:104B800010F0020F02D001220A70EAE700220A7038
:104B9000E7E70520ECE700BF6CEA05108CEF051095
:104BA00054EC0510F8B5002830D00F4614460646E0
:104BB000002932D0002A37D04568002D3BD000783C
:104BC000114600F00F00FFF7C1FF20B90322217842
:104BD000B068FFF7C8FE48B92B786A7842EA03222A
:104BE000228102322178B068FFF7BDFE50BB02354A
:104BF00065602389EA18217829B3E95C537843EA90
:104C000001233B800232F3B905202AE0154B164AF6
:104C10004FF49B61154851F0F1FB154B124A40F2DD
:104C2000D941124851F0EAFB124B0F4A40F2DA41E7
:104C30000E4851F0E3FB104B0B4A40F2DB410B48AE
:104C400051F0DCFB002260B9B36821895B1A023B9A
:104C50002361217809B1023B2361236903B9002252
:104C6000E260F8BDE0EA051010F0051054EC051004
:104C700028ED05106CEA05103CED0510052800D85C
:104C8000704708B5034B044A40F28B31034851F09A
:104C9000B5FB00BF64ED0510A0EF051054EC051046
:104CA00010B538B169B142688368022B10D0052471
:104CB000204610BD154B164A40F2A131154851F05F
:104CC0009DFB154B124A40F2A231124851F096FB5F
:104CD000137833F0010001D00524E9E713F0010F48
:104CE00005D001230B7053781BB10524E0E70023A6
:104CF0000B705478052C01D90524D9E72046FFF71D
:104D0000BDFF002CD4D00624D2E700BF78ED0510FB
:104D1000B4EF051054EC05108CED051038B521B139
:104D200004460D46002318460AE0094B094A40F2A2
:104D30004141094851F062FB802A07D10620013326
:104D4000A34204D2EA5C022AF6D8F8E7052038BD6F
:104D5000A4ED0510E8EF051054EC051010B538B1BE
:104D6000034661B180685B6802280FD8052010BD3A
:104D70000B4B0C4A40F27A410B4851F03FFB0B4B76
:104D8000084A40F27B41084851F038FB1C785A78B9
:104D900042EA04220A80991C0238FFF7BFFFE6E7C7
:104DA000BCED0510FCEF051054EC0510CCED051022
:104DB00008B518B1836843B9002008BD044B054A03
:104DC00040F25651044851F019FB0520F5E700BFA9
:104DD000E8ED05103CF0051054EC051008B528B1BD
:104DE00059B18268022A0FD0052008BD0C4B0D4A2C
:104DF00040F233510C4851F001FB0C4B094A40F290
:104E00003451094851F0FAFA42681078537843EA6D
:104E100000230B800BB10020E7E70520E5E700BF8A
:104E2000FCED051024F0051054EC0510CCED051038
:104E300038B558B11446120A02704470851C19B175
:104E40002246284651F078FD281938BD034B044A04
:104E500040F2FD11034851F0D1FA00BF3CEC0510BF
:104E600048EF051054EC051070B5002850D00E46E0
:104E700011461D460446002B51D01868002855D015
:104E8000102300F8013BFFF79BFD04223249FFF796
:104E9000CFFF04230370237803B10223E2680AB131
:104EA00043F0800362690AB143F04003002E4AD008
:104EB00043F00402317801293FD0022940D07378B1
:104EC00013B142F02002D2B2427063881B0A837091
:104ED000A378C370228961680430FFF7A9FF3EB14F
:104EE00032897168FFF7A4FF328AF168FFF7A0FFEB
:104EF000E16811B1228AFFF79BFF616911B1228B32
:104F0000FFF796FF2B68C01A6B6898421DD870BDDA
:104F1000124B134A40F26E51124851F06FFA124B85
:104F20000F4A40F26F510F4851F068FA0F4B0C4A8C
:104F30004FF4AE610B4851F061FA43F00C02BEE74A
:104F400043F01402BBE71A46BEE7094B044A4FF48C
:104F5000BB61044851F052FA5CEE05100CEE0510EE
:104F600050F0051054EC051024EE05103CEE051031
:104F700064EE05102DE9F0419DF81880002836D028
:104F800017461E460546002B38D0186800283CD02E
:104F90002B780BB1002A3FD0AA780AB1002B42D05F
:104FA000012B47D0022B47D030236C780CB143F053
:104FB00001030AB143F0080300F8013BFFF700FDCD
:104FC0002A896968FFF734FF04462B781BB13B0A36
:104FD0000370477002342A6912B1B8F1000F2DD165
:104FE0003068241A73689C422FD8BDE8F0811A4BB0
:104FF0001A4A40F272211A4851F000FA194B174A26
:1050000040F27321164851F0F9F9174B134A4FF447
:105010001D71134851F0F2F9144B104A40F27621F9
:105020000F4851F0EBF9124B0C4A4FF41E710C482B
:1050300051F0E4F93223B8E73423B6E7E9682046B3
:1050400051F07AFC2B691C44CAE70A4B034A40F230
:10505000C121034851F0D2F96CEA051074EF051034
:1050600054EC051024EE05103CEE0510ACEE0510D6
:10507000ECEE051064EE051040B370B515461C4605
:1050800003462AB334B3068936B3406830B319B146
:105090000869B0F5803F23D20C3621B10A8909692D
:1050A0000A443244161DDA6812B11A8A3244961C38
:1050B0005A6912B11A8B3244961C3046FFF7D4FB62
:1050C000013030442E602060002002E00120704753
:1050D000012070BD0120FCE70120FAE70120F8E77C
:1050E0000120F6E7E0B1F8B50E4615461C46074626
:1050F000C3B11B68C3B109B14B68BBB12846FFF708
:10510000B3FB284401306368834201D202200AE0E5
:1051100023462A4631463846FFF7A6FE002002E025
:10512000012070470120F8BD0120FCE70120FAE7CB
:1051300070B110B582B0044662B16BB111B90120F3
:1051400002B010BD002000902046FFF757FCF7E7A3
:10515000012070470120F3E70120F1E72DE9F0433A
:1051600083B004460D46904699460A9F0097FFF784
:1051700008FC064618B1304603B0BDE8F083386835
:10518000822300F8013B4946FFF71AFC4FEA182337
:10519000037080F8018002300027AF42EBD207EBAA
:1051A00047034FEA830804EB83031A895968FFF722
:1051B0003FFE14F8083000F8013B0137EDE770B10D
:1051C00010B582B0044662B16BB111B9012002B0D2
:1051D00010BD012000902046FFF710FCF7E70120EA
:1051E00070470120F3E70120F1E72DE9F04383B098
:1051F00006460D46904699460A9C0094FFF7C1FB6F
:10520000074618B1384603B0BDE8F0832068A223F2
:1052100000F8013B4946FFF7D3FB4FEA1823037020
:1052200080F8018002300024AC42EBD204EB44034E
:1052300006EB83031A895968FFF7FAFD0134F3E797
:1052400078B108B5034671B17AB1406878B1188970
:1052500008B9012008E01846FFF730FC48B10020EB
:1052600002E001207047012008BD0120FCE7012079
:10527000FAE70120F8E72DE9F04383B004460F4632
:105280001646984613B348B30A9B5BB3D8F8003070
:1052900063B3436873B3038983B3037803B189B3FA
:1052A000236803F0FF13B3F5803F2FD03046FFF79C
:1052B000DBFA00EB06092369A9EB030909F10109EF
:1052C000D8F804304B4531D3002502E04FF00009F7
:1052D0000125FDB1284603B0BDE8F0834FF0000979
:1052E0000125F6E74FF000090125F2E74FF000092C
:1052F0000125EEE74FF000090125EAE74FF000092C
:105300000125E6E74FF000090125E2E74FF000092B
:105310000125DEE70023009343463A463146204606
:10532000FFF728FE0A9BC3F80090D3E70225D1E7D8
:10533000F8B103460068F0B110B45C68032C1CD9C6
:10534000FAB162290AD005D8402907D0502905D0E2
:10535000012013E0702901D001200FE001701968CD
:10536000022048701968100A88701B68DA700020E3
:1053700004E0012070470120704702205DF8044BD3
:1053800070470120FAE718B102220260002070473E
:1053900001207047034668B102686AB14268012A79
:1053A0000CD9002058B91A68E02111701B6800223E
:1053B0005A7070470120F5E70120F3E7022070479B
:1053C00018B1022202600020704701207047034696
:1053D00068B102686AB14268012A0CD9002058B944
:1053E0001A68C02111701B6800225A707047012092
:1053F000F5E70120F3E70220704780B108B50346C6
:1054000079B182B1007800F0F000302801D001209D
:1054100008BD586848B11846FFF7C4FBF8E70120FB
:1054200070470120F4E70120F2E70120F0E70028AF
:1054300043D010B5044659B18AB16368A3B123784B
:10544000902B36D026D8202B2ED012D2052010BD7E
:105450000378202BF0D0D02BEED00120F7E7237873
:10546000202BEAD10120F2E72378D02BE7D00120CE
:10547000EDE7622B08D003D9702B05D00520E6E7B5
:10548000402B01D0502B03D12046FFF7A7FCDEE7CD
:105490000520DCE7B02BF7D0D02B03D12046FFF757
:1054A00087FCD4E70520D2E711462046FFF7F8FB3A
:1054B000CDE72046FFF752FCC9E70120704732B321
:1054C00070B504460D461646012231462846A047CF
:1054D0000346012807D00020012800D0ABB10128E5
:1054E00000D0042070BD3078FFF707FA08B9052016
:1054F000F8E729462046FFF7C7F9B060B0F1805FB2
:1055000001D00020EEE70520ECE70720EAE70023C2
:105510000120012800D023B1012801D004207047C8
:1055200070470720704707282AD8DFE800F0040FEB
:10553000292929291F24012A01D000207047881E0B
:10554000C0B201288CBF002001207047012B03D07E
:10555000022B06D000207047062914BF002001202E
:105560007047072914BF002001207047062914BF87
:10557000002001207047072914BF00200120704738
:10558000002070470238072836D8DFE800F0040909
:10559000291904240E2E0A2914BF00200120704767
:1055A000082914BF002001207047052906D00829CA
:1055B00002D00021084670470121FBE70121F9E7ED
:1055C0000A2906D0052902D000210846704701218A
:1055D000FBE70121F9E7042914BF002001207047EF
:1055E000092914BF0020012070470939C9B20129D7
:1055F0008CBF0020012070470020704702280BD08C
:1056000003D9032803D000207047012808D80129B6
:1056100014BF002001207047B1FA81F040097047A3
:1056200000207047F8B518B102460A20002314E0A4
:10563000114B124A40F2C511114850F0DFFE0A2802
:105640000AD002EB800722F82040AC78BC70EC78DE
:10565000FC7000249453013001338B420AD29E0027
:1056600002EB830532F82340002CE8D10A28F3D15D
:105670001846F1E7F8BD00BF68F00510B4F1051059
:1056800078F005102DE9F84372B105460F469946AA
:10569000904683B101F18043013B30F823308BB950
:1056A0007A1E3B46002614E0184B194A4FF4F97154
:1056B000184850F0A3FE184B154A40F2F311154854
:1056C00050F09CFEFFF7AEFFEAE744451AD00126F2
:1056D000013A002A07DB35F82240002CF5D1002ED4
:1056E000F6D11346F4E70220BB4209D205EB830250
:1056F00025F8238082F802909DF82030D370002096
:10570000BDE8F8833B460920EEE700BFE4F0051052
:10571000C4F1051078F0051008F10510F8B5069FE2
:1057200022B1044615460020387007E00A4B0B4AA8
:105730004FF4D6710A4850F061FE0130884209D218
:1057400004EB800634F82020AA42F6D1B2781A7011
:10575000F3783B70F8BD00BFE4F00510A4F105102C
:1057600078F0051010B520B153B1002320F8213096
:1057700010BD054B054A40F22F21054850F03EFE72
:1057800000EB8101CA70F3E768F00510D0F1051055
:1057900078F005102DE9F04782B09DF828509DF86B
:1057A0002C709DF8306090B1894690461C46824628
:1057B000A2B1D5B12B46224631463846FFF7B3FE9B
:1057C00058B3012C18D0B7421FD1002026E0154B4A
:1057D000154A4FF43971154850F010FE144B124A17
:1057E00040F2E521114850F009FE124B0E4A40F2FA
:1057F000E6210E4850F002FE00962B4642460A2152
:105800000AF12800FFF73EFF08E000233246494630
:105810005046FFF7A7FF002000E0082002B0BDE8D7
:10582000F08700BF18F10510FCF1051078F00510A5
:10583000E4F0051008F105102DE9F04383B09DF860
:10584000284090B10F4690461D4681460A2C15D03F
:10585000042C11D000231E4621462846FFF792FE55
:1058600008B3AC420CD100201EE0114B114A40F2AB
:10587000A721114850F0C2FD0123ECE70123EAE71C
:105880003346224639464846FFF76CFF042C01D0C8
:10589000002009E004230093022342460A214846DF
:1058A000FFF7F0FE00E0082003B0BDE8F08300BF82
:1058B00068F00510ECF1051078F0051070B5C8B16E
:1058C0000546F1B122B340F2D223194227D00E4649
:1058D00021F4347131F0020328D11368092B30D838
:1058E00005EB8300C4780121A140B14325D00133E9
:1058F0001360F2E7144B154A40F24721144850F068
:105900007DFD144B114A4FF41271114850F076FD91
:10591000114B0E4A40F249210D4850F06FFD0F4BDC
:105920000A4A40F253210A4850F068FD0C4B074ADE
:105930004FF41571064850F061FD00880133136083
:1059400000E0002070BD00BF18F10510E0F1051067
:1059500078F0051030F1051044F1051054F10510F0
:105960007CF10510022A14BF00230123032803D869
:10597000DFE800F0040A0D1000200CE0012A14BF3B
:10598000002301230A2006E041B9082003E039B9C9
:10599000092000E00A2003B9002070470420FAE73C
:1059A0000520F8E710B582B0044610465AB149B157
:1059B0005CB10123009313460A460A212046FFF7F3
:1059C00061FE00E0012002B010BD0120FBE70129CB
:1059D00006D0022907D009B1002070470A2070477D
:1059E00020B90620704718B9072070470220704779
:1059F000032070472DE9F04387B00E4615461C463C
:105A000000238DF817308DF81630814610B30E9BA9
:105A100043B32CB94FF00A0883F8008020461CE0FD
:105A200021B31AB14FF00A08002016E00DF1170358
:105A300000930DF116030A460A21FFF76FFE804618
:105A40000A2817D09DF81630A34201D0012004E0A7
:105A5000284602E04FF00A08012004B160B107B007
:105A6000BDE8F0834FF00A080120F6E74FF00A087E
:105A70000120F2E70120F0E721462846FFF7A7FFC3
:105A8000074602909DF81730019300942B4632464A
:105A900041464846FFF77EFE0028E0D10E9B1F706E
:105AA000DDE72DE9F04184B004460F4615461E4659
:105AB0004FF000088DF80F8019461046FFF79EFD45
:105AC0008DF80E809CB10A9BD3B1F7B1032D21D87C
:105AD00000B928340DF10F0300930DF10E033A467F
:105AE0000A212046FFF71AFE8046052002E0012029
:105AF0004FF00A08B8F1090F11D904B0BDE8F081E0
:105B00000A9C01204FF00A08F4E7012000244FF01E
:105B10000A08EFE7012000244FF00A08EAE79DF8A1
:105B20000E2031462846FFF71DFF054600909DF8E0
:105B30000F303A4641462046FFF77EFE0028DCD172
:105B40000A9B1D70D9E760B110B5144659B162B116
:105B50000A464FF40471FFF7B1FE38B104232370F5
:105B600004E000207047002000E0002010BD30B1AC
:105B700008B531B10A46C221FFF7A0FE08BD0020DA
:105B800070470020FAE700B583B00023019301A815
:105B9000FDF798FE18B9019803B05DF804FB0020EA
:105BA000FAE708B5FDF79AFE08BD00002DE9F043BD
:105BB00085B0054688461746994611F003042FD054
:105BC000B8B12868384B1B6893F82D301F2B12D8BA
:105BD000364903AB009320230A463BF0A5FF00B1F2
:105BE00001BEC4F10404224603A9404650F0B2FEAF
:105BF00016E001BEE5E72D4903AB009320230A46DA
:105C00003BF0D2FFEBE701BE11E0284903AB009364
:105C100020230A463BF0C8FF17E0039B336004349F
:105C2000FB1EA34215D908EB0406002DEBD0286813
:105C30001D4B1B6893F82D301F2BE6D81B4903AB77
:105C4000009320230A463BF06FFF0028E5D001BEF9
:105C5000E3E7BC4205D3C9F80040002005B0BDE829
:105C6000F083BDB12868104B1B6893F82D301F2BB3
:105C700012D80E4903AB009320230A463BF054FF91
:105C800000B101BE3A1B03A908EB040050F062FE0C
:105C90003C46E0E701BEE5E7044903AB009320235F
:105CA0000A463BF081FFEBE7742A0108B71DC104E7
:105CB00070B584B005460E4614460023039301A830
:105CC0003AF03BFF68B903AB3246294601A8FFF71B
:105CD0006DFF039B236001A83AF03AFF002004B057
:105CE00070BD4FF0FF30FAE710B582B00024009489
:105CF000A4B96A4604210DEB0100FFF7D9FF68B98A
:105D0000BDF80420BDF8063003FB02F3054CA4FBEC
:105D10000324E40D044A02FB1434E9E7204602B0F0
:105D200010BD00BF3F96BFD67F96980010B50446C1
:105D300000230360FFF727FF52F0CAF9FFF7D4FFF3
:105D4000054BA3FB002323F0030202EB9303C31ACA
:105D50000133636010BD00BFCDCCCCCCF8B110B521
:105D600004460368032B16D8FFF7BEFF6368B0FB39
:105D7000F3F203FB1200FFF714FF236801332360E3
:105D800063683F2B03D85B006360002006E080233C
:105D90006360002002E0FFF7C9FF012010BD012071
:105DA000704708B50B680BB148689847002008BDDC
:105DB00008B542F081FC08BD08B543F01BFC08BDE6
:105DC0002DE9F04188B0984600238DF81F30002857
:105DD00000F0C8800D4616460446002900F0C48035
:105DE00002930393049305930693036080F8303085
:105DF000C36143608360C36003614361836102AA3E
:105E00000421286843F028FB0746A8B187B194F81D
:105E10003030002B40F0A080E06918B143F028FE3C
:105E20000023E361206818B143F04EFB0023236098
:105E3000384608B0BDE8F081AB88A38002AF0FCF31
:105E4000A060E160226163613868A061002E60D0CB
:105E5000306910B17169002937D1F06930B1316A08
:105E600021B1726A12B1B36A002B47D123460322D3
:105E70000121022042F0E2FC07460028C6D1E36976
:105E80004BB1042200920D220321206842F046FD0E
:105E900007460028BAD1012300930DF11F031022F9
:105EA0000321206842F03AFD07460028AED1B368CE
:105EB000002B38D0F268013A00920E2203212068AC
:105EC00042F02CFD074670B3A0E7013943F03AFDDC
:105ED000074600289AD1012384F83030337E1BB95D
:105EE00002238DF81F30B8E7012B03D001238DF872
:105EF0001F30B2E700238DF81F30AEE704F11C0716
:105F00000097013B013943F059FD07460028ADD009
:105F10007CE7234601221146022042F08FFC07460F
:105F200000287FF473AF039BE36004232372AB88E4
:105F3000A380B8F1000F05D0D8F800302362D8F85C
:105F4000043063620E9B002B3FF460AF1B68A362BA
:105F50000E9B5B68E36259E743F0EAFC002384F898
:105F6000303059E7014F63E7004F61E702002A082C
:105F700010B586B003910292002844D00446014631
:105F800051F8040B182243F057F8034610B1184695
:105F900006B010BD0423009302AB0022012120684B
:105FA00042F0BCFC03460028F1D10423009303AB6C
:105FB00001221146206842F0B1FC03460028E6D1D8
:105FC000226A7AB1114B049304F12003059308234C
:105FD000009304AB09220121206842F09FFC034694
:105FE0000028D4D1A26A002AD1D0084B049304F12E
:105FF000280305930822009204AB0121206842F097
:106000008DFC0346C3E7024BC1E700BFA35D001050
:1060100002002A0828B108B50021006843F0BAF848
:1060200008BD0148704700BF02002A08A8B110B59A
:106030000446C06918B143F01BFD68B9E06194F8EB
:10604000303023B143F074FC30B984F8300020685C
:1060500043F03AFA0023236010BD0148704700BFA7
:1060600002002A0810B584B04FF0FF33039398B1B3
:10607000A9B103AB00930023006843F07DF928B178
:10608000084A904205D04FF0FF330393039804B0C1
:1060900010BD00230393F9E74FF0FF30F7E74FF00F
:1060A000FF30F4E70B002A0810B584B04FF0FF333F
:1060B000039398B1A9B103AB00930023006843F0A8
:1060C000EFF828B1084A904205D04FF0FF33039310
:1060D000039804B010BD00230393F9E74FF0FF309D
:1060E000F7E74FF0FF30F4E70B002A087047000095
:1060F0000346084A1068084A121A9A4203D3034416
:10610000044A13607047054B0C221A604FF0FF30B1
:10611000704700BFA423000800E80F087C2F010887
:1061200008B501F01FFC08BD08B501F0CFFC08BDA3
:1061300008B501F017FC08BD08B501F0C7FC08BDA3
:1061400008B501F00FFC08BD08B501F0BFFC08BDA3
:1061500030B58DB0044600220023CDE90023FFF7BF
:10616000EFFF1F4B1B6893B103A91D4B186838F054
:106170005DFE054608B3FFF7E7FF25BB1CB1DDE96F
:106180000023C4E90023DDE900010DB030BD15484E
:1061900038F0E2FD054600B101BE15B1002DEAD18F
:1061A000E2E7104D0E4B1D60684650F08DFA014637
:1061B000284638F099FE0546F0E703A850F0C4FCE5
:1061C000CDE90001D7E72CB14FF0FF324FF0FF339C
:1061D000C4E900234FF0FF304FF0FF31D5E700BF97
:1061E0008C360008903600080CB42DE9F04F89B0C9
:1061F0004F4B1B78002B00F08B8004460D46052882
:1062000000D900244A4BD3F81C34002B00F08280C4
:10621000474B23441B7B002B7ED0AB42C0F08380D6
:10622000434BD3F82034002B69D007A89847064683
:10623000002872D1079B3F4FA7FB03274FEA97180F
:106240004FF47A7202FB1838BF093B4BA3FB0712CD
:1062500052091146C2EB0212A7EB82070791A3FB7A
:1062600001235B099A46C3EB0313A1EB8309334B6C
:10627000A3FB0A231B0903EB4303AAEBC30A4FF05A
:10628000FF312F48FDF748F9064600284DD1DFF8C9
:10629000A0B0CDF80C800297CDF80490CDF800A006
:1062A000BBF81834274A4FF480610BF1180052F004
:1062B0003FF813AB059300F11807129AC0F58061FF
:1062C0000BEB070053F040FAB0F1FF3F02D0B0F5FE
:1062D000806F03DB164B002283F81724144FD7F886
:1062E0001C3407F11802294620469847B7F818349D
:1062F0000133A7F81834381DFDF72EF90DE006A874
:10630000FDF7E0FA0A4B5A69069B9B1A079391E73F
:10631000022602E0002600E00026304609B0BDE873
:10632000F04F02B070470026F7E70226F5E700BFFE
:10633000C0360008D34D621089888888ABAAAAAA03
:10634000C436000810F2051000F1080343604FF056
:10635000FF328260C3600361002303607047002343
:106360000361704743684B609A688A605160996026
:106370000861036801330360704730B40D68B5F1FC
:10638000FF3F11D000F108031C465B681A68AA425F
:10639000FAD963684B6099608C606160086103683A
:1063A0000133036030BC70470469F2E70369416858
:1063B00082688A60416851605A68824206D0002231
:1063C00002611A68013A1A601868704782685A6058
:1063D000F5E7000082B0002301930D4B1B68B3F179
:1063E000FF3F08D04FF03F0383F31188BFF36F8F57
:1063F000BFF34F8F01BE4FF03F0383F31188BFF30C
:106400006F8FBFF34F8F019B002BFCD002B0704702
:10641000A823000808480068006880F308884FF047
:10642000000080F3148862B661B6BFF34F8FBFF3EC
:106430006F8F00DF00BF000008ED00E0DFF80C0008
:10644000016841F4700101607047000088ED00E0D0
:1064500008B54FF03F0383F31188BFF36F8FBFF38D
:106460004F8F01F0A7FA18B1034B4FF080521A601A
:10647000002383F3118808BD04ED00E04FF0807322
:1064800040F8043C21F0010140F8081C054B40F89D
:106490000C3C40F8202C6FF0020340F8243C4438B8
:1064A000704700BFD563001000000000000000002E
:1064B000074B19680868B0E8F04F80F30988BFF30C
:1064C0006F8F4FF0000080F311887047AFF30080AA
:1064D000F03A00084FF03F0383F31188BFF36F8F4A
:1064E000BFF34F8F0A4A136801331360012B00D0AA
