:020000041000EA
:1000000000200008EB0000100D0000004D01001062
:1000100000000000000000000000000000000000E0
:100020000000000000000000000000004901001076
:10003000000000000000000049010010490100100C
:100040004901001049010010490100104901001048
:100050004901001049010010490100104901001038
:100060004901001049010010490100104901001028
:100070004901001049010010490100104901001018
:1000800010B5064C2378002B07D1054B002B02D06E
:10009000044800E000BF0123237010BDB003000836
:1000A0000000000014150010044B10B5002B03D005
:1000B0000349044800E000BF10BDC0460000000036
:1000C000B4030008141500100230800803D001307A
:1000D0000238FCD1C046C0467047EFF3108072B6BC
:1000E000704780F3108870477047FFF7FDFF72B6C6
:1000F0000F4C104DAC4209DA21686268A368043BDA
:1001000002DBC858D050FAE70C34F3E70A490B4A2F
:100110000020521A02DD043A8850FCDC08480949E4
:100120000860BFF34F8F00F0FFFE00F0AFFEFEE768
:100130002015001038150010B0030008C80500088D
:100140000000000808ED00E0FEE7FEE700B504202F
:100150007146084202D0EFF3098001E0EFF3088016
:10016000043000F093FCFEE7014B18607047C04676
:10017000C4050008044B1B681A00BA3212881B6AB7
:100180005043C0187047C046C40500081D4B984234
:100190000FD010D840282FD005D8002830D01028F4
:1001A00028D019481EE0802828D080235B00984280
:1001B000F7D1144816E0154B984214D008D8A02364
:1001C0001B0698421CD0124B9842EAD1A0200BE0AB
:1001D000104B98420AD0104B984209D00F4B9842CE
:1001E000DFD10F487047A420C003FBE70D48F9E7B3
:1001F0000D48F7E70D48F5E70D48F3E70D48F1E73F
:100200000020EFE706005200FF005200010000F05E
:10021000090000A0040000F0050000F0030000F059
:100220000100520002005200030052000100500081
:10023000020050000500520010B50020FFF79AFFA1
:100240000A4B1C682300BC331B68C0180368002BD2
:100250000ADB074B1868FFF799FF012263689A6071
:100260009A68002AFCD110BD0248FCE7C4050008CA
:10027000CC03000802005000064B1B68BC331B680F
:10028000C3181B68002B03DA89B241600020704755
:100290000148FCE7C405000801008A000368002B40
:1002A00004DA89B2C2608160002070470048FCE730
:1002B00001008A00064B1B68BC331B68C3181B680F
:1002C000002B03DAC36800200B6070470148FCE78D
:1002D000C405000801008A00024B1A68002A00D1F8
:1002E00018607047E0030008F0B52C246043154CFB
:1002F0001F0024681D0A2018FF2425402740124CA7
:100300001B0C26680760346A45608360BA363688FD
:1003100077433F1907612F0080376D017F01E7198F
:1003200064190A4D47611F043B436419236000238D
:100330008361059BC2610162002B01D01B88838110
:10034000F0BDC046E0030008C40500080810000026
:10035000F0B5836885B002AD2B80154B02681B6831
:10036000066A1B8F476A9B186B8043680095826AF8
:10037000C16A040003930369C068FFF7B5FF002159
:100380003B000A0000913000FFF7AEFF216B280010
:1003900000F030FB0022AB5E002B06DB1F22134077
:1003A0001E3A9A401300034A136005B0F0BDC046E0
:1003B000C405000800E100E0F7B52C25134C6843A4
:1003C000266869433418256901937118002D19D0E6
:1003D0008869002818D12E68002E15DA6768012474
:1003E00026004B689E40B44613689EB263461B04C9
:1003F0001E431660EA608C61BC40019BA4B24B6254
:10040000AC60FEBD0248FCE70248FAE7E0030008E2
:1004100004028A0007028A0073B5002642690400BC
:10042000D56801962B0CB34221D01B0413601368CE
:10043000194B00691B68BC331B68C3181B68B342A7
:1004400015DA01A9FFF736FFB0420CD10198E26935
:1004500003681E0CDBB29A4205D9226A9B009B58A6
:10046000002B00D0984731002069FFF705FFADB29F
:10047000002D09D063691D6000251B68636AAB42CB
:1004800005D098476562A56163691B6873BDA36A5F
:10049000002BF8D09847F6E7C40500082C2310B5C8
:1004A0004343034A1068C018FFF7B6FF10BDC046AB
:1004B000E0030008F8B5194B0F001B681A0033322F
:1004C0001278824227D9002925D01F250A681540B5
:1004D00021D11900BA310C88114E60431C6AD20830
:1004E000041929007868346000F07EFF290020009C
:1004F000FFF7C2FE3A0029003068FFF7CFFE041E66
:1005000007D101003068FFF7B7FE03002000002B81
:1005100000D00448F8BD0448FCE7C046C405000804
:10052000E403000801018A0003018A0010B5002AD3
:100530000DD1002914D10B4B1A681300BA331B8854
:100540005843136AC018084B1860080010BD0029F2
:1005500006D0064B196019005A60FFF7ABFFF5E7AC
:100560000348F3E7C4050008E40300087803000823
:1005700003018A00F7B5184F04003B680191DE685B
:100580003368834226D90025A94202D1FFF7A5FD91
:10059000050038680368002B1ADA1F220123224065
:1005A000934064097268A4001419226813420DD0A4
:1005B0009A43226000240021FFF75EFE019B002B7E
:1005C00002D12800FFF78DFD2000FEBD034CF2E7AD
:1005D000034CF3E7034CF7E7E4030008020188004B
:1005E0000301880004018A000A4B1B68DB681A6853
:1005F00082420DD959681F23420918401E3B83408F
:10060000920050581840431E9841034BC018704741
:100610000248FCE7E40300080001880004018A00A6
:10062000054B1B681A0088321B6812689B181868F3
:10063000000AC0B27047C046C4050008044B1B68DE
:100640001A0088321B6812689B181868000E7047E1
:10065000C4050008024B18694007C00F7047C04628
:1006600000002740A6220549D2008B580220DB4318
:100670009B0702D00123885818407047000026408D
:1006800010B5FFF7EFFF0023022801D1014B1B68D3
:10069000180010BDEC030008094A83009B18D02203
:1006A0009200985807221040042807D1C0229200D7
:1006B00098581F2303408020400018437047C046CD
:1006C0000000264010B5FFF7E7FF02281CD005D830
:1006D000002824D0012814D0002014E01223FF3376
:1006E000984214D01423FF33984215D0033B98420C
:1006F000F2D10C4A0C4BD358002BEDDA80200002CB
:1007000001E00A4B186810BDFFF7BAFFFBE7FFF7DF
:10071000A1FF0028E0D0F1E7024A054BEBE70548CE
:10072000F1E7C046000026400C050000E803000881
:100730003C05000000127A00B023154ADB00D358B4
:1007400010B59903DB01DB0F890BC371114B0160FD
:10075000D3580F24D904DB01DB0D0381B123DB0067
:10076000D358C90C81801900214081721909214098
:10077000C172D9029B009B0F8373074BC90CD358DE
:1007800081815A05DB01520FDB0D8271038210BD9E
:1007900000002640840500008C05000010B5104BB9
:1007A000421E1B683F331B78934216D97F221F24B9
:1007B0008030FF300B4B8000C3581A400A701A0C6F
:1007C0002240180A8A701A012040E2404870002036
:1007D0009B009B0FCA700B7110BD0348FCE7C0461D
:1007E000C40500080000264001004A00F0B589B0A9
:1007F00003AC14220021200000F0F6FD2000FFF7DA
:100800009BFFB0231A4ADB00D25800239A4203DA36
:10081000A37B023B5A1E9341E57900266A1E95414F
:100820000135B34221D0A488B4421ED0039B3000CE
:100830000193FFF747FF2A00330007003100200033
:1008400000F0BCFC0C0005003300019A31003800B8
:1008500000F0B4FCE6076A08324363088018594187
:100860002A00230000F08AFC0600300009B0F0BD29
:1008700000002640F0B50026244B85B01B68070019
:100880003F331B78B3423ED0B0423CD083423AD390
:100890000522310002A800F0A7FD02A93800FFF7E9
:1008A0007DFF3B008033FF33194A9B009B58B342C6
:1008B00029DA02AB1B79022B25D002AB5C78B4425B
:1008C00021D09D78B5421ED01B7838000193FFF7E8
:1008D000F9FE2A00330007003100200000F06EFC12
:1008E0000C0005003300019A3100380000F066FC6E
:1008F000E6076A0832436308801859412A0023003A
:1009000000F03CFC0600300005B0F0BDC405000856
:100910000000264010B5041E04D1FFF767FF002831
:1009200006D008E0064B1B683F331B78834203D296
:100930002000FFF7C7FE10BDFFF79CFFEFE7C046A2
:10094000C4050008E02210B50124094B8000920084
:10095000C018835880589B069B0F9C400F2318405B
:10096000FFF7D8FF63081818210000F07BFB10BDCB
:1009700000002640144B30B51A68072413002C33AE
:100980001B781F2B15D883081D00A5432C1E0FD1E3
:1009900003342040A040814012689B002032D318CD
:1009A0000A00FF2181401C686240114061401960CB
:1009B00030BD802320401B06184380239B01126812
:1009C000C91889008850F3E7C4050008064B9A68E7
:1009D0000300064810339B00824202D19858995078
:1009E0007047034AD058FBE700ED00E00000000824
:1009F00000000010F8B506000D0000283AD00023D2
:100A0000C05E002828DB7188FFF7B4FF0024FF22B6
:100A1000032794460023F05E716883B21F40FF00F5
:100A20006646BA4089013140D243B940002815DBFF
:100A3000114E83089B009B19C026B6009F593A406F
:100A4000114399510D4B9A680D4B9A4202D12900DE
:100A5000FFF7BCFF2000F8BD0A4CD8E70F26334053
:100A6000083B064E9B089B009B19DE6932401143F0
:100A7000D961E7E7034CEDE700E100E000ED00E0BD
:100A80000000000801005600FEE7000002680A4B63
:100A900010B51A6042685A6082689A60C268DA606B
:100AA00002691A6142695A6182699A61C269DA61AE
:100AB000FFF7EAFF10BDC04690030008B0235B05B6
:100AC0005A782120002A01D05878C0B27047B0234C
:100AD0005B059A89002A02D0988980B270478020ED
:100AE0004000FBE77FB5274B86000D00F458042932
:100AF00001D0012927D100200FE0A3682B420BD1A0
:100B0000E36829001A685B6802920193039302A8C4
:100B1000236898471C4B1C606469002C0BD01B4B4E
:100B20009842EAD1012DE8D1174B18481A68184BA2
:100B30009A5104B070BD012DFBD1144B9842F3D0F3
:100B4000134B9C51F5E7022906D10F4B1B68181E69
:100B5000EFD01C6903E01C006369002BFBD100206F
:100B6000002CE6D0A3682B4209D1E36829001A685B
:100B70005B6802920193039302A823689847246953
:100B8000EEE7C046300400082C040008FF004200D5
:100B9000180400081A4B1B68190088311A68096884
:100BA00051180968016219008C31096852181268DD
:100BB00042621A0046321278002A1FD09A68E03248
:100BC0001268D2061AD5F222DB68D2019A58026066
:100BD000F022D2019A5842600A4A9A5882600A4A20
:100BE0009A58C260094A9A580261094A9A58426161
:100BF000084A9A588261084A9B58C3617047C046A8
:100C0000C405000804780000087800000C78000093
:100C10001078000014780000187800001A4B1B6848
:100C20001A008832196812688A18016A11601A005D
:100C30008C32196812688A18416A11601A004632AB
:100C40001278002A1ED09A68E0321268D20619D5AE
:100C5000F0224168DB68D201995081680B4A9950B3
:100C6000C1680B4A995001690A4A995041690A4A78
:100C700099508169094A9950C169094A9950016896
:100C8000E83299507047C046C40500080478000057
:100C9000087800000C78000010780000147800003C
:100CA00018780000F7B50700FFF708FF664D06004B
:100CB0006B68002B00D07DE0FFF70FFA6B680090A7
:100CC000002B00D089E0614C22681300BA331988E8
:100CD00007234B43126A9B181A68002AFCDADB6868
:100CE000DA0021D51B0F1B0759480193FFF752FF6C
:100CF0005849212E00D075E02268902013008833D7
:100D00001C68136800011C1923680B40034323600F
:100D100013008C3312681B68D3181A6811400843FB
:100D200018604B4B019A13438022484E920531685C
:100D300013430A00BA321088072200244243096A8A
:100D40005218D36054605368FFF7C1FE80235B00E4
:100D500098425DD1380000F05BFB32681300BA3373
:100D6000198807234B43126A9B181A68002AFCDA79
:100D7000DF68FB0003D538010009FFF74FFF364B52
:100D800032681F401300BA33198807234B43126A95
:100D900000989B180022DF605A60FFF7A2F9002C30
:100DA0000FD16B68002B03D008210120FFF79AFEBA
:100DB0002000FEBD01210800FFF794FE041E00D1B3
:100DC0007AE76B68002B03D002210120FFF78AFE2F
:100DD000224B9C42ECD0224CEAE704210120FFF791
:100DE00081FE70E720688022030088331C68036856
:100DF00052001C1923680B401343236003008C33FB
:100E000000681B68C318186801400A431A6088E725
:100E100033681A00BC32196A126852181168002926
:100E200010DBBA331B889A181368002B0ADB0423E3
:100E30000C4A11690B431361012F01D030BF8CE7BD
:100E400020BF8AE7054C88E730040008C405000885
:100E5000F0030008FF00FFFFFFFFFFDF0500420077
:100E6000FF00420000ED00E0C02280200649520051
:100E70008B58C0059B009B0803438B5080238858E8
:100E80001B0603438B5070470000264010B562B626
:100E9000034800F0C1F80020FFF704FFFBE7C0465D
:100EA0000020001010B50020FFF7F8FA10BD7047C1
:100EB00010B50020FFF746FD041E25D0134B186027
:100EC000FFF7BCFB411C200000F0CCF8104B0400E5
:100ED0001860FFF7A5FB411C200000F0C3F80D4B84
:100EE000441E18600C49200000F0BCF8FA210B4B9E
:100EF000013018708900200000F0B4F8084B013070
:100F00001860084BC003186010BDC046840000087C
:100F1000880000088000000840420F00940000088C
:100F2000900000088C00000810B52048FFF71CF95D
:100F3000B022E02130201E4CD200A35889005B0073
:100F40005B08A35063588343635080235B04A35022
:100F5000184B194AE250A02204339201E250FF22BA
:100F6000164BE250FFF780FFC02201215200A35828
:100F70008B43A350FFF79BFFFFF79AFF104B032013
:100F80001A681300BA33198807234B43126A802169
:100F90009B180022DA605A600A4AFFF7C7FA0A482B
:100FA000FFF79AF90948FFF7D3F910BD2014001094
:100FB0000000264084050000010002008C050000AE
:100FC000C40500088003000844040008E014001071
:100FD0009023034A5B01D058032318407047C04652
:100FE0000000204010B59024FFF777F8074B64010C
:100FF0001A5907491140074A0A431A5110225968E1
:101000001142FCD0FFF76DF810BDC0460000204033
:10101000FCFF00000100FA05F8B590250E4C6D01AB
:101020000700FFF75AF863590600DB439B0701D11D
:10103000FFF7D8FF80239B00E7506359074A1A4007
:10104000074B13436351102362681A42FCD03000EF
:10105000FFF747F8F8BDC04600002040FCFF000045
:101060000300FA05002243088B4274D303098B4224
:101070005FD3030A8B4244D3030B8B4228D3030C68
:101080008B420DD3FF22090212BA030C8B4202D30A
:101090001212090265D0030B8B4219D300E0090A32
:1010A000C30B8B4201D3CB03C01A5241830B8B423B
:1010B00001D38B03C01A5241430B8B4201D34B0324
:1010C000C01A5241030B8B4201D30B03C01A524189
:1010D000C30A8B4201D3CB02C01A5241830A8B420E
:1010E00001D38B02C01A5241430A8B4201D34B02F7
:1010F000C01A5241030A8B4201D30B02C01A52415B
:10110000CDD2C3098B4201D3CB01C01A524183090E
:101110008B4201D38B01C01A524143098B4201D348
:101120004B01C01A524103098B4201D30B01C01A73
:101130005241C3088B4201D3CB00C01A52418308ED
:101140008B4201D38B00C01A524143088B4201D31A
:101150004B00C01A5241411A00D20146524110467A
:101160007047FFE701B5002000F006F802BDC04659
:101170000029F7D076E770477047C046002B11D1A1
:10118000002A0FD1002900D1002802D00021C94334
:10119000081C07B4024802A14018029003BDC046D3
:1011A000D9FFFFFF03B4684601B5029800F030F89C
:1011B000019B9E4602B00CBC7047C046F0B5CE46BF
:1011C000474615042D0C2E0080B50704140C3F0C67
:1011D0009946030C7E435D43674363437F19340C98
:1011E000E4199C46A54203D980235B029846C44477
:1011F0004B4643435143250C36046544360C2404C6
:10120000A4195B19591820000CBC90469946F0BDF2
:10121000F0B54F464646D646C0B5040082B00D0034
:10122000914698468B422FD82CD04146484600F034
:10123000CFF829000600200000F0CAF8331A9C46B7
:10124000203B9A4600D576E04B46524693401F001D
:101250004B46624693401E00AF4228D825D05346E5
:10126000A41BBD41002B00DA7BE00022002300928A
:101270000193012352469340019301236246934018
:10128000009318E08242D0D90022002300920193FB
:101290000A9B002B01D01C605D600098019902B090
:1012A0001CBC90469946A246F0BDA342D7D9002265
:1012B0000023009201936346002BE9D0FB07984678
:1012C000414672080A437B0866460EE0AB4201D1F4
:1012D000A2420CD8A41A9D41012024196D4100217D
:1012E000013E24184D41002E06D0AB42EED9013EFE
:1012F00024196D41002EF8D1009801995346001928
:101300006941002B23DB2B005246D3402A00644660
:10131000E2401C0053461500002B2DDB26005746EB
:10132000BE40330026006746BE403200801A994115
:1013300000900191ACE7624620239B1A4A46DA40AE
:101340006146130042468A4017001F4380E7624609
:1013500020239B1A2A0066469A402300F340134339
:10136000D4E76246202300219B1A002200910192BB
:101370000122DA40019280E72023624626009B1A70
:10138000DE402F00B0466646B74046463B0033433A
:10139000C8E7C0461C2101231B04984201D3000C5E
:1013A00010391B0A984201D3000A08391B099842D8
:1013B00001D30009043902A2105C40187047C046EE
:1013C000040302020101010100000000000000000E
:1013D00010B5002903D1FFF7DDFF203002E0081C23
:1013E000FFF7D8FF10BDC04603001218934200D18A
:1013F000704719700133F9E7F8B5C046F8BC08BC6E
:101400009E467047F8B5C046F8BC08BC9E4670477B
:1014100001B40248844601BC604700BF6102000875
:1014200000002040000024400000004000000000B8
:1014300000002340000030400000314000009F4089
:10144000000022400000104000009D40202020208D
:1014500020101010101D1D8017007500FF030602DC
:1014600006003604102000007FC0000000040000C9
:10147000000000000019324B647D00000000008075
:101480004000080B100000000000FF012002001FB8
:1014900000800004FF081018001000140018001C41
:1014A0004044484C500000000810000008000000B4
:1014B00004000000041000000012000004210000DD
:1014C000002100000016000040114002C413001368
:1014D0008013A01340138813A81320001C000000E1
:1014E00003000000010000000100000000000000F7
:1014F000050360000400000001000000000000007F
:10150000010000000604600008000000A4050008B7
:10151000A50E001000000000F8FCFF7F0100000095
:1015200000000010000000088000000040150010BE
:1015300080000008F8020000B00300081802000054
:1015400000093D0000127A0000093D000000D007AC
:10155000A00F000004000000A9000010810000108E
:1015600080B230B5C00020D0104B07221C68230089
:10157000BA331B885A43236AD31819680029FCDA46
:101580003E210B4B062519600A4B0B491960A3211C
:101590000A4BC9005D500A4958505858206A121821
:1015A000002050605A58002AFCDA30BDC4050008FB
:1015B00004012640080126401E1F000000002640AE
:1015C0001C05000010B54378FF2B11D100F0ECF89A
:1015D0000400032000F0F8F8C3685A68012311687A
:1015E0001943116011681942FCD1200000F00CF978
:1015F00010BDF7B500900020019100F0E5F83F4DD7
:1016000006002B681A005033BC3214681B7804198A
:10161000002B5AD000F0E0F8070003281BD000F0A0
:10162000C3F8374A374B0500D358002B3EDA364A09
:101630000121300000F0F0F8002837D10198FFF7C1
:101640008FFF009B002B3ED02368002BFCDB00F0BB
:10165000B3F804002BE0062000F0B6F82B68BC338A
:101660001B68C0180368002B02DA284C2000FEBD5E
:10167000002000F0B9F8264B9842F6D00023254A06
:1016800019001268012000F0B7F80025A842ECD13B
:10169000002000F0A9F81E4A1F4B904203D09D4243
:1016A000E3D00135F4E79D42B9D1DEE7174C032FB3
:1016B00005D10121002000F0B7F80028F9D1280059
:1016C00000F0A2F8D2E7154CF1E700F06DF80E4AF1
:1016D00005000121300000F09FF8002809D1009B8F
:1016E000002B08D02368002BFCDB00F065F8040019
:1016F000E5E7064CE3E7094CE1E7C046C40500080E
:10170000000026401C050000CC0300080500520024
:1017100001018800DC030008F049020001005000CC
:10172000184BF7B51B68184A5C68042311690B4312
:101730001361012824D030BF2300FC331B69002B28
:101740001DD1A320114B1249124AC0000F681E5828
:1017500015680195104D0D6006251D503E20106046
:101760000E483E351D501D58002DFCDA0C48FC3447
:1017700020610F60A321C9005E50019B1360F7BD7B
:1017800020BFD9E7C405000800ED00E000002640B6
:1017900008012640040126401E1F00001C05000011
:1017A000AAAAAAAA0000000001B40248844601BC0B
:1017B000604700BFDB00001001B40248844601BC52
:1017C000604700BF3902001001B40248844601BCE2
:1017D000604700BF7501001001B40248844601BC97
:1017E000604700BFD10F001001B40248844601BC1D
:1017F000604700BFE905001001B40248844601BCFF
:10180000604700BFB903001001B40248844601BC20
:10181000604700BFE300001001B40248844601BCE9
:10182000604700BF9D02001001B40248844601BC1D
:10183000604700BF750500100000000000000000B8
:101840000000000000000000000000000000000098
:1020000000F80F08252300100D0000009923001090
:10201000992300109923001099230010000000005C
:10202000000000000000000000000000F1AA001005
:10203000952300100000000091AB00108DAA001045
:102040009523001095230010952300109523001070
:102050009523001095230010952300109523001060
:102060009523001095230010952300109523001050
:102070009523001095230010952300109523001040
:1022E00010B5054C237833B9044B13B10448AFF350
:1022F00000800123237010BD782C0008000000002E
:10230000EC5A0E1008B5034B1BB103490348AFF359
:10231000008008BD000000007C2C0008EC5A0E1064
:1023200070477047FFF7FCFF72B6144C144DAC4277
:1023300009DA21686268A368043BA2BFC858D0507C
:10234000FAE70C34F3E70F490F4A00209142BCBF73
:1023500041F8040BFAE70D480D490860BFF34F8FB1
:1023600000F03CFA00F020FA08F0DEF95EF0BCFC68
:1023700000F084FB5EF072FCFEE70000F85A0E10DD
:10238000105B0E10782C0008D833010800200008DC
:1023900008ED00E0FEE7FEE700B5042071460842C4
:1023A00002D0EFF3098001E0EFF3088004304EF033
:1023B00097FDFEE708B500F0ADF800F007F800F073
:1023C0009BF800F017F800F01DF808BD08B50021D3
:1023D00008464DF0CFF9FF22002108464DF048F89D
:1023E000002108464DF088F9014842F057FF08BD2A
:1023F000C072061008B5002211462F204DF044F996
:1024000008BD000010B5264C264A0021204647F0A2
:102410001BFE254842F042FF244A0121204647F096
:1024200013FE234842F03AFF224842F037FF04F5FA
:102430004074214A0421204647F006FE1F4842F01E
:102440002DFF1F4A0621204647F0FEFD1D4842F0A1
:1024500025FF1D4A0721204647F0F6FD1B4842F0A4
:102460001DFF1B4842F01AFF1A4842F017FF1A4896
:1024700042F014FF194842F011FF194842F00EFFD4
:10248000184842F00BFF184842F008FF174842F086
:1024900005FF174842F002FF164842F0FFFE10BD4C
:1024A0000000314098730610CC730610D0730610EC
:1024B00004740610EC720610607306109473061014
:1024C000287306105C730610F07206102473061051
:1024D000C4720610C8720610CC720610D0720610B4
:1024E000D4720610D8720610DC720610E072061064
:1024F000E4720610E8720610044B332242F208011F
:102500005A5042F210015A50704700BF000030404C
:10251000FEE7000030B583B0962100204EF032FD7A
:102520004EF0C2FCB0B9724B1C6804F03F044EF090
:10253000ABFC30B101204EF09DFC6E4B9B6C002B30
:1025400023DB6B4B1C604DF0CDFB4DF0B9FB012044
:102550004DF0DCFB01204FF057FA4FF0FFF94FF040
:10256000D7FA4FF0C1FA002108464DF013FB0020C6
:102570004DF07EFA01204DF063FA00204DF076F91F
:102580005D4B1B6893F83F4006E00620FFF7C0FF55
:1025900020464DF0EDFF013C002CF9D10021012037
:1025A0004DF02CFC00204DF0E3FA002800F0848070
:1025B0004DF0D8FC002108464DF020FC00210846D3
:1025C0004DF0B6FA4D4D0024009423462246214694
:1025D000284647F03FFC0094234622460121284626
:1025E00047F038FC46484DF045FB002870D10120EB
:1025F0004DF00EFA00204DF03BFA00204DF020FA8D
:1026000000204DF033F9002101204DF0F7FB0021AF
:1026100008464DF0F3FB002102204DF0EFFB0021B6
:1026200003204DF0EBFB002104204DF0E7FB0021DF
:1026300005204DF0E3FB33484DF0AEFC00284AD1B5
:1026400031484DF025FF002848D1002108464DF0C3
:102650006FFA002108464DF09DFA2C4901204DF0FB
:10266000ADFF00283DD142F2107101204EF0C8F8B4
:10267000002839D100204DF063F94DF021FB0120F5
:102680004DF044FB642100204EF07CFC00F052F839
:102690001F4842F003FE1F4842F000FE1E4842F071
:1026A000FDFD1E4842F0FAFD1D4842F0F7FD1D48B1
:1026B00042F0F4FD03B030BD4DF0CEFB40F21113FB
:1026C00098427FF475AF012100204DF031FA6FE799
:1026D0000520FFF71DFF0420FFF71AFF0420FFF776
:1026E00017FF0320FFF714FF0320FFF711FF00BFC0
:1026F00000FF274000002740002E01080000314065
:1027000040420F0008740610400D03003474061098
:102710001C74061020740610247406102874061009
:102720002C7406103074061008B5012047F0B8FE6E
:1027300008BD704710B500204EF080FA00B910BDFA
:102740000446114B18604DF089F90130B4FBF0F0EC
:102750000E4B18604DF09AF90130B4FBF0F40C4BBD
:102760001C60013C0B4BA3FB04239B0C01330A4A66
:1027700013700A4BA3FB04239B090133084A13601F
:10278000DB03084A1360DAE7E4220008E8220008C5
:10279000E022000883DE1B43F4220008D34D6210C0
:1027A000F0220008EC22000808B5094846F07CFD3C
:1027B000FFF7BFFFFFF7BEFF00221146032047F0DF
:1027C000BBFE044847F03AFD034847F08BFD08BDC7
:1027D00090990710942C00083C74061008B501F07D
:1027E000B0F9074AD2F8883043F47003C2F8883051
:1027F000BFF34F8FBFF36F8F01F0A7F908BD00BF84
:1028000000ED00E008B504484EF03CFD08B10020A2
:1028100008BD0248FCE700BFF822000800000206DD
:10282000004870471C2E000810B584B042F034FDFB
:10283000044638B154B1FFF7BDFD6CB184B12046F8
:1028400004B010BD45F0A0FC0446F3E740F6E441B7
:10285000002045F02BFDEEE7FFF7D4FF0446EDE73F
:1028600013230293122301931123009310231522A3
:102870001421024844F06CFE0446E0E71C2E0008D8
:102880007047000008B503485FF04EFF024B00227E
:102890001A7008BD707406102076000890B5ADF56A
:1028A000835D83B002AF0AF0ADFB002876D1002033
:1028B00007F582531E331880644B07F58252183295
:1028C0001360502307F582521C32138007F58253A0
:1028D0001433009303465E4A07F5825118310AF01B
:1028E00033FC00285FD141F28832114607F582534C
:1028F000143318680AF090FD002859D055485FF04D
:1029000013FF01BE07F1400107F1540341F80839F4
:102910004FF48053CB60002387F838304FF0FF33FB
:102920004B618B614C4B4B604C4BBB620423FB6295
:10293000464B3B631E237B63012307F1280207F507
:102940008250143000680AF017FE0446002836D181
:10295000002C39D1424B1B78002B3FD03B1D0093FC
:1029600000231A4607F1380107F582501430006839
:102970000AF0E2FF68BB3B6A053323F00703ADEBC7
:10298000030D02A8044601233A6A013A9A424DD93E
:10299000F9695A1EC95CA1540133F5E731485FF06B
:1029A000C3FE01BE83E730485FF0BEFE01BE9AE77A
:1029B0002E485FF0B9FE2A4B01221A70A2E72C487C
:1029C0005FF0B2FE01BEC3E729485FF0ADFE01BE75
:1029D000C0E728485FF0A8FE01BECCE741F288328C
:1029E000114607F58253143318680AF015FDB0B18B
:1029F00018485FF099FE01BE3B1D009300231A4664
:102A000007F1380107F58250143000680AF094FF8E
:102A10000028B0D017485FF087FE01BEABE713482F
:102A20005FF082FE0E4B01221A70E5E7002181540F
:102A30000A2260F0B3FF044601460F485FF0EEFD46
:102A4000204607F583570437BD4690BDBC74061079
:102A500085280010FC740610447506106075061079
:102A60002076000890740610DC7406101C750610A1
:102A7000687506108C750610A875061010B582B022
:102A8000FFF7D2FE00B101BE62B64FF4E132282159
:102A900029204FF0F7FA0E485FF0C0FD0D485FF0B7
:102AA00043FE0D485FF040FE0C485FF03DFE002401
:102AB00001940223009323464FF4406208490948D9
:102AC00009F083F909F016FA01BE204602B010BDE4
:102AD000CC750610D87506101876061030760610DC
:102AE000747606107132001000B585B000225021B6
:102AF000134840F03FFBB8B9124A02AB92E803001A
:102B000083E803000093FF2350220D490E4840F054
:102B1000BFF9014670B90D485FF006FE0C485FF042
:102B200003FE05B05DF804FB01460A485FF076FD40
:102B300001BEE1E708485FF071FD01BEEBE700BFB1
:102B4000BC760008F0770610D0770008EC76061007
:102B50002077061088760610B076061010B5074864
:102B600040F085FA064C84FB0034C017C0EBA41477
:102B7000214604485FF052FD204610BDD077000882
:102B8000D34D62104877061008B5FFF7E7FF07EE50
:102B9000900AF8EEE77A17EE900A08BD72B601BE09
:102BA000704730B585B00D4614460023019300935D
:102BB000012302467721204642F086FE18B100200C
:102BC000288005B030BD0123019300230093022328
:102BD00003AA7721204642F0C3FE0028EFD19DF8DA
:102BE0000C209DF80D3043EA02232B800120E8E7FA
:102BF00030B585B00D4614460023019300930123A0
:102C000002467721204642F05FFE18B1002028805E
:102C100005B030BD0123019300230093022303AAD2
:102C20007721204642F09CFE0028EFD19DF80C2031
:102C30009DF80D3043EA02232B800120E8E70000D5
:102C4000F0B587B046485FF0E9FC464A00231370B0
:102C500053804549516030223121444842F00AFDF9
:102C600048BB4049414842F0F1FD38BB40485FF065
:102C70005BFDB2238DF80F30B4238DF80E30BC23EA
:102C80008DF80D30BE238DF80C30384A0DF112014D
:102C90000DF10F00FFF7ACFF30B1344A04A90DF17C
:102CA0000E00FFF7A5FF60B932485FF0B7FCFFF7F1
:102CB00075FF07B0F0BDFFF771FFD2E7FFF76EFFBA
:102CC000D4E72A4A0DF116010DF10D00FFF769FF57
:102CD0000028E9D0254A05A903A8FFF762FF0028CC
:102CE000E2D0BDF9166030465DF01EFA18A3D3E9B4
:102CF00000235DF083FA204BC3E90001BDF9147095
:102D000038465DF011FA00221C4B5DF0A1FB1C4B14
:102D1000C3E90001BDF8124020465DF005FA0EA39C
:102D2000D3E900235DF06AFA164BC3E90001BDF850
:102D3000105028465DF0E8F9134BC3E900010097F5
:102D400033462A46214611485FF068FCB1E700BFD0
:102D50007B14AE47E17AB43F9A9999999999893E43
:102D600064770610C8770008801A060028760008E5
:102D700084770610B4770610B87700080000644026
:102D8000C0770008B0770008A87700088C77061095
:102D900030B587B042F6F463ADF81430F6238DF801
:102DA00010300123019300230093022305AA772109
:102DB0002B4842F089FD18B12046294607B030BDA6
:102DC000002301930093012304AA7721244842F0B1
:102DD0007BFD0028F0D101230193002300930223FF
:102DE00003AA77211E4842F0BBFD0028E4D19DF8DC
:102DF0000C005DF099F900221A4B5DF0FFF90446D2
:102E00000D469DF80D005DF08FF902460B462046F9
:102E100029465DF03DF8144BD3E900235DF036F808
:102E2000124BD3E900235DF0E9F904460D46104B3F
:102E3000D3E900235DF02CF802460B460D49D1E999
:102E400000015DF005FB22462B465DF021F80446AB
:102E50000D4602460B4608485FF0E0FBACE700BFBA
:102E60002876000800007040A8770008B0770008B6
:102E7000C0770008B8770008DC77061008B5FFF7C0
:102E800087FF5DF0CDFB08BD10B584B03EF0F2FECB
:102E900050BB1D4A136843F0040313604FF40070E5
:102EA00007F098FF194B186018B3174A136843F0DE
:102EB00008031360164B029300230193154B0093F4
:102EC000154B164A12684FF400713EF02DFF044670
:102ED000A8B90D4A136843F01003136010485FF05F
:102EE00023FC204604B010BD04460E485FF01CFCD5
:102EF000F7E70D485FF018FC4FF0FF34F1E70B489F
:102F00005FF012FCEDE700BFE07700088C2E0008B0
:102F1000E4770008FD310010142300087C2300082A
:102F2000BC8806107088061098880610E88806107D
:102F300030B5A5B052F076FD18B10025284625B071
:102F400030BD7022002108A85EF052F82D4A06AB71
:102F500007CA03C31A802C4C0FCCCDF83900CDF82A
:102F60003D10CDF84120CDF8453003CCCDF84900D7
:102F7000CDF84D1023788DF85130244B1F9306A9BE
:102F800023485FF04BFB00242546772C32D801A95B
:102F900006A852F02FFB054668B1C4F1770341F251
:102FA000883201461B485FF039FB41F2883009F056
:102FB00029F90134E9E706A917485FF02FFB174A02
:102FC000136843F0020313609DF80430042B09D00A
:102FD000062BB3D102A813F01DF8014610485FF08C
:102FE0001DFBABE702A811F019F901460D485FF08F
:102FF00015FBA3E70C485FF097FB0A210B485FF035
:103000000DFB9BE708890610148906100400400098
:1030100030890610B889061050890610E07700083C
:103020009C89061080890610188A0610488A0610A6
:1030300010B5044607F0C5F80346064A1821204695
:103040005FF0AAFC002801DB002010BD4FF0FF302C
:10305000FBE700BF808A061070B588B002AC344D23
:103060000FCD0FC42B6823800023CDF81A30ADF8A4
:103070001E30304B304A9A60304A1A610A229A81D7
:103080000F229A8202A8FFF7D3FF054688B9294E7E
:1030900002AC346020465FF02FFD81B2B180284B36
:1030A0001A6800929B88224626485FF0B7FA2C46A1
:1030B00017E025485FF038FB2FE01E49234B1868C6
:1030C0003EF05EFF054600B3C4F195034FF4FA628B
:1030D00001461F485FF0A2FA4FF4FA6009F092F837
:1030E0000134952C1CD852F09DFC0028E5D11948DC
:1030F0005FF01AFB184A136823F002031360FFF70E
:1031000017FF05460028D8D007E014485FF00CFBF5
:10311000114A136843F020031360284608B070BDBD
:103120000F485FF001FB05210E485FF077FAF4E7E6
:10313000208F06101C230008988A0610A48A061007
:1031400014230008B48A0610F08A0610E4770008F9
:10315000A48B0610348B0610E0770008848B0610D1
:10316000F88B0610248C061008B51F4B1B6813F053
:10317000200F19D11C4B1B6813F0100F1CD11A4BD8
:103180001B6813F0080F1CD1174B1B6813F0040FBA
:103190001CD1154B1B6813F0020F1AD1124B1B6880
:1031A00013F0010F1DD108BD10485FF0BDFA104BA0
:1031B00018683FF097FADDE70D4B18683FF0CAFA40
:1031C000DDE70C4B186807F015FEDDE73FF010FB5C
:1031D000DFE752F0B1F90028E0D107485FF0A4FA28
:1031E000DCE752F04FFDDEE7E0770008588C061070
:1031F000E47700088C2E0008808C061084B000B59F
:1032000083B005A880E80E009DF81430D3B1012BDF
:1032100021D1134A136823F02003136011485FF093
:1032200083FA02238DF8073000234FF0FF320DF1AF
:1032300007010D48006807F091FF03B05DF804EB4B
:1032400004B07047064A136843F04003136007A8B0
:1032500000F00EFCF1E705485FF066FAEDE700BF0D
:10326000E0770008A08C0610DC770008D08C0610F0
:1032700010B588B000228DF80C200121032007F042
:103280000FFF684B186003A851F0F8FF08BB664AAF
:10329000136843F00103136064485FF045FAFFF7D9
:1032A00047FEC8B9FFF7F0FDB0B9FFF7D5FE98B9F2
:1032B0005F4B01930223009300234FF480625D492A
:1032C0005D4808F082FD012827D05C485FF02CFAA9
:1032D00002E05B485FF028FA5A485FF025FA544B49
:1032E000186808B108F0A6FD574B186808B108F037
:1032F000A1FD564B186808B108F09CFD534B1868A7
:1033000008B108F097FDFFF72FFF51485FF00CFA66
:10331000002008F08FFD08B010BD4FF4FA6008F0EF
:1033200071FF494B01930223009300234FF4806205
:103330004849494808F049FD012803D047485FF053
:10334000F3F9C9E7414B01930323009300234FF4A2
:10335000A0524349434808F038FD012803D04248B1
:103360005FF05CF9B8E7414B01930423009300231D
:103370004FF480623E493F4808F027FD012803D002
:103380003D485FF04BF9A7E73C48FFF779FA1BE0AF
:103390003B485FF0C9F9FFF75FFE00289CD100248D
:1033A0008DF81C4023464FF0FF3207A935480068CE
:1033B00007F0D4FE8DF8104023464FF0FF3204A9E9
:1033C0003148006807F0CAFE4FF0FF320DF11F01CF
:1033D000144B186808F09AF80128F5D19DF81F30B1
:1033E000022BF1D101238DF8103000234FF0FF3272
:1033F00004A92548006807F0B1FE244B18683FF087
:1034000071F952F00FFB0028C2D1074A136823F06C
:10341000020313601E485FF087F9FFF789FD00285B
:10342000B6D059E7DC770008E0770008308D061049
:1034300008780008588D0610E5390010688D0610D0
:10344000FC8C0610C48E0610F8770008F47700088C
:10345000F48E0610908D061005370010A08D061012
:10346000C48D061009380010DC8D0610EC770008BA
:103470000C8E0610AD340010208E0610488E0610FB
:10348000A48E06100478000800780008E47700088D
:10349000808E061000B9704708B5014602485FF0FB
:1034A000BDF801BE08BD00BF388F061000B52DED78
:1034B000048B93B000228DF8132003920123029312
:1034C00001920093FF22512107A842F0C5FDD0B917
:1034D0003C22002107A842F013FFD0B907A842F010
:1034E00047FF0146C0B900220821052007F0D8FD9A
:1034F0004E4B18609FED4E9ADFED4E9AB0EE498A22
:10350000F0EE698A4CE001464B485FF087F801BE57
:10351000DEE7FFF7BFFFE1E748485FF07FF801BE55
:10352000E1E7DDED068A18EE900A5CF00FFE024638
:103530000B4643485FF072F843E09DED068A18EEB3
:10354000100A5CF003FE02460B463E485FF066F848
:1035500037E0DDED069A19EE900A5CF0F7FD0246C1
:103560000B4639485FF05AF82BE03C22002107A8AF
:1035700042F0C6FEFFF78EFF00238DF8133004E003
:10358000B4EE498AF1EE10FA45D100234FF0FF3234
:103590000DF113012D48006807F0E0FDB0EE489AE8
:1035A0004FF0FF3205A9214B186807F0AFFF012843
:1035B000F6D19DF81430012BBFD0022BC9D0002BBF
:1035C000AFD0DFED1C7AF4EE678AF1EE10FADCD0B2
:1035D000B4EE678AF1EE10FAD7D0F4EE679AF1EE06
:1035E00010FAD2D0F7EE007AB4EE678AF1EE10FA54
:1035F000C6D179EEA77AF4EEE87AF1EE10FAB4D5F6
:103600003C22134907A842F07BFEFFF743FF022349
:103610008DF81330B9E73C22002107A842F070FE74
:10362000FFF738FF00238DF81330AEE7E877000886
:103630000000000000007A44748F0610A88F061066
:10364000DC8F06101090061038900610F0770008F6
:103650000000484208B5012302220021042041F065
:10366000E9FB00220549042041F02AFC0123052240
:103670000221042041F03CFC08BD00BF813600104F
:1036800000B585B00023039302238DF800300F4B63
:1036900002930F4B1B68ABB90E4B0193002303AA97
:1036A00069460D48006807F053FE039B3BB10B4B86
:1036B0004FF080521A60BFF34F8FBFF36F8F05B08A
:1036C0005DF804FB064B0193E8E700BF6890061025
:1036D00094230008749006100078000804ED00E0C0
:1036E0008090061008B500221146042041F0E8FB46
:1036F000002305220221042041F0FAFB042041F0BE
:10370000C7FC08BD70B584B0FFF7A4FF00220C21F0
:10371000032007F0C5FC234B186001E0FFF7E2FF30
:103720004FF0FF3201A91F4B186807F0EFFE012888
:10373000F6D19DF80430012BF0D0022B04D0002BE1
:10374000EED1FFF787FFEBE7039E174C666030462C
:103750005FF0D2F92081029DE56028465FF0CCF948
:1037600020613246294611485EF058FF2146104B31
:1037700018683EF0F3FC014618B90E48FFF780F8D0
:10378000CEE70D485EF04AFF01238DF80330002399
:103790004FF0FF320DF103010848006807F0DEFC2E
:1037A000EBE700BF0078000880230008889006102F
:1037B000E4770008F4900610BC900610DC7700084F
:1037C00030B585B002258DF804500C4B03930520CD
:1037D0005DF0C8FB04462A4609495FF011F90294DE
:1037E00000234FF47A7201A90648006807F0B6FC7E
:1037F00020465DF0BFFB05B030BD00BF289106102C
:1038000030910610007800082DE9F0438FB00223B4
:103810008DF82C3000248DF824408DF82340424A46
:1038200006AB92E8030083E8030082205DF09AFB78
:103830008046FFF759F9FFF703FAFFF7C1FF224669
:103840000121032007F02CFC384B18602646254642
:1038500053E09DF82330012B0AD0022B0FD0002B10
:1038600055D1314A06AB92E8030083E803004EE0ED
:103870002F4A06AB92E8030083E8030047E02D4A95
:1038800006AB92E8030083E8030040E0FFF706F888
:103890000446002006F07AFF05460026002CF5D0ED
:1038A000B6F5967FF2D8002006F070FF461BA319EC
:1038B00006AA0592049348465CF048FCCDE9020153
:1038C00038465CF043FCCDE9000102221A4940462B
:1038D0005FF096F8CDF830800A9700234FF47A72A3
:1038E0000BA91648006807F039FC00234FF47A72E0
:1038F00009A91348006807F031FC4FF0FF320DF1C1
:1039000023010A4B186807F001FE0128A1D00D4BD6
:103910000D9341F2883008F075FCFFF7AFFA0746C7
:10392000FFF732F98146B9E790910610F077000869
:1039300098910610A0910610449106100078000896
:10394000E87700083491061030B583B0002425468E
:1039500004E04FF47A7008F055FC0134022C0ED8C4
:1039600001221149114B18683EF0EEFC0546002873
:10397000EFD10D4B5A6819890D485EF04FFE0DB915
:1039800003B030BD032229460A485EF047FE0023FB
:103990008DF807304FF0FF320DF10701064800683F
:1039A00007F0DCFBECE700BF98230008E477000891
:1039B000A8910610E4910610DC77000808B50122F2
:1039C0000549064B18683EF0C9FD00B908BD01461F
:1039D00003485EF023FEF9E798230008E477000827
:1039E0002492061000B583B00123022219466F20ED
:1039F00041F020FAFFF7A8FF00220221012007F082
:103A00004FFB174B186001E0FFF7D8FF4FF0FF3274
:103A100001A9134B186807F079FD0128F6D19DF82C
:103A20000430012BF0D0022B04D0002BEED1FFF795
:103A30008BFFEBE79DF805200A4B1B689869003A5D
:103A400018BF0122072100F5D06046F065FA9DF805
:103A50000520054B1A600548FEF712FFD6E700BFA8
:103A600004780008002E0108942300085C920610D8
:103A700010B586B0C46803690194009390F90030D2
:103A80004268018924485EF0C9FD0A222146234884
:103A90005FF03AF820B30A22214621485FF034F85B
:103AA000002834D1022204F10A0103A85FF03EF895
:103AB00000248DF80E40214603A85FF091FE0223FA
:103AC0008DF81030059023464FF0FF3204A91548B9
:103AD000006807F043FB1448FEF7D2FE06B010BDA5
:103AE000A37A8DF80C3000248DF80D40214603A8F0
:103AF0005FF076FE01238DF81030059023464FF0DD
:103B0000FF3204A90748006807F028FBE3E70748ED
:103B10005EF00AFEE2E700BF8892061004930610EA
:103B200010930610E8770008589306101C930610AF
:103B30000230800803D001300238FCD100BF00BF42
:103B40007047EFF3108072B6704780F310887047AB
:103B5000034B0360034B0B6080231360704700BF6F
:103B6000A8340008A82E0008034B0360034B0B6029
:103B70004FF4807313607047A4350008A830000824
:103B800070B582B00546002301931F4B1B68C3B17B
:103B90001D4B1B689BB1FFF7D4FF044608F03CFDAA
:103BA00050B14FF47A7000FB05F01849A1FB0031C9
:103BB0008E09B0F57A7F0ED22046FFF7C6FF02B01D
:103BC00070BD134842F00EF918B90F4B104A1A6035
:103BD000DEE701BEDCE7012301AA31460A4800689E
:103BE00044F006FB0028E7D1019BB34200D901BE97
:103BF000019B4FF47A7000FB03F0044BA3FB0030F1
:103C0000800908F0DDF9D7E7902E0008D34D621047
:103C1000942E000808B509F0BFF803680BB140689E
:103C2000984708BD2DE9F04784B00C9D002843D08B
:103C30000F4690461C468146B5F5967F3ED313B19C
:103C400013F0070F3ED184B3002606F5847007F009
:103C5000C1F88246002837D025F00705AD083CB3EF
:103C6000564403220021012007F01AFAC6F8FC008E
:103C700000B3184BC6F80031C6F804A116F0070FC0
:103C800000D001BE029601949DF8343000930E9B43
:103C90002A464146384608F057F8C9F800008642DF
:103CA00014D0A8B101BE002009E025F00706CCE73A
:103CB0000446D5E701BEDCE7074800E0064804B04B
:103CC000BDE8F0870548FAE70548F8E70020F6E781
:103CD0000020F4E701EFCDAB05000E0606000E064E
:103CE00001000E0610B508F0BBFC0446D0F8002118
:103CF000074B9A4204D001BE204608F04DFBFBE77B
:103D000000231A461946D0F8FC0007F027FAF3E71B
:103D100001EFCDABE0B110B50446006808F08AF8B9
:103D2000246808F03FF9D4F800210A4B9A4203D0E6
:103D300008F0ECF9002010BD0023C4F80031D4F8DD
:103D4000FC0007F011FED4F8040107F053F8EFE788
:103D50000148704701EFCDAB05000E06A8B110B5C4
:103D600004460368D3F80011094A914203D00020A9
:103D70000023236010BD4FF0FF31D3F8FC0007F0A3
:103D800073FC2046FFF7C6FFF2E70248704700BF0A
:103D900001EFCDAB05000E0680B110B504460171F0
:103DA00031B1042007F0A8FA206028B1002010BD2E
:103DB000012007F0A1FAF7E70148F8E7014870474A
:103DC00001000E0605000E06B0B108B54FF47A7377
:103DD00003FB01F1094BA3FB0131890903792BB1E5
:103DE000006807F011FD28B1002008BD006807F049
:103DF0003BFCF8E70248F8E702487047D34D6210F1
:103E000000000E0605000E0688B110B503792BB12F
:103E1000006807F07CFA40B1002010BD00231A466C
:103E20001946006807F09AF9F5E70248F5E70248F5
:103E3000704700BF02000E0605000E0628B108B547
:103E4000006807F091FD002008BD0148704700BFE1
:103E500005000E0660B110B50B4611460446184623
:103E600007F05CF9206008B1002010BD0148FCE7B4
:103E70000148704701000E0605000E0610B582B01D
:103E800000230193D0B1044602B1C9B94FF47A734B
:103E900003FB01F10D4BA3FB0131890942B101AADA
:103EA0000021206807F0D1FC60B1002002B010BDF5
:103EB000206807F0D9FB38B10020F7E70448F5E7A0
:103EC0000348F3E70348F1E70248EFE7D34D6210F8
:103ED00005000E0600000E0610B582B00023019307
:103EE000D8B171B101A9006807F0A9FA019B73B1BB
:103EF0000B4B4FF080521A60BFF34F8FBFF36F8FA1
:103F000005E000231A461946006807F027F910B1AA
:103F1000002002B010BD0348FBE70348F9E700BFEB
:103F200004ED00E002000E0605000E0628B108B5FB
:103F3000006807F019FD002008BD0148704700BF68
:103F400005000E0668B110B50B4611460446002266
:103F5000184607F0A5F8206008B1002010BD0248FF
:103F6000FCE70248704700BF01000E0605000E0680
:103F7000C8B110B5C9B13BB100231A46006807F0BB
:103F8000E7F970B1002010BD4FF47A7303FB02F221
:103F9000074BA3FB023200239209006807F0DEF80A
:103FA000EFE70448EFE7044870470348EBE700BF3A
:103FB000D34D621002000E0605000E06B8B110B512
:103FC000B9B133B10022006807F03FFC68B10020AE
:103FD00010BD4FF47A7303FB02F2074BA3FB0232CE
:103FE0009209006807F092FAF0E70448F0E7044805
:103FF00070470348ECE700BFD34D621002000E0685
:1040000005000E0628B108B5006807F0ADFC0020D9
:1040100008BD0148704700BF05000E0630B32DE90A
:10402000F04182B014461D4607460AB3B1B94FF0BD
:10403000010808205CF096FF0646D8B10460456090
:104040000D4B00930346424601210C4808F0DCFC6E
:10405000386030B1002002B0BDE8F0814FF00008B8
:10406000E7E730465CF086FF0548F4E7054870470F
:104070000448F0E70248EEE7153C0010C41D0710A5
:1040800001000E0605000E0618B310B582B00446F6
:104090004FF47A7202FB01F20F49A1FB02320023B6
:1040A000009392090421006808F0CAFC012803D09B
:1040B00068B1002002B010BD246807F07BFF024603
:1040C000002300930121204608F0BAFCF0E70348E2
:1040D000F0E70348704700BFD34D621002000E06A0
:1040E00005000E0670B110B582B000220092134692
:1040F0000321006808F0A4FC10B1002002B010BD3C
:104100000148FBE70148704702000E0605000E0655
:1041100058B110B50C4651B1006808F022FE0038C5
:1041200018BF01202070002010BD024870470148D0
:10413000FAE700BF05000E06B0B130B583B0054602
:10414000006808F029FE044600220092134605216B
:10415000286808F075FC10B9044803B030BD20464B
:104160005CF008FF0020F8E70148704702000E06E7
:1041700005000E0630B110B5044607F01BFF2060A5
:10418000002010BD0048704705000E0608B54FF42A
:104190007A7303FB00F0044BA3FB0030800908F0A6
:1041A00031F8002008BD00BFD34D621010B582B0B9
:1041B000044600234FF0FF3269462046FFF7FEFE1B
:1041C0000028F6D1009B13B101989847F1E7FFF75B
:1041D00089FD02B010BD000070B584B004460E46E3
:1041E00001B100B901BEB36813B1736803B901BE70
:1041F000002323606360A360E360316901B910218B
:1042000008222046FFF79EFE054680B9012323734E
:1042100004F10800F2686AB102943378019373687C
:104220000093B3680749FFF7FDFC054620B928460F
:1042300004B070BD044AEFE7002323732046FFF764
:10424000E1FEF4E7AD4100108093061070B582B036
:104250000446FFF776FC0546237B002B3ED0012B5E
:1042600013D00026237B042B29D1237BBBB3284604
:10427000FFF76BFC2046FFF7C5FE064690BBFFF735
:1042800060FC05460023237329E003232373FFF713
:104290005CFC002200920192EFF305839B1A18BF89
:1042A000012369462046FFF763FE06460028D9D061
:1042B000FFF747FC01232373FFF747FC12E0284672
:1042C000FFF743FC04F10800FFF748FD064648B934
:1042D000FFF737FC054604232373C6E7002628466C
:1042E000FFF733FC304602B070BD000070B582B0FD
:1042F0000D461646044640B34DB3FFF722FC237B20
:10430000013BDBB2012B24D86368013363600223D5
:104310002373FFF71AFC00950196EFF30583003B2A
:1043200018BF0123002269462046FFF721FE0546FB
:10433000FFF707FC6368013B63600BB9012323733C
:10434000FFF703FC284602B070BD01BED4E701BEF2
:10435000D3E7FFF7FAFB014DF4E700BF20000E069C
:104360000020704770B518B1064641B100240FE037
:10437000114B124A40F2E14111485CF073FB114BC2
:104380000E4A40F2E2410E485CF06CFB35550134B8
:1043900094420AD20D5D0D2D09D00A2D09D0012BB2
:1043A000F4D13A2DF2D1002000E0304670BD00205B
:1043B000FCE70020FAE700BF8C930610849B0610F0
:1043C0009C93061008940610F8B5E1B10C46092A32
:1043D00020D9002825DB002500221D4981FB003162
:1043E000C317C3EBA103194603EB8303A0EB4303FD
:1043F0002E465019303323540132D2B208460029D8
:10440000EBD100231EE0134B134A40F2B341134893
:104410005CF028FB124B104A40F2B4410F485CF0AC
:1044200021FB2D230B7040420125D5E7F018275CB6
:104430009119C91A013914F801C004F800C0675471
:104440000133DBB2B3EB520FF0D35019C0B2F8BD59
:1044500067666666A8AA0610709B06109C930610F5
:10446000189406102DE9F84FE0B1884617461C460F
:1044700006464368EBB11AB3234B994227D04FF05D
:104480000A0AC04781460025002C3AD0002D38D1B9
:10449000736822463946B0689847B0F1000B19DAC4
:1044A0000225F1E7194B1A4A40F2DB6119485CF02A
:1044B000D9FA194B164A40F2DC6116485CF0D2FA80
:1044C000164B134A40F2DD6112485CF0CBFA4FF014
:1044D000000AD6E70EDDA34505D8C0478146A4EB08
:1044E0000B045F44D0E70E4B094A40F2FE610948D5
:1044F0005CF0B8FAC047A0EB09039A45C4D802257E
:10450000C2E72846BDE8F88F6143001048940610C2
:10451000C89B06109C9306105C94061078940610B5
:104520008894061010B538B10446406858B18AB175
:104530002046FFF797FF10BD0A4B0B4A40F26C7103
:104540000A485CF08FFA0A4B074A40F26D7107483F
:104550005CF088FA074B044A40F26E7103485CF045
:1045600081FA00BF48940610009C06109C93061028
:104570005C940610B094061008B530B183695BB145
:10458000022283F82020002008BD074B074A40F292
:10459000AA3107485CF066FA064B044A40F2AB3198
:1045A00003485CF05FFA00BFC8940610F49A061046
:1045B0009C930610DC94061030B583B0F8B1044625
:1045C000436A1BB3026BC2B1826BB2B19A6AB2F199
:1045D000FF3F22D001329A629A684AB1156850684A
:1045E0001B8C0193E36B0093A36B626B216BA84759
:1045F000002323636363A363E36303B030BD0A4B0B
:104600000A4A4FF40C710A485CF02CFA094B074A2D
:1046100040F2312106485CF025FA074B034A40F28C
:104620003A2103485CF01EFAF89406101C9A061012
:104630009C930610109506103495061038B5002886
:1046400039D00146806900283CD0436A002B40D015
:10465000C26A002A44D01C68A24248D35D682C4438
:10466000A2424BD21C69002C56D0A2424DD9121B3B
:104670005A61D1E90245B5F1FF3F08BFB4F1FF3FF0
:104680004DD05C620A8812F0100F03D0DA6A42F053
:104690000102DA620A8812F0080F03D0DA6A42F0E7
:1046A0000202DA6290F82830012B3BD00024FFF799
:1046B00083FF204638BD1C4B1C4A40F205311C4884
:1046C0005CF0D0F91B4B194A40F2063118485CF0F7
:1046D000C9F9194B154A40F20B3115485CF0C2F983
:1046E000164B124A4FF4437111485CF0BBF9144B5E
:1046F0000E4A4FF444710E485CF0B4F9114B0B4A6A
:1047000040F211310A485CF0ADF90F4B074A4FF403
:10471000477107485CF0A6F900225A61A9E7002218
:104720005A62AFE70124C2E7C8940610B49A061093
:104730009C930610DC940610589506106C95061094
:1047400090950610D89506103896061008B568B1F1
:10475000836993B1C1B18818D862986BD8B1D96B0D
:104760000A44DA631B6BCBB1002008BD0F4B104A23
:104770004FF436710F485CF075F90F4B0C4A40F25C
:10478000D9210C485CF06EF90C4B094A40F2DA2151
:1047900008485CF067F99963DA63E3E7084B044A79
:1047A00040F2F32103485CF05DF900BFC8940610A5
:1047B000949A06109C930610DC94061080960610BE
:1047C0009096061070B5B8B10E4615468469D4B1FE
:1047D00001B3636A2BB31A6952B37319E3622046BB
:1047E000FFF7EAFE236B2BB3626BEB439A4224D8AC
:1047F0002A446263002070BD134B144A4FF42871A1
:1048000013485CF02FF9134B104A40F2A1211048D5
:104810005CF028F9104B0D4A40F2A2210C485CF0E4
:1048200021F90E4B094A40F2A72109485CF01AF918
:104830001961D2E726636563DCE7094B034A4FF44D
:10484000317103485CF00EF9C8940610749A061092
:104850009C930610DC94061080960610589506105E
:10486000BC96061038B578B1044683699BB1C9B1CE
:104870005D6AF5B11144D9620020186358639863EA
:10488000D863A38A2B8438BD0D4B0E4A40F27721A2
:104890000D485CF0E7F80D4B0A4A4FF41E710A48C8
:1048A0005CF0E0F80A4B074A40F2792106485CF0D8
:1048B000D9F8084B034A40F27E2103485CF0D2F855
:1048C000C8940610589A06109C930610DC940610A3
:1048D000809606105895061008B530B183695BB113
:1048E000012283F82020002008BD074B074A40F230
:1048F000612107485CF0B6F8064B044A40F2622199
:1049000003485CF0AFF800BFC8940610349A061054
:104910009C930610DC94061008B5B0B1C37D03F07B
:104920007F031E2B2CD8DFE803F0172B2B2B2B2B10
:104930002B2B2B2B2B172D191D1F2B2B2B2B2B2B05
:104940002B232527291B212B21000F4B0F4A40F237
:10495000DE310F485CF086F8002000E0072008BD3B
:104960000820FCE70920FAE70A20F8E70B20F6E721
:104970000B20F4E70B20F2E70C20F0E70C20EEE729
:104980000D20ECE70620EAE7C8940610449B0610C9
:104990009C93061008B5022806D891420BD8B8B1EE
:1049A00001280FD0002008BD0A4B0B4A4FF4F061DC
:1049B0000A485CF057F80A4B074A40F282710748F0
:1049C0005CF050F8914201D00320ECE70520EAE7C3
:1049D0000420E8E7F8960610109C06109C93061039
:1049E000449706102DE9F041B0B114461D46074624
:1049F0000668C6B1F1B122B302F10C0345B3069AC1
:104A00004ABB4FF001089844BB6843447A6893421C
:104A100024D90520BDE8F081244B254A40F2B45149
:104A200024485CF01FF8244B214A40F2B55121483C
:104A30005CF018F8214B1E4A40F2B6511D485CF05C
:104A400011F81F4B1A4A40F2B7511A485CF00AF8A5
:104A50004FF00108D7E7DDF81880D4E7224630464A
:104A60005EF064F83319202232555C1C0DB1069AB1
:104A70009AB92F225A709E1C3246202302F8013B1D
:104A8000104B03CBC6F8010051600F4B1B88A6F8F2
:104A90000930C7F808800020BCE7069A294620465E
:104AA0005EF044F8069BE618E6E700BF689706103C
:104AB000B49B06109C93061080970610A4970610CE
:104AC000B4970610C4970610447706102DE9F84FE6
:104AD000DDF828A040B30F46164698468146046884
:104AE0004CB379B3002B34D0002A39D0BAF1000F7F
:104AF0003DD0D0F808B05C44BBF1030F08D90422C4
:104B00002F49201F5EF000F810B9ABF1020B023CF8
:104B100006EB0A0506355D44D9F804309D422DD9CF
:104B200005231846BDE8F88F264B274A40F214515A
:104B300026485BF097FF264B234A40F21551234845
:104B40005BF090FF234B204A40F216511F485BF068
:104B500089FF214B1C4A40F217511C485BF082FF31
:104B60001E4B194A4FF4A36118485BF07BFF1C4BA6
:104B7000154A40F2195115485BF074FF0123324683
:104B800039462046FFF7EEFB68B1A319154A128893
:104B9000A2539C1C0023524641462046FFF7E2FBED
:104BA00058B1002300E00B23002BBAD1044A10684F
:104BB00044F80A00C9F80850B3E70B23B1E700BF77
:104BC0001098061068970610989B06109C93061084
:104BD00080970610D0970610E0970610F097061001
:104BE000009806104483071010B586B002460023D3
:104BF00003930493ADF8143078B10846144699B184
:104C00000A2203A9FFF7E0FB009003AB0E220A493A
:104C10002046FFF75BFF06B010BD084B084A40F284
:104C2000267108485BF01EFF074B054A40F22771CA
:104C300004485BF017FF00BF2C9806106897061019
:104C4000D89B06109C9306101898061070B588B172
:104C50000E461446054642689AB1CCB1049A12F049
:104C6000010F00D1DBB9A368226831462846FFF75F
:104C7000F9FB70BD0D4B0E4A4FF4E9610D485BF036
:104C8000F1FE0D4B0A4A40F249710A485BF0EAFE18
:104C90000A4B074A40F24A7106485BF0E3FE1946A8
:104CA0002046FFF7A1FF0028E3D1DCE74894061077
:104CB000F09B06109C9306105C94061068970610F3
:104CC000F0B583B0089FB0B10C461D460646CAB188
:104CD000FBB13CB3099B00933B4621463046FFF7AE
:104CE000B5FF30B92DB13B462A4621463046FFF785
:104CF00019FC03B0F0BD0F4B0F4A40F624010F48DA
:104D00005BF0B0FE0E4B0C4A40F625010B485BF001
:104D1000A9FE002FDDD00B4B074A40F626010748BD
:104D20005BF0A0FE084B044A40F6280103485BF004
:104D300099FE00BF48940610449C06109C930610F0
:104D4000689706103C9806109898061070B58AB0BF
:104D500008B30C46154606460023049305930693B4
:104D600007930893CDF82330184B93E80300039082
:104D7000ADF8101015220DF112012046FFF724FBAB
:104D8000831DB5F1FF3F0DD1002C16DB03AA2D21A9
:104D9000D154C31D11E00E4B0E4A4FF4AE610E48C4
:104DA0005BF060FE03A92D22CA54C41DC0F1140299
:104DB00021442846FFF708FB0319009303AB0522A3
:104DC00006493046FFF782FE0AB070BDB098061063
:104DD00068970610A49B06109C930610B8980610BE
:104DE00038B5D0B10C460546F1B18B680F2B22D9EE
:104DF000012103F04FF94FF4006003F071F9002333
:104E000085F820306B6204220E4920685DF07CFE3C
:104E100010B9012385F8283038BD0B4B0B4A4FF4ED
:104E20006F710B485BF01EFE0A4B084A40F2BD3121
:104E300007485BF017FE084B044A40F2BE310448B5
:104E40005BF010FE00990610F8940610189B0610EF
:104E50009C93061068970610C098061070B58AB02B
:104E600004460D4616462822002168465CF0C0F82C
:104E700034B3002D2BD0636A002B2FD0AB4239D135
:104E8000684603F026F91F4B00931F4B02931F4BFC
:104E900003931F4B04931F4B05931F4B06931F4B0C
:104EA0000793A461E56A33462A466946204600F026
:104EB000C3FB0544E5622046FFF72EFD0AB070BD36
:104EC000174B184A4FF48B6117485BF0CBFD174B1B
:104ED000144A40F2594114485BF0C4FD65622B68E6
:104EE000E36200232B84AB61EB612B616B61AB62EE
:104EF000EB62C5E70E4B0B4A40F275410A485BF086
:104F0000B1FD00BFD948001065480010C54700102A
:104F10004D4700103D4600107550001079450010B7
:104F2000F89406105C9B06109C930610589506108A
:104F3000089906102DE9F04F93B080460D461446AF
:104F40004022002102A85CF053F8B8F1000F16D0FF
:104F5000D8F80030D3B105B334B3214602A8FFF727
:104F60003FFFEB683C4A934225D04FF00A0B98472D
:104F700001904FF0000A01275646D14645E0374BD5
:104F8000374A40F2B57137485BF06CFD364B344A16
:104F900040F2B67133485BF065FD344B304A40F265
:104FA000B77130485BF05EFD314B2D4A4FF4F7612D
:104FB0002C485BF057FD4FF0000BD8E7EB689847A3
:104FC000019BC01A834515D9002302E000234FF04E
:104FD0000209012B11D0B9F1000F15D1BAF1000F60
:104FE00026D19DF82830022B24D06B68B3420CD810
:104FF00000270AE0BA463B46EBE72246294602A8CC
:10500000FFF72CFF8146E6E70027AFB1D8F8003064
:1050100029686A68921B3144D8F808009847041E32
:10502000D4DBCBDDEB689847019026443B46D0E7C4
:105030000027EAE70027E8E7B9F1000F03D0484668
:1050400013B0BDE8F08F6A6831469DF82800FFF77D
:10505000A1FC8146F3E700BF6143001048940610AD
:10506000289C06109C93061030990610589506103F
:1050700068970610F8B5F8B10C461646876917B35D
:1050800041B37D6A002D2CD02B68002B30D08B4291
:1050900035D86A6813448B4238D9AB69002B3CD0B1
:1050A000A869EB69184484423AD8EB693344EB6150
:1050B0003444FC620020F8BD1C4B1D4A40F26231B2
:1050C0001C485BF0CFFC1C4B194A40F26331194875
:1050D0005BF0C8FC194B164A4FF4597115485BF048
:1050E000C1FC174B124A40F2693112485BF0BAFC1E
:1050F000144B0F4A40F26A310E485BF0B3FC124B7E
:105100000B4A40F26B310B485BF0ACFC0F4B084A8A
:105110004FF45B7107485BF0A5FCA961EB61BFE749
:10512000324621465BF04AFFBFE700BFC894061035
:10513000D89A06109C930610DC94061080960610F0
:10514000589506104C990610689906109899061003
:1051500030B583B00C460546B0B10368F3B1F9B180
:105160000B68FBB10B69FBB14B68FBB14B690BB929
:1051700001200AE000238360CB6800938B684A68B3
:105180000968FFF72FFC00E0012088B1C8B118B909
:10519000A36913F0010F1DD103B030BD0120F4E766
:1051A0000120F2E70120F0E70120EEE70120ECE723
:1051B000142300930B4B0A220B492846FFF786FC69
:1051C000E4E7636900932369042208492846FFF74E
:1051D0007DFCDCE70A220092054B06492846FFF7D2
:1051E00075FCD9E7E0990610F8990610607506106D
:1051F000049A0610109A0610A8B130B583B0044680
:10520000006890B1A1B1ABB1B2B10698B0B1A568D8
:105210006068854201D9012008E006980090204688
:10522000FFF754FC02E001207047012003B030BDBD
:105230000120FBE70120F9E70120F7E70120F5E76E
:10524000F8B103460068F0B110B59C685868844214
:105250001BD8B2F1FF3F1ADB002909DBB2F1FF3F97
:1052600001D08A4215DBB1F1004F06D101200DE0DB
:10527000B2F1FF3FF2D0012008E01846FFF766FDCB
:1052800004E00120704701207047012010BD01207B
:10529000FCE70120FAE7000030B583B00C46054674
:1052A00048B3416859B3016859B364B3216861B325
:1052B000A1680F292BD9606881422AD8069951B379
:1052C000096851B37AB1002B29DB0699C96871B11D
:1052D000079901910093134622460699C96828460A
:1052E000FFF7EEFC08E0002BEDD0012004E01049B0
:1052F0000698C160ECE7012098B103B030BD0120F1
:10530000FAE70120F8E70120F6E70120F4E70120A1
:10531000F2E70120F0E70120EEE70120ECE70120B1
:10532000EAE7224606992846FFF704FEE5E700BFB4
:1053300061430010202900F0D4800D2900F0D380B3
:105340000A2900F0D280092900F0D1800C2900F050
:10535000D08010B4A0F114030B2B00F2CC80DFE856
:1053600003F0061520272F2F2C808F8F9EAE2F291C
:1053700000F0C3802A2900F0C28041F02003613B85
:10538000DBB2192B40F2BD8001200EE041F020037A
:10539000613BDBB2192B08D93A2900F0B480012017
:1053A00003E02F2900F0B18001205DF8044B704725
:1053B0002F2900F0AC800120F7E7402900F0A980F8
:1053C0002F2900F0A8803F2900F0A780402900F095
:1053D000A68041F02003613BDBB2192B40F2A18093
:1053E000A1F13003DBB2092B40F29D802D2900F0A2
:1053F0009C805F2900F09B802E2900F09A80212953
:1054000000F099807E2900F098802A2900F097808A
:10541000272900F09680282900F09580292900F09E
:105420009480252900F093803B2900F092803A294E
:1054300000F09180262900F090803D2900F08F80B7
:105440002B2900F08E80242900F08D802C2900F07B
:105450008C805B2900F08B805D2900F08A80012020
:10546000A3E7CB084B4AD25C01F007040123A34019
:105470001A429AD123297ED03F297ED11C2094E75D
:10548000CB08444AD25C01F00700012383401A4252
:1054900075D1232975D03F2975D11D2085E7CB080B
:1054A0003C4AD25C01F007040123A3401A426CD1AC
:1054B00023293FF47AAF3F2969D11F2075E7CB0834
:1054C000344AD25C01F007040123A3401A427FF45E
:1054D0006CAF23293FF469AF3F293FF466AF012049
:1054E00063E70120704701207047012070470120C9
:1054F000704701207047012057E71B2055E71B200C
:1055000053E7152051E716204FE717204DE71820E5
:105510004BE7012049E71B2047E71C2045E71A20FD
:1055200043E7192041E719203FE719203DE71920FB
:105530003BE7192039E7192037E7192035E719200B
:1055400033E7192031E719202FE719202DE719201B
:105550002BE7192029E7192027E7192025E719202B
:1055600023E7192021E719201FE719201DE719203B
:105570001BE7192019E71E2017E7012015E71D205A
:1055800013E71E2011E701200FE71F200DE7012080
:105590000BE700BF44A70610037813F0030F24D0D5
:1055A000828AA2F164039BB2632B20D9CC2A20D03B
:1055B000B2F5987F1FD00388C3F3870213F4807F6E
:1055C0001BD1C37813F0200F02D012F0010F16D0B8
:1055D00012F0010F15D1D0E90223B3F1FF3F08BF4C
:1055E000B2F1FF3F0FD1012070470020704700202B
:1055F000704700207047002070470020704701204E
:105600007047002070470020704708B5038A3BB1FF
:10561000438A2BB1038813F0100F05D0002008E057
:10562000038813F0080F05D0FFF7B6FFB0FA80F03B
:10563000400908BD0020FCE72DE9F04F9BB08246F1
:105640000291904699460368C3F38621C278D40933
:105650000494C2F3801205924768C27D12F07F0263
:10566000039242F009850B460846B9F1000F2ED18E
:10567000122916D93F2916D1029BDB69002B02F0B3
:10568000FD8450469847002802F0F884CAF8047058
:105690009AF81730072262F306038AF8173002F0EF
:1056A000EDBC49B251B99AF817300B2262F30603E8
:1056B0008AF817304FF0010902F0E0BC012202FA2B
:1056C00003F3BF4A1A40002AEDD002F0D7BC2D29BF
:1056D0001CD000221692322B1BD000220992102BD4
:1056E00002F07783C2F07B836B3303F07F030A2BD6
:1056F00012D8CDF8208000230793C34600230693D9
:105700004B46C146B8461F4602F093B8CDF85880C4
:10571000E1E7CDF82480E2E7002307930893ECE764
:105720004746C8469AF817300C2262F306038AF8F7
:1057300017309AF8173013F07F0F06D19AF8173008
:10574000202262F306038AF81730CAF80470DAF8E8
:10575000003060F39023CAF80030ABEB080902F088
:105760008DBC0F2004E00F2002E0102000E0009626
:10577000431E3F2B02F2CB82DFE813F040005000C3
:10578000A800D2003401430152016101700185017A
:105790009401A901B801D001010216029A02A902DE
:1057A00063036E048D048D048D048D04B404B4046D
:1057B000B404B404B404B404B40454056E057E0502
:1057C0008E05D705B705C705E705FD050D062306B8
:1057D000360646062708A308BD0CCC0CAF086609A0
:1057E000800C710CCD10F91042115311570D2E0E73
:1057F000B71103127512D10F541072100D2C02F054
:1058000016800A2C02F013804746C8469AF81730D3
:105810000D2262F306038AF817308AE70D2C02F096
:1058200006800A2C02F00380BAF800306FF3890377
:10583000AAF800309AF803306FF345138AF8033062
:105840004FF0FF324FF0FF33CAE90223482C07D054
:105850009AF800306FF301038AF80030122087E7CE
:105860009AF8173013F07F0F1FD102990B68002BA5
:1058700002F05482DAF80030032262F39023CAF86F
:1058800000300B6850469847B0B9DAF80000C0F312
:1058900086209AF8173013F07F0F01F0C887ABEB22
:1058A000090B0BF1010902F0E9BB464B464A40F2F5
:1058B000E62146485BF0D6F8CAF804809AF817301B
:1058C000012262F306038AF81730DEE7542C13D066
:1058D000452C1BD19AF800306FF301038AF8003091
:1058E00002228AF816209AF8033062F304038AF839
:1058F0000330132001F09BBF9AF80030012262F3BD
:1059000001038AF80030062001F091BF4746C846DF
:105910009AF817301C2262F306038AF8173008E75A
:105920000D2C01F084870A2C01F08187BAF8003031
:105930006FF38903AAF800309AF803306FF3451328
:105940008AF803304FF0FF324FF0FF33CAE90223E9
:10595000482C24D19AF8173013F07F0F29D10299DF
:105960000B68002B02F0DC81DAF80030052262F3CC
:105970009023CAF800300B685046984740BBDAF8CD
:105980000000C0F386209AF8173013F07F0F01F063
:105990004E87ABEB090B0BF1010902F06FBB4746D9
:1059A000C8469AF817301C2262F306038AF81730AB
:1059B000BFE6044B044A4FF4447104485BF052F8CC
:1059C00016000400FC9C0610A8A60610749C061085
:1059D000CAF804809AF81730012262F306038AF8A5
:1059E0001730CCE7542C02D1062001F020BF4746E7
:1059F000C8469AF817301E2262F306038AF8173059
:105A000097E6542C02D1072001F011BF4746C84643
:105A10009AF817301E2262F306038AF8173088E6D8
:105A2000502C02D1082001F002BF4746C8469AF820
:105A300017301E2262F306038AF8173079E62F2CFE
:105A400002D1092001F0F3BE4746C8469AF8173044
:105A50001E2262F306038AF817306AE6A4F13003C7
:105A6000DBB2092B05D8303CAAF810400A2001F01F
:105A7000DEBE4746C8469AF817300E2262F3060388
:105A80008AF8173055E62E2C02D10B2001F0CFBE3C
:105A90004746C8469AF817300E2262F306038AF882
:105AA000173046E6A4F13003DBB2092B05D8303CB1
:105AB000AAF812400C2001F0BABE4746C8469AF830
:105AC00017300E2262F306038AF8173031E6202CD5
:105AD00002D10D2001F0ABBE4746C8469AF81730F8
:105AE0000E2262F306038AF8173022E6A4F130038F
:105AF000DBB2092B0CD9202C01F099864746C84609
:105B00009AF817300F2262F306038AF8173010E66E
:105B1000303CAAF814400E2001F089BEA4F13003F5
:105B2000DBB2092B12D90D2C3FF41BAE202C02F056
:105B3000F9800A2C3FF417AE4746C8469AF817304A
:105B40000F2262F306038AF81730F2E5BAF8143030
:105B500003EB83035B009BB22344303B9BB2AAF868
:105B60001430B3F57A7FC1F062864746C8469AF88A
:105B700017300F2262F306038AF81730D9E5079B26
:105B800063B19AF803306FF304038AF803300D2CE5
:105B90003FF4EBAD0A2C04D11020E9E5CDF81CB0A0
:105BA000EFE7102001F043BE0D2C2BD00A2C41F062
:105BB0003E869AF8173013F07F0F62D107990029BB
:105BC00002F0B88002988368002B02F0B580DAF802
:105BD00000302C2262F39023CAF800308368ABEBCC
:105BE000010250469847002852D1DAF80000C0F36D
:105BF00086209AF8173013F07F0F53D100230793B4
:105C000001F015BE9AF8173013F07F0F22D10799D3
:105C1000002902F0898002988368002B02F08680B8
:105C2000DAF80030112262F39023CAF8003083685A
:105C3000ABEB01025046984798B9DAF80000C0F380
:105C400086209AF8173013F07F0F14D100230793A2
:105C500001F0EDBDBB4BBC4A40F28E31BB485AF05F
:105C600001FFCAF804809AF81730082262F306038D
:105C70008AF81730E1E7ABEB090B0BF1010902F0F1
:105C8000FDB9B04BB04A4FF46571B0485AF0EAFE26
:105C9000CAF804809AF81730082262F306038AF8DB
:105CA0001730A2E7ABEB090B0BF1010902F0E6B9E3
:105CB0000A2C02D12C2001F0BABD4746C8469AF8FA
:105CC00017301E2262F306038AF8173031E50D2CD7
:105CD00001F0AD850A2C01F0AA85BAF800306FF307
:105CE0008903AAF800309AF803306FF345138AF855
:105CF00003304FF0FF324FF0FF33CAE9022344F084
:105D00002003613BDBB2192B19D800238AF8163027
:105D10009AF80330012262F304038AF80330413C0D
:105D2000142C73D8DFE804F0153E42187272464A0C
:105D30007272724E52565A5E7262666A6E004746C0
:105D4000C8469AF81730102262F306038AF8173013
:105D5000EFE413238AF816309AF8173013F07F0F08
:105D60005ED102990B68002B01F0EA87DAF8003067
:105D7000132262F39023CAF800300B68504698470C
:105D8000002854D1DAF80000C0F386209AF81730C2
:105D900013F07F0F01F04B85ABEB090B0BF1010901
:105DA00002F06CB910238AF81630D5E705238AF87B
:105DB0001630D1E701238AF81630CDE702238AF89E
:105DC0001630C9E709238AF81630C5E70A238AF88E
:105DD0001630C1E719238AF81630BDE706238AF882
:105DE0001630B9E703238AF81630B5E714238AF88A
:105DF0001630B1E71A238AF81630ADE707238AF880
:105E00001630A9E70F238AF81630A5E74746C8469B
:105E10009AF81730102262F306038AF8173088E4E4
:105E2000484B494A40F2C63148485AF01BFECAF86E
:105E300004809AF81730012262F306038AF81730BB
:105E4000A0E77CB39AF81620414B53F82210202C7F
:105E500032D09AF8033003F01F03C95CA14233D05B
:105E6000A4F14101C9B2192902D92D2C40F0E980D1
:105E70001B0243EA02431C43364B9C4200F0C580A0
:105E800078DC354B9C4200F0B88028DD334B9C42D7
:105E900000F0BF8046DD324B9C4250D117238AF878
:105EA000163011E04746C8469AF81730102262F3C0
:105EB00006038AF817303CE49AF8033003F01F0316
:105EC000CB5C002BC5D114209AF8033003F01F02DD
:105ED000013262F304038AF8033001F0A8BC214BBD
:105EE0009C4200F0828006DD1F4B9C4210D11D2396
:105EF0008AF81630E8E7143B9C427AD011339C4272
:105F000003D10C238AF81630DEE74746C84601E085
:105F10004746C8469AF81730102262F306038AF8FB
:105F2000173006E4114B9C426BD0114B9C4203D1BD
:105F30001F238AF81630C7E74746C846EAE74746B0
:105F4000C846E7E7FC9C0610A8A60610749C06103D
:105F5000BCA606104F010A00480105002D010A00E9
:105F600045010A00550103005202040050020500D9
:105F700049010900CB4B9C425BD00ADDCA4B9C42D5
:105F80004FD022DDC94B9C422CD121238AF81630F8
:105F90009AE7C74B9C4248D006DDC64B9C4211D1C4
:105FA00012238AF816308FE7C34B9C4235D003F595
:105FB00080739C4203D11E238AF8163084E747463B
:105FC000C846A7E74746C846A4E7BC4B9C4234D026
:105FD000BB4B9C4203D111238AF8163074E7474625
:105FE000C84697E74746C84694E704238AF8163020
:105FF0006AE71C238AF8163066E716238AF81630FB
:1060000062E708238AF816305EE70B238AF8163019
:106010005AE718238AF8163056E715238AF81630FF
:1060200052E70E238AF816304EE70D238AF8163011
:106030004AE71B238AF8163046E720238AF81630F1
:1060400042E74746C8469AF81730102262F3060323
:106050008AF81730FFF76DBB202C01F0E883089B0E
:10606000A3B19AF81630052B13D02146FFF762F939
:10607000012841F0DC834746C8469AF817301122C0
:1060800062F306038AF81730FFF753BBCDF820B050
:10609000E7E71820E9E7A4F10A03DBB2162B10D8D2
:1060A000012202FA03F3874A1A4052B14746C84612
:1060B0009AF81730112262F306038AF81730FFF7B7
:1060C00038BB2146FFF736F9012841F0B083474637
:1060D000C8469AF81730112262F306038AF817307F
:1060E000FFF727BB0D2C53D0202C12D00A2C4FD0F9
:1060F0002146FFF71FF9012841F099834746C8461A
:106100009AF81730112262F306038AF81730FFF766
:1061100010BB9AF8173013F07F0F22D1089900298D
:1061200001F0108602984368002B01F00D86DAF822
:106130000030202262F39023CAF800304368ABEBB2
:1061400001025046984798B9DAF80000C0F386205B
:106150009AF8173013F07F0F14D10023089301F041
:1061600066BB594B594A40F2344159485AF07AFCBF
:10617000CAF804809AF81730022262F306038AF8FC
:106180001730E1E7ABEB090B0BF1010901F076BF2A
:106190000023AAF810300923AAF812300D2C28D0B9
:1061A0002C209AF8173013F07F0F24D1089A002A78
:1061B00001F03D8302994B68002B01F0C985DAF8A4
:1061C000003060F39023CAF800304B681146ABEB07
:1061D000020250469847A8B9DAF80000C0F38620BA
:1061E0009AF8173013F07F0F16D10023089301F0AF
:1061F0001EBB2B20D5E7344B344A40F23D41344896
:106200005AF030FCCAF804809AF81730022262F380
:1062100006038AF81730DFE7ABEB090B0BF1010936
:1062200001F02CBF482C01F09685492C0DD0202C74
:1062300001F0FD824746C8469AF817301C2262F3E7
:1062400006038AF81730FFF774BA9AF81630212B34
:10625000F0D1252001F0EBBA542C02D1222001F01C
:10626000E6BA4746C8469AF817301E2262F306037C
:106270008AF81730FFF75DBA542C02D1232001F0C1
:10628000D6BA4746C8469AF817301E2262F306036C
:106290008AF81730FFF74DBA502C1BD1242001F09B
:1062A000C6BA00BF53020F0045011A004F011A0081
:1062B00050040C0042020F0041020A0049030F0083
:1062C0004202140009004000FC9C0610A8A606101B
:1062D000749C06104746C8469AF817301E2262F38F
:1062E00006038AF81730FFF724BA432C02D1262080
:1062F00001F09DBA4746C8469AF817301E2262F34D
:1063000006038AF81730FFF714BA452C02D124206F
:1063100001F08DBA4746C8469AF817301E2262F33C
:1063200006038AF81730FFF704BA2F2C02D1272072
:1063300001F07DBA4746C8469AF817301E2262F32C
:1063400006038AF81730FFF7F4B9A4F13003DBB283
:10635000092B05D8303CAAF81040282001F067BA74
:106360004746C8469AF817300E2262F306038AF8A9
:106370001730FFF7DEB92E2C02D1292001F057BAD1
:106380004746C8469AF817300E2262F306038AF889
:106390001730FFF7CEB9A4F13003DBB2092B05D8D3
:1063A000303CAAF812402A2001F041BA4746C846BC
:1063B0009AF817300E2262F306038AF81730FFF7B7
:1063C000B8B90D2C01F0C9840A2C02D12C2001F09F
:1063D0002EBA4746C8469AF817300E2262F30603D3
:1063E0008AF81730FFF7A5B90A2C02D12C2001F04A
:1063F0001EBA4746C8469AF81730172262F30603BA
:106400008AF81730FFF795B90D2C01F0A8840A2CF3
:1064100002D13920FFF7ACB9202C19D0CA4B1B5D33
:10642000C3B1169A0AB39AF803206FF304028AF8EC
:106430000320633B122B43D8DFE803F01A424242A9
:10644000424242424242424242244242422E3800AA
:10645000039BE5E74746C8469AF81730182262F3CF
:1064600006038AF81730FFF764B9CDF858B0DAE7B9
:106470009AF80230012262F347038AF802302D2095
:1064800001F0D5B99AF80230052262F347038AF881
:1064900002302D2001F0CBB99AF80230072262F3C6
:1064A00047038AF802302D2001F0C1B99AF8023072
:1064B000082262F347038AF802302D2001F0B7B9B1
:1064C0009AF802306FF347038AF802302D2001F06A
:1064D000AEB9A6EB050C9D4B1B68634594BF05EB5D
:1064E000030CAC442B461D460133634519D26A7830
