:020000041000EA
:1000000000200008EB0000100D0000004D01001062
:1000100000000000000000000000000000000000E0
:100020000000000000000000000000004901001076
:10003000000000000000000049010010490100100C
:100040004901001049010010490100104901001048
:100050004901001049010010490100104901001038
:100060004901001049010010490100104901001028
:100070004901001049010010490100104901001018
:1000800010B5064C2378002B07D1054B002B02D06E
:10009000044800E000BF0123237010BDB003000836
:1000A0000000000014150010044B10B5002B03D005
:1000B0000349044800E000BF10BDC0460000000036
:1000C000B4030008141500100230800803D001307A
:1000D0000238FCD1C046C0467047EFF3108072B6BC
:1000E000704780F3108870477047FFF7FDFF72B6C6
:1000F0000F4C104DAC4209DA21686268A368043BDA
:1001000002DBC858D050FAE70C34F3E70A490B4A2F
:100110000020521A02DD043A8850FCDC08480949E4
:100120000860BFF34F8F00F0FFFE00F0AFFEFEE768
:100130002015001038150010B0030008C80500088D
:100140000000000808ED00E0FEE7FEE700B504202F
:100150007146084202D0EFF3098001E0EFF3088016
:10016000043000F093FCFEE7014B18607047C04676
:10017000C4050008044B1B681A00BA3212881B6AB7
:100180005043C0187047C046C40500081D4B984234
:100190000FD010D840282FD005D8002830D01028F4
:1001A00028D019481EE0802828D080235B00984280
:1001B000F7D1144816E0154B984214D008D8A02364
:1001C0001B0698421CD0124B9842EAD1A0200BE0AB
:1001D000104B98420AD0104B984209D00F4B9842CE
:1001E000DFD10F487047A420C003FBE70D48F9E7B3
:1001F0000D48F7E70D48F5E70D48F3E70D48F1E73F
:100200000020EFE706005200FF005200010000F05E
:10021000090000A0040000F0050000F0030000F059
:100220000100520002005200030052000100500081
:10023000020050000500520010B50020FFF79AFFA1
:100240000A4B1C682300BC331B68C0180368002BD2
:100250000ADB074B1868FFF799FF012263689A6071
:100260009A68002AFCD110BD0248FCE7C4050008CA
:10027000CC03000802005000064B1B68BC331B680F
:10028000C3181B68002B03DA89B241600020704755
:100290000148FCE7C405000801008A000368002B40
:1002A00004DA89B2C2608160002070470048FCE730
:1002B00001008A00064B1B68BC331B68C3181B680F
:1002C000002B03DAC36800200B6070470148FCE78D
:1002D000C405000801008A00024B1A68002A00D1F8
:1002E00018607047E0030008F0B52C246043154CFB
:1002F0001F0024681D0A2018FF2425402740124CA7
:100300001B0C26680760346A45608360BA363688FD
:1003100077433F1907612F0080376D017F01E7198F
:1003200064190A4D47611F043B436419236000238D
:100330008361059BC2610162002B01D01B88838110
:10034000F0BDC046E0030008C40500080810000026
:10035000F0B5836885B002AD2B80154B02681B6831
:10036000066A1B8F476A9B186B8043680095826AF8
:10037000C16A040003930369C068FFF7B5FF002159
:100380003B000A0000913000FFF7AEFF216B280010
:1003900000F030FB0022AB5E002B06DB1F22134077
:1003A0001E3A9A401300034A136005B0F0BDC046E0
:1003B000C405000800E100E0F7B52C25134C6843A4
:1003C000266869433418256901937118002D19D0E6
:1003D0008869002818D12E68002E15DA6768012474
:1003E00026004B689E40B44613689EB263461B04C9
:1003F0001E431660EA608C61BC40019BA4B24B6254
:10040000AC60FEBD0248FCE70248FAE7E0030008E2
:1004100004028A0007028A0073B5002642690400BC
:10042000D56801962B0CB34221D01B0413601368CE
:10043000194B00691B68BC331B68C3181B68B342A7
:1004400015DA01A9FFF736FFB0420CD10198E26935
:1004500003681E0CDBB29A4205D9226A9B009B58A6
:10046000002B00D0984731002069FFF705FFADB29F
:10047000002D09D063691D6000251B68636AAB42CB
:1004800005D098476562A56163691B6873BDA36A5F
:10049000002BF8D09847F6E7C40500082C2310B5C8
:1004A0004343034A1068C018FFF7B6FF10BDC046AB
:1004B000E0030008F8B5194B0F001B681A0033322F
:1004C0001278824227D9002925D01F250A681540B5
:1004D00021D11900BA310C88114E60431C6AD20830
:1004E000041929007868346000F07EFF290020009C
:1004F000FFF7C2FE3A0029003068FFF7CFFE041E66
:1005000007D101003068FFF7B7FE03002000002B81
:1005100000D00448F8BD0448FCE7C046C405000804
:10052000E403000801018A0003018A0010B5002AD3
:100530000DD1002914D10B4B1A681300BA331B8854
:100540005843136AC018084B1860080010BD0029F2
:1005500006D0064B196019005A60FFF7ABFFF5E7AC
:100560000348F3E7C4050008E40300087803000823
:1005700003018A00F7B5184F04003B680191DE685B
:100580003368834226D90025A94202D1FFF7A5FD91
:10059000050038680368002B1ADA1F220123224065
:1005A000934064097268A4001419226813420DD0A4
:1005B0009A43226000240021FFF75EFE019B002B7E
:1005C00002D12800FFF78DFD2000FEBD034CF2E7AD
:1005D000034CF3E7034CF7E7E4030008020188004B
:1005E0000301880004018A000A4B1B68DB681A6853
:1005F00082420DD959681F23420918401E3B83408F
:10060000920050581840431E9841034BC018704741
:100610000248FCE7E40300080001880004018A00A6
:10062000054B1B681A0088321B6812689B181868F3
:10063000000AC0B27047C046C4050008044B1B68DE
:100640001A0088321B6812689B181868000E7047E1
:10065000C4050008024B18694007C00F7047C04628
:1006600000002740A6220549D2008B580220DB4318
:100670009B0702D00123885818407047000026408D
:1006800010B5FFF7EFFF0023022801D1014B1B68D3
:10069000180010BDEC030008094A83009B18D02203
:1006A0009200985807221040042807D1C0229200D7
:1006B00098581F2303408020400018437047C046CD
:1006C0000000264010B5FFF7E7FF02281CD005D830
:1006D000002824D0012814D0002014E01223FF3376
:1006E000984214D01423FF33984215D0033B98420C
:1006F000F2D10C4A0C4BD358002BEDDA80200002CB
:1007000001E00A4B186810BDFFF7BAFFFBE7FFF7DF
:10071000A1FF0028E0D0F1E7024A054BEBE70548CE
:10072000F1E7C046000026400C050000E803000881
:100730003C05000000127A00B023154ADB00D358B4
:1007400010B59903DB01DB0F890BC371114B0160FD
:10075000D3580F24D904DB01DB0D0381B123DB0067
:10076000D358C90C81801900214081721909214098
:10077000C172D9029B009B0F8373074BC90CD358DE
:1007800081815A05DB01520FDB0D8271038210BD9E
:1007900000002640840500008C05000010B5104BB9
:1007A000421E1B683F331B78934216D97F221F24B9
:1007B0008030FF300B4B8000C3581A400A701A0C6F
:1007C0002240180A8A701A012040E2404870002036
:1007D0009B009B0FCA700B7110BD0348FCE7C0461D
:1007E000C40500080000264001004A00F0B589B0A9
:1007F00003AC14220021200000F0F6FD2000FFF7DA
:100800009BFFB0231A4ADB00D25800239A4203DA36
:10081000A37B023B5A1E9341E57900266A1E95414F
:100820000135B34221D0A488B4421ED0039B3000CE
:100830000193FFF747FF2A00330007003100200033
:1008400000F0BCFC0C0005003300019A31003800B8
:1008500000F0B4FCE6076A08324363088018594187
:100860002A00230000F08AFC0600300009B0F0BD29
:1008700000002640F0B50026244B85B01B68070019
:100880003F331B78B3423ED0B0423CD083423AD390
:100890000522310002A800F0A7FD02A93800FFF7E9
:1008A0007DFF3B008033FF33194A9B009B58B342C6
:1008B00029DA02AB1B79022B25D002AB5C78B4425B
:1008C00021D09D78B5421ED01B7838000193FFF7E8
:1008D000F9FE2A00330007003100200000F06EFC12
:1008E0000C0005003300019A3100380000F066FC6E
:1008F000E6076A0832436308801859412A0023003A
:1009000000F03CFC0600300005B0F0BDC405000856
:100910000000264010B5041E04D1FFF767FF002831
:1009200006D008E0064B1B683F331B78834203D296
:100930002000FFF7C7FE10BDFFF79CFFEFE7C046A2
:10094000C4050008E02210B50124094B8000920084
:10095000C018835880589B069B0F9C400F2318405B
:10096000FFF7D8FF63081818210000F07BFB10BDCB
:1009700000002640144B30B51A68072413002C33AE
:100980001B781F2B15D883081D00A5432C1E0FD1E3
:1009900003342040A040814012689B002032D318CD
:1009A0000A00FF2181401C686240114061401960CB
:1009B00030BD802320401B06184380239B01126812
:1009C000C91889008850F3E7C4050008064B9A68E7
:1009D0000300064810339B00824202D19858995078
:1009E0007047034AD058FBE700ED00E00000000824
:1009F00000000010F8B506000D0000283AD00023D2
:100A0000C05E002828DB7188FFF7B4FF0024FF22B6
:100A1000032794460023F05E716883B21F40FF00F5
:100A20006646BA4089013140D243B940002815DBFF
:100A3000114E83089B009B19C026B6009F593A406F
:100A4000114399510D4B9A680D4B9A4202D12900DE
:100A5000FFF7BCFF2000F8BD0A4CD8E70F26334053
:100A6000083B064E9B089B009B19DE6932401143F0
:100A7000D961E7E7034CEDE700E100E000ED00E0BD
:100A80000000000801005600FEE7000002680A4B63
:100A900010B51A6042685A6082689A60C268DA606B
:100AA00002691A6142695A6182699A61C269DA61AE
:100AB000FFF7EAFF10BDC04690030008B0235B05B6
:100AC0005A782120002A01D05878C0B27047B0234C
:100AD0005B059A89002A02D0988980B270478020ED
:100AE0004000FBE77FB5274B86000D00F458042932
:100AF00001D0012927D100200FE0A3682B420BD1A0
:100B0000E36829001A685B6802920193039302A8C4
:100B1000236898471C4B1C606469002C0BD01B4B4E
:100B20009842EAD1012DE8D1174B18481A68184BA2
:100B30009A5104B070BD012DFBD1144B9842F3D0F3
:100B4000134B9C51F5E7022906D10F4B1B68181E69
:100B5000EFD01C6903E01C006369002BFBD100206F
:100B6000002CE6D0A3682B4209D1E36829001A685B
:100B70005B6802920193039302A823689847246953
:100B8000EEE7C046300400082C040008FF004200D5
:100B9000180400081A4B1B68190088311A68096884
:100BA00051180968016219008C31096852181268DD
:100BB00042621A0046321278002A1FD09A68E03248
:100BC0001268D2061AD5F222DB68D2019A58026066
:100BD000F022D2019A5842600A4A9A5882600A4A20
:100BE0009A58C260094A9A580261094A9A58426161
:100BF000084A9A588261084A9B58C3617047C046A8
:100C0000C405000804780000087800000C78000093
:100C10001078000014780000187800001A4B1B6848
:100C20001A008832196812688A18016A11601A005D
:100C30008C32196812688A18416A11601A004632AB
:100C40001278002A1ED09A68E0321268D20619D5AE
:100C5000F0224168DB68D201995081680B4A9950B3
:100C6000C1680B4A995001690A4A995041690A4A78
:100C700099508169094A9950C169094A9950016896
:100C8000E83299507047C046C40500080478000057
:100C9000087800000C78000010780000147800003C
:100CA00018780000F7B50700FFF708FF664D06004B
:100CB0006B68002B00D07DE0FFF70FFA6B680090A7
:100CC000002B00D089E0614C22681300BA331988E8
:100CD00007234B43126A9B181A68002AFCDADB6868
:100CE000DA0021D51B0F1B0759480193FFF752FF6C
:100CF0005849212E00D075E02268902013008833D7
:100D00001C68136800011C1923680B40034323600F
:100D100013008C3312681B68D3181A6811400843FB
:100D200018604B4B019A13438022484E920531685C
:100D300013430A00BA321088072200244243096A8A
:100D40005218D36054605368FFF7C1FE80235B00E4
:100D500098425DD1380000F05BFB32681300BA3373
:100D6000198807234B43126A9B181A68002AFCDA79
:100D7000DF68FB0003D538010009FFF74FFF364B52
:100D800032681F401300BA33198807234B43126A95
:100D900000989B180022DF605A60FFF7A2F9002C30
:100DA0000FD16B68002B03D008210120FFF79AFEBA
:100DB0002000FEBD01210800FFF794FE041E00D1B3
:100DC0007AE76B68002B03D002210120FFF78AFE2F
:100DD000224B9C42ECD0224CEAE704210120FFF791
:100DE00081FE70E720688022030088331C68036856
:100DF00052001C1923680B401343236003008C33FB
:100E000000681B68C318186801400A431A6088E725
:100E100033681A00BC32196A126852181168002926
:100E200010DBBA331B889A181368002B0ADB0423E3
:100E30000C4A11690B431361012F01D030BF8CE7BD
:100E400020BF8AE7054C88E730040008C405000885
:100E5000F0030008FF00FFFFFFFFFFDF0500420077
:100E6000FF00420000ED00E0C02280200649520051
:100E70008B58C0059B009B0803438B5080238858E8
:100E80001B0603438B5070470000264010B562B626
:100E9000034800F0C1F80020FFF704FFFBE7C0465D
:100EA0000020001010B50020FFF7F8FA10BD7047C1
:100EB00010B50020FFF746FD041E25D0134B186027
:100EC000FFF7BCFB411C200000F0CCF8104B0400E5
:100ED0001860FFF7A5FB411C200000F0C3F80D4B84
:100EE000441E18600C49200000F0BCF8FA210B4B9E
:100EF000013018708900200000F0B4F8084B013070
:100F00001860084BC003186010BDC046840000087C
:100F1000880000088000000840420F00940000088C
:100F2000900000088C00000810B52048FFF71CF95D
:100F3000B022E02130201E4CD200A35889005B0073
:100F40005B08A35063588343635080235B04A35022
:100F5000184B194AE250A02204339201E250FF22BA
:100F6000164BE250FFF780FFC02201215200A35828
:100F70008B43A350FFF79BFFFFF79AFF104B032013
:100F80001A681300BA33198807234B43126A802169
:100F90009B180022DA605A600A4AFFF7C7FA0A482B
:100FA000FFF79AF90948FFF7D3F910BD2014001094
:100FB0000000264084050000010002008C050000AE
:100FC000C40500088003000844040008E014001071
:100FD0009023034A5B01D058032318407047C04652
:100FE0000000204010B59024FFF777F8074B64010C
:100FF0001A5907491140074A0A431A5110225968E1
:101000001142FCD0FFF76DF810BDC0460000204033
:10101000FCFF00000100FA05F8B590250E4C6D01AB
:101020000700FFF75AF863590600DB439B0701D11D
:10103000FFF7D8FF80239B00E7506359074A1A4007
:10104000074B13436351102362681A42FCD03000EF
:10105000FFF747F8F8BDC04600002040FCFF000045
:101060000300FA05002243088B4274D303098B4224
:101070005FD3030A8B4244D3030B8B4228D3030C68
:101080008B420DD3FF22090212BA030C8B4202D30A
:101090001212090265D0030B8B4219D300E0090A32
:1010A000C30B8B4201D3CB03C01A5241830B8B423B
:1010B00001D38B03C01A5241430B8B4201D34B0324
:1010C000C01A5241030B8B4201D30B03C01A524189
:1010D000C30A8B4201D3CB02C01A5241830A8B420E
:1010E00001D38B02C01A5241430A8B4201D34B02F7
:1010F000C01A5241030A8B4201D30B02C01A52415B
:10110000CDD2C3098B4201D3CB01C01A524183090E
:101110008B4201D38B01C01A524143098B4201D348
:101120004B01C01A524103098B4201D30B01C01A73
:101130005241C3088B4201D3CB00C01A52418308ED
:101140008B4201D38B00C01A524143088B4201D31A
:101150004B00C01A5241411A00D20146524110467A
:101160007047FFE701B5002000F006F802BDC04659
:101170000029F7D076E770477047C046002B11D1A1
:10118000002A0FD1002900D1002802D00021C94334
:10119000081C07B4024802A14018029003BDC046D3
:1011A000D9FFFFFF03B4684601B5029800F030F89C
:1011B000019B9E4602B00CBC7047C046F0B5CE46BF
:1011C000474615042D0C2E0080B50704140C3F0C67
:1011D0009946030C7E435D43674363437F19340C98
:1011E000E4199C46A54203D980235B029846C44477
:1011F0004B4643435143250C36046544360C2404C6
:10120000A4195B19591820000CBC90469946F0BDF2
:10121000F0B54F464646D646C0B5040082B00D0034
:10122000914698468B422FD82CD04146484600F034
:10123000CFF829000600200000F0CAF8331A9C46B7
:10124000203B9A4600D576E04B46524693401F001D
:101250004B46624693401E00AF4228D825D05346E5
:10126000A41BBD41002B00DA7BE00022002300928A
:101270000193012352469340019301236246934018
:10128000009318E08242D0D90022002300920193FB
:101290000A9B002B01D01C605D600098019902B090
:1012A0001CBC90469946A246F0BDA342D7D9002265
:1012B0000023009201936346002BE9D0FB07984678
:1012C000414672080A437B0866460EE0AB4201D1F4
:1012D000A2420CD8A41A9D41012024196D4100217D
:1012E000013E24184D41002E06D0AB42EED9013EFE
:1012F00024196D41002EF8D1009801995346001928
:101300006941002B23DB2B005246D3402A00644660
:10131000E2401C0053461500002B2DDB26005746EB
:10132000BE40330026006746BE403200801A994115
:1013300000900191ACE7624620239B1A4A46DA40AE
:101340006146130042468A4017001F4380E7624609
:1013500020239B1A2A0066469A402300F340134339
:10136000D4E76246202300219B1A002200910192BB
:101370000122DA40019280E72023624626009B1A70
:10138000DE402F00B0466646B74046463B0033433A
:10139000C8E7C0461C2101231B04984201D3000C5E
:1013A00010391B0A984201D3000A08391B099842D8
:1013B00001D30009043902A2105C40187047C046EE
:1013C000040302020101010100000000000000000E
:1013D00010B5002903D1FFF7DDFF203002E0081C23
:1013E000FFF7D8FF10BDC04603001218934200D18A
:1013F000704719700133F9E7F8B5C046F8BC08BC6E
:101400009E467047F8B5C046F8BC08BC9E4670477B
:1014100001B40248844601BC604700BF6102000875
:1014200000002040000024400000004000000000B8
:1014300000002340000030400000314000009F4089
:10144000000022400000104000009D40202020208D
:1014500020101010101D1D8017007500FF030602DC
:1014600006003604102000007FC0000000040000C9
:10147000000000000019324B647D00000000008075
:101480004000080B100000000000FF012002001FB8
:1014900000800004FF081018001000140018001C41
:1014A0004044484C500000000810000008000000B4
:1014B00004000000041000000012000004210000DD
:1014C000002100000016000040114002C413001368
:1014D0008013A01340138813A81320001C000000E1
:1014E00003000000010000000100000000000000F7
:1014F000050360000400000001000000000000007F
:10150000010000000604600008000000A4050008B7
:10151000A50E001000000000F8FCFF7F0100000095
:1015200000000010000000088000000040150010BE
:1015300080000008F8020000B00300081802000054
:1015400000093D0000127A0000093D000000D007AC
:10155000A00F000004000000A9000010810000108E
:1015600080B230B5C00020D0104B07221C68230089
:10157000BA331B885A43236AD31819680029FCDA46
:101580003E210B4B062519600A4B0B491960A3211C
:101590000A4BC9005D500A4958505858206A121821
:1015A000002050605A58002AFCDA30BDC4050008FB
:1015B00004012640080126401E1F000000002640AE
:1015C0001C05000010B54378FF2B11D100F0ECF89A
:1015D0000400032000F0F8F8C3685A68012311687A
:1015E0001943116011681942FCD1200000F00CF978
:1015F00010BDF7B500900020019100F0E5F83F4DD7
:1016000006002B681A005033BC3214681B7804198A
:10161000002B5AD000F0E0F8070003281BD000F0A0
:10162000C3F8374A374B0500D358002B3EDA364A09
:101630000121300000F0F0F8002837D10198FFF7C1
:101640008FFF009B002B3ED02368002BFCDB00F0BB
:10165000B3F804002BE0062000F0B6F82B68BC338A
:101660001B68C0180368002B02DA284C2000FEBD5E
:10167000002000F0B9F8264B9842F6D00023254A06
:1016800019001268012000F0B7F80025A842ECD13B
:10169000002000F0A9F81E4A1F4B904203D09D4243
:1016A000E3D00135F4E79D42B9D1DEE7174C032FB3
:1016B00005D10121002000F0B7F80028F9D1280059
:1016C00000F0A2F8D2E7154CF1E700F06DF80E4AF1
:1016D00005000121300000F09FF8002809D1009B8F
:1016E000002B08D02368002BFCDB00F065F8040019
:1016F000E5E7064CE3E7094CE1E7C046C40500080E
:10170000000026401C050000CC0300080500520024
:1017100001018800DC030008F049020001005000CC
:10172000184BF7B51B68184A5C68042311690B4312
:101730001361012824D030BF2300FC331B69002B28
:101740001DD1A320114B1249124AC0000F681E5828
:1017500015680195104D0D6006251D503E20106046
:101760000E483E351D501D58002DFCDA0C48FC3447
:1017700020610F60A321C9005E50019B1360F7BD7B
:1017800020BFD9E7C405000800ED00E000002640B6
:1017900008012640040126401E1F00001C05000011
:1017A000AAAAAAAA0000000001B40248844601BC0B
:1017B000604700BFDB00001001B40248844601BC52
:1017C000604700BF3902001001B40248844601BCE2
:1017D000604700BF7501001001B40248844601BC97
:1017E000604700BFD10F001001B40248844601BC1D
:1017F000604700BFE905001001B40248844601BCFF
:10180000604700BFB903001001B40248844601BC20
:10181000604700BFE300001001B40248844601BCE9
:10182000604700BF9D02001001B40248844601BC1D
:10183000604700BF750500100000000000000000B8
:101840000000000000000000000000000000000098
:1020000000F80F08252300100D0000009923001090
:10201000992300109923001099230010000000005C
:10202000000000000000000000000000F1A400100B
:10203000952300100000000091A5001095A4001049
:102040009523001095230010952300109523001070
:102050009523001095230010952300109523001060
:102060009523001095230010952300109523001050
:102070009523001095230010952300109523001040
:1022E00010B5054C237833B9044B13B10448AFF350
:1022F00000800123237010BD642C00080000000042
:10230000441F0E1008B5034B1BB103490348AFF33C
:10231000008008BD00000000682C0008441F0E105B
:1023200070477047FFF7FCFF72B6144C144DAC4277
:1023300009DA21686268A368043BA2BFC858D0507C
:10234000FAE70C34F3E70F490F4A00209142BCBF73
:1023500041F8040BFAE70D480D490860BFF34F8FB1
:1023600000F03CFA00F020FA07F0E2FE5BF040FCDF
:1023700000F084FB5BF0F6FBFEE70000501F0E1040
:10238000681F0E10642C00086C3201080020000841
:1023900008ED00E0FEE7FEE700B5042071460842C4
:1023A00002D0EFF3098001E0EFF3088004304BF036
:1023B00033FEFEE708B500F0ADF800F007F800F0D6
:1023C0009BF800F017F800F01DF808BD08B50021D3
:1023D00008464AF011FDFF22002108464AF08AFB18
:1023E000002108464AF0CAFC014842F0A1FA08BDA3
:1023F000C041061008B5002211462F204AF086FC85
:1024000008BD000010B5264C264A0021204646F0A3
:10241000A3FA254842F08CFA244A0121204646F0CE
:102420009BFA234842F084FA224842F081FA04F5EC
:102430004074214A0421204646F08EFA1F4842F09B
:1024400077FA1F4A0621204646F086FA1D4842F0D8
:102450006FFA1D4A0721204646F07EFA1B4842F0DB
:1024600067FA1B4842F064FA1A4842F061FA1A48C7
:1024700042F05EFA194842F05BFA194842F058FA05
:10248000184842F055FA184842F052FA174842F0FC
:102490004FFA174842F04CFA164842F049FA10BD7C
:1024A0000000314098420610CC420610D04206107F
:1024B00004430610EC4106106042061094420610D8
:1024C000284206105C420610F04106102442061015
:1024D000C4410610C8410610CC410610D041061078
:1024E000D4410610D8410610DC410610E041061028
:1024F000E4410610E8410610044B332242F2080181
:102500005A5042F210015A50704700BF000030404C
:10251000FEE7000030B583B0962100204BF0CEFDE1
:102520004BF05EFDB0B9724B1C6804F03F044BF0F9
:1025300047FD30B101204BF039FD6E4B9B6C002BF9
:1025400023DB6B4B1C604AF0D9FE4AF0C5FE01202C
:102550004AF0E8FE01204CF0F3FA4CF09BFA4CF004
:1025600073FB4CF05DFB002108464AF055FE00204D
:102570004AF0C0FD01204AF0A5FD00204AF0B8FC59
:102580005D4B1B6893F83F4006E00620FFF7C0FF55
:1025900020464BF023F9013C002CF9D10021012009
:1025A0004AF02EFF00204AF025FE002800F084802B
:1025B0004AF0DAFF002108464AF022FF00210846CF
:1025C0004AF0F8FD4D4D0024009423462246214652
:1025D000284646F0C7F800942346224601212846A3
:1025E00046F0C0F846484AF051FE002870D101205C
:1025F0004AF050FD00204AF07DFD00204AF062FDC7
:1026000000204AF075FC002101204AF0F9FE00216B
:1026100008464AF0F5FE002102204AF0F1FE0021B2
:1026200003204AF0EDFE002104204AF0E9FE0021DB
:1026300005204AF0E5FE33484AF0B0FF00284AD1B1
:1026400031484BF05BF8002848D1002108464AF099
:10265000B1FD002108464AF0DFFD2C4901204BF076
:10266000E3F800283DD142F2107101204BF064F9EB
:10267000002839D100204AF0A5FC4AF02DFE0120A7
:102680004AF050FE642100204BF018FD00F052F893
:102690001F4842F04DF91F4842F04AF91E4842F0E7
:1026A00047F91E4842F044F91D4842F041F91D48DF
:1026B00042F03EF903B030BD4AF0D0FE40F21113B3
:1026C00098427FF475AF012100204AF073FD6FE757
:1026D0000520FFF71DFF0420FFF71AFF0420FFF776
:1026E00017FF0320FFF714FF0320FFF711FF00BFC0
:1026F00000FF274000002740942C010800003140D3
:1027000040420F0008430610400D030034430610FA
:102710001C430610204306102443061028430610CD
:102720002C4306103043061008B5012046F040FB4C
:1027300008BD704710B500204BF01CFB00B910BD60
:102740000446114B18604AF0CBFC0130B4FBF0F0AA
:102750000E4B18604AF0DCFC0130B4FBF0F40C4B7B
:102760001C60013C0B4BA3FB04239B0C01330A4A66
:1027700013700A4BA3FB04239B090133084A13601F
:10278000DB03084A1360DAE7E4220008E8220008C5
:10279000E022000883DE1B43F4220008D34D6210C0
:1027A000F0220008EC22000808B5094845F004FAB8
:1027B000FFF7BFFFFFF7BEFF00221146032046F0E0
:1027C00043FB044846F0C2F9034846F013FA08BD3B
:1027D000105E0710802C00083C43061008B500F07E
:1027E000B4FE074AD2F8883043F47003C2F8883048
:1027F000BFF34F8FBFF36F8F00F0ABFE08BD00BF7C
:1028000000ED00E008B504484BF0D8FD08B1002009
:1028100008BD0248FCE700BFF822000800000206DD
:1028200000487047082E000810B584B042F07EF8CA
:10283000044638B154B1FFF7BDFD6CB184B12046F8
:1028400004B010BD44F0EAFA0446F3E740F6E44170
:10285000002044F075FBEEE7FFF7D4FF0446EDE7F8
:1028600013230293122301931123009310231522A3
:102870001421024843F0B6FC0446E0E7082E0008A5
:102880007047000008B503485CF0D2FE024B0022FE
:102890001A7008BD704306108875000890B5ADF534
:1028A000835D83B002AF0AF0ADF8002876D1002036
:1028B00007F582531E331880644B07F58252183295
:1028C0001360502307F582521C32138007F58253A0
:1028D0001433009303465E4A07F5825118310AF01B
:1028E00033F900285FD141F28832114607F582534F
:1028F000143318680AF090FA002859D055485CF053
:1029000097FE01BE07F1400107F1540341F8083971
:102910004FF48053CB60002387F838304FF0FF33FB
:102920004B618B614C4B4B604C4BBB620423FB6295
:10293000464B3B631E237B63012307F1280207F507
:102940008250143000680AF017FB0446002836D184
:10295000002C39D1424B1B78002B3FD03B1D0093FC
:1029600000231A4607F1380107F582501430006839
:102970000AF0E2FC68BB3B6A053323F00703ADEBCA
:10298000030D02A8044601233A6A013A9A424DD93E
:10299000F9695A1EC95CA1540133F5E731485CF06E
:1029A00047FE01BE83E730485CF042FE01BE9AE775
:1029B0002E485CF03DFE2A4B01221A70A2E72C48FB
:1029C0005CF036FE01BEC3E729485CF031FE01BE73
:1029D000C0E728485CF02CFE01BECCE741F288320B
:1029E000114607F58253143318680AF015FAB0B18E
:1029F00018485CF01DFE01BE3B1D009300231A46E3
:102A000007F1380107F58250143000680AF094FC91
:102A10000028B0D017485CF00BFE01BEABE71348AE
:102A20005CF006FE0E4B01221A70E5E7002181548E
:102A30000A225DF0DFFE044601460F485CF072FD9D
:102A4000204607F583570437BD4690BDBC430610AA
:102A500085280010FC43061044440610604406100C
:102A60008875000890430610DC4306101C440610CD
:102A7000684406108C440610A844061010B582B0B5
:102A8000FFF7D2FE00B101BE62B64FF4E132282159
:102A900029204CF0CBFA0E485CF044FD0D485CF068
:102AA000C7FD0D485CF0C4FD0C485CF0C1FD00247E
:102AB00001940223009323464FF400620849094819
:102AC00008F083FE08F016FF01BE204602B010BDDC
:102AD000CC440610D84406101845061030450610A0
:102AE00074450610D12E001010B584B03EF0C2FD22
:102AF00050BB1D4A136843F0040313604FF4007089
:102B000007F068FE194B186018B3174A136843F0B2
:102B100008031360164B029300230193154B009397
:102B2000154B164A12684FF400713EF0FDFD044645
:102B3000A8B90D4A136843F01003136010485CF005
:102B400077FD204604B010BD04460E485CF070FDD1
:102B5000F7E70D485CF06CFD4FF0FF34F1E70B48F0
:102B60005CF066FDEDE700BF90750008782E000868
:102B7000947500085D2E0010142300087C230008C3
:102B80004C560610005606102856061078560610A9
:102B900030B5A5B04FF01AFF18B10025284625B072
:102BA00030BD7022002108A85BF0A6F92D4A06ABC3
:102BB00007CA03C31A802C4C0FCCCDF83900CDF8CE
:102BC0003D10CDF84120CDF8453003CCCDF849007B
:102BD000CDF84D1023788DF85130244B1F9306A962
:102BE00023485CF09FFC00242546772C32D801A9AD
:102BF00006A84FF0D3FC054668B1C4F1770341F253
:102C0000883201461B485CF08DFC41F2883008F0A8
:102C1000F9FF0134E9E706A917485CF083FC174A7D
:102C2000136843F0020313609DF80430042B09D0AD
:102C3000062BB3D102A812F0EDFE014610485CF05D
:102C400071FCABE702A810F0E9FF01460D485CF00B
:102C500069FCA3E70C485CF0EBFC0A210B485CF034
:102C600061FC9BE798560610A4560610040040002D
:102C7000C056061048570610E0560610907500081A
:102C80002C57061010570610A8570610D8570610D4
:102C900010B5044606F099FF0346064A182120465F
:102CA0005CF0FEFD002801DB002010BD4FF0FF307E
:102CB000FBE700BF1058061070B588B002AC344D69
:102CC0000FCD0FC42B6823800023CDF81A30ADF848
:102CD0001E30304B304A9A60304A1A610A229A817B
:102CE0000F229A8202A8FFF7D3FF054688B9294E22
:102CF00002AC346020465CF083FE81B2B180284B88
:102D00001A6800929B88224626485CF00BFC2C46F1
:102D100017E025485CF08CFC2FE01E49234B186817
:102D20003EF02EFE054600B3C4F195034FF4FA625F
:102D300001461F485CF0F6FB4FF4FA6008F062FFB2
:102D40000134952C1CD84FF041FE0028E5D11948DC
:102D50005CF06EFC184A136823F002031360FFF75F
:102D600017FF05460028D8D007E014485CF060FC47
:102D7000114A136843F020031360284608B070BD61
:102D80000F485CF055FC05210E485CF0CBFBF4E7E6
:102D9000745C06101C2300082858061034580610CE
:102DA0001423000844580610805806109475000833
:102DB00034590610C45806109075000814590610AE
:102DC00088590610B459061008B51F4B1B6813F03C
:102DD000200F19D11C4B1B6813F0100F1CD11A4B7C
:102DE0001B6813F0080F1CD1174B1B6813F0040F5E
:102DF0001CD1154B1B6813F0020F1AD1124B1B6824
:102E000013F0010F1DD108BD10485CF011FC104BF0
:102E100018683FF067F9DDE70D4B18683FF09AF945
:102E2000DDE70C4B186807F0E5FCDDE73FF0E0F963
:102E3000DFE74FF055FB0028E0D107485CF0F8FBD6
:102E4000DCE74FF0F3FEDEE790750008E859061066
:102E500094750008782E0008105A061084B000B54A
:102E600083B005A880E80E009DF81430D3B1012B83
:102E700021D1134A136823F02003136011485CF03A
:102E8000D7FB02238DF8073000234FF0FF320DF1FE
:102E900007010D48006807F061FE03B05DF804EB20
:102EA00004B07047064A136843F04003136007A854
:102EB00000F0FCFAF1E705485CF0BAFBEDE700BF73
:102EC00090750008305A06108C750008605A06107C
:102ED00010B588B000228DF80C200121032007F0E6
:102EE000DFFD5D4B186003A84FF09CF908BB5B4AFF
:102EF000136843F00103136059485CF099FBFFF736
:102F000047FEC8B9FFF7F0FDB0B9FFF7D5FE98B995
:102F1000544B01930223009300234FF480625249E3
:102F2000524808F052FC012822D051485CF080FB46
:102F300002E050485CF07CFB4F485CF079FB494B69
:102F4000186808B108F076FC4C4B186808B108F016
:102F500071FC4B4B186808B108F06CFCFFF734FFAC
:102F600048485CF065FB002008F064FC08B010BD28
:102F70004FF4FA6008F046FE404B019302230093A1
:102F800000234FF480624049404808F01EFC0128AD
:102F900003D03F485CF04CFBCEE7394B0193032351
:102FA000009300234FF4A0523A493B4808F00DFC2F
:102FB000012803D039485CF0B5FABDE73848FFF77F
:102FC0005FFC1BE037485CF033FBFFF775FE002821
:102FD000B2D100248DF81C4023464FF0FF3207A9E0
:102FE0003148006807F0BAFD8DF8104023464FF0D5
:102FF000FF3204A92D48006807F0B0FD4FF0FF3202
:103000000DF11F01144B186807F080FF0128F5D15E
:103010009DF81F30022BF1D101238DF810300023D1
:103020004FF0FF3204A92148006807F097FD204BBC
:1030300018683FF057F84FF0C9FC0028C2D1074A82
:10304000136823F0020313601A485CF0F1FAFFF7EB
:103050009FFD0028B6D06FE78C75000890750008BA
:10306000C05A0610A4760008E85A06102134001051
:10307000F85A06108C5A0610185C0610887600085C
:1030800084760008485C0610205B06106931001049
:10309000305B0610545B0610C93200106C5B0610E2
:1030A0009C5B0610F85B0610A0760008907600087E
:1030B00094750008D45B061008B501230222002194
:1030C000042041F001FA00220549042041F042FAAF
:1030D000012305220221042041F054FA08BD00BF5B
:1030E000E530001000B585B00023039302238DF86E
:1030F00000300F4B02930F4B1B68ABB90E4B019383
:10310000002303AA69460D48006807F021FE039BCF
:103110003BB10B4B4FF080521A60BFF34F8FBFF3A0
:103120006F8F05B05DF804FB064B0193E8E700BF25
:103130008C5C061094230008985C061090760008BA
:1031400004ED00E0A45C061008B50022114604203E
:1031500041F000FA002305220221042041F012FA76
:10316000042041F0DFFA08BD70B584B0FFF7A4FF7A
:1031700000220C21032007F093FC234B186001E090
:10318000FFF7E2FF4FF0FF3201A91F4B186807F06D
:10319000BDFE0128F6D19DF80430012BF0D0022BA2
:1031A00004D0002BEED1FFF787FFEBE7039E174C0F
:1031B000666030465CF024FC2081029DE560284674
:1031C0005CF01EFC20613246294611485CF0AAF9E9
:1031D0002146104B18683EF0C1FC014618B90E4854
:1031E000FFF74EFBCEE70D485CF09CF901238DF80C
:1031F000033000234FF0FF320DF10301084800684F
:1032000007F0ACFCEBE700BF9076000880230008D5
:10321000AC5C061094750008185D0610E05C0610A2
:103220008C75000800B585B00022502113483FF08E
:10323000A1FCB8B9124A02AB92E8030083E803008C
:103240000093FF2350220D490E483FF021FB014619
:1032500070B90D485CF0ECF90C485CF0E9F905B088
:103260005DF804FB01460A485CF05CF901BEE1E749
:1032700008485CF057F901BEEBE700BF98750008FD
:103280006C5E061094760008B05D0610E45D0610D2
:103290004C5D0610745D061008B506483FF0E7FB6C
:1032A000054981FB0031C017C0EBA11103485CF058
:1032B00039F908BD94760008D34D62100C5E0610F3
:1032C00008B5FFF7E9FF08BDF0B52DED028B89B019
:1032D00002238DF8143050205AF0C8FD0746002014
:1032E00006F058FF5CF0ACF9FFF79CFF002635466E
:1032F000344626E0FFF7D2FA0446002006F04AFFE3
:1033000005460026002CF5D0B6F5967FF2D80020B1
:1033100006F040FF461BA319029318EE100A59F05D
:10332000E9FECDE900010222124938465CF0ECFAD0
:10333000069700234FF47A7205A90F48006807F03A
:103340000DFC0E4B079342F2107008F05BFC5CF032
:10335000A5F90B4B83FB0023A3EBE07303EB4303C3
:10336000C31A153307EE903AB8EEE78AFFF7A8FFC5
:10337000C8E700BF385E061090760008285E061089
:103380005655555530B583B00024254604E04FF41A
:103390007A7008F037FC0134022C0ED80122114952
:1033A000114B18683EF0D0FC05460028EFD10D4BBC
:1033B0005A6819890D485CF0B5F80DB903B030BDF5
:1033C000032229460A485CF0ADF800238DF8073047
:1033D0004FF0FF320DF107010648006807F0BEFB11
:1033E000ECE700BF9823000894750008745E06108F
:1033F000B05E06108C75000808B501220549064B21
:1034000018683EF0ABFD00B908BD014603485CF00A
:1034100089F8F9E79823000894750008F05E061013
:1034200000B583B00123022219466F2041F04CF809
:10343000FFF7A8FF00220221012007F031FB174B04
:10344000186001E0FFF7D8FF4FF0FF3201A9134BDE
:10345000186807F05BFD0128F6D19DF80430012BB8
:10346000F0D0022B04D0002BEED1FFF78BFFEBE75F
:103470009DF805200A4B1B689869003A18BF012285
:10348000072100F5D06045F0CFF99DF80520054BE8
:103490001A600548FFF7F4F9D6E700BFA0760008E8
:1034A000942C010894230008285F061030B585B0DD
:1034B000C56804690195009490F90030426801895B
:1034C00017485CF02FF802238DF80C30072C17D02A
:1034D000082C20D12246294612485CF099FAD0B92E
:1034E00001238DF80D301048FFF7CAF900234FF083
:1034F000FF3203A90D48006807F030FB05B030BD6E
:10350000224629460A485CF083FA0028E0D10023CD
:103510008DF80D30E7E707485CF08AF8EEE700BF6A
:10352000545F0610985C06100C600610A076000828
:10353000A45C0610D05F06100230800803D0013072
:103540000238FCD100BF00BF7047EFF3108072B6A5
:10355000704780F310887047034B0360034B0B6088
:1035600080231360704700BF94340008942E000835
:10357000034B0360034B0B604FF480731360704781
:10358000903500089430000870B582B005460023DD
:1035900001931F4B1B68C3B11D4B1B689BB1FFF709
:1035A000D4FF044608F038FD50B14FF47A7000FBA8
:1035B00005F01849A1FB00318E09B0F57A7F0ED2D3
:1035C0002046FFF7C6FF02B070BD134841F006FD6C
:1035D00018B90F4B104A1A60DEE701BEDCE7012381
:1035E00001AA31460A48006843F04CFC0028E7D1A4
:1035F000019BB34200D901BE019B4FF47A7000FBDE
:1036000003F0044BA3FB0030800908F0D9F9D7E799
:103610007C2E0008D34D6210802E000808B509F0FA
:10362000BBF803680BB14068984708BD2DE9F04727
:1036300084B00C9D002843D00F4690461C4681461E
:10364000B5F5967F3ED313B113F0070F3ED184B387
:10365000002606F5847007F0BDF88246002837D0B2
:1036600025F00705AD083CB3564403220021012094
:1036700007F016FAC6F8FC0000B3184BC6F8003184
:10368000C6F804A116F0070F00D001BE02960194FF
:103690009DF8343000930E9B2A464146384608F088
:1036A00053F8C9F80000864214D0A8B101BE00202A
:1036B00009E025F00706CCE70446D5E701BEDCE7C4
:1036C000074800E0064804B0BDE8F0870548FAE77F
:1036D0000548F8E70020F6E70020F4E701EFCDAB5E
:1036E00005000E0606000E0601000E0610B508F0D5
:1036F000B7FC0446D0F80021074B9A4204D001BE23
:10370000204608F049FBFBE700231A461946D0F88B
:10371000FC0007F023FAF3E701EFCDABE0B110B501
:103720000446006808F086F8246808F03BF9D4F8ED
:1037300000210A4B9A4203D008F0E8F9002010BD9E
:103740000023C4F80031D4F8FC0007F00DFED4F8D3
:10375000040107F04FF8EFE70148704701EFCDABE8
:1037600005000E06A8B110B504460368D3F8001191
:10377000094A914203D000200023236010BD4FF07E
:10378000FF31D3F8FC0007F06FFC2046FFF7C6FFBF
:10379000F2E70248704700BF01EFCDAB05000E060F
:1037A00080B110B50446017131B1042007F0A4FACC
:1037B000206028B1002010BD012007F09DFAF7E736
:1037C0000148F8E70148704701000E0605000E06A3
:1037D000B0B108B54FF47A7303FB01F1094BA3FBB9
:1037E0000131890903792BB1006807F00DFD28B17B
:1037F000002008BD006807F037FCF8E70248F8E74A
:1038000002487047D34D621000000E0605000E06F8
:1038100088B110B503792BB1006807F078FA40B190
:10382000002010BD00231A461946006807F096F9DB
:10383000F5E70248F5E70248704700BF02000E06B0
:1038400005000E0628B108B5006807F08DFD0020C0
:1038500008BD0148704700BF05000E0660B110B5F5
:103860000B4611460446184607F058F9206008B187
:10387000002010BD0148FCE70148704701000E061A
:1038800005000E0610B582B000230193D0B10446A6
:1038900002B1C9B94FF47A7303FB01F10D4BA3FBDD
:1038A0000131890942B101AA0021206807F0CDFC4D
:1038B00060B1002002B010BD206807F0D5FB38B120
:1038C0000020F7E70448F5E70348F3E70348F1E78A
:1038D0000248EFE7D34D621005000E0600000E0609
:1038E00010B582B000230193D8B171B101A900686D
:1038F00007F0A5FA019B73B10B4B4FF080521A6091
:10390000BFF34F8FBFF36F8F05E000231A461946B0
:10391000006807F023F910B1002002B010BD034881
:10392000FBE70348F9E700BF04ED00E002000E06E4
:1039300005000E0628B108B5006807F015FD002047
:1039400008BD0148704700BF05000E0668B110B5FC
:103950000B46114604460022184607F0A1F82060E5
:1039600008B1002010BD0248FCE70248704700BFC4
:1039700001000E0605000E06C8B110B5C9B13BB175
:1039800000231A46006807F0E3F970B1002010BD6B
:103990004FF47A7303FB02F2074BA3FB02320023BE
:1039A0009209006807F0DAF8EFE70448EFE7044807
:1039B00070470348EBE700BFD34D621002000E06CC
:1039C00005000E06B8B110B5B9B133B100220068D8
:1039D00007F03BFC68B1002010BD4FF47A7303FB85
:1039E00002F2074BA3FB02329209006807F08EFA3D
:1039F000F0E70448F0E7044870470348ECE700BFED
:103A0000D34D621002000E0605000E0628B108B55F
:103A1000006807F0A9FC002008BD0148704700BFFE
:103A200005000E0630B32DE9F04182B014461D4664
:103A300007460AB3B1B94FF0010808205AF016FA48
:103A40000646D8B1046045600D4B009303464246DC
:103A500001210C4808F0D8FC386030B1002002B0D9
:103A6000BDE8F0814FF00008E7E730465AF006FA6B
:103A70000548F4E7054870470448F0E70248EEE7D8
:103A80001D3600106CEA061001000E0605000E0639
:103A900018B310B582B004464FF47A7202FB01F2FB
:103AA0000F49A1FB02320023009392090421006810
:103AB00008F0C6FC012803D068B1002002B010BD98
:103AC000246807F077FF0246002300930121204677
:103AD00008F0B6FCF0E70348F0E70348704700BF82
:103AE000D34D621002000E0605000E0670B110B52F
:103AF00082B00022009213460321006808F0A0FC67
:103B000010B1002002B010BD0148FBE7014870472A
:103B100002000E0605000E0658B110B50C4651B154
:103B2000006808F01EFE003818BF01202070002039
:103B300010BD024870470148FAE700BF05000E06B5
:103B4000B0B130B583B00546006808F025FE0446E4
:103B50000022009213460521286808F071FC10B974
:103B6000044803B030BD20465AF088F90020F8E739
:103B70000148704702000E0605000E0630B110B570
:103B8000044607F017FF2060002010BD0048704772
:103B900005000E0608B54FF47A7303FB00F0044BE2
:103BA000A3FB0030800908F02DF8002008BD00BFFD
:103BB000D34D621010B582B0044600234FF0FF329F
:103BC00069462046FFF7FEFE0028F6D1009B13B1A0
:103BD00001989847F1E7FFF789FD02B010BD00009A
:103BE00070B584B004460E4601B100B901BEB36899
:103BF00013B1736803B901BE002323606360A3603F
:103C0000E360316901B9102108222046FFF79EFECA
:103C1000054680B90123237304F10800F2686AB1F4
:103C200002943378019373680093B3680749FFF7F0
:103C3000FDFC054620B9284604B070BD044AEFE7F4
:103C4000002323732046FFF7E1FEF4E7B53B0010A5
:103C50002860061070B582B00446FFF776FC054672
:103C6000237B002B3ED0012B13D00026237B042B7B
:103C700029D1237BBBB32846FFF76BFC2046FFF717
:103C8000C5FE064690BBFFF760FC05460023237384
:103C900029E003232373FFF75CFC002200920192CA
:103CA000EFF305839B1A18BF012369462046FFF7EF
:103CB00063FE06460028D9D0FFF747FC0123237393
:103CC000FFF747FC12E02846FFF743FC04F1080029
:103CD000FFF748FD064648B9FFF737FC05460423C1
:103CE0002373C6E700262846FFF733FC304602B0B0
:103CF00070BD000070B582B00D461646044640B354
:103D00004DB3FFF722FC237B013BDBB2012B24D810
:103D100063680133636002232373FFF71AFC009585
:103D20000196EFF30583003B18BF0123002269468B
:103D30002046FFF721FE0546FFF707FC6368013BBD
:103D400063600BB901232373FFF703FC284602B01D
:103D500070BD01BED4E701BED3E7FFF7FAFB014D0A
:103D6000F4E700BF20000E060020704770B518B1C0
:103D7000064641B100240FE0114B124A40F2E141E6
:103D8000114859F0F3FD114B0E4A40F2E2410E4842
:103D900059F0ECFD3555013494420AD20D5D0D2DDC
:103DA00009D00A2D09D0012BF4D13A2DF2D10020EF
:103DB00000E0304670BD0020FCE70020FAE700BFBD
:103DC000346006102C68061044600610B0600610BF
:103DD000F8B5E1B10C46092A20D9002825DB0025D9
:103DE00000221D4981FB0031C317C3EBA103194613
:103DF00003EB8303A0EB43032E46501930332354C7
:103E00000132D2B208460029EBD100231EE0134B49
:103E1000134A40F2B341134859F0A8FD124B104A1F
:103E200040F2B4410F4859F0A1FD2D230B704042E0
:103E30000125D5E7F018275C9119C91A013914F842
:103E400001C004F800C067540133DBB2B3EB520F7A
:103E5000F0D35019C0B2F8BD676666665077061099
:103E60001868061044600610C06006102DE9F84F6F
:103E7000E0B1884617461C4606464368EBB11AB3C4
:103E8000234B994227D04FF00A0AC04781460025AC
:103E9000002C3AD0002D38D1736822463946B068DC
:103EA0009847B0F1000B19DA0225F1E7194B1A4ACD
:103EB00040F2DB61194859F059FD194B164A40F29E
:103EC000DC61164859F052FD164B134A40F2DD6191
:103ED000124859F04BFD4FF0000AD6E70EDDA3451E
:103EE00005D8C0478146A4EB0B045F44D0E70E4BD6
:103EF000094A40F2FE61094859F038FDC047A0EB7D
:103F000009039A45C4D80225C2E72846BDE8F88FC0
:103F1000693D0010F06006107068061044600610DD
:103F200004610610206106103061061010B538B12A
:103F30000446406858B18AB12046FFF797FF10BD8C
:103F40000A4B0B4A40F26C710A4859F00FFD0A4BBC
:103F5000074A40F26D71074859F008FD074B044AC3
:103F600040F26E71034859F001FD00BFF060061089
:103F7000A868061044600610046106105861061017
:103F800008B530B183695BB1022283F8202000209C
:103F900008BD074B074A40F2AA31074859F0E6FC32
:103FA000064B044A40F2AB31034859F0DFFC00BF36
:103FB000706106109C67061044600610846106104C
:103FC00030B583B0F8B10446436A1BB3026BC2B18B
:103FD000826BB2B19A6AB2F1FF3F22D001329A628B
:103FE0009A684AB1156850681B8C0193E36B009383
:103FF000A36B626B216BA847002323636363A363F6
:10400000E36303B030BD0A4B0A4A4FF40C710A480F
:1040100059F0ACFC094B074A40F23121064859F0EF
:10402000A5FC074B034A40F23A21034859F09EFC95
:10403000A0610610C466061044600610B861061040
:10404000DC61061038B5002839D0014680690028A7
:104050003CD0436A002B40D0C26A002A44D01C687E
:10406000A24248D35D682C44A2424BD21C69002C6A
:1040700056D0A2424DD9121B5A61D1E90245B5F181
:10408000FF3F08BFB4F1FF3F4DD05C620A8812F0D9
:10409000100F03D0DA6A42F00102DA620A8812F0E5
:1040A000080F03D0DA6A42F00202DA6290F8283090
:1040B000012B3BD00024FFF783FF204638BD1C4B6B
:1040C0001C4A40F205311C4859F050FC1B4B194A60
:1040D00040F20631184859F049FC194B154A40F294
:1040E0000B31154859F042FC164B124A4FF44371FC
:1040F000114859F03BFC144B0E4A4FF444710E48E2
:1041000059F034FC114B0B4A40F211310A4859F076
:104110002DFC0F4B074A4FF44771074859F026FC16
:1041200000225A61A9E700225A62AFE70124C2E7E0
:10413000706106105C67061044600610846106100A
:1041400000620610146206103862061080620610C3
:10415000E062061008B568B1836993B1C1B18818EF
:10416000D862986BD8B1D96B0A44DA631B6BCBB1B8
:10417000002008BD0F4B104A4FF436710F4859F01C
:10418000F5FB0F4B0C4A40F2D9210C4859F0EEFBDD
:104190000C4B094A40F2DA21084859F0E7FB9963D1
:1041A000DA63E3E7084B044A40F2F321034859F08D
:1041B000DDFB00BF706106103C670610446006100E
:1041C00084610610286306103863061070B5B8B114
:1041D0000E4615468469D4B101B3636A2BB31A69DC
:1041E00052B37319E3622046FFF7EAFE236B2BB349
:1041F000626BEB439A4224D82A446263002070BD6C
:10420000134B144A4FF42871134859F0AFFB134B6A
:10421000104A40F2A121104859F0A8FB104B0D4A5A
:1042200040F2A2210C4859F0A1FB0E4B094A40F282
:10423000A721094859F09AFB1961D2E72663656303
:10424000DCE7094B034A4FF43171034859F08EFB08
:10425000706106101C670610446006108461061029
:1042600028630610006206106463061038B578B142
:10427000044683699BB1C9B15D6AF5B11144D96245
:104280000020186358639863D863A38A2B8438BDD1
:104290000D4B0E4A40F277210D4859F067FB0D4B4C
:1042A0000A4A4FF41E710A4859F060FB0A4B074A4C
:1042B00040F27921064859F059FB084B034A40F275
:1042C0007E21034859F052FB70610610006706100A
:1042D0004460061084610610286306100062061010
:1042E00008B530B183695BB1012283F8202000203A
:1042F00008BD074B074A40F26121074859F036FBD9
:10430000064B044A40F26221034859F02FFB00BFDC
:1043100070610610DC6606104460061084610610A9
:1043200008B5B0B1C37D03F07F031E2B2CD8DFE8A6
:1043300003F0172B2B2B2B2B2B2B2B2B2B172D1968
:104340001D1F2B2B2B2B2B2B2B232527291B212B05
:1043500021000F4B0F4A40F2DE310F4859F006FBA7
:10436000002000E0072008BD0820FCE70920FAE74C
:104370000A20F8E70B20F6E70B20F4E70B20F2E722
:104380000C20F0E70C20EEE70D20ECE70620EAE732
:1043900070610610EC6706104460061008B502282C
:1043A00006D891420BD8B8B101280FD0002008BD23
:1043B0000A4B0B4A4FF4F0610A4859F0D7FA0A4BFE
:1043C000074A40F28271074859F0D0FA914201D071
:1043D0000320ECE70520EAE70420E8E7A0630610E5
:1043E000B868061044600610EC6306102DE9F04131
:1043F000B0B114461D4607460668C6B1F1B122B3F6
:1044000002F10C0345B3069A4ABB4FF001089844E9
:10441000BB6843447A68934224D90520BDE8F08103
:10442000244B254A40F2B451244859F09FFA244BBA
:10443000214A40F2B551214859F098FA214B1E4AC1
:1044400040F2B6511D4859F091FA1F4B1A4A40F2FA
:10445000B7511A4859F08AFA4FF00108D7E7DDF84A
:104460001880D4E7224630465BF0E4FA3319202264
:1044700032555C1C0DB1069A9AB92F225A709E1CB7
:104480003246202302F8013B104B03CBC6F8010053
:1044900051600F4B1B88A6F80930C7F80880002030
:1044A000BCE7069A294620465BF0C4FA069BE6184C
:1044B000E6E700BF106406105C6806104460061052
:1044C000286406104C6406105C6406106C640610C8
:1044D000085E06102DE9F84FDDF828A040B30F461E
:1044E00016469846814604684CB379B3002B34D005
:1044F000002A39D0BAF1000F3DD0D0F808B05C44A2
:10450000BBF1030F08D904222F49201F5BF080FA6A
:1045100010B9ABF1020B023C06EB0A0506355D440F
:10452000D9F804309D422DD905231846BDE8F88FEF
:10453000264B274A40F21451264859F017FA264BC9
:10454000234A40F21551234859F010FA234B204AD0
:1045500040F216511F4859F009FA214B1C4A40F20B
:1045600017511C4859F002FA1E4B194A4FF4A36127
:10457000184859F0FBF91C4B154A40F219511548DF
:1045800059F0F4F90123324639462046FFF7EEFB95
:1045900068B1A319154A1288A2539C1C00235246E5
:1045A00041462046FFF7E2FB58B1002300E00B2311
:1045B000002BBAD1044A106844F80A00C9F8085020
:1045C000B3E70B23B1E700BFB86406101064061010
:1045D00040680610446006102864061078640610CF
:1045E0008864061098640610A8640610EC4F071043
:1045F00010B586B00246002303930493ADF814303F
:1046000078B10846144699B10A2203A9FFF7E0FBE6
:10461000009003AB0E220A492046FFF75BFF06B06D
:1046200010BD084B084A40F22671084859F09EF91F
:10463000074B054A40F22771044859F097F900BF2B
:10464000D4640610106406108068061044600610DA
:10465000C064061070B588B10E461446054642681F
:104660009AB1CCB1049A12F0010F00D1DBB9A36862
:10467000226831462846FFF7F9FB70BD0D4B0E4A04
:104680004FF4E9610D4859F071F90D4B0A4A40F2B7
:1046900049710A4859F06AF90A4B074A40F24A71CF
:1046A000064859F063F919462046FFF7A1FF002894
:1046B000E3D1DCE7F060061098680610446006104D
:1046C0000461061010640610F0B583B0089FB0B105
:1046D0000C461D460646CAB1FBB13CB3099B00938C
:1046E0003B4621463046FFF7B5FF30B92DB13B467A
:1046F0002A4621463046FFF719FC03B0F0BD0F4BA8
:104700000F4A40F624010F4859F030F90E4B0C4A7D
:1047100040F625010B4859F029F9002FDDD00B4B4D
:10472000074A40F62601074859F020F9084B044A89
:1047300040F62801034859F019F900BFF06006104F
:10474000EC6806104460061010640610E46406105D
:104750004065061070B58AB008B30C46154606468B
:10476000002304930593069307930893CDF8233011
:10477000184B93E803000390ADF8101015220DF1CB
:1047800012012046FFF724FB831DB5F1FF3F0DD139
:10479000002C16DB03AA2D21D154C31D11E00E4BB2
:1047A0000E4A4FF4AE610E4859F0E0F803A92D22ED
:1047B000CA54C41DC0F1140221442846FFF708FB67
:1047C0000319009303AB052206493046FFF782FE2A
:1047D0000AB070BD58650610106406104C680610CB
:1047E000446006106065061038B5D0B10C46054629
:1047F000F1B18B680F2B22D9012103F04FF94FF44F
:10480000006003F071F9002385F820306B62042208
:104810000E4920685BF0FCF810B9012385F82830B8
:1048200038BD0B4B0B4A4FF46F710B4859F09EF893
:104830000A4B084A40F2BD31074859F097F8084B37
:10484000044A40F2BE31044859F090F8A8650610B9
:10485000A0610610C06706104460061010640610C0
:104860006865061070B58AB004460D4616462822C3
:104870000021684659F040FB34B3002D2BD0636A09
:10488000002B2FD0AB4239D1684603F026F91F4BDD
:1048900000931F4B02931F4B03931F4B04931F4B1B
:1048A00005931F4B06931F4B0793A461E56A33469C
:1048B0002A466946204600F0C3FB0544E5622046CF
:1048C000FFF72EFD0AB070BD174B184A4FF48B61ED
:1048D000174859F04BF8174B144A40F25941144805
:1048E00059F044F865622B68E36200232B84AB61C6
:1048F000EB612B616B61AB62EB62C5E70E4B0B4A60
:1049000040F275410A4859F031F800BFE142001009
:104910006D420010CD41001055410010454000107F
:104920007D4A0010813F0010A06106100468061047
:104930004460061000620610B06506102DE9F04FC5
:1049400093B080460D4614464022002102A859F03B
:10495000D3FAB8F1000F16D0D8F80030D3B105B3B0
:1049600034B3214602A8FFF73FFFEB683C4A93426D
:1049700025D04FF00A0B984701904FF0000A01270D
:104980005646D14645E0374B374A40F2B571374875
:1049900058F0ECFF364B344A40F2B671334858F0C9
:1049A000E5FF344B304A40F2B771304858F0DEFF33
:1049B000314B2D4A4FF4F7612C4858F0D7FF4FF098
:1049C000000BD8E7EB689847019BC01A834515D9BF
:1049D000002302E000234FF00209012B11D0B9F1AE
:1049E000000F15D1BAF1000F26D19DF82830022B07
:1049F00024D06B68B3420CD800270AE0BA463B4685
:104A0000EBE72246294602A8FFF72CFF8146E6E79E
:104A10000027AFB1D8F8003029686A68921B31448A
:104A2000D8F808009847041ED4DBCBDDEB68984724
:104A3000019026443B46D0E70027EAE70027E8E755
:104A4000B9F1000F03D0484613B0BDE8F08F6A6893
:104A500031469DF82800FFF7A1FC8146F3E700BF2F
:104A6000693D0010F0600610D06806104460061022
:104A7000D86506100062061010640610F8B5F8B18B
:104A80000C461646876917B341B37D6A002D2CD0BA
:104A90002B68002B30D08B4235D86A6813448B4288
:104AA00038D9AB69002B3CD0A869EB691844844223
:104AB0003AD8EB693344EB613444FC620020F8BD22
:104AC0001C4B1D4A40F262311C4858F04FFF1C4BF2
:104AD000194A40F26331194858F048FF194B164AF9
:104AE0004FF45971154858F041FF174B124A40F2E4
:104AF0006931124858F03AFF144B0F4A40F26A31BC
:104B00000E4858F033FF124B0B4A40F26B310B4802
:104B100058F02CFF0F4B084A4FF45B71074858F0D0
:104B200025FFA961EB61BFE73246214659F0CAF97A
:104B3000BFE700BF70610610806706104460061072
:104B4000846106102863061000620610F4650610E2
:104B5000106606104066061030B583B00C46054658
:104B6000B0B10368F3B1F9B10B68FBB10B69FBB1EC
:104B70004B68FBB14B690BB901200AE0002383604D
:104B8000CB6800938B684A680968FFF72FFC00E048
:104B9000012088B1C8B118B9A36913F0010F1DD164
:104BA00003B030BD0120F4E70120F2E70120F0E777
:104BB0000120EEE70120ECE7142300930B4B0A22BF
:104BC0000B492846FFF786FCE4E7636900932369F5
:104BD000042208492846FFF77DFCDCE70A22009200
:104BE000054B06492846FFF775FCD9E7886606108D
:104BF000A066061060440610AC660610B866061083
:104C0000A8B130B583B00446006890B1A1B1ABB192
:104C1000B2B10698B0B1A5686068854201D901209B
:104C200008E0069800902046FFF754FC02E00120BF
:104C30007047012003B030BD0120FBE70120F9E7F8
:104C40000120F7E70120F5E7F8B103460068F0B16D
:104C500010B59C68586884421BD8B2F1FF3F1ADB3C
:104C6000002909DBB2F1FF3F01D08A4215DBB1F127
:104C7000004F06D101200DE0B2F1FF3FF2D001203C
:104C800008E01846FFF766FD04E0012070470120A8
:104C90007047012010BD0120FCE70120FAE7000069
:104CA00030B583B00C46054648B3416859B3016836
:104CB00059B364B3216861B3A1680F292BD9606827
:104CC00081422AD8069951B3096851B37AB1002BB1
:104CD00029DB0699C96871B10799019100931346C0
:104CE00022460699C9682846FFF7EEFC08E0002B2B
:104CF000EDD0012004E010490698C160ECE70120E6
:104D000098B103B030BD0120FAE70120F8E7012097
:104D1000F6E70120F4E70120F2E70120F0E70120A7
:104D2000EEE70120ECE70120EAE722460699284653
:104D3000FFF704FEE5E700BF693D0010202900F001
:104D4000D4800D2900F0D3800A2900F0D2800929EF
:104D500000F0D1800C2900F0D08010B4A0F1140331
:104D60000B2B00F2CC80DFE803F0061520272F2F55
:104D70002C808F8F9EAE2F2900F0C3802A2900F04F
:104D8000C28041F02003613BDBB2192B40F2BD80B1
:104D900001200EE041F02003613BDBB2192B08D962
:104DA0003A2900F0B480012003E02F2900F0B180FF
:104DB00001205DF8044B70472F2900F0AC800120E2
:104DC000F7E7402900F0A9802F2900F0A8803F29AB
:104DD00000F0A780402900F0A68041F02003613B4D
:104DE000DBB2192B40F2A180A1F13003DBB2092B19
:104DF00040F29D802D2900F09C805F2900F09B806F
:104E00002E2900F09A80212900F099807E2900F057
:104E100098802A2900F09780272900F09680282979
:104E200000F09580292900F09480252900F09380D6
:104E30003B2900F092803A2900F09180262900F069
:104E400090803D2900F08F802B2900F08E8024294E
:104E500000F08D802C2900F08C805B2900F08B8085
:104E60005D2900F08A800120A3E7CB084B4AD25C81
:104E700001F007040123A3401A429AD123297ED0CE
:104E80003F297ED11C2094E7CB08444AD25C01F034
:104E90000700012383401A4275D1232975D03F2989
:104EA00075D11D2085E7CB083C4AD25C01F0070490
:104EB0000123A3401A426CD123293FF47AAF3F2942
:104EC00069D11F2075E7CB08344AD25C01F0070492
:104ED0000123A3401A427FF46CAF23293FF469AF4A
:104EE0003F293FF466AF012063E7012070470120AE
:104EF0007047012070470120704701207047012052
:104F000057E71B2055E71B2053E7152051E71620D4
:104F10004FE717204DE718204BE7012049E71B20FA
:104F200047E71C2045E71A2043E7192041E71920ED
:104F30003FE719203DE719203BE7192039E7192001
:104F400037E7192035E7192033E7192031E7192011
:104F50002FE719202DE719202BE7192029E7192021
:104F600027E7192025E7192023E7192021E7192031
:104F70001FE719201DE719201BE7192019E71E203C
:104F800017E7012015E71D2013E71E2011E7012078
:104F90000FE71F200DE701200BE700BFEC730610A1
:104FA000037813F0030F24D0828AA2F164039BB22A
:104FB000632B20D9CC2A20D0B2F5987F1FD003884C
:104FC000C3F3870213F4807F1BD1C37813F0200F43
:104FD00002D012F0010F16D012F0010F15D1D0E956
:104FE0000223B3F1FF3F08BFB2F1FF3F0FD1012011
:104FF0007047002070470020704700207047002055
:105000007047002070470120704700207047002043
:10501000704708B5038A3BB1438A2BB1038813F06C
:10502000100F05D0002008E0038813F0080F05D00A
:10503000FFF7B6FFB0FA80F0400908BD0020FCE79A
:105040002DE9F04F9BB08246029190469946036845
:10505000C3F38621C278D4090494C2F38012059266
:105060004768C27D12F07F02039242F009850B4629
:105070000846B9F1000F2ED1122916D93F2916D1B1
:10508000029BDB69002B02F0FD8450469847002804
:1050900002F0F884CAF804709AF81730072262F315
:1050A00006038AF8173002F0EDBC49B251B99AF8FC
:1050B00017300B2262F306038AF817304FF001090C
:1050C00002F0E0BC012202FA03F3BF4A1A40002AB0
:1050D000EDD002F0D7BC2D291CD000221692322B25
:1050E0001BD000220992102B02F07783C2F07B8341
:1050F0006B3303F07F030A2B12D8CDF820800023F6
:105100000793C346002306934B46C146B8461F4645
:1051100002F093B8CDF85880E1E7CDF82480E2E7BB
:10512000002307930893ECE74746C8469AF81730E0
:105130000C2262F306038AF817309AF8173013F03E
:105140007F0F06D19AF81730202262F306038AF8FF
:105150001730CAF80470DAF8003060F39023CAF808
:105160000030ABEB080902F08DBC0F2004E00F20EB
:1051700002E0102000E00096431E3F2B02F2CB829B
:10518000DFE813F040005000A800D20034014301D2
:1051900052016101700185019401A901B801D0019A
:1051A000010216029A02A90263036E048D048D04A3
:1051B0008D048D04B404B404B404B404B404B4047D
:1051C000B40454056E057E058E05D705B705C705E1
:1051D000E705FD050D062306360646062708A30843
:1051E000BD0CCC0CAF086609800C710CCD10F91009
:1051F00042115311570D2E0EB71103127512D10F14
:10520000541072100D2C02F016800A2C02F013803C
:105210004746C8469AF817300D2262F306038AF80B
:1052200017308AE70D2C02F006800A2C02F003806A
:10523000BAF800306FF38903AAF800309AF8033007
:105240006FF345138AF803304FF0FF324FF0FF330E
:10525000CAE90223482C07D09AF800306FF3010303
:105260008AF80030122087E79AF8173013F07F0F82
:105270001FD102990B68002B02F05482DAF800303B
:10528000032262F39023CAF800300B685046984717
:10529000B0B9DAF80000C0F386209AF8173013F09E
:1052A0007F0F01F0C887ABEB090B0BF1010902F08E
:1052B000E9BB464B464A40F2E621464858F056FBC9
:1052C000CAF804809AF81730012262F306038AF8BC
:1052D0001730DEE7542C13D0452C1BD19AF8003040
:1052E0006FF301038AF8003002228AF816209AF838
:1052F000033062F304038AF80330132001F09BBFEC
:105300009AF80030012262F301038AF80030062087
:1053100001F091BF4746C8469AF817301C2262F345
:1053200006038AF8173008E70D2C01F084870A2C51
:1053300001F08187BAF800306FF38903AAF80030D2
:105340009AF803306FF345138AF803304FF0FF32B9
:105350004FF0FF33CAE90223482C24D19AF81730C2
:1053600013F07F0F29D102990B68002B02F0DC812A
:10537000DAF80030052262F39023CAF800300B6897
:105380005046984740BBDAF80000C0F386209AF8F0
:10539000173013F07F0F01F04E87ABEB090B0BF1C9
:1053A000010902F06FBB4746C8469AF817301C2225
:1053B00062F306038AF81730BFE6044B044A4FF441
:1053C0004471044858F0D2FA16000400A46906108B
:1053D000507306101C690610CAF804809AF817303A
:1053E000012262F306038AF81730CCE7542C02D16D
:1053F000062001F020BF4746C8469AF817301E2203
:1054000062F306038AF8173097E6542C02D107207E
:1054100001F011BF4746C8469AF817301E2262F3C2
:1054200006038AF8173088E6502C02D1082001F0D4
:1054300002BF4746C8469AF817301E2262F3060399
:105440008AF8173079E62F2C02D1092001F0F3BE3B
:105450004746C8469AF817301E2262F306038AF8B8
:1054600017306AE6A4F13003DBB2092B05D8303CD3
:10547000AAF810400A2001F0DEBE4746C8469AF856
:1054800017300E2262F306038AF8173055E62E2CE9
:1054900002D10B2001F0CFBE4746C8469AF817301C
:1054A0000E2262F306038AF8173046E6A4F13003B1
:1054B000DBB2092B05D8303CAAF812400C2001F0D1
:1054C000BABE4746C8469AF817300E2262F3060362
:1054D0008AF8173031E6202C02D10D2001F0ABBE46
:1054E0004746C8469AF817300E2262F306038AF838
:1054F000173022E6A4F13003DBB2092B0CD9202CA3
:1055000001F099864746C8469AF817300F2262F391
:1055100006038AF8173010E6303CAAF814400E2033
:1055200001F089BEA4F13003DBB2092B12D90D2C96
:105530003FF41BAE202C02F0F9800A2C3FF417AE8A
:105540004746C8469AF817300F2262F306038AF8D6
:105550001730F2E5BAF8143003EB83035B009BB21B
:105560002344303B9BB2AAF81430B3F57A7FC1F0E4
:1055700062864746C8469AF817300F2262F3060340
:105580008AF81730D9E5079B63B19AF803306FF3B7
:1055900004038AF803300D2C3FF4EBAD0A2C04D140
:1055A0001020E9E5CDF81CB0EFE7102001F043BE74
:1055B0000D2C2BD00A2C41F03E869AF8173013F0B0
:1055C0007F0F62D10799002902F0B88002988368A2
:1055D000002B02F0B580DAF800302C2262F3902321
:1055E000CAF800308368ABEB0102504698470028A8
:1055F00052D1DAF80000C0F386209AF8173013F081
:105600007F0F53D10023079301F015BE9AF817308E
:1056100013F07F0F22D10799002902F089800298A8
:105620008368002B02F08680DAF80030112262F3E2
:105630009023CAF800308368ABEB010250469847CC
:1056400098B9DAF80000C0F386209AF8173013F002
:105650007F0F14D10023079301F0EDBDBB4BBC4A73
:1056600040F28E31BB4858F081F9CAF804809AF8AC
:105670001730082262F306038AF81730E1E7ABEB34
:10568000090B0BF1010902F0FDB9B04BB04A4FF420
:105690006571B04858F06AF9CAF804809AF8173072
:1056A000082262F306038AF81730A2E7ABEB090B76
:1056B0000BF1010902F0E6B90A2C02D12C2001F00D
:1056C000BABD4746C8469AF817301E2262F3060351
:1056D0008AF8173031E50D2C01F0AD850A2C01F068
:1056E000AA85BAF800306FF38903AAF800309AF857
:1056F00003306FF345138AF803304FF0FF324FF059
:10570000FF33CAE9022344F02003613BDBB2192BCB
:1057100019D800238AF816309AF80330012262F370
:1057200004038AF80330413C142C73D8DFE804F0FA
:10573000153E42187272464A7272724E52565A5E44
:105740007262666A6E004746C8469AF817301022A1
:1057500062F306038AF81730EFE413238AF8163051
:105760009AF8173013F07F0F5ED102990B68002B67
:1057700001F0EA87DAF80030132262F39023CAF8C6
:1057800000300B6850469847002854D1DAF80000E2
:10579000C0F386209AF8173013F07F0F01F04B8585
:1057A000ABEB090B0BF1010902F06CB910238AF87D
:1057B0001630D5E705238AF81630D1E701238AF899
:1057C0001630CDE702238AF81630C9E709238AF894
:1057D0001630C5E70A238AF81630C1E719238AF87C
:1057E0001630BDE706238AF81630B9E703238AF896
:1057F0001630B5E714238AF81630B1E71A238AF871
:105800001630ADE707238AF81630A9E70F238AF888
:105810001630A5E74746C8469AF81730102262F3BB
:1058200006038AF8173088E4484B494A40F2C631EB
:10583000484858F09BF8CAF804809AF817300122BB
:1058400062F306038AF81730A0E77CB39AF81620B3
:10585000414B53F82210202C32D09AF8033003F039
:105860001F03C95CA14233D0A4F14101C9B2192977
:1058700002D92D2C40F0E9801B0243EA02431C436D
:10588000364B9C4200F0C58078DC354B9C4200F0E2
:10589000B88028DD334B9C4200F0BF8046DD324BA0
:1058A0009C4250D117238AF8163011E04746C8466B
:1058B0009AF81730102262F306038AF817303CE496
:1058C0009AF8033003F01F03CB5C002BC5D11420E2
:1058D0009AF8033003F01F02013262F304038AF8DE
:1058E000033001F0A8BC214B9C4200F0828006DD11
:1058F0001F4B9C4210D11D238AF81630E8E7143B59
:105900009C427AD011339C4203D10C238AF8163082
:10591000DEE74746C84601E04746C8469AF81730D2
:10592000102262F306038AF8173006E4114B9C42FA
:105930006BD0114B9C4203D11F238AF81630C7E766
:105940004746C846EAE74746C846E7E7A46906105F
:10595000507306101C690610647306104F010A008C
:10596000480105002D010A0045010A005501030008
:10597000520204005002050049010900CB4B9C4231
:105980005BD00ADDCA4B9C424FD022DDC94B9C4202
:105990002CD121238AF816309AE7C74B9C4248D075
:1059A00006DDC64B9C4211D112238AF816308FE7D0
:1059B000C34B9C4235D003F580739C4203D11E2318
:1059C0008AF8163084E74746C846A7E74746C846E0
:1059D000A4E7BC4B9C4234D0BB4B9C4203D1112367
:1059E0008AF8163074E74746C84697E74746C846E0
:1059F00094E704238AF816306AE71C238AF81630E5
:105A000066E716238AF8163062E708238AF816300C
:105A10005EE70B238AF816305AE718238AF8163007
:105A200056E715238AF8163052E70E238AF8163007
:105A30004EE70D238AF816304AE71B238AF8163002
:105A400046E720238AF8163042E74746C8469AF8C8
:105A50001730102262F306038AF81730FFF76DBB88
:105A6000202C01F0E883089BA3B19AF81630052B8F
:105A700013D02146FFF762F9012841F0DC83474645
:105A8000C8469AF81730112262F306038AF81730D5
:105A9000FFF753BBCDF820B0E7E71820E9E7A4F102
:105AA0000A03DBB2162B10D8012202FA03F3874A4D
:105AB0001A4052B14746C8469AF81730112262F38D
:105AC00006038AF81730FFF738BB2146FFF736F98F
:105AD000012841F0B0834746C8469AF81730112292
:105AE00062F306038AF81730FFF727BB0D2C53D05B
:105AF000202C12D00A2C4FD02146FFF71FF9012885
:105B000041F099834746C8469AF81730112262F34C
:105B100006038AF81730FFF710BB9AF8173013F016
:105B20007F0F22D10899002901F01086029843685E
:105B3000002B01F00D86DAF80030202262F390236A
:105B4000CAF800304368ABEB01025046984798B959
:105B5000DAF80000C0F386209AF8173013F07F0FB0
:105B600014D10023089301F066BB594B594A40F207
:105B70003441594857F0FAFECAF804809AF81730B1
:105B8000022262F306038AF81730E1E7ABEB090B58
:105B90000BF1010901F076BF0023AAF810300923A8
:105BA000AAF812300D2C28D02C209AF8173013F0B8
:105BB0007F0F24D1089A002A01F03D8302994B6897
:105BC000002B01F0C985DAF8003060F39023CAF8A1
:105BD00000304B681146ABEB020250469847A8B91B
:105BE000DAF80000C0F386209AF8173013F07F0F20
:105BF00016D10023089301F01EBB2B20D5E7344BB0
:105C0000344A40F23D41344857F0B0FECAF80480AF
:105C10009AF81730022262F306038AF81730DFE79A
:105C2000ABEB090B0BF1010901F02CBF482C01F083
:105C30009685492C0DD0202C01F0FD824746C846A0
:105C40009AF817301C2262F306038AF81730FFF720
:105C500074BA9AF81630212BF0D1252001F0EBBA56
:105C6000542C02D1222001F0E6BA4746C8469AF8E1
:105C700017301E2262F306038AF81730FFF75DBA69
:105C8000542C02D1232001F0D6BA4746C8469AF8D0
:105C900017301E2262F306038AF81730FFF74DBA59
:105CA000502C1BD1242001F0C6BA00BF53020F00B4
:105CB00045011A004F011A0050040C0042020F0067
:105CC00041020A0049030F0042021400090040008B
:105CD000A4690610507306101C6906104746C84692
:105CE0009AF817301E2262F306038AF81730FFF77E
:105CF00024BA432C02D1262001F09DBA4746C8465B
:105D00009AF817301E2262F306038AF81730FFF75D
:105D100014BA452C02D1242001F08DBA4746C8465A
:105D20009AF817301E2262F306038AF81730FFF73D
:105D300004BA2F2C02D1272001F07DBA4746C8466D
:105D40009AF817301E2262F306038AF81730FFF71D
:105D5000F4B9A4F13003DBB2092B05D8303CAAF822
:105D60001040282001F067BA4746C8469AF8173015
:105D70000E2262F306038AF81730FFF7DEB92E2CE5
:105D800002D1292001F057BA4746C8469AF8173081
:105D90000E2262F306038AF81730FFF7CEB9A4F19A
:105DA0003003DBB2092B05D8303CAAF812402A2078
:105DB00001F041BA4746C8469AF817300E2262F3FE
:105DC00006038AF81730FFF7B8B90D2C01F0C98423
:105DD0000A2C02D12C2001F02EBA4746C8469AF868
:105DE00017300E2262F306038AF81730FFF7A5B9C1
:105DF0000A2C02D12C2001F01EBA4746C8469AF858
:105E00001730172262F306038AF81730FFF795B9A7
:105E10000D2C01F0A8840A2C02D13920FFF7ACB96F
:105E2000202C19D0CA4B1B5DC3B1169A0AB39AF83D
:105E300003206FF304028AF80320633B122B43D83C
:105E4000DFE803F01A4242424242424242424242A8
:105E500042244242422E3800039BE5E74746C846AB
:105E60009AF81730182262F306038AF81730FFF702
:105E700064B9CDF858B0DAE79AF80230012262F33B
:105E800047038AF802302D2001F0D5B99AF8023084
:105E9000052262F347038AF802302D2001F0CBB9C6
:105EA0009AF80230072262F347038AF802302D2065
:105EB00001F0C1B99AF80230082262F347038AF868
:105EC00002302D2001F0B7B99AF802306FF3470382
:105ED0008AF802302D2001F0AEB9A6EB050C9D4BDF
:105EE0001B68634594BF05EB030CAC442B461D4671
:105EF0000133634519D26A78202A16D094498A5C06
:105F0000002AF4D111E09AF8033003F01F010131A7
:105F100061F304038AF803306F2A3BD000229AF819
:105F2000023062F347038AF802300135AE4200F0D6
:105F300053812C78202C00F04F81854B1A5D002A6C
:105F400000F04A819AF802305B080E2B00F23A8189
:105F500001A151F823F000BFDB5E0010075F0010C5
:105F6000995F0010C35F00100B60001059600010B3
:105F7000A7600010F560001069610010B7610010A3
:105F8000B7610010C5610010C5610010B761001055
:105F9000B76100100222C2E79AF8033003F01F0134
:105FA000013161F304038AF803306E2A07D000221E
:105FB0009AF8023062F347038AF80230B5E7032209
:105FC000F6E79AF8033003F01F01013161F304038F
:105FD0008AF803306E2A08D0742A0ED09AF802305C
:105FE0006FF347038AF802309FE79AF802300422E1
:105FF00062F347038AF8023097E79AF802300622E4
:1060000062F347038AF802308FE79AF8031001F031
:106010001F03013303F01F0363F304018AF8031025
:106020000A2B03D84C49CB5C934206D09AF8023035
:106030006FF347038AF8023077E79AF8033003F0EA
:106040001F03092B7FF471AF9AF80230092262F323
:1060500047038AF8023068E79AF8031001F01F033B
:10606000013303F01F0363F304018AF80310102BBC
:1060700003D83A49CB5C934206D09AF802306FF3CA
:1060800047038AF8023050E79AF8033003F01F0301
:106090000F2B7FF44AAF9AF80230092262F34703CC
:1060A0008AF8023041E79AF8031001F01F03013328
:1060B00003F01F0363F304018AF803100E2B03D8C7
:1060C0002749CB5C934206D09AF802306FF347031E
:1060D0008AF8023029E79AF8033003F01F030D2BEA
:1060E0007FF423AF9AF802300A2262F347038AF85A
:1060F00002301AE79AF8031001F01F03013303F08E
:106100001F0363F304018AF80310112B03D8154908
:10611000CB5C934206D09AF802306FF347038AF8BB
:10612000023002E79AF8033003F01F03102B7FF4CC
:10613000FCAE9AF802300D2262F347038AF802306F
:106140009AF8033043F020038AF80330EDE600BFED
:106150000C740610A4230008246B0610306B061084
:10616000446B0610287206109AF8031001F01F0302
:10617000013303F01F0363F304018AF80310072BB4
:1061800003D8D349CB5C934206D09AF802306FF320
:1061900047038AF80230C8E69AF8033003F01F0379
:1061A000062B7FF4C2AE9AF802300E2262F3470348
:1061B0008AF80230B9E69AF802306FF347038AF89A
:1061C0000230B2E6C34BC44A40F25A51C34857F0BA
:1061D000CDFB009E5D46A9E6AE4230D0A5EB0B0B91
:1061E000D844BF4B1B68434540D33A2C61D19AF841
:1061F000173013F07F0F45D11699002901F0B582B1
:106200000298C368002B01F0B382DAF800302E2226
:1062100062F39023CAF80030C3686A1A5046984760
:10622000B8BBDAF80000C0F386209AF8173013F0F4
:106230007F0F38D1AB460023169300F0FCBF013D21
:10624000A5EB0B0BD844A64B1B68434502D3AB46CA
:1062500000F0F1BF4746C8469AF817300C2262F3A7
:1062600006038AF81730AB46FEF767BF4746C846B5
:106270009AF817300C2262F306038AF81730AB46FF
:10628000FEF75BBF974B944A40F26951934857F031
:106290006DFBCAF804809AF81730032262F30603F4
:1062A0008AF81730BDE7A5EB090505F1010901F0F2
:1062B000E9BB4746C8469AF81730182262F306032E
:1062C0008AF81730AB46FEF738BF202C00F0B387B2
:1062D000092C00F0B0870D2C01F04F820A2C01F040
:1062E0004E82099BD3B19AF803306FF304038AF806
:1062F000033044F020029AF802305B08093B092B76
:1063000000F29D80DFE813F06D0032009B003D0A33
:106310001C000D003D0A9B009B003D0ACDF824B0F7
:10632000E1E7BAF8003043F08003AAF800309AF8A9
:1063300002306FF347038AF80230322000F07BBF4F
:10634000632A09D09AF80230112262F347038AF8CF
:106350000230322000F06FBF9AF80230102262F350
:1063600047038AF80230322000F065BFA4F1300301
:10637000DBB2092B1DD8BAF80020C2F3870312F450
:10638000007F22D163F07F03BAF8002063F3890213
:10639000AAF80020A4F13002D317CAE902239AF820
:1063A00002300B2262F347038AF80230322000F0F9
:1063B00042BF4746C8469AF81730192262F30603CF
:1063C0008AF817303220FEF7B8BE4746C8469AF81A
:1063D00017301A2262F306038AF817303220FEF7CC
:1063E000ACBE6B2A0DD0632A15D0752A1DD09AF841
:1063F0000230162262F347038AF80230322000F09E
:106400001ABF9AF80230132262F347038AF8023067
:10641000322000F010BF9AF80230142262F34703D2
:106420008AF80230322000F006BF9AF802301522B6
:1064300062F347038AF80230322000F0FCBE9AF87B
:1064400002306FF347038AF80230322000F0F3BEC7
:106450009AF802C04FEA5C0C0A905E46DDF800E054
:10646000CDF85CB00090BB46049F5EE235467646B0
:1064700064465F46DDF85CB09AF802306CF347037F
:106480008AF802309AF8173013F07F0F2CD109994F
:10649000002900F0D48202980369002B00F0D18219
:1064A000DAF80030342262F39023CAF8003003692E
:1064B0006A1A50469847F0B9DAF80000C0F386200F
:1064C0009AF8173013F07F0F1FD100230993A5E22C
:1064D000546B0610C8690610507306101C6906102C
:1064E000A4230008A4690610D14BD24A40F2D3512C
