:020000041000EA
:1000000000200008EB0000100D0000004D01001062
:1000100000000000000000000000000000000000E0
:100020000000000000000000000000004901001076
:10003000000000000000000049010010490100100C
:100040004901001049010010490100104901001048
:100050004901001049010010490100104901001038
:100060004901001049010010490100104901001028
:100070004901001049010010490100104901001018
:1000800010B5064C2378002B07D1054B002B02D06E
:10009000044800E000BF0123237010BDB003000836
:1000A0000000000014150010044B10B5002B03D005
:1000B0000349044800E000BF10BDC0460000000036
:1000C000B4030008141500100230800803D001307A
:1000D0000238FCD1C046C0467047EFF3108072B6BC
:1000E000704780F3108870477047FFF7FDFF72B6C6
:1000F0000F4C104DAC4209DA21686268A368043BDA
:1001000002DBC858D050FAE70C34F3E70A490B4A2F
:100110000020521A02DD043A8850FCDC08480949E4
:100120000860BFF34F8F00F0FFFE00F0AFFEFEE768
:100130002015001038150010B0030008C80500088D
:100140000000000808ED00E0FEE7FEE700B504202F
:100150007146084202D0EFF3098001E0EFF3088016
:10016000043000F093FCFEE7014B18607047C04676
:10017000C4050008044B1B681A00BA3212881B6AB7
:100180005043C0187047C046C40500081D4B984234
:100190000FD010D840282FD005D8002830D01028F4
:1001A00028D019481EE0802828D080235B00984280
:1001B000F7D1144816E0154B984214D008D8A02364
:1001C0001B0698421CD0124B9842EAD1A0200BE0AB
:1001D000104B98420AD0104B984209D00F4B9842CE
:1001E000DFD10F487047A420C003FBE70D48F9E7B3
:1001F0000D48F7E70D48F5E70D48F3E70D48F1E73F
:100200000020EFE706005200FF005200010000F05E
:10021000090000A0040000F0050000F0030000F059
:100220000100520002005200030052000100500081
:10023000020050000500520010B50020FFF79AFFA1
:100240000A4B1C682300BC331B68C0180368002BD2
:100250000ADB074B1868FFF799FF012263689A6071
:100260009A68002AFCD110BD0248FCE7C4050008CA
:10027000CC03000802005000064B1B68BC331B680F
:10028000C3181B68002B03DA89B241600020704755
:100290000148FCE7C405000801008A000368002B40
:1002A00004DA89B2C2608160002070470048FCE730
:1002B00001008A00064B1B68BC331B68C3181B680F
:1002C000002B03DAC36800200B6070470148FCE78D
:1002D000C405000801008A00024B1A68002A00D1F8
:1002E00018607047E0030008F0B52C246043154CFB
:1002F0001F0024681D0A2018FF2425402740124CA7
:100300001B0C26680760346A45608360BA363688FD
:1003100077433F1907612F0080376D017F01E7198F
:1003200064190A4D47611F043B436419236000238D
:100330008361059BC2610162002B01D01B88838110
:10034000F0BDC046E0030008C40500080810000026
:10035000F0B5836885B002AD2B80154B02681B6831
:10036000066A1B8F476A9B186B8043680095826AF8
:10037000C16A040003930369C068FFF7B5FF002159
:100380003B000A0000913000FFF7AEFF216B280010
:1003900000F030FB0022AB5E002B06DB1F22134077
:1003A0001E3A9A401300034A136005B0F0BDC046E0
:1003B000C405000800E100E0F7B52C25134C6843A4
:1003C000266869433418256901937118002D19D0E6
:1003D0008869002818D12E68002E15DA6768012474
:1003E00026004B689E40B44613689EB263461B04C9
:1003F0001E431660EA608C61BC40019BA4B24B6254
:10040000AC60FEBD0248FCE70248FAE7E0030008E2
:1004100004028A0007028A0073B5002642690400BC
:10042000D56801962B0CB34221D01B0413601368CE
:10043000194B00691B68BC331B68C3181B68B342A7
:1004400015DA01A9FFF736FFB0420CD10198E26935
:1004500003681E0CDBB29A4205D9226A9B009B58A6
:10046000002B00D0984731002069FFF705FFADB29F
:10047000002D09D063691D6000251B68636AAB42CB
:1004800005D098476562A56163691B6873BDA36A5F
:10049000002BF8D09847F6E7C40500082C2310B5C8
:1004A0004343034A1068C018FFF7B6FF10BDC046AB
:1004B000E0030008F8B5194B0F001B681A0033322F
:1004C0001278824227D9002925D01F250A681540B5
:1004D00021D11900BA310C88114E60431C6AD20830
:1004E000041929007868346000F07EFF290020009C
:1004F000FFF7C2FE3A0029003068FFF7CFFE041E66
:1005000007D101003068FFF7B7FE03002000002B81
:1005100000D00448F8BD0448FCE7C046C405000804
:10052000E403000801018A0003018A0010B5002AD3
:100530000DD1002914D10B4B1A681300BA331B8854
:100540005843136AC018084B1860080010BD0029F2
:1005500006D0064B196019005A60FFF7ABFFF5E7AC
:100560000348F3E7C4050008E40300087803000823
:1005700003018A00F7B5184F04003B680191DE685B
:100580003368834226D90025A94202D1FFF7A5FD91
:10059000050038680368002B1ADA1F220123224065
:1005A000934064097268A4001419226813420DD0A4
:1005B0009A43226000240021FFF75EFE019B002B7E
:1005C00002D12800FFF78DFD2000FEBD034CF2E7AD
:1005D000034CF3E7034CF7E7E4030008020188004B
:1005E0000301880004018A000A4B1B68DB681A6853
:1005F00082420DD959681F23420918401E3B83408F
:10060000920050581840431E9841034BC018704741
:100610000248FCE7E40300080001880004018A00A6
:10062000054B1B681A0088321B6812689B181868F3
:10063000000AC0B27047C046C4050008044B1B68DE
:100640001A0088321B6812689B181868000E7047E1
:10065000C4050008024B18694007C00F7047C04628
:1006600000002740A6220549D2008B580220DB4318
:100670009B0702D00123885818407047000026408D
:1006800010B5FFF7EFFF0023022801D1014B1B68D3
:10069000180010BDEC030008094A83009B18D02203
:1006A0009200985807221040042807D1C0229200D7
:1006B00098581F2303408020400018437047C046CD
:1006C0000000264010B5FFF7E7FF02281CD005D830
:1006D000002824D0012814D0002014E01223FF3376
:1006E000984214D01423FF33984215D0033B98420C
:1006F000F2D10C4A0C4BD358002BEDDA80200002CB
:1007000001E00A4B186810BDFFF7BAFFFBE7FFF7DF
:10071000A1FF0028E0D0F1E7024A054BEBE70548CE
:10072000F1E7C046000026400C050000E803000881
:100730003C05000000127A00B023154ADB00D358B4
:1007400010B59903DB01DB0F890BC371114B0160FD
:10075000D3580F24D904DB01DB0D0381B123DB0067
:10076000D358C90C81801900214081721909214098
:10077000C172D9029B009B0F8373074BC90CD358DE
:1007800081815A05DB01520FDB0D8271038210BD9E
:1007900000002640840500008C05000010B5104BB9
:1007A000421E1B683F331B78934216D97F221F24B9
:1007B0008030FF300B4B8000C3581A400A701A0C6F
:1007C0002240180A8A701A012040E2404870002036
:1007D0009B009B0FCA700B7110BD0348FCE7C0461D
:1007E000C40500080000264001004A00F0B589B0A9
:1007F00003AC14220021200000F0F6FD2000FFF7DA
:100800009BFFB0231A4ADB00D25800239A4203DA36
:10081000A37B023B5A1E9341E57900266A1E95414F
:100820000135B34221D0A488B4421ED0039B3000CE
:100830000193FFF747FF2A00330007003100200033
:1008400000F0BCFC0C0005003300019A31003800B8
:1008500000F0B4FCE6076A08324363088018594187
:100860002A00230000F08AFC0600300009B0F0BD29
:1008700000002640F0B50026244B85B01B68070019
:100880003F331B78B3423ED0B0423CD083423AD390
:100890000522310002A800F0A7FD02A93800FFF7E9
:1008A0007DFF3B008033FF33194A9B009B58B342C6
:1008B00029DA02AB1B79022B25D002AB5C78B4425B
:1008C00021D09D78B5421ED01B7838000193FFF7E8
:1008D000F9FE2A00330007003100200000F06EFC12
:1008E0000C0005003300019A3100380000F066FC6E
:1008F000E6076A0832436308801859412A0023003A
:1009000000F03CFC0600300005B0F0BDC405000856
:100910000000264010B5041E04D1FFF767FF002831
:1009200006D008E0064B1B683F331B78834203D296
:100930002000FFF7C7FE10BDFFF79CFFEFE7C046A2
:10094000C4050008E02210B50124094B8000920084
:10095000C018835880589B069B0F9C400F2318405B
:10096000FFF7D8FF63081818210000F07BFB10BDCB
:1009700000002640144B30B51A68072413002C33AE
:100980001B781F2B15D883081D00A5432C1E0FD1E3
:1009900003342040A040814012689B002032D318CD
:1009A0000A00FF2181401C686240114061401960CB
:1009B00030BD802320401B06184380239B01126812
:1009C000C91889008850F3E7C4050008064B9A68E7
:1009D0000300064810339B00824202D19858995078
:1009E0007047034AD058FBE700ED00E00000000824
:1009F00000000010F8B506000D0000283AD00023D2
:100A0000C05E002828DB7188FFF7B4FF0024FF22B6
:100A1000032794460023F05E716883B21F40FF00F5
:100A20006646BA4089013140D243B940002815DBFF
:100A3000114E83089B009B19C026B6009F593A406F
:100A4000114399510D4B9A680D4B9A4202D12900DE
:100A5000FFF7BCFF2000F8BD0A4CD8E70F26334053
:100A6000083B064E9B089B009B19DE6932401143F0
:100A7000D961E7E7034CEDE700E100E000ED00E0BD
:100A80000000000801005600FEE7000002680A4B63
:100A900010B51A6042685A6082689A60C268DA606B
:100AA00002691A6142695A6182699A61C269DA61AE
:100AB000FFF7EAFF10BDC04690030008B0235B05B6
:100AC0005A782120002A01D05878C0B27047B0234C
:100AD0005B059A89002A02D0988980B270478020ED
:100AE0004000FBE77FB5274B86000D00F458042932
:100AF00001D0012927D100200FE0A3682B420BD1A0
:100B0000E36829001A685B6802920193039302A8C4
:100B1000236898471C4B1C606469002C0BD01B4B4E
:100B20009842EAD1012DE8D1174B18481A68184BA2
:100B30009A5104B070BD012DFBD1144B9842F3D0F3
:100B4000134B9C51F5E7022906D10F4B1B68181E69
:100B5000EFD01C6903E01C006369002BFBD100206F
:100B6000002CE6D0A3682B4209D1E36829001A685B
:100B70005B6802920193039302A823689847246953
:100B8000EEE7C046300400082C040008FF004200D5
:100B9000180400081A4B1B68190088311A68096884
:100BA00051180968016219008C31096852181268DD
:100BB00042621A0046321278002A1FD09A68E03248
:100BC0001268D2061AD5F222DB68D2019A58026066
:100BD000F022D2019A5842600A4A9A5882600A4A20
:100BE0009A58C260094A9A580261094A9A58426161
:100BF000084A9A588261084A9B58C3617047C046A8
:100C0000C405000804780000087800000C78000093
:100C10001078000014780000187800001A4B1B6848
:100C20001A008832196812688A18016A11601A005D
:100C30008C32196812688A18416A11601A004632AB
:100C40001278002A1ED09A68E0321268D20619D5AE
:100C5000F0224168DB68D201995081680B4A9950B3
:100C6000C1680B4A995001690A4A995041690A4A78
:100C700099508169094A9950C169094A9950016896
:100C8000E83299507047C046C40500080478000057
:100C9000087800000C78000010780000147800003C
:100CA00018780000F7B50700FFF708FF664D06004B
:100CB0006B68002B00D07DE0FFF70FFA6B680090A7
:100CC000002B00D089E0614C22681300BA331988E8
:100CD00007234B43126A9B181A68002AFCDADB6868
:100CE000DA0021D51B0F1B0759480193FFF752FF6C
:100CF0005849212E00D075E02268902013008833D7
:100D00001C68136800011C1923680B40034323600F
:100D100013008C3312681B68D3181A6811400843FB
:100D200018604B4B019A13438022484E920531685C
:100D300013430A00BA321088072200244243096A8A
:100D40005218D36054605368FFF7C1FE80235B00E4
:100D500098425DD1380000F05BFB32681300BA3373
:100D6000198807234B43126A9B181A68002AFCDA79
:100D7000DF68FB0003D538010009FFF74FFF364B52
:100D800032681F401300BA33198807234B43126A95
:100D900000989B180022DF605A60FFF7A2F9002C30
:100DA0000FD16B68002B03D008210120FFF79AFEBA
:100DB0002000FEBD01210800FFF794FE041E00D1B3
:100DC0007AE76B68002B03D002210120FFF78AFE2F
:100DD000224B9C42ECD0224CEAE704210120FFF791
:100DE00081FE70E720688022030088331C68036856
:100DF00052001C1923680B401343236003008C33FB
:100E000000681B68C318186801400A431A6088E725
:100E100033681A00BC32196A126852181168002926
:100E200010DBBA331B889A181368002B0ADB0423E3
:100E30000C4A11690B431361012F01D030BF8CE7BD
:100E400020BF8AE7054C88E730040008C405000885
:100E5000F0030008FF00FFFFFFFFFFDF0500420077
:100E6000FF00420000ED00E0C02280200649520051
:100E70008B58C0059B009B0803438B5080238858E8
:100E80001B0603438B5070470000264010B562B626
:100E9000034800F0C1F80020FFF704FFFBE7C0465D
:100EA0000020001010B50020FFF7F8FA10BD7047C1
:100EB00010B50020FFF746FD041E25D0134B186027
:100EC000FFF7BCFB411C200000F0CCF8104B0400E5
:100ED0001860FFF7A5FB411C200000F0C3F80D4B84
:100EE000441E18600C49200000F0BCF8FA210B4B9E
:100EF000013018708900200000F0B4F8084B013070
:100F00001860084BC003186010BDC046840000087C
:100F1000880000088000000840420F00940000088C
:100F2000900000088C00000810B52048FFF71CF95D
:100F3000B022E02130201E4CD200A35889005B0073
:100F40005B08A35063588343635080235B04A35022
:100F5000184B194AE250A02204339201E250FF22BA
:100F6000164BE250FFF780FFC02201215200A35828
:100F70008B43A350FFF79BFFFFF79AFF104B032013
:100F80001A681300BA33198807234B43126A802169
:100F90009B180022DA605A600A4AFFF7C7FA0A482B
:100FA000FFF79AF90948FFF7D3F910BD2014001094
:100FB0000000264084050000010002008C050000AE
:100FC000C40500088003000844040008E014001071
:100FD0009023034A5B01D058032318407047C04652
:100FE0000000204010B59024FFF777F8074B64010C
:100FF0001A5907491140074A0A431A5110225968E1
:101000001142FCD0FFF76DF810BDC0460000204033
:10101000FCFF00000100FA05F8B590250E4C6D01AB
:101020000700FFF75AF863590600DB439B0701D11D
:10103000FFF7D8FF80239B00E7506359074A1A4007
:10104000074B13436351102362681A42FCD03000EF
:10105000FFF747F8F8BDC04600002040FCFF000045
:101060000300FA05002243088B4274D303098B4224
:101070005FD3030A8B4244D3030B8B4228D3030C68
:101080008B420DD3FF22090212BA030C8B4202D30A
:101090001212090265D0030B8B4219D300E0090A32
:1010A000C30B8B4201D3CB03C01A5241830B8B423B
:1010B00001D38B03C01A5241430B8B4201D34B0324
:1010C000C01A5241030B8B4201D30B03C01A524189
:1010D000C30A8B4201D3CB02C01A5241830A8B420E
:1010E00001D38B02C01A5241430A8B4201D34B02F7
:1010F000C01A5241030A8B4201D30B02C01A52415B
:10110000CDD2C3098B4201D3CB01C01A524183090E
:101110008B4201D38B01C01A524143098B4201D348
:101120004B01C01A524103098B4201D30B01C01A73
:101130005241C3088B4201D3CB00C01A52418308ED
:101140008B4201D38B00C01A524143088B4201D31A
:101150004B00C01A5241411A00D20146524110467A
:101160007047FFE701B5002000F006F802BDC04659
:101170000029F7D076E770477047C046002B11D1A1
:10118000002A0FD1002900D1002802D00021C94334
:10119000081C07B4024802A14018029003BDC046D3
:1011A000D9FFFFFF03B4684601B5029800F030F89C
:1011B000019B9E4602B00CBC7047C046F0B5CE46BF
:1011C000474615042D0C2E0080B50704140C3F0C67
:1011D0009946030C7E435D43674363437F19340C98
:1011E000E4199C46A54203D980235B029846C44477
:1011F0004B4643435143250C36046544360C2404C6
:10120000A4195B19591820000CBC90469946F0BDF2
:10121000F0B54F464646D646C0B5040082B00D0034
:10122000914698468B422FD82CD04146484600F034
:10123000CFF829000600200000F0CAF8331A9C46B7
:10124000203B9A4600D576E04B46524693401F001D
:101250004B46624693401E00AF4228D825D05346E5
:10126000A41BBD41002B00DA7BE00022002300928A
:101270000193012352469340019301236246934018
:10128000009318E08242D0D90022002300920193FB
:101290000A9B002B01D01C605D600098019902B090
:1012A0001CBC90469946A246F0BDA342D7D9002265
:1012B0000023009201936346002BE9D0FB07984678
:1012C000414672080A437B0866460EE0AB4201D1F4
:1012D000A2420CD8A41A9D41012024196D4100217D
:1012E000013E24184D41002E06D0AB42EED9013EFE
:1012F00024196D41002EF8D1009801995346001928
:101300006941002B23DB2B005246D3402A00644660
:10131000E2401C0053461500002B2DDB26005746EB
:10132000BE40330026006746BE403200801A994115
:1013300000900191ACE7624620239B1A4A46DA40AE
:101340006146130042468A4017001F4380E7624609
:1013500020239B1A2A0066469A402300F340134339
:10136000D4E76246202300219B1A002200910192BB
:101370000122DA40019280E72023624626009B1A70
:10138000DE402F00B0466646B74046463B0033433A
:10139000C8E7C0461C2101231B04984201D3000C5E
:1013A00010391B0A984201D3000A08391B099842D8
:1013B00001D30009043902A2105C40187047C046EE
:1013C000040302020101010100000000000000000E
:1013D00010B5002903D1FFF7DDFF203002E0081C23
:1013E000FFF7D8FF10BDC04603001218934200D18A
:1013F000704719700133F9E7F8B5C046F8BC08BC6E
:101400009E467047F8B5C046F8BC08BC9E4670477B
:1014100001B40248844601BC604700BF6102000875
:1014200000002040000024400000004000000000B8
:1014300000002340000030400000314000009F4089
:10144000000022400000104000009D40202020208D
:1014500020101010101D1D8017007500FF030602DC
:1014600006003604102000007FC0000000040000C9
:10147000000000000019324B647D00000000008075
:101480004000080B100000000000FF012002001FB8
:1014900000800004FF081018001000140018001C41
:1014A0004044484C500000000810000008000000B4
:1014B00004000000041000000012000004210000DD
:1014C000002100000016000040114002C413001368
:1014D0008013A01340138813A81320001C000000E1
:1014E00003000000010000000100000000000000F7
:1014F000050360000400000001000000000000007F
:10150000010000000604600008000000A4050008B7
:10151000A50E001000000000F8FCFF7F0100000095
:1015200000000010000000088000000040150010BE
:1015300080000008F8020000B00300081802000054
:1015400000093D0000127A0000093D000000D007AC
:10155000A00F000004000000A9000010810000108E
:1015600080B230B5C00020D0104B07221C68230089
:10157000BA331B885A43236AD31819680029FCDA46
:101580003E210B4B062519600A4B0B491960A3211C
:101590000A4BC9005D500A4958505858206A121821
:1015A000002050605A58002AFCDA30BDC4050008FB
:1015B00004012640080126401E1F000000002640AE
:1015C0001C05000010B54378FF2B11D100F0ECF89A
:1015D0000400032000F0F8F8C3685A68012311687A
:1015E0001943116011681942FCD1200000F00CF978
:1015F00010BDF7B500900020019100F0E5F83F4DD7
:1016000006002B681A005033BC3214681B7804198A
:10161000002B5AD000F0E0F8070003281BD000F0A0
:10162000C3F8374A374B0500D358002B3EDA364A09
:101630000121300000F0F0F8002837D10198FFF7C1
:101640008FFF009B002B3ED02368002BFCDB00F0BB
:10165000B3F804002BE0062000F0B6F82B68BC338A
:101660001B68C0180368002B02DA284C2000FEBD5E
:10167000002000F0B9F8264B9842F6D00023254A06
:1016800019001268012000F0B7F80025A842ECD13B
:10169000002000F0A9F81E4A1F4B904203D09D4243
:1016A000E3D00135F4E79D42B9D1DEE7174C032FB3
:1016B00005D10121002000F0B7F80028F9D1280059
:1016C00000F0A2F8D2E7154CF1E700F06DF80E4AF1
:1016D00005000121300000F09FF8002809D1009B8F
:1016E000002B08D02368002BFCDB00F065F8040019
:1016F000E5E7064CE3E7094CE1E7C046C40500080E
:10170000000026401C050000CC0300080500520024
:1017100001018800DC030008F049020001005000CC
:10172000184BF7B51B68184A5C68042311690B4312
:101730001361012824D030BF2300FC331B69002B28
:101740001DD1A320114B1249124AC0000F681E5828
:1017500015680195104D0D6006251D503E20106046
:101760000E483E351D501D58002DFCDA0C48FC3447
:1017700020610F60A321C9005E50019B1360F7BD7B
:1017800020BFD9E7C405000800ED00E000002640B6
:1017900008012640040126401E1F00001C05000011
:1017A000AAAAAAAA0000000001B40248844601BC0B
:1017B000604700BFDB00001001B40248844601BC52
:1017C000604700BF3902001001B40248844601BCE2
:1017D000604700BF7501001001B40248844601BC97
:1017E000604700BFD10F001001B40248844601BC1D
:1017F000604700BFE905001001B40248844601BCFF
:10180000604700BFB903001001B40248844601BC20
:10181000604700BFE300001001B40248844601BCE9
:10182000604700BF9D02001001B40248844601BC1D
:10183000604700BF750500100000000000000000B8
:101840000000000000000000000000000000000098
:1020000000F80F08252300100D0000009923001090
:10201000992300109923001099230010000000005C
:1020200000000000000000000000000061A400109B
:10203000952300100000000001A50010FDA3001072
:102040009523001095230010952300109523001070
:102050009523001095230010952300109523001060
:102060009523001095230010952300109523001050
:102070009523001095230010952300109523001040
:1022E00010B5054C237833B9044B13B10448AFF350
:1022F00000800123237010BD642C00080000000042
:1023000094F90D1008B5034B1BB103490348AFF313
:10231000008008BD00000000682C000894F90D1032
:1023200070477047FFF7FCFF72B6144C144DAC4277
:1023300009DA21686268A368043BA2BFC858D0507C
:10234000FAE70C34F3E70F490F4A00209142BCBF73
:1023500041F8040BFAE70D480D490860BFF34F8FB1
:1023600000F03CFA00F020FA07F096FE59F04AFA25
:1023700000F084FB59F000FAFEE70000A0F90D1010
:10238000B8F90D10642C0008982F010800200008EF
:1023900008ED00E0FEE7FEE700B5042071460842C4
:1023A00002D0EFF3098001E0EFF30880043049F038
:1023B0009DFCFEE708B500F0ADF800F007F800F06E
:1023C0009BF800F017F800F01DF808BD08B50021D3
:1023D000084648F07BFBFF220021084648F0F4F94C
:1023E0000021084648F034FB014840F0A7FF08BD33
:1023F000D01D061008B5002211462F2048F0F0FA33
:1024000008BD000010B5264C264A0021204644F0A5
:10241000D7FC254840F092FF244A0121204644F091
:10242000CFFC234840F08AFF224840F087FF04F5A4
:102430004074214A0421204644F0C2FC1F4840F069
:102440007DFF1F4A0621204644F0BAFC1D4840F09B
:1024500075FF1D4A0721204644F0B2FC1B4840F09E
:102460006DFF1B4840F06AFF1A4840F067FF1A48AA
:1024700040F064FF194840F061FF194840F05EFFEA
:10248000184840F05BFF184840F058FF174840F0EC
:1024900055FF174840F052FF164840F04FFF10BD5F
:1024A00000003140A81E0610DC1E0610E01E0610BB
:1024B000141F0610FC1D0610701E0610A41E061028
:1024C000381E06106C1E0610001E0610341E061064
:1024D000D41D0610D81D0610DC1D0610E01D0610C8
:1024E000E41D0610E81D0610EC1D0610F01D061078
:1024F000F41D0610F81D0610044B332242F20801A9
:102500005A5042F210015A50704700BF000030404C
:10251000FEE7000030B583B09621002049F038FC7A
:1025200049F0C8FBB0B9724B1C6804F03F0449F095
:10253000B1FB30B1012049F0A3FB6E4B9B6C002B2B
:1025400023DB6B4B1C6048F043FD48F02FFD01205E
:1025500048F052FD01204AF05DF94AF005F94AF0D1
:10256000DDF94AF0C7F90021084648F0BFFC002019
:1025700048F02AFC012048F00FFC002048F022FB24
:102580005D4B1B6893F83F4006E00620FFF7C0FF55
:10259000204648F08DFF013C002CF9D1002101209C
:1025A00048F098FD002048F08FFC002800F084805F
:1025B00048F044FE0021084648F08CFD0021084602
:1025C00048F062FC4D4D00240094234622462146EB
:1025D000284644F0FBFA009423462246012128466F
:1025E00044F0F4FA464848F0BBFC002870D10120C2
:1025F00048F0BAFB002048F0E7FB002048F0CCFB95
:10260000002048F0DFFA0021012048F063FD00219E
:10261000084648F05FFD0021022048F05BFD0021E4
:10262000032048F057FD0021042048F053FD00210D
:10263000052048F04FFD334848F01AFE00284AD1E3
:10264000314848F0C5FE002848D10021084648F02E
:102650001BFC0021084648F049FC2C49012048F0A9
:102660004DFF00283DD142F21071012048F0CEFF0D
:10267000002839D1002048F00FFB48F097FC0120DA
:1026800048F0BAFC6421002049F082FB00F052F8C7
:102690001F4840F053FE1F4840F050FE1E4840F0D7
:1026A0004DFE1E4840F04AFE1D4840F047FE1D48C2
:1026B00040F044FE03B030BD48F03AFD40F2111343
:1026C00098427FF475AF0121002048F0DDFB6FE7F1
:1026D0000520FFF71DFF0420FFF71AFF0420FFF776
:1026E00017FF0320FFF714FF0320FFF711FF00BFC0
:1026F00000FF2740000027408C2A010800003140DD
:1027000040420F00181F0610400D0300441F061022
:102710002C1F0610301F0610341F0610381F06101D
:102720003C1F0610401F061008B5012044F074FD40
:1027300008BD704710B5002049F086F900B910BDFA
:102740000446114B186048F035FB0130B4FBF0F043
:102750000E4B186048F046FB0130B4FBF0F40C4B14
:102760001C60013C0B4BA3FB04239B0C01330A4A66
:1027700013700A4BA3FB04239B090133084A13601F
:10278000DB03084A1360DAE7E4220008E8220008C5
:10279000E022000883DE1B43F4220008D34D6210C0
:1027A000F0220008EC22000808B5094843F0E6FED4
:1027B000FFF7BFFFFFF7BEFF00221146032044F0E2
:1027C00077FD044844F0F6FB034844F047FC08BD9D
:1027D00074380710802C00084C1F061008B500F054
:1027E00068FE074AD2F8883043F47003C2F8883094
:1027F000BFF34F8FBFF36F8F00F05FFE08BD00BFC8
:1028000000ED00E008B5044849F042FC08B10020A2
:1028100008BD0248FCE700BFF822000800000206DD
:1028200000487047082E000810B584B040F084FDC1
:10283000044638B154B1FFF7BDFD6CB184B12046F8
:1028400004B010BD42F0F0FF0446F3E740F6E44167
:10285000002043F07BF8EEE7FFF7D4FF0446EDE7F6
:1028600013230293122301931123009310231522A3
:102870001421024842F0BCF90446E0E7082E0008A3
:102880007047000008B503485AF0DCFC024B0022F8
:102890001A7008BD801F06107C74000890B5ADF555
:1028A000835D83B002AF0AF065F8002876D100207E
:1028B00007F582531E331880644B07F58252183295
:1028C0001360502307F582521C32138007F58253A0
:1028D0001433009303465E4A07F5825118310AF01B
:1028E000EBF800285FD141F28832114607F5825398
:1028F000143318680AF048FA002859D055485AF09D
:10290000A1FC01BE07F1400107F1540341F8083969
:102910004FF48053CB60002387F838304FF0FF33FB
:102920004B618B614C4B4B604C4BBB620423FB6295
:10293000464B3B631E237B63012307F1280207F507
:102940008250143000680AF0CFFA0446002836D1CD
:10295000002C39D1424B1B78002B3FD03B1D0093FC
:1029600000231A4607F1380107F582501430006839
:102970000AF09AFC68BB3B6A053323F00703ADEB12
:10298000030D02A8044601233A6A013A9A424DD93E
:10299000F9695A1EC95CA1540133F5E731485AF070
:1029A00051FC01BE83E730485AF04CFC01BE9AE767
:1029B0002E485AF047FC2A4B01221A70A2E72C48F5
:1029C0005AF040FC01BEC3E729485AF03BFC01BE67
:1029D000C0E728485AF036FC01BECCE741F2883205
:1029E000114607F58253143318680AF0CDF9B0B1D7
:1029F00018485AF027FC01BE3B1D009300231A46DD
:102A000007F1380107F58250143000680AF04CFCD9
:102A10000028B0D017485AF015FC01BEABE71348A8
:102A20005AF010FC0E4B01221A70E5E70021815488
:102A30000A225BF0E7FC044601460F485AF07CFB93
:102A4000204607F583570437BD4690BDCC1F0610BE
:102A5000852800100C200610542006107020061047
:102A60007C740008A01F0610EC1F06102C20061016
:102A7000782006109C200610B820061010B582B0F1
:102A8000FFF7D2FE00B101BE62B64FF4E132282159
:102A900029204AF0D5F80E485AF04EFB0D485AF05E
:102AA000D1FB0D485AF0CEFB0C485AF0CBFB00246A
:102AB00001940223009323464FF400620849094819
:102AC00008F03BFE08F0CEFE01BE204602B010BD6D
:102AD000DC200610E82006102821061040210610F0
:102AE00084210610C52E001010B584B03EF07AFD8A
:102AF00050BB1D4A136843F0040313604FF4007089
:102B000007F020FE194B186018B3174A136843F0FA
:102B100008031360164B029300230193154B009397
:102B2000154B164A12684FF400713EF0B5FD04468D
:102B3000A8B90D4A136843F01003136010485AF007
:102B400081FB204604B010BD04460E485AF07AFBC3
:102B5000F7E70D485AF076FB4FF0FF34F1E70B48EA
:102B60005AF070FBEDE700BF84740008782E00086F
:102B700088740008512E0010142300087C230008DC
:102B80005C320610103206103832061088320610F9
:102B900030B5A5B04DF024FD18B10025284625B06C
:102BA00030BD6C22002109A858F0B0FF2A4B06ACBA
:102BB0000FCB07C42380294B07CBCDF83900CDF8C4
:102BC0003D10CDF841201B88ADF84530244B1F93B4
:102BD00006A924485AF0B0FA00242546772C32D8AA
:102BE00001A906A84DF0E4FA054668B1C4F17703DF
:102BF00041F2883201461C485AF09EFA41F2883070
:102C000008F0B8FF0134E9E706A918485AF094FA29
:102C1000174A136843F0020313609DF80430042B35
:102C200009D0062BBAD102A812F0ACFE0146114819
:102C30005AF082FAB2E702A810F0A8FF01460E4847
:102C40005AF07AFAAAE70D485AF0FCFA0A210C4821
:102C50005AF072FAA2E700BFA8320610B832061086
:102C600004004000C832061050330610E832061047
:102C7000847400083433061018330610B03306107D
:102C8000E033061010B5044606F053FF0346064A2B
:102C9000182120465AF00EFC002801DB002010BD50
:102CA0004FF0FF30FBE700BF1834061070B588B056
:102CB00002AC344D0FCD0FC42B6823800023CDF818
:102CC0001A30ADF81E30304B304A9A60304A1A61E3
:102CD0000A229A810F229A8202A8FFF7D3FF0546A3
:102CE00088B9294E02AC346020465AF093FC81B278
:102CF000B180284B1A6800929B88224626485AF0D9
:102D00001BFA2C4617E025485AF09CFA2FE01E4982
:102D1000234B18683EF0ECFD054600B3C4F1950363
:102D20004FF4FA6201461F485AF006FA4FF4FA606F
:102D300008F020FF0134952C1CD84DF051FC0028E0
:102D4000E5D119485AF07EFA184A136823F00203B5
:102D50001360FFF71DFF05460028D8D007E0144890
:102D60005AF070FA114A136843F0200313602846A2
:102D700008B070BD0F485AF065FA05210E485AF0A8
:102D8000DBF9F4E77C3806101C2300083034061009
:102D90003C340610142300084C3406108834061006
:102DA000887400083C350610CC3406108474000882
:102DB0001C35061090350610BC35061008B51F4BA3
:102DC0001B6813F0200F19D11C4B1B6813F0100F58
:102DD0001CD11A4B1B6813F0080F1CD1174B1B6832
:102DE00013F0040F1CD1154B1B6813F0020F1AD1FE
:102DF000124B1B6813F0010F1DD108BD10485AF08B
:102E000021FA104B18683FF025F9DDE70D4B1868E3
:102E10003FF058F9DDE70C4B186807F0A3FCDDE73D
:102E20003FF09EF9DFE74DF065F90028E0D1074853
:102E30005AF008FADCE74DF003FDDEE78474000881
:102E4000F035061088740008782E00081836061031
:102E500084B000B583B005A880E80E009DF814305A
:102E6000D3B1012B21D1134A136823F0200313603F
:102E700011485AF0E7F902238DF8073000234FF08C
:102E8000FF320DF107010D48006807F01FFE03B087
:102E90005DF804EB04B07047064A136843F0400342
:102EA000136007A800F0B4FAF1E705485AF0CAF930
:102EB000EDE700BF847400083836061080740008FF
:102EC0006836061010B588B000228DF80C2001215C
:102ED000032007F09DFD5D4B186003A84CF0ACFF8C
:102EE00008BB5B4A136843F00103136059485AF06A
:102EF000A9F9FFF74DFEC8B9FFF7F6FDB0B9FFF726
:102F0000D5FE98B9544B01930223009300234FF44C
:102F100080625249524808F010FC012822D05148E2
:102F20005AF090F902E050485AF08CF94F485AF0A4
:102F300089F9494B186808B108F034FC4C4B186803
:102F400008B108F02FFC4B4B186808B108F02AFCB8
:102F5000FFF734FF48485AF075F9002008F022FCCA
:102F600008B010BD4FF4FA6008F004FE404B019326
:102F70000223009300234FF480624049404808F048
:102F8000DCFB012803D03F485AF05CF9CEE7394B0F
:102F900001930323009300234FF4A0523A493B4886
:102FA00008F0CBFB012803D039485AF0C5F8BDE73B
:102FB0003848FFF765FC1BE037485AF043F9FFF744
:102FC00075FE0028B2D100248DF81C4023464FF036
:102FD000FF3207A93148006807F078FD8DF81040EE
:102FE00023464FF0FF3204A92D48006807F06EFD1C
:102FF0004FF0FF320DF11F01144B186807F03EFF30
:103000000128F5D19DF81F30022BF1D101238DF855
:10301000103000234FF0FF3204A92148006807F068
:1030200055FD204B18683FF015F84DF0D9FA0028EF
:10303000C2D1074A136823F0020313601A485AF0FA
:1030400001F9FFF7A5FD0028B6D06FE780740008EE
:1030500084740008C83606109C740008F036061008
:1030600085330010003706109436061020380610FD
:10307000907400088C740008503806102837061029
:1030800079310010383706105C37061035320010E1
:1030900074370610A437061000380610987400081C
:1030A0009474000888740008DC37061008B5012302
:1030B0000222002104203FF00DFF002208490420D5
:1030C0003FF04EFF01230522022104203FF060FF64
:1030D000044B5B68044A054905485AF02DF808BDC1
:1030E000F53000108023000894380610A038061030
:1030F000A838061000B585B00023039302238DF88D
:1031000000300F4B02930F4B1B68ABB90E4B019372
:10311000002303AA69460D48006807F0D1FD039B10
:103120003BB10B4B4FF080521A60BFF34F8FBFF390
:103130006F8F05B05DF804FB064B0193E8E700BF15
:10314000F038061094230008943806109474000890
:1031500004ED00E0A038061008B500221146042056
:103160003FF0FEFE00230522022104203FF010FF65
:1031700004203FF0DDFF08BD70B584B0FFF796FF77
:1031800000220C21032007F043FC234B186001E0D0
:10319000FFF7E2FF4FF0FF3201A91F4B186807F05D
:1031A0006DFE0128F6D19DF80430012BF0D0022BE2
:1031B00004D0002BEED1FFF779FFEBE7039E174C0D
:1031C000666030465AF026FA2081029DE560284666
:1031D0005AF020FA206132462946114859F0ACFFD6
:1031E0002146104B18683EF071FC014618B90E4894
:1031F000FFF746FBCEE70D4859F09EFF01238DF8FF
:10320000033000234FF0FF320DF10301084800683E
:1032100007F05CFCEBE700BF947400088023000813
:10322000FC3806108874000868390610303906101A
:1032300080740008F0B52DED028B89B002238DF863
:103240001430502058F01CFC0746002006F056FFB2
:103250005AF000F800263546344626E0FFF71EFBFC
:103260000446002006F04AFF05460026002CF5D053
:10327000B6F5967FF2D8002006F040FF461BA31952
:10328000029318EE100A57F03FFDCDE9000101222C
:10329000114938465AF042F9069700234FF47A72E2
:1032A00005A90E48006807F011FC0D4B079342F288
:1032B000107008F05FFC59F0FBFF0A4B83FB002302
:1032C000A3EBE07303EB4303C31A153307EE903A05
:1032D000B8EEE78ACAE700BFAC390610947400085C
:1032E0009C3906105655555530B583B000242546F7
:1032F00004E04FF47A7008F03DFC0134022C0ED843
:1033000001221149114B18683EF0D6FC05460028F1
:10331000EFD10D4B5A6819890D4859F00DFF0DB9C1
:1033200003B030BD032229460A4859F005FF0023A7
:103330008DF807304FF0FF320DF1070106480068A5
:1033400007F0C4FBECE700BF98230008887400086E
:10335000E03906101C3A06108074000808B50122F6
:103360000549064B18683EF0B1FD00B908BD01469D
:10337000034859F0E1FEF9E7982300088874000833
:103380005C3A061000B583B00123022219466F2073
:103390003FF0A0FDFFF7A8FF00220221012007F067
:1033A00037FB174B186001E0FFF7D8FF4FF0FF32F3
:1033B00001A9134B186807F061FD0128F6D19DF8AB
:1033C0000430012BF0D0022B04D0002BEED1FFF7FC
:1033D0008BFFEBE79DF805200A4B1B689869003AC4
:1033E00018BF0122072100F5D06043F051FC9DF881
:1033F0000520054B1A600548FFF742FAD6E700BFE3
:10340000987400088C2A010894230008943A061046
:1034100030B585B0C56804690195009490F9003015
:1034200042680189174859F087FE02238DF80C3055
:10343000072C17D0082C20D12246294612485AF0D2
:10344000F1F8D0B901238DF80D301048FFF718FAC4
:1034500000234FF0FF3203A90D48006807F036FB48
:1034600005B030BD224629460A485AF0DBF800284C
:10347000E0D100238DF80D30E7E7074859F0E2FE70
:10348000EEE700BFC03A061094380610783B0610ED
:1034900098740008A03806103C3B0610000000009D
:1034A0000230800803D001300238FCD100BF00BFD9
:1034B0007047EFF3108072B6704780F31088704742
:1034C000034B0360034B0B6080231360704700BF06
:1034D00094340008942E0008034B0360034B0B60E8
:1034E0004FF48073136070479035000894300008E3
:1034F00070B582B00546002301931F4B1B68C3B112
:103500001D4B1B689BB1FFF7D4FF044608F03CFD40
:1035100050B14FF47A7000FB05F01849A1FB00315F
:103520008E09B0F57A7F0ED22046FFF7C6FF02B0B3
:1035300070BD134840F058FA18B90F4B104A1A6082
:10354000DEE701BEDCE7012301AA31460A48006834
:1035500042F09EF90028E7D1019BB34200D901BE99
:10356000019B4FF47A7000FB03F0044BA3FB003087
:10357000800908F0DDF9D7E77C2E0008D34D6210F2
:10358000802E000808B509F0BFF803680BB1406849
:10359000984708BD2DE9F04784B00C9D002843D022
:1035A0000F4690461C468146B5F5967F3ED313B133
:1035B00013F0070F3ED184B3002606F5847007F0A0
:1035C000C1F88246002837D025F00705AD083CB386
:1035D000564403220021012007F01AFAC6F8FC0025
:1035E00000B3184BC6F80031C6F804A116F0070F57
:1035F00000D001BE029601949DF8343000930E9BDA
:103600002A464146384608F057F8C9F80000864275
:1036100014D0A8B101BE002009E025F00706CCE7D0
:103620000446D5E701BEDCE7074800E0064804B0E1
:10363000BDE8F0870548FAE70548F8E70020F6E717
:103640000020F4E701EFCDAB05000E0606000E06E4
:1036500001000E0610B508F0BBFC0446D0F80021AE
:10366000074B9A4204D001BE204608F04DFBFBE711
:1036700000231A461946D0F8FC0007F027FAF3E7B2
:1036800001EFCDABE0B110B50446006808F08AF850
:10369000246808F03FF9D4F800210A4B9A4203D07D
:1036A00008F0ECF9002010BD0023C4F80031D4F874
:1036B000FC0007F011FED4F8040107F053F8EFE71F
:1036C0000148704701EFCDAB05000E06A8B110B55B
:1036D00004460368D3F80011094A914203D0002040
:1036E0000023236010BD4FF0FF31D3F8FC0007F03A
:1036F00073FC2046FFF7C6FFF2E70248704700BFA1
:1037000001EFCDAB05000E0680B110B50446017186
:1037100031B1042007F0A8FA206028B1002010BDC4
:10372000012007F0A1FAF7E70148F8E701487047E0
:1037300001000E0605000E06B0B108B54FF47A730D
:1037400003FB01F1094BA3FB0131890903792BB17B
:10375000006807F011FD28B1002008BD006807F0DF
:103760003BFCF8E70248F8E702487047D34D621087
:1037700000000E0605000E0688B110B503792BB1C6
:10378000006807F07CFA40B1002010BD00231A4603
:103790001946006807F09AF9F5E70248F5E702488C
:1037A000704700BF02000E0605000E0628B108B5DE
:1037B000006807F091FD002008BD0148704700BF78
:1037C00005000E0660B110B50B46114604461846BA
:1037D00007F05CF9206008B1002010BD0148FCE74B
:1037E0000148704701000E0605000E0610B582B0B4
:1037F00000230193D0B1044602B1C9B94FF47A73E2
:1038000003FB01F10D4BA3FB0131890942B101AA70
:103810000021206807F0D1FC60B1002002B010BD8B
:10382000206807F0D9FB38B10020F7E70448F5E736
:103830000348F3E70348F1E70248EFE7D34D62108E
:1038400005000E0600000E0610B582B0002301939D
:10385000D8B171B101A9006807F0A9FA019B73B151
:103860000B4B4FF080521A60BFF34F8FBFF36F8F37
:1038700005E000231A461946006807F027F910B141
:10388000002002B010BD0348FBE70348F9E700BF82
:1038900004ED00E002000E0605000E0628B108B592
:1038A000006807F019FD002008BD0148704700BFFF
:1038B00005000E0668B110B50B46114604460022FD
:1038C000184607F0A5F8206008B1002010BD024896
:1038D000FCE70248704700BF01000E0605000E0617
:1038E000C8B110B5C9B13BB100231A46006807F052
:1038F000E7F970B1002010BD4FF47A7303FB02F2B8
:10390000074BA3FB023200239209006807F0DEF8A0
:10391000EFE70448EFE7044870470348EBE700BFD0
:10392000D34D621002000E0605000E06B8B110B5A8
:10393000B9B133B10022006807F03FFC68B1002044
:1039400010BD4FF47A7303FB02F2074BA3FB023264
:103950009209006807F092FAF0E70448F0E704489B
:1039600070470348ECE700BFD34D621002000E061B
:1039700005000E0628B108B5006807F0ADFC002070
:1039800008BD0148704700BF05000E0630B32DE9A1
:10399000F04182B014461D4607460AB3B1B94FF054
:1039A0000108082058F06CF80646D8B1046045605C
:1039B0000D4B00930346424601210C4808F0DCFC05
:1039C000386030B1002002B0BDE8F0814FF000084F
:1039D000E7E7304658F05CF80548F4E705487047DB
:1039E0000448F0E70248EEE785350010D4C506101C
:1039F00001000E0605000E0618B310B582B004468D
:103A00004FF47A7202FB01F20F49A1FB023200234C
:103A1000009392090421006808F0CAFC012803D031
:103A200068B1002002B010BD246807F07BFF024699
:103A3000002300930121204608F0BAFCF0E7034878
:103A4000F0E70348704700BFD34D621002000E0636
:103A500005000E0670B110B582B000220092134628
:103A60000321006808F0A4FC10B1002002B010BDD2
:103A70000148FBE70148704702000E0605000E06EC
:103A800058B110B50C4651B1006808F022FE00385C
:103A900018BF01202070002010BD02487047014867
:103AA000FAE700BF05000E06B0B130B583B0054699
:103AB000006808F029FE0446002200921346052102
:103AC000286808F075FC10B9044803B030BD2046E2
:103AD00057F0DEFF0020F8E70148704702000E06AD
:103AE00005000E0630B110B5044607F01BFF20603C
:103AF000002010BD0048704705000E0608B54FF4C1
:103B00007A7303FB00F0044BA3FB0030800908F03C
:103B100031F8002008BD00BFD34D621010B582B04F
:103B2000044600234FF0FF3269462046FFF7FEFEB1
:103B30000028F6D1009B13B101989847F1E7FFF7F1
:103B400089FD02B010BD000070B584B004460E4679
:103B500001B100B901BEB36813B1736803B901BE06
:103B6000002323606360A360E360316901B9102121
:103B700008222046FFF79EFE054680B901232373E5
:103B800004F10800F2686AB1029433780193736813
:103B90000093B3680749FFF7FDFC054620B92846A6
:103BA00004B070BD044AEFE7002323732046FFF7FB
:103BB000E1FEF4E71D3B0010943B061070B582B0A7
:103BC0000446FFF776FC0546237B002B3ED0012BF5
:103BD00013D00026237B042B29D1237BBBB328469B
:103BE000FFF76BFC2046FFF7C5FE064690BBFFF7CC
:103BF00060FC05460023237329E003232373FFF7AA
:103C00005CFC002200920192EFF305839B1A18BF1F
:103C1000012369462046FFF763FE06460028D9D0F7
:103C2000FFF747FC01232373FFF747FC12E0284608
:103C3000FFF743FC04F10800FFF748FD064648B9CA
:103C4000FFF737FC054604232373C6E70026284602
:103C5000FFF733FC304602B070BD000070B582B093
:103C60000D461646044640B34DB3FFF722FC237BB6
:103C7000013BDBB2012B24D863680133636002236C
:103C80002373FFF71AFC00950196EFF30583003BC1
:103C900018BF0123002269462046FFF721FE054692
:103CA000FFF707FC6368013B63600BB901232373D3
:103CB000FFF703FC284602B070BD01BED4E701BE89
:103CC000D3E7FFF7FAFB014DF4E700BF20000E0633
:103CD0000020704770B518B1064641B100240FE0CE
:103CE000114B124A40F2E141114857F049FC114B87
:103CF0000E4A40F2E2410E4857F042FC355501347D
:103D000094420AD20D5D0D2D09D00A2D09D0012B48
:103D1000F4D13A2DF2D1002000E0304670BD0020F1
:103D2000FCE70020FAE700BFA03B0610984306100E
:103D3000B03B06101C3C0610F8B5E1B10C46092A50
:103D400020D9002825DB002500221D4981FB0031F8
:103D5000C317C3EBA103194603EB8303A0EB430393
:103D60002E465019303323540132D2B2084600296E
:103D7000EBD100231EE0134B134A40F2B34113482A
:103D800057F0FEFB124B104A40F2B4410F4857F077
:103D9000F7FB2D230B7040420125D5E7F018275C77
:103DA0009119C91A013914F801C004F800C0675408
:103DB0000133DBB2B3EB520FF0D35019C0B2F8BDF0
:103DC00067666666BC52061084430610B03B061058
:103DD0002C3C06102DE9F84FE0B1884617461C46EA
:103DE00006464368EBB11AB3234B994227D04FF0F4
:103DF0000A0AC04781460025002C3AD0002D38D150
:103E0000736822463946B0689847B0F1000B19DA5A
:103E10000225F1E7194B1A4A40F2DB61194857F0C5
:103E2000AFFB194B164A40F2DC61164857F0A8FB6D
:103E3000164B134A40F2DD61124857F0A1FB4FF0D8
:103E4000000AD6E70EDDA34505D8C0478146A4EB9E
:103E50000B045F44D0E70E4B094A40F2FE6109486B
:103E600057F08EFBC047A0EB09039A45C4D8022542
:103E7000C2E72846BDE8F88FD13C00105C3C061034
:103E8000DC430610B03B0610703C06108C3C06105C
:103E90009C3C061010B538B10446406858B18AB150
:103EA0002046FFF797FF10BD0A4B0B4A40F26C719A
:103EB0000A4857F065FB0A4B074A40F26D71074804
:103EC00057F05EFB074B044A40F26E71034857F00F
:103ED00057FB00BF5C3C061014440610B03B0610B4
:103EE000703C0610C43C061008B530B183695BB164
:103EF000022283F82020002008BD074B074A40F229
:103F0000AA31074857F03CFB064B044A40F2AB315C
:103F1000034857F035FB00BFDC3C06100843061091
:103F2000B03B0610F03C061030B583B0F8B1044643
:103F3000436A1BB3026BC2B1826BB2B19A6AB2F12F
:103F4000FF3F22D001329A629A684AB115685068E0
:103F50001B8C0193E36B0093A36B626B216BA847EF
:103F6000002323636363A363E36303B030BD0A4BA1
:103F70000A4A4FF40C710A4857F002FB094B074AF2
:103F800040F23121064857F0FBFA074B034A40F252
:103F90003A21034857F0F4FA0C3D0610304206105F
:103FA000B03B0610243D0610483D061038B50028E9
:103FB00039D00146806900283CD0436A002B40D0AC
:103FC000C26A002A44D01C68A24248D35D682C44CF
:103FD000A2424BD21C69002C56D0A2424DD9121BD2
:103FE0005A61D1E90245B5F1FF3F08BFB4F1FF3F87
:103FF0004DD05C620A8812F0100F03D0DA6A42F0EA
:104000000102DA620A8812F0080F03D0DA6A42F07D
:104010000202DA6290F82830012B3BD00024FFF72F
:1040200083FF204638BD1C4B1C4A40F205311C481A
:1040300057F0A6FA1B4B194A40F20631184857F0C0
:104040009FFA194B154A40F20B31154857F098FA70
:10405000164B124A4FF44371114857F091FA144B22
:104060000E4A4FF444710E4857F08AFA114B0B4A2E
:1040700040F211310A4857F083FA0F4B074A4FF4C8
:104080004771074857F07CFA00225A61A9E70022DD
:104090005A62AFE70124C2E7DC3C0610C8420610B2
:1040A000B03B0610F03C06106C3D0610803D06103B
:1040B000A43D0610EC3D06104C3E061008B568B154
:1040C000836993B1C1B18818D862986BD8B1D96BA4
:1040D0000A44DA631B6BCBB1002008BD0F4B104ABA
:1040E0004FF436710F4857F04BFA0F4B0C4A40F221
:1040F000D9210C4857F044FA0C4B094A40F2DA2116
:10410000084857F03DFA9963DA63E3E7084B044A3D
:1041100040F2F321034857F033FA00BFDC3C0610AD
:10412000A8420610B03B0610F03C0610943E061064
:10413000A43E061070B5B8B10E4615468469D4B1D8
:1041400001B3636A2BB31A6952B37319E362204651
:10415000FFF7EAFE236B2BB3626BEB439A4224D842
:104160002A446263002070BD134B144A4FF4287137
:10417000134857F005FA134B104A40F2A12110489A
:1041800057F0FEF9104B0D4A40F2A2210C4857F0AF
:10419000F7F90E4B094A40F2A721094857F0F0F908
:1041A0001961D2E726636563DCE7094B034A4FF4E4
:1041B0003171034857F0E4F9DC3C061088420610E0
:1041C000B03B0610F03C0610943E06106C3D061005
:1041D000D03E061038B578B1044683699BB1C9B1A9
:1041E0005D6AF5B11144D962002018635863986381
:1041F000D863A38A2B8438BD0D4B0E4A40F2772139
:104200000D4857F0BDF90D4B0A4A4FF41E710A488C
:1042100057F0B6F90A4B074A40F27921064857F0A1
:10422000AFF9084B034A40F27E21034857F0A8F942
:10423000DC3C06106C420610B03B0610F03C061049
:10424000943E06106C3D061008B530B183695BB131
:10425000012283F82020002008BD074B074A40F2C6
:104260006121074857F08CF9064B044A40F262215D
:10427000034857F085F900BFDC3C061048420610A1
:10428000B03B0610F03C061008B5B0B1C37D03F09A
:104290007F031E2B2CD8DFE803F0172B2B2B2B2BA7
:1042A0002B2B2B2B2B172D191D1F2B2B2B2B2B2B9C
:1042B0002B232527291B212B21000F4B0F4A40F2CE
:1042C000DE310F4857F05CF9002000E0072008BD00
:1042D0000820FCE70920FAE70A20F8E70B20F6E7B8
:1042E0000B20F4E70B20F2E70C20F0E70C20EEE7C0
:1042F0000D20ECE70620EAE7DC3C061058430610E8
:10430000B03B061008B5022806D891420BD8B8B1C8
:1043100001280FD0002008BD0A4B0B4A4FF4F06172
:104320000A4857F02DF90A4B074A40F282710748B4
:1043300057F026F9914201D00320ECE70520EAE787
:104340000420E8E70C3F061024440610B03B06109A
:10435000583F06102DE9F041B0B114461D460746FE
:104360000668C6B1F1B122B302F10C0345B3069A57
:104370004ABB4FF001089844BB6843447A689342B3
:1043800024D90520BDE8F081244B254A40F2B451E0
:10439000244857F0F5F8244B214A40F2B551214802
:1043A00057F0EEF8214B1E4A40F2B6511D4857F027
:1043B000E7F81F4B1A4A40F2B7511A4857F0E0F895
:1043C0004FF00108D7E7DDF81880D4E722463046E1
:1043D00059F03AF93319202232555C1C0DB1069A76
:1043E0009AB92F225A709E1C3246202302F8013BB4
:1043F000104B03CBC6F8010051600F4B1B88A6F889
:104400000930C7F808800020BCE7069A29462046F4
:1044100059F01AF9069BE618E6E700BF7C3F061044
:10442000C8430610B03B0610943F0610B83F061074
:10443000C83F0610D83F0610D82006102DE9F84FC7
:10444000DDF828A040B30F4616469846814604681A
:104450004CB379B3002B34D0002A39D0BAF1000F15
:104460003DD0D0F808B05C44BBF1030F08D904225A
:104470002F49201F59F0D6F810B9ABF1020B023CBE
:1044800006EB0A0506355D44D9F804309D422DD966
:1044900005231846BDE8F88F264B274A40F21451F1
:1044A000264857F06DF8264B234A40F21551234811
:1044B00057F066F8234B204A40F216511F4857F038
:1044C0005FF8214B1C4A40F217511C4857F058F82E
:1044D0001E4B194A4FF4A361184857F051F81C4B72
:1044E000154A40F21951154857F04AF8012332464F
:1044F00039462046FFF7EEFB68B1A319154A12882A
:10450000A2539C1C0023524641462046FFF7E2FB83
:1045100058B1002300E00B23002BBAD1044A1068E5
:1045200044F80A00C9F80850B3E70B23B1E700BF0D
:10453000244006107C3F0610AC430610B03B06102A
:10454000943F0610E43F0610F43F061004400610A6
:1045500014400610542B071010B586B002460023F5
:1045600003930493ADF8143078B10846144699B11A
:104570000A2203A9FFF7E0FB009003AB0E220A49D1
:104580002046FFF75BFF06B010BD084B084A40F21B
:104590002671084856F0F4FF074B054A40F2277190
:1045A000044856F0EDFF00BF404006107C3F061067
:1045B000EC430610B03B06102C40061070B588B1D5
:1045C0000E461446054642689AB1CCB1049A12F0E0
:1045D000010F00D1DBB9A368226831462846FFF7F6
:1045E000F9FB70BD0D4B0E4A4FF4E9610D4856F0D2
:1045F000C7FF0D4B0A4A40F249710A4856F0C0FF06
:104600000A4B074A40F24A71064856F0B9FF19466C
:104610002046FFF7A1FF0028E3D1DCE75C3C061051
:1046200004440610B03B0610703C06107C3F061098
:10463000F0B583B0089FB0B10C461D460646CAB11E
:10464000FBB13CB3099B00933B4621463046FFF744
:10465000B5FF30B92DB13B462A4621463046FFF71B
:1046600019FC03B0F0BD0F4B0F4A40F624010F4870
:1046700056F086FF0E4B0C4A40F625010B4856F0CB
:104680007FFF002FDDD00B4B074A40F6260107487D
:1046900056F076FF084B044A40F62801034856F0CE
:1046A0006FFF00BF5C3C061058440610B03B06107C
:1046B0007C3F061050400610AC40061070B58AB022
:1046C00008B30C461546064600230493059306934B
:1046D00007930893CDF82330184B93E80300039019
:1046E000ADF8101015220DF112012046FFF724FB42
:1046F000831DB5F1FF3F0DD1002C16DB03AA2D2140
:10470000D154C31D11E00E4B0E4A4FF4AE610E485A
:1047100056F036FF03A92D22CA54C41DC0F114025D
:1047200021442846FFF708FB0319009303AB052239
:1047300006493046FFF782FE0AB070BDC44006103D
:104740007C3F0610B8430610B03B0610CC40061064
:1047500038B5D0B10C460546F1B18B680F2B22D984
:10476000012103F04FF94FF4006003F071F90023C9
:1047700085F820306B6204220E49206858F052FF01
:1047800010B9012385F8283038BD0B4B0B4A4FF484
:104790006F710B4856F0F4FE0A4B084A40F2BD31E7
:1047A000074856F0EDFE084B044A40F2BE3104487B
:1047B00056F0E6FE144106100C3D06102C43061080
:1047C000B03B06107C3F0610D440061070B58AB08E
:1047D00004460D46164628220021684657F096F9F1
:1047E00034B3002D2BD0636A002B2FD0AB4239D1CC
:1047F000684603F026F91F4B00931F4B02931F4B93
:1048000003931F4B04931F4B05931F4B06931F4BA2
:104810000793A461E56A33462A466946204600F0BC
:10482000C3FB0544E5622046FFF72EFD0AB070BDCC
:10483000174B184A4FF48B61174856F0A1FE174BDF
:10484000144A40F25941144856F09AFE65622B68AA
:10485000E36200232B84AB61EB612B616B61AB6284
:10486000EB62C5E70E4B0B4A40F275410A4856F021
:1048700087FE00BF49420010D541001035410010AD
:10488000BD400010AD3F0010E5490010E93E0010AA
:104890000C3D061070430610B03B06106C3D061030
:1048A0001C4106102DE9F04F93B080460D4614468A
:1048B0004022002102A857F029F9B8F1000F16D0C4
:1048C000D8F80030D3B105B334B3214602A8FFF7BE
:1048D0003FFFEB683C4A934225D04FF00A0B9847C4
:1048E00001904FF0000A01275646D14645E0374B6C
:1048F000374A40F2B571374856F042FE364B344ADB
:1049000040F2B671334856F03BFE344B304A40F229
:10491000B771304856F034FE314B2D4A4FF4F761F1
:104920002C4856F02DFE4FF0000BD8E7EB68984767
:10493000019BC01A834515D9002302E000234FF0E4
:104940000209012B11D0B9F1000F15D1BAF1000FF6
:1049500026D19DF82830022B24D06B68B3420CD8A6
:1049600000270AE0BA463B46EBE72246294602A862
:10497000FFF72CFF8146E6E70027AFB1D8F80030FB
:1049800029686A68921B3144D8F808009847041EC9
:10499000D4DBCBDDEB689847019026443B46D0E75B
:1049A0000027EAE70027E8E7B9F1000F03D04846FF
:1049B00013B0BDE8F08F6A6831469DF82800FFF714
:1049C000A1FC8146F3E700BFD13C00105C3C06101F
:1049D0003C440610B03B0610444106106C3D0610E6
:1049E0007C3F0610F8B5F8B10C461646876917B338
:1049F00041B37D6A002D2CD02B68002B30D08B4228
:104A000035D86A6813448B4238D9AB69002B3CD047
:104A1000A869EB69184484423AD8EB693344EB61E6
:104A20003444FC620020F8BD1C4B1D4A40F2623148
:104A30001C4856F0A5FD1C4B194A40F26331194839
:104A400056F09EFD194B164A4FF45971154856F011
:104A500097FD174B124A40F26931124856F090FD0B
:104A6000144B0F4A40F26A310E4856F089FD124B42
:104A70000B4A40F26B310B4856F082FD0F4B084A4F
:104A80004FF45B71074856F07BFDA961EB61BFE70E
:104A90003246214657F020F8BFE700BFDC3C061045
:104AA000EC420610B03B0610F03C0610943E061097
:104AB0006C3D0610604106107C410610AC410610AA
:104AC00030B583B00C460546B0B10368F3B1F9B117
:104AD0000B68FBB10B69FBB14B68FBB14B690BB9C0
:104AE00001200AE000238360CB6800938B684A684A
:104AF0000968FFF72FFC00E0012088B1C8B118B9A0
:104B0000A36913F0010F1DD103B030BD0120F4E7FC
:104B10000120F2E70120F0E70120EEE70120ECE7B9
:104B2000142300930B4B0A220B492846FFF786FCFF
:104B3000E4E7636900932369042208492846FFF7E4
:104B40007DFCDCE70A220092054B06492846FFF768
:104B500075FCD9E7F44106100C42061070200610CF
:104B60001842061024420610A8B130B583B004469E
:104B7000006890B1A1B1ABB1B2B10698B0B1A5686F
:104B80006068854201D9012008E00698009020461F
:104B9000FFF754FC02E001207047012003B030BD54
:104BA0000120FBE70120F9E70120F7E70120F5E705
:104BB000F8B103460068F0B110B59C6858688442AB
:104BC0001BD8B2F1FF3F1ADB002909DBB2F1FF3F2E
:104BD00001D08A4215DBB1F1004F06D101200DE072
:104BE000B2F1FF3FF2D0012008E01846FFF766FD62
:104BF00004E00120704701207047012010BD012012
:104C0000FCE70120FAE7000030B583B00C4605460A
:104C100048B3416859B3016859B364B3216861B3BB
:104C2000A1680F292BD9606881422AD8069951B30F
:104C3000096851B37AB1002B29DB0699C96871B1B3
:104C4000079901910093134622460699C9682846A0
:104C5000FFF7EEFC08E0002BEDD0012004E0104946
:104C60000698C160ECE7012098B103B030BD012087
:104C7000FAE70120F8E70120F6E70120F4E7012038
:104C8000F2E70120F0E70120EEE70120ECE7012048
:104C9000EAE7224606992846FFF704FEE5E700BF4B
:104CA000D13C0010202900F0D4800D2900F0D380E1
:104CB0000A2900F0D280092900F0D1800C2900F0E7
:104CC000D08010B4A0F114030B2B00F2CC80DFE8ED
:104CD00003F0061520272F2F2C808F8F9EAE2F29B3
:104CE00000F0C3802A2900F0C28041F02003613B1C
:104CF000DBB2192B40F2BD8001200EE041F0200311
:104D0000613BDBB2192B08D93A2900F0B4800120AD
:104D100003E02F2900F0B18001205DF8044B7047BB
:104D20002F2900F0AC800120F7E7402900F0A9808E
:104D30002F2900F0A8803F2900F0A780402900F02B
:104D4000A68041F02003613BDBB2192B40F2A18029
:104D5000A1F13003DBB2092B40F29D802D2900F038
:104D60009C805F2900F09B802E2900F09A802129E9
:104D700000F099807E2900F098802A2900F0978021
:104D8000272900F09680282900F09580292900F035
:104D90009480252900F093803B2900F092803A29E5
:104DA00000F09180262900F090803D2900F08F804E
:104DB0002B2900F08E80242900F08D802C2900F012
:104DC0008C805B2900F08B805D2900F08A800120B7
:104DD000A3E7CB084B4AD25C01F007040123A340B0
:104DE0001A429AD123297ED03F297ED11C2094E7F4
:104DF000CB08444AD25C01F00700012383401A42E9
:104E000075D1232975D03F2975D11D2085E7CB08A1
:104E10003C4AD25C01F007040123A3401A426CD142
:104E200023293FF47AAF3F2969D11F2075E7CB08CA
:104E3000344AD25C01F007040123A3401A427FF4F4
:104E40006CAF23293FF469AF3F293FF466AF0120DF
:104E500063E701207047012070470120704701205F
:104E6000704701207047012057E71B2055E71B20A2
:104E700053E7152051E716204FE717204DE718207C
:104E80004BE7012049E71B2047E71C2045E71A2094
:104E900043E7192041E719203FE719203DE7192092
:104EA0003BE7192039E7192037E7192035E71920A2
:104EB00033E7192031E719202FE719202DE71920B2
:104EC0002BE7192029E7192027E7192025E71920C2
:104ED00023E7192021E719201FE719201DE71920D2
:104EE0001BE7192019E71E2017E7012015E71D20F1
:104EF00013E71E2011E701200FE71F200DE7012017
:104F00000BE700BF584F0610037813F0030F24D0AF
:104F1000828AA2F164039BB2632B20D9CC2A20D0D1
:104F2000B2F5987F1FD00388C3F3870213F4807F04
:104F30001BD1C37813F0200F02D012F0010F16D04E
:104F400012F0010F15D1D0E90223B3F1FF3F08BFE2
:104F5000B2F1FF3F0FD101207047002070470020C1
:104F600070470020704700207047002070470120E4
:104F70007047002070470020704708B5038A3BB196
:104F8000438A2BB1038813F0100F05D0002008E0EE
:104F9000038813F0080F05D0FFF7B6FFB0FA80F0D2
:104FA000400908BD0020FCE72DE9F04F9BB0824688
:104FB0000291904699460368C3F38621C278D409CA
:104FC0000494C2F3801205924768C27D12F07F02FA
:104FD000039242F009850B460846B9F1000F2ED125
:104FE000122916D93F2916D1029BDB69002B02F04A
:104FF000FD8450469847002802F0F884CAF80470EF
:105000009AF81730072262F306038AF8173002F085
:10501000EDBC49B251B99AF817300B2262F306037E
:105020008AF817304FF0010902F0E0BC012202FAC1
:1050300003F3BF4A1A40002AEDD002F0D7BC2D2955
:105040001CD000221692322B1BD000220992102B6A
:1050500002F07783C2F07B836B3303F07F030A2B6C
:1050600012D8CDF8208000230793C346002306936F
:105070004B46C146B8461F4602F093B8CDF858805B
:10508000E1E7CDF82480E2E7002307930893ECE7FB
:105090004746C8469AF817300C2262F306038AF88E
:1050A00017309AF8173013F07F0F06D19AF817309F
:1050B000202262F306038AF81730CAF80470DAF87F
:1050C000003060F39023CAF80030ABEB080902F01F
:1050D0008DBC0F2004E00F2002E0102000E00096BD
:1050E000431E3F2B02F2CB82DFE813F0400050005A
:1050F000A800D20034014301520161017001850111
:105100009401A901B801D001010216029A02A90274
:1051100063036E048D048D048D048D04B404B40403
:10512000B404B404B404B404B40454056E057E0598
:105130008E05D705B705C705E705FD050D0623064E
:10514000360646062708A308BD0CCC0CAF08660936
:10515000800C710CCD10F91042115311570D2E0E09
:10516000B71103127512D10F541072100D2C02F0EA
:1051700016800A2C02F013804746C8469AF817306A
:105180000D2262F306038AF817308AE70D2C02F02D
:1051900006800A2C02F00380BAF800306FF389030E
:1051A000AAF800309AF803306FF345138AF80330F9
:1051B0004FF0FF324FF0FF33CAE90223482C07D0EB
:1051C0009AF800306FF301038AF80030122087E765
:1051D0009AF8173013F07F0F1FD102990B68002B3C
:1051E00002F05482DAF80030032262F39023CAF806
:1051F00000300B6850469847B0B9DAF80000C0F3A9
:1052000086209AF8173013F07F0F01F0C887ABEBB8
:10521000090B0BF1010902F0E9BB464B464A40F28B
:10522000E621464856F0ACF9CAF804809AF81730DF
:10523000012262F306038AF81730DEE7542C13D0FC
:10524000452C1BD19AF800306FF301038AF8003027
:1052500002228AF816209AF8033062F304038AF8CF
:105260000330132001F09BBF9AF80030012262F353
:1052700001038AF80030062001F091BF4746C84676
:105280009AF817301C2262F306038AF8173008E7F1
:105290000D2C01F084870A2C01F08187BAF80030C8
:1052A0006FF38903AAF800309AF803306FF34513BF
:1052B0008AF803304FF0FF324FF0FF33CAE9022380
:1052C000482C24D19AF8173013F07F0F29D1029976
:1052D0000B68002B02F0DC81DAF80030052262F363
:1052E0009023CAF800300B685046984740BBDAF864
:1052F0000000C0F386209AF8173013F07F0F01F0FA
:105300004E87ABEB090B0BF1010902F06FBB47466F
:10531000C8469AF817301C2262F306038AF8173041
:10532000BFE6044B044A4FF44471044856F028F990
:105330001600040010450610BC4E061088440610E6
:10534000CAF804809AF81730012262F306038AF83B
:105350001730CCE7542C02D1062001F020BF47467D
:10536000C8469AF817301E2262F306038AF81730EF
:1053700097E6542C02D1072001F011BF4746C846DA
:105380009AF817301E2262F306038AF8173088E66F
:10539000502C02D1082001F002BF4746C8469AF8B7
:1053A00017301E2262F306038AF8173079E62F2C95
:1053B00002D1092001F0F3BE4746C8469AF81730DB
:1053C0001E2262F306038AF817306AE6A4F130035E
:1053D000DBB2092B05D8303CAAF810400A2001F0B6
:1053E000DEBE4746C8469AF817300E2262F306031F
:1053F0008AF8173055E62E2C02D10B2001F0CFBED3
:105400004746C8469AF817300E2262F306038AF818
:10541000173046E6A4F13003DBB2092B05D8303C47
:10542000AAF812400C2001F0BABE4746C8469AF8C6
:1054300017300E2262F306038AF8173031E6202C6B
:1054400002D10D2001F0ABBE4746C8469AF817308E
:105450000E2262F306038AF8173022E6A4F1300325
:10546000DBB2092B0CD9202C01F099864746C8469F
:105470009AF817300F2262F306038AF8173010E605
:10548000303CAAF814400E2001F089BEA4F130038C
:10549000DBB2092B12D90D2C3FF41BAE202C02F0ED
:1054A000F9800A2C3FF417AE4746C8469AF81730E1
:1054B0000F2262F306038AF81730F2E5BAF81430C7
:1054C00003EB83035B009BB22344303B9BB2AAF8FF
:1054D0001430B3F57A7FC1F062864746C8469AF821
:1054E00017300F2262F306038AF81730D9E5079BBD
:1054F00063B19AF803306FF304038AF803300D2C7C
:105500003FF4EBAD0A2C04D11020E9E5CDF81CB036
:10551000EFE7102001F043BE0D2C2BD00A2C41F0F8
:105520003E869AF8173013F07F0F62D10799002951
:1055300002F0B88002988368002B02F0B580DAF898
:1055400000302C2262F39023CAF800308368ABEB62
:10555000010250469847002852D1DAF80000C0F303
:1055600086209AF8173013F07F0F53D1002307934A
:1055700001F015BE9AF8173013F07F0F22D107996A
:10558000002902F0898002988368002B02F086804F
:10559000DAF80030112262F39023CAF800308368F1
:1055A000ABEB01025046984798B9DAF80000C0F317
:1055B00086209AF8173013F07F0F14D10023079339
:1055C00001F0EDBDBB4BBC4A40F28E31BB4855F0FB
:1055D000D7FFCAF804809AF81730082262F306034E
:1055E0008AF81730E1E7ABEB090B0BF1010902F088
:1055F000FDB9B04BB04A4FF46571B04855F0C0FFEB
:10560000CAF804809AF81730082262F306038AF871
:105610001730A2E7ABEB090B0BF1010902F0E6B979
:105620000A2C02D12C2001F0BABD4746C8469AF890
:1056300017301E2262F306038AF8173031E50D2C6D
:1056400001F0AD850A2C01F0AA85BAF800306FF39D
:105650008903AAF800309AF803306FF345138AF8EB
:1056600003304FF0FF324FF0FF33CAE9022344F01A
:105670002003613BDBB2192B19D800238AF81630BE
:105680009AF80330012262F304038AF80330413CA4
:10569000142C73D8DFE804F0153E42187272464AA3
:1056A0007272724E52565A5E7262666A6E00474657
:1056B000C8469AF81730102262F306038AF81730AA
:1056C000EFE413238AF816309AF8173013F07F0F9F
:1056D0005ED102990B68002B01F0EA87DAF80030FE
:1056E000132262F39023CAF800300B6850469847A3
:1056F000002854D1DAF80000C0F386209AF8173059
:1057000013F07F0F01F04B85ABEB090B0BF1010997
:1057100002F06CB910238AF81630D5E705238AF811
:105720001630D1E701238AF81630CDE702238AF834
:105730001630C9E709238AF81630C5E70A238AF824
:105740001630C1E719238AF81630BDE706238AF818
:105750001630B9E703238AF81630B5E714238AF820
:105760001630B1E71A238AF81630ADE707238AF816
:105770001630A9E70F238AF81630A5E74746C84632
:105780009AF81730102262F306038AF8173088E47B
:10579000484B494A40F2C631484855F0F1FECAF834
:1057A00004809AF81730012262F306038AF8173052
:1057B000A0E77CB39AF81620414B53F82210202C16
:1057C00032D09AF8033003F01F03C95CA14233D0F2
:1057D000A4F14101C9B2192902D92D2C40F0E98068
:1057E0001B0243EA02431C43364B9C4200F0C58037
:1057F00078DC354B9C4200F0B88028DD334B9C426E
:1058000000F0BF8046DD324B9C4250D117238AF80E
:10581000163011E04746C8469AF81730102262F356
:1058200006038AF817303CE49AF8033003F01F03AC
:10583000CB5C002BC5D114209AF8033003F01F0273
:10584000013262F304038AF8033001F0A8BC214B53
:105850009C4200F0828006DD1F4B9C4210D11D232C
:105860008AF81630E8E7143B9C427AD011339C4208
:1058700003D10C238AF81630DEE74746C84601E01C
:105880004746C8469AF81730102262F306038AF892
:10589000173006E4114B9C426BD0114B9C4203D154
:1058A0001F238AF81630C7E74746C846EAE7474647
:1058B000C846E7E710450610BC4E0610884406109F
:1058C000D04E06104F010A00480105002D010A00C4
:1058D00045010A0055010300520204005002050070
:1058E00049010900CB4B9C425BD00ADDCA4B9C426C
:1058F0004FD022DDC94B9C422CD121238AF816308F
:105900009AE7C74B9C4248D006DDC64B9C4211D15A
:1059100012238AF816308FE7C34B9C4235D003F52B
:1059200080739C4203D11E238AF8163084E74746D1
:10593000C846A7E74746C846A4E7BC4B9C4234D0BC
:10594000BB4B9C4203D111238AF8163074E74746BB
:10595000C84697E74746C84694E704238AF81630B6
:105960006AE71C238AF8163066E716238AF8163091
:1059700062E708238AF816305EE70B238AF81630B0
:105980005AE718238AF8163056E715238AF8163096
:1059900052E70E238AF816304EE70D238AF81630A8
:1059A0004AE71B238AF8163046E720238AF8163088
:1059B00042E74746C8469AF81730102262F30603BA
:1059C0008AF81730FFF76DBB202C01F0E883089BA5
:1059D000A3B19AF81630052B13D02146FFF762F9D0
:1059E000012841F0DC834746C8469AF81730112257
:1059F00062F306038AF81730FFF753BBCDF820B0E7
:105A0000E7E71820E9E7A4F10A03DBB2162B10D868
:105A1000012202FA03F3874A1A4052B14746C846A8
:105A20009AF81730112262F306038AF81730FFF74D
:105A300038BB2146FFF736F9012841F0B0834746CD
:105A4000C8469AF81730112262F306038AF8173015
:105A5000FFF727BB0D2C53D0202C12D00A2C4FD08F
:105A60002146FFF71FF9012841F099834746C846B0
:105A70009AF81730112262F306038AF81730FFF7FD
:105A800010BB9AF8173013F07F0F22D10899002924
:105A900001F0108602984368002B01F00D86DAF8B9
:105AA0000030202262F39023CAF800304368ABEB49
:105AB00001025046984798B9DAF80000C0F38620F2
:105AC0009AF8173013F07F0F14D10023089301F0D8
:105AD00066BB594B594A40F23441594855F050FD84
:105AE000CAF804809AF81730022262F306038AF893
:105AF0001730E1E7ABEB090B0BF1010901F076BFC1
:105B00000023AAF810300923AAF812300D2C28D04F
:105B10002C209AF8173013F07F0F24D1089A002A0E
:105B200001F03D8302994B68002B01F0C985DAF83A
:105B3000003060F39023CAF800304B681146ABEB9D
:105B4000020250469847A8B9DAF80000C0F3862050
:105B50009AF8173013F07F0F16D10023089301F045
:105B60001EBB2B20D5E7344B344A40F23D4134482C
:105B700055F006FDCAF804809AF81730022262F345
:105B800006038AF81730DFE7ABEB090B0BF10109CD
:105B900001F02CBF482C01F09685492C0DD0202C0B
:105BA00001F0FD824746C8469AF817301C2262F37E
:105BB00006038AF81730FFF774BA9AF81630212BCB
:105BC000F0D1252001F0EBBA542C02D1222001F0B3
:105BD000E6BA4746C8469AF817301E2262F3060313
:105BE0008AF81730FFF75DBA542C02D1232001F058
:105BF000D6BA4746C8469AF817301E2262F3060303
:105C00008AF81730FFF74DBA502C1BD1242001F031
:105C1000C6BA00BF53020F0045011A004F011A0017
:105C200050040C0042020F0041020A0049030F0019
:105C3000420214000900400010450610BC4E061038
:105C4000884406104746C8469AF817301E2262F369
:105C500006038AF81730FFF724BA432C02D1262016
:105C600001F09DBA4746C8469AF817301E2262F3E3
:105C700006038AF81730FFF714BA452C02D1242006
:105C800001F08DBA4746C8469AF817301E2262F3D3
:105C900006038AF81730FFF704BA2F2C02D1272009
:105CA00001F07DBA4746C8469AF817301E2262F3C3
:105CB00006038AF81730FFF7F4B9A4F13003DBB21A
:105CC000092B05D8303CAAF81040282001F067BA0B
:105CD0004746C8469AF817300E2262F306038AF840
:105CE0001730FFF7DEB92E2C02D1292001F057BA68
:105CF0004746C8469AF817300E2262F306038AF820
:105D00001730FFF7CEB9A4F13003DBB2092B05D869
:105D1000303CAAF812402A2001F041BA4746C84652
:105D20009AF817300E2262F306038AF81730FFF74D
:105D3000B8B90D2C01F0C9840A2C02D12C2001F035
:105D40002EBA4746C8469AF817300E2262F3060369
:105D50008AF81730FFF7A5B90A2C02D12C2001F0E0
:105D60001EBA4746C8469AF81730172262F3060350
:105D70008AF81730FFF795B90D2C01F0A8840A2C8A
:105D800002D13920FFF7ACB9202C19D0CA4B1B5DCA
:105D9000C3B1169A0AB39AF803206FF304028AF883
:105DA0000320633B122B43D8DFE803F01A42424240
:105DB000424242424242424242244242422E380041
:105DC000039BE5E74746C8469AF81730182262F366
:105DD00006038AF81730FFF764B9CDF858B0DAE750
:105DE0009AF80230012262F347038AF802302D202C
:105DF00001F0D5B99AF80230052262F347038AF818
:105E000002302D2001F0CBB99AF80230072262F35C
:105E100047038AF802302D2001F0C1B99AF8023008
:105E2000082262F347038AF802302D2001F0B7B947
:105E30009AF802306FF347038AF802302D2001F000
:105E4000AEB9A6EB050C9D4B1B68634594BF05EBF3
:105E5000030CAC442B461D460133634519D26A78C6
:105E6000202A16D094498A5C002AF4D111E09AF8CD
:105E7000033003F01F01013161F304038AF803309A
:105E80006F2A3BD000229AF8023062F347038AF867
:105E900002300135AE4200F053812C78202C00F006
:105EA0004F81854B1A5D002A00F04A819AF8023032
:105EB0005B080E2B00F23A8101A151F823F000BFDC
:105EC000435E00106F5E0010015F00102B5F00103A
:105ED000735F0010C15F00100F6000105D60001064
:105EE000D16000101F6100101F6100102D610010B3
:105EF0002D6100101F6100101F6100100222C2E717
:105F00009AF8033003F01F01013161F304038AF8AA
:105F100003306E2A07D000229AF8023062F347035A
:105F20008AF80230B5E70322F6E79AF8033003F067
:105F30001F01013161F304038AF803306E2A08D08F
:105F4000742A0ED09AF802306FF347038AF80230B1
:105F50009FE79AF80230042262F347038AF802307E
:105F600097E79AF80230062262F347038AF8023074
:105F70008FE79AF8031001F01F03013303F01F03AA
:105F800063F304018AF803100A2B03D84C49CB5C55
:105F9000934206D09AF802306FF347038AF8023032
:105FA00077E79AF8033003F01F03092B7FF471AFF2
:105FB0009AF80230092262F347038AF8023068E750
:105FC0009AF8031001F01F03013303F01F0363F37A
:105FD00004018AF80310102B03D83A49CB5C934292
:105FE00006D09AF802306FF347038AF8023050E780
:105FF0009AF8033003F01F030F2B7FF44AAF9AF88F
:106000000230092262F347038AF8023041E79AF826
:10601000031001F01F03013303F01F0363F30401B6
:106020008AF803100E2B03D82749CB5C934206D085
:106030009AF802306FF347038AF8023029E79AF89A
:10604000033003F01F030D2B7FF423AF9AF80230C7
:106050000A2262F347038AF802301AE79AF803101B
:1060600001F01F03013303F01F0363F304018AF8F7
:106070000310112B03D81549CB5C934206D09AF834
:1060800002306FF347038AF8023002E79AF80330D0
:1060900003F01F03102B7FF4FCAE9AF802300D22A0
:1060A00062F347038AF802309AF8033043F0200382
:1060B0008AF80330EDE600BF784F0610A4230008ED
:1060C000904606109C460610B0460610944D0610E9
:1060D0009AF8031001F01F03013303F01F0363F369
:1060E00004018AF80310072B03D8D349CB5C9342F1
:1060F00006D09AF802306FF347038AF80230C8E6F8
:106100009AF8033003F01F03062B7FF4C2AE9AF80F
:1061100002300E2262F347038AF80230B9E69AF899
:1061200002306FF347038AF80230B2E6C34BC44A29
:1061300040F25A51C34855F023FA009E5D46A9E645
:10614000AE4230D0A5EB0B0BD844BF4B1B68434588
:1061500040D33A2C61D19AF8173013F07F0F45D114
:106160001699002901F0B5820298C368002B01F04E
:10617000B382DAF800302E2262F39023CAF800309E
:10618000C3686A1A50469847B8BBDAF80000C0F3F3
:1061900086209AF8173013F07F0F38D1AB460023D2
:1061A000169300F0FCBF013DA5EB0B0BD844A64BAA
:1061B0001B68434502D3AB4600F0F1BF4746C846D3
:1061C0009AF817300C2262F306038AF81730AB46B0
:1061D000FEF767BF4746C8469AF817300C2262F3AD
:1061E00006038AF81730AB46FEF75BBF974B944A1D
:1061F00040F26951934855F0C3F9CAF804809AF8FF
:106200001730032262F306038AF81730BDE7A5EBC7
:10621000090505F1010901F0E9BB4746C8469AF8AE
:106220001730182262F306038AF81730AB46FEF7E0
:1062300038BF202C00F0B387092C00F0B0870D2C5C
:1062400001F04F820A2C01F04E82099BD3B19AF8DB
:1062500003306FF304038AF8033044F020029AF805
:1062600002305B08093B092B00F29D80DFE813F048
:106270006D0032009B003D0A1C000D003D0A9B0092
:106280009B003D0ACDF824B0E1E7BAF8003043F0B6
:106290008003AAF800309AF802306FF347038AF8B7
:1062A0000230322000F07BBF632A09D09AF8023016
:1062B000112262F347038AF80230322000F06FBFE8
:1062C0009AF80230102262F347038AF80230322033
:1062D00000F065BFA4F13003DBB2092B1DD8BAF87A
:1062E0000020C2F3870312F4007F22D163F07F0302
:1062F000BAF8002063F38902AAF80020A4F1300262
:10630000D317CAE902239AF802300B2262F347033B
:106310008AF80230322000F042BF4746C8469AF859
:106320001730192262F306038AF817303220FEF77D
:10633000B8BE4746C8469AF817301A2262F30603D9
:106340008AF817303220FEF7ACBE6B2A0DD0632AD4
:1063500015D0752A1DD09AF80230162262F3470331
:106360008AF80230322000F01ABF9AF80230132265
:1063700062F347038AF80230322000F010BF9AF827
:106380000230142262F347038AF80230322000F010
:1063900006BF9AF80230152262F347038AF80230EA
:1063A000322000F0FCBE9AF802306FF347038AF8FF
:1063B0000230322000F0F3BE9AF802C04FEA5C0CC3
:1063C0000A905E46DDF800E0CDF85CB00090BB4678
:1063D000049F5EE23546764664465F46DDF85CB073
:1063E0009AF802306CF347038AF802309AF81730B3
:1063F00013F07F0F2CD10999002900F0D482029864
:106400000369002B00F0D182DAF80030342262F305
:106410009023CAF8003003696A1A50469847F0B9C9
:10642000DAF80000C0F386209AF8173013F07F0FD7
:106430001FD100230993A5E2C0460610344506107B
:10644000BC4E061088440610A42300081045061010
:10645000D14BD24A40F2D351D14855F091F8CAF805
:1064600004809AF81730042262F306038AF8173082
:10647000D6E7A5EB090505F1010901F0B7BACDF89A
:1064800000E05F46DDF85CB0A6EB0B0BD844C54BD3
:106490001B6843452BD39AF802306CF347038AF804
:1064A00002309AF8173013F07F0F2DD10999002987
:1064B0003FD002980369002B3DD0DAF80030342237
:1064C00062F39023CAF800300369721A5046984765
:1064D00008BBDAF80000C0F386209AF8173013F0F2
:1064E0007F0F22D100230993B346FEF7F9BD47463B
