:020000041000EA
:1000000000200008EB0000100D0000004D01001062
:1000100000000000000000000000000000000000E0
:100020000000000000000000000000004901001076
:10003000000000000000000049010010490100100C
:100040004901001049010010490100104901001048
:100050004901001049010010490100104901001038
:100060004901001049010010490100104901001028
:100070004901001049010010490100104901001018
:1000800010B5064C2378002B07D1054B002B02D06E
:10009000044800E000BF0123237010BDB003000836
:1000A0000000000014150010044B10B5002B03D005
:1000B0000349044800E000BF10BDC0460000000036
:1000C000B4030008141500100230800803D001307A
:1000D0000238FCD1C046C0467047EFF3108072B6BC
:1000E000704780F3108870477047FFF7FDFF72B6C6
:1000F0000F4C104DAC4209DA21686268A368043BDA
:1001000002DBC858D050FAE70C34F3E70A490B4A2F
:100110000020521A02DD043A8850FCDC08480949E4
:100120000860BFF34F8F00F0FFFE00F0AFFEFEE768
:100130002015001038150010B0030008C80500088D
:100140000000000808ED00E0FEE7FEE700B504202F
:100150007146084202D0EFF3098001E0EFF3088016
:10016000043000F093FCFEE7014B18607047C04676
:10017000C4050008044B1B681A00BA3212881B6AB7
:100180005043C0187047C046C40500081D4B984234
:100190000FD010D840282FD005D8002830D01028F4
:1001A00028D019481EE0802828D080235B00984280
:1001B000F7D1144816E0154B984214D008D8A02364
:1001C0001B0698421CD0124B9842EAD1A0200BE0AB
:1001D000104B98420AD0104B984209D00F4B9842CE
:1001E000DFD10F487047A420C003FBE70D48F9E7B3
:1001F0000D48F7E70D48F5E70D48F3E70D48F1E73F
:100200000020EFE706005200FF005200010000F05E
:10021000090000A0040000F0050000F0030000F059
:100220000100520002005200030052000100500081
:10023000020050000500520010B50020FFF79AFFA1
:100240000A4B1C682300BC331B68C0180368002BD2
:100250000ADB074B1868FFF799FF012263689A6071
:100260009A68002AFCD110BD0248FCE7C4050008CA
:10027000CC03000802005000064B1B68BC331B680F
:10028000C3181B68002B03DA89B241600020704755
:100290000148FCE7C405000801008A000368002B40
:1002A00004DA89B2C2608160002070470048FCE730
:1002B00001008A00064B1B68BC331B68C3181B680F
:1002C000002B03DAC36800200B6070470148FCE78D
:1002D000C405000801008A00024B1A68002A00D1F8
:1002E00018607047E0030008F0B52C246043154CFB
:1002F0001F0024681D0A2018FF2425402740124CA7
:100300001B0C26680760346A45608360BA363688FD
:1003100077433F1907612F0080376D017F01E7198F
:1003200064190A4D47611F043B436419236000238D
:100330008361059BC2610162002B01D01B88838110
:10034000F0BDC046E0030008C40500080810000026
:10035000F0B5836885B002AD2B80154B02681B6831
:10036000066A1B8F476A9B186B8043680095826AF8
:10037000C16A040003930369C068FFF7B5FF002159
:100380003B000A0000913000FFF7AEFF216B280010
:1003900000F030FB0022AB5E002B06DB1F22134077
:1003A0001E3A9A401300034A136005B0F0BDC046E0
:1003B000C405000800E100E0F7B52C25134C6843A4
:1003C000266869433418256901937118002D19D0E6
:1003D0008869002818D12E68002E15DA6768012474
:1003E00026004B689E40B44613689EB263461B04C9
:1003F0001E431660EA608C61BC40019BA4B24B6254
:10040000AC60FEBD0248FCE70248FAE7E0030008E2
:1004100004028A0007028A0073B5002642690400BC
:10042000D56801962B0CB34221D01B0413601368CE
:10043000194B00691B68BC331B68C3181B68B342A7
:1004400015DA01A9FFF736FFB0420CD10198E26935
:1004500003681E0CDBB29A4205D9226A9B009B58A6
:10046000002B00D0984731002069FFF705FFADB29F
:10047000002D09D063691D6000251B68636AAB42CB
:1004800005D098476562A56163691B6873BDA36A5F
:10049000002BF8D09847F6E7C40500082C2310B5C8
:1004A0004343034A1068C018FFF7B6FF10BDC046AB
:1004B000E0030008F8B5194B0F001B681A0033322F
:1004C0001278824227D9002925D01F250A681540B5
:1004D00021D11900BA310C88114E60431C6AD20830
:1004E000041929007868346000F07EFF290020009C
:1004F000FFF7C2FE3A0029003068FFF7CFFE041E66
:1005000007D101003068FFF7B7FE03002000002B81
:1005100000D00448F8BD0448FCE7C046C405000804
:10052000E403000801018A0003018A0010B5002AD3
:100530000DD1002914D10B4B1A681300BA331B8854
:100540005843136AC018084B1860080010BD0029F2
:1005500006D0064B196019005A60FFF7ABFFF5E7AC
:100560000348F3E7C4050008E40300087803000823
:1005700003018A00F7B5184F04003B680191DE685B
:100580003368834226D90025A94202D1FFF7A5FD91
:10059000050038680368002B1ADA1F220123224065
:1005A000934064097268A4001419226813420DD0A4
:1005B0009A43226000240021FFF75EFE019B002B7E
:1005C00002D12800FFF78DFD2000FEBD034CF2E7AD
:1005D000034CF3E7034CF7E7E4030008020188004B
:1005E0000301880004018A000A4B1B68DB681A6853
:1005F00082420DD959681F23420918401E3B83408F
:10060000920050581840431E9841034BC018704741
:100610000248FCE7E40300080001880004018A00A6
:10062000054B1B681A0088321B6812689B181868F3
:10063000000AC0B27047C046C4050008044B1B68DE
:100640001A0088321B6812689B181868000E7047E1
:10065000C4050008024B18694007C00F7047C04628
:1006600000002740A6220549D2008B580220DB4318
:100670009B0702D00123885818407047000026408D
:1006800010B5FFF7EFFF0023022801D1014B1B68D3
:10069000180010BDEC030008094A83009B18D02203
:1006A0009200985807221040042807D1C0229200D7
:1006B00098581F2303408020400018437047C046CD
:1006C0000000264010B5FFF7E7FF02281CD005D830
:1006D000002824D0012814D0002014E01223FF3376
:1006E000984214D01423FF33984215D0033B98420C
:1006F000F2D10C4A0C4BD358002BEDDA80200002CB
:1007000001E00A4B186810BDFFF7BAFFFBE7FFF7DF
:10071000A1FF0028E0D0F1E7024A054BEBE70548CE
:10072000F1E7C046000026400C050000E803000881
:100730003C05000000127A00B023154ADB00D358B4
:1007400010B59903DB01DB0F890BC371114B0160FD
:10075000D3580F24D904DB01DB0D0381B123DB0067
:10076000D358C90C81801900214081721909214098
:10077000C172D9029B009B0F8373074BC90CD358DE
:1007800081815A05DB01520FDB0D8271038210BD9E
:1007900000002640840500008C05000010B5104BB9
:1007A000421E1B683F331B78934216D97F221F24B9
:1007B0008030FF300B4B8000C3581A400A701A0C6F
:1007C0002240180A8A701A012040E2404870002036
:1007D0009B009B0FCA700B7110BD0348FCE7C0461D
:1007E000C40500080000264001004A00F0B589B0A9
:1007F00003AC14220021200000F0F6FD2000FFF7DA
:100800009BFFB0231A4ADB00D25800239A4203DA36
:10081000A37B023B5A1E9341E57900266A1E95414F
:100820000135B34221D0A488B4421ED0039B3000CE
:100830000193FFF747FF2A00330007003100200033
:1008400000F0BCFC0C0005003300019A31003800B8
:1008500000F0B4FCE6076A08324363088018594187
:100860002A00230000F08AFC0600300009B0F0BD29
:1008700000002640F0B50026244B85B01B68070019
:100880003F331B78B3423ED0B0423CD083423AD390
:100890000522310002A800F0A7FD02A93800FFF7E9
:1008A0007DFF3B008033FF33194A9B009B58B342C6
:1008B00029DA02AB1B79022B25D002AB5C78B4425B
:1008C00021D09D78B5421ED01B7838000193FFF7E8
:1008D000F9FE2A00330007003100200000F06EFC12
:1008E0000C0005003300019A3100380000F066FC6E
:1008F000E6076A0832436308801859412A0023003A
:1009000000F03CFC0600300005B0F0BDC405000856
:100910000000264010B5041E04D1FFF767FF002831
:1009200006D008E0064B1B683F331B78834203D296
:100930002000FFF7C7FE10BDFFF79CFFEFE7C046A2
:10094000C4050008E02210B50124094B8000920084
:10095000C018835880589B069B0F9C400F2318405B
:10096000FFF7D8FF63081818210000F07BFB10BDCB
:1009700000002640144B30B51A68072413002C33AE
:100980001B781F2B15D883081D00A5432C1E0FD1E3
:1009900003342040A040814012689B002032D318CD
:1009A0000A00FF2181401C686240114061401960CB
:1009B00030BD802320401B06184380239B01126812
:1009C000C91889008850F3E7C4050008064B9A68E7
:1009D0000300064810339B00824202D19858995078
:1009E0007047034AD058FBE700ED00E00000000824
:1009F00000000010F8B506000D0000283AD00023D2
:100A0000C05E002828DB7188FFF7B4FF0024FF22B6
:100A1000032794460023F05E716883B21F40FF00F5
:100A20006646BA4089013140D243B940002815DBFF
:100A3000114E83089B009B19C026B6009F593A406F
:100A4000114399510D4B9A680D4B9A4202D12900DE
:100A5000FFF7BCFF2000F8BD0A4CD8E70F26334053
:100A6000083B064E9B089B009B19DE6932401143F0
:100A7000D961E7E7034CEDE700E100E000ED00E0BD
:100A80000000000801005600FEE7000002680A4B63
:100A900010B51A6042685A6082689A60C268DA606B
:100AA00002691A6142695A6182699A61C269DA61AE
:100AB000FFF7EAFF10BDC04690030008B0235B05B6
:100AC0005A782120002A01D05878C0B27047B0234C
:100AD0005B059A89002A02D0988980B270478020ED
:100AE0004000FBE77FB5274B86000D00F458042932
:100AF00001D0012927D100200FE0A3682B420BD1A0
:100B0000E36829001A685B6802920193039302A8C4
:100B1000236898471C4B1C606469002C0BD01B4B4E
:100B20009842EAD1012DE8D1174B18481A68184BA2
:100B30009A5104B070BD012DFBD1144B9842F3D0F3
:100B4000134B9C51F5E7022906D10F4B1B68181E69
:100B5000EFD01C6903E01C006369002BFBD100206F
:100B6000002CE6D0A3682B4209D1E36829001A685B
:100B70005B6802920193039302A823689847246953
:100B8000EEE7C046300400082C040008FF004200D5
:100B9000180400081A4B1B68190088311A68096884
:100BA00051180968016219008C31096852181268DD
:100BB00042621A0046321278002A1FD09A68E03248
:100BC0001268D2061AD5F222DB68D2019A58026066
:100BD000F022D2019A5842600A4A9A5882600A4A20
:100BE0009A58C260094A9A580261094A9A58426161
:100BF000084A9A588261084A9B58C3617047C046A8
:100C0000C405000804780000087800000C78000093
:100C10001078000014780000187800001A4B1B6848
:100C20001A008832196812688A18016A11601A005D
:100C30008C32196812688A18416A11601A004632AB
:100C40001278002A1ED09A68E0321268D20619D5AE
:100C5000F0224168DB68D201995081680B4A9950B3
:100C6000C1680B4A995001690A4A995041690A4A78
:100C700099508169094A9950C169094A9950016896
:100C8000E83299507047C046C40500080478000057
:100C9000087800000C78000010780000147800003C
:100CA00018780000F7B50700FFF708FF664D06004B
:100CB0006B68002B00D07DE0FFF70FFA6B680090A7
:100CC000002B00D089E0614C22681300BA331988E8
:100CD00007234B43126A9B181A68002AFCDADB6868
:100CE000DA0021D51B0F1B0759480193FFF752FF6C
:100CF0005849212E00D075E02268902013008833D7
:100D00001C68136800011C1923680B40034323600F
:100D100013008C3312681B68D3181A6811400843FB
:100D200018604B4B019A13438022484E920531685C
:100D300013430A00BA321088072200244243096A8A
:100D40005218D36054605368FFF7C1FE80235B00E4
:100D500098425DD1380000F05BFB32681300BA3373
:100D6000198807234B43126A9B181A68002AFCDA79
:100D7000DF68FB0003D538010009FFF74FFF364B52
:100D800032681F401300BA33198807234B43126A95
:100D900000989B180022DF605A60FFF7A2F9002C30
:100DA0000FD16B68002B03D008210120FFF79AFEBA
:100DB0002000FEBD01210800FFF794FE041E00D1B3
:100DC0007AE76B68002B03D002210120FFF78AFE2F
:100DD000224B9C42ECD0224CEAE704210120FFF791
:100DE00081FE70E720688022030088331C68036856
:100DF00052001C1923680B401343236003008C33FB
:100E000000681B68C318186801400A431A6088E725
:100E100033681A00BC32196A126852181168002926
:100E200010DBBA331B889A181368002B0ADB0423E3
:100E30000C4A11690B431361012F01D030BF8CE7BD
:100E400020BF8AE7054C88E730040008C405000885
:100E5000F0030008FF00FFFFFFFFFFDF0500420077
:100E6000FF00420000ED00E0C02280200649520051
:100E70008B58C0059B009B0803438B5080238858E8
:100E80001B0603438B5070470000264010B562B626
:100E9000034800F0C1F80020FFF704FFFBE7C0465D
:100EA0000020001010B50020FFF7F8FA10BD7047C1
:100EB00010B50020FFF746FD041E25D0134B186027
:100EC000FFF7BCFB411C200000F0CCF8104B0400E5
:100ED0001860FFF7A5FB411C200000F0C3F80D4B84
:100EE000441E18600C49200000F0BCF8FA210B4B9E
:100EF000013018708900200000F0B4F8084B013070
:100F00001860084BC003186010BDC046840000087C
:100F1000880000088000000840420F00940000088C
:100F2000900000088C00000810B52048FFF71CF95D
:100F3000B022E02130201E4CD200A35889005B0073
:100F40005B08A35063588343635080235B04A35022
:100F5000184B194AE250A02204339201E250FF22BA
:100F6000164BE250FFF780FFC02201215200A35828
:100F70008B43A350FFF79BFFFFF79AFF104B032013
:100F80001A681300BA33198807234B43126A802169
:100F90009B180022DA605A600A4AFFF7C7FA0A482B
:100FA000FFF79AF90948FFF7D3F910BD2014001094
:100FB0000000264084050000010002008C050000AE
:100FC000C40500088003000844040008E014001071
:100FD0009023034A5B01D058032318407047C04652
:100FE0000000204010B59024FFF777F8074B64010C
:100FF0001A5907491140074A0A431A5110225968E1
:101000001142FCD0FFF76DF810BDC0460000204033
:10101000FCFF00000100FA05F8B590250E4C6D01AB
:101020000700FFF75AF863590600DB439B0701D11D
:10103000FFF7D8FF80239B00E7506359074A1A4007
:10104000074B13436351102362681A42FCD03000EF
:10105000FFF747F8F8BDC04600002040FCFF000045
:101060000300FA05002243088B4274D303098B4224
:101070005FD3030A8B4244D3030B8B4228D3030C68
:101080008B420DD3FF22090212BA030C8B4202D30A
:101090001212090265D0030B8B4219D300E0090A32
:1010A000C30B8B4201D3CB03C01A5241830B8B423B
:1010B00001D38B03C01A5241430B8B4201D34B0324
:1010C000C01A5241030B8B4201D30B03C01A524189
:1010D000C30A8B4201D3CB02C01A5241830A8B420E
:1010E00001D38B02C01A5241430A8B4201D34B02F7
:1010F000C01A5241030A8B4201D30B02C01A52415B
:10110000CDD2C3098B4201D3CB01C01A524183090E
:101110008B4201D38B01C01A524143098B4201D348
:101120004B01C01A524103098B4201D30B01C01A73
:101130005241C3088B4201D3CB00C01A52418308ED
:101140008B4201D38B00C01A524143088B4201D31A
:101150004B00C01A5241411A00D20146524110467A
:101160007047FFE701B5002000F006F802BDC04659
:101170000029F7D076E770477047C046002B11D1A1
:10118000002A0FD1002900D1002802D00021C94334
:10119000081C07B4024802A14018029003BDC046D3
:1011A000D9FFFFFF03B4684601B5029800F030F89C
:1011B000019B9E4602B00CBC7047C046F0B5CE46BF
:1011C000474615042D0C2E0080B50704140C3F0C67
:1011D0009946030C7E435D43674363437F19340C98
:1011E000E4199C46A54203D980235B029846C44477
:1011F0004B4643435143250C36046544360C2404C6
:10120000A4195B19591820000CBC90469946F0BDF2
:10121000F0B54F464646D646C0B5040082B00D0034
:10122000914698468B422FD82CD04146484600F034
:10123000CFF829000600200000F0CAF8331A9C46B7
:10124000203B9A4600D576E04B46524693401F001D
:101250004B46624693401E00AF4228D825D05346E5
:10126000A41BBD41002B00DA7BE00022002300928A
:101270000193012352469340019301236246934018
:10128000009318E08242D0D90022002300920193FB
:101290000A9B002B01D01C605D600098019902B090
:1012A0001CBC90469946A246F0BDA342D7D9002265
:1012B0000023009201936346002BE9D0FB07984678
:1012C000414672080A437B0866460EE0AB4201D1F4
:1012D000A2420CD8A41A9D41012024196D4100217D
:1012E000013E24184D41002E06D0AB42EED9013EFE
:1012F00024196D41002EF8D1009801995346001928
:101300006941002B23DB2B005246D3402A00644660
:10131000E2401C0053461500002B2DDB26005746EB
:10132000BE40330026006746BE403200801A994115
:1013300000900191ACE7624620239B1A4A46DA40AE
:101340006146130042468A4017001F4380E7624609
:1013500020239B1A2A0066469A402300F340134339
:10136000D4E76246202300219B1A002200910192BB
:101370000122DA40019280E72023624626009B1A70
:10138000DE402F00B0466646B74046463B0033433A
:10139000C8E7C0461C2101231B04984201D3000C5E
:1013A00010391B0A984201D3000A08391B099842D8
:1013B00001D30009043902A2105C40187047C046EE
:1013C000040302020101010100000000000000000E
:1013D00010B5002903D1FFF7DDFF203002E0081C23
:1013E000FFF7D8FF10BDC04603001218934200D18A
:1013F000704719700133F9E7F8B5C046F8BC08BC6E
:101400009E467047F8B5C046F8BC08BC9E4670477B
:1014100001B40248844601BC604700BF6102000875
:1014200000002040000024400000004000000000B8
:1014300000002340000030400000314000009F4089
:10144000000022400000104000009D40202020208D
:1014500020101010101D1D8017007500FF030602DC
:1014600006003604102000007FC0000000040000C9
:10147000000000000019324B647D00000000008075
:101480004000080B100000000000FF012002001FB8
:1014900000800004FF081018001000140018001C41
:1014A0004044484C500000000810000008000000B4
:1014B00004000000041000000012000004210000DD
:1014C000002100000016000040114002C413001368
:1014D0008013A01340138813A81320001C000000E1
:1014E00003000000010000000100000000000000F7
:1014F000050360000400000001000000000000007F
:10150000010000000604600008000000A4050008B7
:10151000A50E001000000000F8FCFF7F0100000095
:1015200000000010000000088000000040150010BE
:1015300080000008F8020000B00300081802000054
:1015400000093D0000127A0000093D000000D007AC
:10155000A00F000004000000A9000010810000108E
:1015600080B230B5C00020D0104B07221C68230089
:10157000BA331B885A43236AD31819680029FCDA46
:101580003E210B4B062519600A4B0B491960A3211C
:101590000A4BC9005D500A4958505858206A121821
:1015A000002050605A58002AFCDA30BDC4050008FB
:1015B00004012640080126401E1F000000002640AE
:1015C0001C05000010B54378FF2B11D100F0ECF89A
:1015D0000400032000F0F8F8C3685A68012311687A
:1015E0001943116011681942FCD1200000F00CF978
:1015F00010BDF7B500900020019100F0E5F83F4DD7
:1016000006002B681A005033BC3214681B7804198A
:10161000002B5AD000F0E0F8070003281BD000F0A0
:10162000C3F8374A374B0500D358002B3EDA364A09
:101630000121300000F0F0F8002837D10198FFF7C1
:101640008FFF009B002B3ED02368002BFCDB00F0BB
:10165000B3F804002BE0062000F0B6F82B68BC338A
:101660001B68C0180368002B02DA284C2000FEBD5E
:10167000002000F0B9F8264B9842F6D00023254A06
:1016800019001268012000F0B7F80025A842ECD13B
:10169000002000F0A9F81E4A1F4B904203D09D4243
:1016A000E3D00135F4E79D42B9D1DEE7174C032FB3
:1016B00005D10121002000F0B7F80028F9D1280059
:1016C00000F0A2F8D2E7154CF1E700F06DF80E4AF1
:1016D00005000121300000F09FF8002809D1009B8F
:1016E000002B08D02368002BFCDB00F065F8040019
:1016F000E5E7064CE3E7094CE1E7C046C40500080E
:10170000000026401C050000CC0300080500520024
:1017100001018800DC030008F049020001005000CC
:10172000184BF7B51B68184A5C68042311690B4312
:101730001361012824D030BF2300FC331B69002B28
:101740001DD1A320114B1249124AC0000F681E5828
:1017500015680195104D0D6006251D503E20106046
:101760000E483E351D501D58002DFCDA0C48FC3447
:1017700020610F60A321C9005E50019B1360F7BD7B
:1017800020BFD9E7C405000800ED00E000002640B6
:1017900008012640040126401E1F00001C05000011
:1017A000AAAAAAAA0000000001B40248844601BC0B
:1017B000604700BFDB00001001B40248844601BC52
:1017C000604700BF3902001001B40248844601BCE2
:1017D000604700BF7501001001B40248844601BC97
:1017E000604700BFD10F001001B40248844601BC1D
:1017F000604700BFE905001001B40248844601BCFF
:10180000604700BFB903001001B40248844601BC20
:10181000604700BFE300001001B40248844601BCE9
:10182000604700BF9D02001001B40248844601BC1D
:10183000604700BF750500100000000000000000B8
:101840000000000000000000000000000000000098
:1020000000F80F08252300100D0000009923001090
:10201000992300109923001099230010000000005C
:1020200000000000000000000000000051A30010AC
:102030009523001000000000F1A30010EDA2001095
:102040009523001095230010952300109523001070
:102050009523001095230010952300109523001060
:102060009523001095230010952300109523001050
:102070009523001095230010952300109523001040
:1022E00010B5054C237833B9044B13B10448AFF350
:1022F00000800123237010BD882C0008000000001E
:102300002C5D0E1008B5034B1BB103490348AFF316
:10231000008008BD000000008C2C00082C5D0E1011
:1023200070477047FFF7FCFF72B6144C144DAC4277
:1023300009DA21686268A368043BA2BFC858D0507C
:10234000FAE70C34F3E70F490F4A00209142BCBF73
:1023500041F8040BFAE70D480D490860BFF34F8FB1
:1023600000F03AFA00F01EFA07F00EFE5EF0F6FDFD
:1023700000F07AFB5EF0ACFDFEE70000385D0E1069
:10238000505D0E10882C0008E4330108002000087E
:1023900008ED00E0FEE7FEE700B5042071460842C4
:1023A00002D0EFF3098001E0EFF3088004304EF033
:1023B000C5FEFEE708B500F0A9F800F007F800F048
:1023C0009BF800F017F800F01DF808BD08B50021D3
:1023D00008464DF015FBFF22002108464DF084F918
:1023E000002108464DF0CAFA014843F055F808BDEF
:1023F000E074061008B5002211462F204DF082FA35
:1024000008BD000010B5264C264A0021204647F0A2
:1024100021FF254843F040F8244A0121204647F097
:1024200019FF234843F038F8224843F035F804F503
:102430004074214A0421204647F00CFF1F4843F016
:102440002BF81F4A0621204647F004FF1D4843F0A1
:1024500023F81D4A0721204647F0FCFE1B4843F0A5
:102460001BF81B4843F018F81A4843F015F81A48AF
:1024700043F012F8194843F00FF8194843F00CF8EC
:10248000184843F009F8184843F006F8174843F095
:1024900003F8174843F000F8164842F0FDFF10BD5E
:1024A00000003140B8750610EC750610F075061086
:1024B000247606100C75061080750610B47506108B
:1024C000487506107C7506101075061044750610C8
:1024D000E4740610E8740610EC740610F07406102C
:1024E000F4740610F8740610FC74061000750610DB
:1024F0000475061008750610024B33229A601A61A3
:10250000704700BF00203040FEE7000030B583B0C8
:10251000962100204EF064FE4EF0F4FDC0B9734BDE
:10252000D3F8004F04F03F044EF0DCFD30B1012041
:102530004EF0CEFD6E4B9B6C002B24DB6B4BC3F837
:10254000004F4DF015FD4DF001FD01204DF024FD33
:1025500001204FF09BFB4FF041FB4FF01BFC4FF075
:1025600005FC002108464DF05BFC00204DF0C6FB49
:1025700001204DF0ABFB00204DF0BEFA5D4B1B6817
:1025800093F83F4006E00620FFF7BEFF20464EF0DE
:102590001DF9013C002CF9D1002101204DF076FD00
:1025A00000204DF02BFC002800F084804DF022FE2E
:1025B000002108464DF06AFD002108464DF0FEFB63
:1025C0004D4D00240094234622462146284647F0DC
:1025D0003BFD0094234622460121284647F034FD66
:1025E00046484DF08DFC002870D101204DF056FB7F
:1025F00000204DF083FB00204DF068FB00204DF0E3
:102600007BFA002101204DF041FD002108464DF0EC
:102610003DFD002102204DF039FD002103204DF049
:1026200035FD002104204DF031FD002105204DF045
:102630002DFD33484DF0F8FD00284AD131484EF0C9
:1026400053F8002848D1002108464DF0B7FB00217F
:1026500008464DF0E5FB2C4901204EF0DDF800283E
:102660003DD142F2107101204EF0FEF9002839D11F
:1026700000204DF0ABFA4DF069FC01204DF08CFCD0
:10268000642100204EF0ACFD00F052F81F4842F0EB
:1026900003FF1F4842F000FF1E4842F0FDFE1E48A7
:1026A00042F0FAFE1D4842F0F7FE1D4842F0F4FEEB
:1026B00003B030BD4DF018FD40F2111398427FF485
:1026C00075AF012100204DF079FB6FE70520FFF782
:1026D0001BFF0420FFF718FF0420FFF715FF03205E
:1026E000FFF712FF0320FFF70FFF00BF00F02740A6
:1026F000000027401C2801080000314040420F0024
:1027000028760610400D0300547606103C7606101D
:102710004076061044760610487606104C76061071
:102720005076061008B5012047F0D8FF08BD704765
:1027300010B500204EF0B2FB00B910BD0446114B9D
:1027400018604DF0D1FA0130B4FBF0F00E4B186078
:102750004DF0E2FA0130B4FBF0F40C4B1C60013C8C
:102760000B4BA3FB04239B0C01330A4A13700A4B47
:10277000A3FB04239B090133084A1360DB03084AC7
:102780001360DAE7E4220008E8220008E0220008EB
:1027900083DE1B43F4220008D34D6210F0220008B0
:1027A000EC22000808B5094846F06AFEFFF7BFFFB3
:1027B000FFF7BEFF00221146032047F0E5FF044863
:1027C00047F042FE034847F097FE08BDD89B07102C
:1027D000A42C00085C76061008B501F06EF8074AD4
:1027E000D2F8883043F47003C2F88830BFF34F8FBB
:1027F000BFF36F8F01F065F808BD00BF00ED00E08A
:1028000008B504484EF06EFE08B1002008BD02482D
:10281000FCE700BFF82200080000020600487047ED
:102820002C2E000810B584B042F034FE044638B1B6
:1028300054B1FFF7BFFD6CB184B1204604B010BDA8
:1028400045F080FD0446F3E740F6E441002045F002
:102850000BFEEEE7FFF7D4FF0446EDE713230293E8
:1028600012230193112300931023152214210248EF
:1028700044F030FF0446E0E72C2E000870470000CB
:1028800008B5034860F0B6F8024B00221A7008BD84
:10289000907606109C2E000890B5ADF5835D83B050
:1028A00002AF09F0EDFF002864D107F5825118311D
:1028B000002008604860604B0B60502307F582528F
:1028C0001C32138007F582531433009303465B4A8E
:1028D0000AF078F8002852D141F28832114607F503
:1028E0008253143318680AF0D5F900284CD05448A4
:1028F00060F080F801BE07F154033B644FF480534D
:102900007B64002387F838304FF0FF33FB643B656E
:102910004C4BFB634C4BBB620423FB62464B3B635B
:102920001E237B63012307F1280207F1380107F515
:102930008250143000680AF05DFA044658BB7CBB34
:10294000424B1B78002B35D03B1D009300231A46C9
:1029500007F1380107F58250143000680AF02CFCAA
:1029600018BB3B6A053323F00703ADEB030D02A848
:1029700001234CE0364860F03DF801BE95E735484C
:1029800060F038F801BEA7E7334860F033F82F4B0A
:1029900001221A70AFE7314860F02CF801BECEE793
:1029A0002E4860F027F801BECAE72D4860F022F8F3
:1029B00001BED6E741F28832114607F5825314333F
:1029C00018680AF067F9B0B11D4860F013F801BE4D
:1029D0003B1D009300231A4607F1380107F582508A
:1029E000143000680AF0E8FB0028BAD01C4860F0F8
:1029F00001F801BEB5E718485FF0FCFF134B012258
:102A00001A70E5E7F9695A1EC95C815401333A6AC4
:102A1000013A9A42F6D8002181540A2261F0BCF8AA
:102A2000044601460F485FF05FFF204607F58357D5
:102A30000437BD4690BD00BFDC760610812800102B
:102A40001C77061064770610807706109C2E00080D
:102A5000B0760610FC7606103C77061088770610D4
:102A6000AC770610C877061010B582B0FFF7DAFE13
:102A700000B101BE62B64FF4E132282129204FF0A7
:102A800053FC0E485FF030FF0D485FF0B3FF0D4878
:102A90005FF0B0FF0C485FF0ADFF0024019402230B
:102AA000009323464FF400620849094808F0C5FD29
:102AB00008F058FE01BE204602B010BDEC770610AB
:102AC000F8770610387806105078061094780610BB
:102AD0006132001000B585B000225021134840F04B
:102AE00037FCB8B9124A02AB92E8030083E803004E
:102AF0000093FF2350220D490E4840F0B1FA0146E1
:102B000070B90D485FF076FF0C485FF073FF05B0B9
:102B10005DF804FB01460A485FF0E6FE01BEE1E70E
:102B200008485FF0E1FE01BEEBE700BFAC2E0008F5
:102B3000107A0610A02E00080C79061040790610B5
:102B4000A8780610D078061010B5074840F07CFB36
:102B5000064C84FB0034C017C0EBA4142146044883
:102B60005FF0C2FE204610BDA02E0008D34D6210BB
:102B70006879061008B5FFF7E7FF07EE900AF8EE50
:102B8000E77A17EE900A08BD72B601BE704730B5FD
:102B900085B00D461446002301930093012302469D
:102BA0007721204642F066FF18B10020288005B04A
:102BB00030BD0123019300230093022303AA772150
:102BC000204642F0A3FF0028EFD19DF80C209DF88D
:102BD0000D3043EA02232B800120E8E730B585B0B1
:102BE0000D461446002301930093012302467721EA
:102BF000204642F03FFF18B10020288005B030BDCC
:102C00000123019300230093022303AA7721204686
:102C100042F07CFF0028EFD19DF80C209DF80D308C
:102C200043EA02232B800120E8E7000000000000B7
:102C3000F0B587B046485FF057FE464A0023137050
:102C400053804549516030223121444842F0EAFD29
:102C500048BB4049414842F0CFFE38BB40485FF096
:102C6000C9FEB2238DF80F30B4238DF80E30BC238B
:102C70008DF80D30BE238DF80C30384A0DF112015D
:102C80000DF10F00FFF7AAFF30B1344A04A90DF18E
:102C90000E00FFF7A3FF60B932485FF025FEFFF793
:102CA00073FF07B0F0BDFFF76FFFD2E7FFF76CFFD0
:102CB000D4E72A4A0DF116010DF10D00FFF767FF69
:102CC0000028E9D0254A05A903A8FFF760FF0028DE
:102CD000E2D0BDF9166030465DF05AFB18A3D3E987
:102CE00000235DF0BFFB204BC3E90001BDF9147068
:102CF00038465DF04DFB00221C4B5DF0DDFC1C4BAB
:102D0000C3E90001BDF8124020465DF041FB0EA36F
:102D1000D3E900235DF0A6FB164BC3E90001BDF823
:102D2000105028465DF024FB134BC3E900010097C7
:102D300033462A46214611485FF0D6FDB1E700BF71
:102D40007B14AE47E17AB43F9A9999999999893E53
:102D5000847906103C300008801A0600A82F00086D
:102D6000A4790610D47906104830000800006440A9
:102D700050300008982F0008A02F0008AC790610EA
:102D800030B587B042F6F463ADF81430F6238DF811
:102D900010300123019300230093022305AA772119
:102DA0002B4842F067FE18B12046294607B030BDD7
:102DB000002301930093012304AA7721244842F0C1
:102DC00059FE0028F0D10123019300230093022330
:102DD00003AA77211E4842F099FE0028E4D19DF80D
:102DE0000C005DF0D5FA00221A4B5DF03BFB044667
:102DF0000D469DF80D005DF0CBFA02460B462046CD
:102E000029465DF079F9144BD3E900235DF072F99E
:102E1000124BD3E900235DF025FB04460D46104B11
:102E2000D3E900235DF068F902460B460D49D1E96C
:102E300000015DF041FC22462B465DF05DF9044641
:102E40000D4602460B4608485FF04EFDACE700BF5A
:102E5000A82F000800007040A02F0008982F00083D
:102E60005030000848300008FC79061008B5FFF71C
:102E700087FF5DF009FD08BD10B584B03EF0C6FFC8
:102E800050BB1D4A136843F0040313604FF40070F5
:102E900007F0CEFB194B186018B3174A136843F0BC
:102EA00008031360164B029300230193154B009304
:102EB000154B164A12684FF400713FF001F80446B2
:102EC000A8B90D4A136843F01003136010485FF06F
:102ED00091FD204604B010BD04460E485FF08AFD07
:102EE000F7E70D485FF086FD4FF0FF34F1E70B4840
:102EF0005FF080FDEDE700BF643000085C30000843
:102F000058300008ED310010142300087C2300081D
:102F1000DC8A0610908A0610B88A0610088B061004
:102F200030B5A5B052F0A8FE18B10025284625B04E
:102F300030BD7822002106A85EF094F92D4A06AB38
:102F400007CA03C31A802C4C0FCCCDF83900CDF83A
:102F50003D10CDF84120CDF8453003CCCDF84900E7
:102F6000CDF84D1023788DF85130244B1F9306A9CE
:102F700023485FF0B9FC00242546772C32D801A9FC
:102F800006A852F065FC054668B1C4F1770341F22A
:102F9000883201461B485FF0A7FC41F2883008F0F8
:102FA0006DFD0134E9E706A917485FF09DFC174A5B
:102FB000136843F0020313609DF80430042B09D01A
:102FC000062BB3D102A812F09DFC014610485FF019
:102FD0008BFCABE702A810F0B5FD01460D485FF091
:102FE00083FCA3E70C485FF005FD0A210B485FF066
:102FF0007BFC9BE7288B0610348B061004004000F6
:10300000508B0610D88B0610708B061064300008A9
:10301000BC8B0610A08B0610388C0610688C06102E
:1030200010B5044606F0F9FC0346064A182120466E
:103030005FF016FE002801DB002010BD4FF0FF30CE
:10304000FBE700BFA08C061070B588B002AC344D11
:103050000FCD0FC42B6823800023CDF81A30ADF8B4
:103060001E30304B304A9A60304A1A610A229A81E7
:103070000F229A8202A8FFF7D3FF054688B9294E8E
:1030800002AC346020465FF09BFE81B2B180284BD9
:103090001A6800929B88224626485FF025FC2C4641
:1030A00017E025485FF0A6FC2FE01E49234B186867
:1030B0003FF02EF8054600B3C4F195034FF4FA62D1
:1030C00001461F485FF010FC4FF4FA6008F0D6FC90
:1030D0000134952C1CD852F0CFFD0028E5D11948B9
:1030E0005FF088FC184A136823F002031360FFF7AF
:1030F00017FF05460028D8D007E014485FF07AFC97
:10310000114A136843F020031360284608B070BDCD
:103110000F485FF06FFC05210E485FF0E5FBF4E718
:10312000409106101C230008B88C0610C48C0610B1
:1031300014230008D48C0610108D06105830000897
:10314000C48D0610548D061064300008A48D06103E
:10315000188E0610448E061008B51F4B1B6813F01E
:10316000200F19D11C4B1B6813F0100F1CD11A4BE8
:103170001B6813F0080F1CD1174B1B6813F0040FCA
:103180001CD1154B1B6813F0020F1AD1124B1B6890
:1031900013F0010F1DD108BD10485FF02BFC104B40
:1031A00018683FF079FBDDE70D4B18683FF0ACFB8A
:1031B000DDE70C4B186807F04BFADDE73FF0F8FB52
:1031C000DFE752F0E7FA0028E0D107485FF012FC91
:1031D000DCE752F081FEDEE764300008788E0610EE
:1031E000583000085C300008A08E061084B000B58E
:1031F00083B005A880E80E009DF81430D3B1012BF0
:1032000021D1134A136823F02003136011485FF0A3
:10321000F1FB02238DF8073000234FF0FF320DF150
:1032200007010D48006807F0C6FB03B05DF804EB2A
:1032300004B07047064A136843F04003136007A8C0
:1032400000F0ECFAF1E705485FF0D4FBEDE700BFD2
:1032500064300008C08E061060300008F08E061042
:1032600010B588B000228DF80C200121032007F052
:1032700044FB664B186003A852F02EF908BB644A61
:10328000136843F00103136062485FF0B3FBFFF77C
:1032900047FEC8B9FFF7F0FDB0B9FFF7D5FE98B902
:1032A0005D4B01930223009300234FF480625B493E
:1032B0005B4808F0C2F9012822D05A485FF09AFB17
:1032C00002E059485FF096FB58485FF093FB524B81
:1032D000186808B108F0E6F9554B186808B108F00D
:1032E000E1F9544B186808B108F0DCF9FFF734FF36
:1032F00051485FF07FFB002008F0D4F908B010BD02
:103300004FF4FA6008F0BAFB494B01930223009393
:1033100000234FF400624949494808F08EF901281A
:1033200003D048485FF066FBCEE7424B019303238E
:10333000009300234FF4A0524349444808F07DF91C
:10334000012803D042485FF0CFFABDE7414B01931B
:103350000423009300234FF400623F493F4808F0E4
:103360006CF9012803D03E485FF0BEFAACE73D4857
:10337000FFF784FA1BE03C485FF03CFBFFF764FE7C
:103380000028A1D100248DF81C4023464FF0FF32C5
:1033900007A93648006807F00EFB8DF81040234659
:1033A0004FF0FF3204A93248006807F004FB4FF0E9
:1033B000FF320DF11F01154B186807F0D7FC0128EB
:1033C000F5D19DF81F30022BF1D101238DF810307B
:1033D00000234FF0FF3204A92548006807F0EBFAFC
:1033E000244B18683FF058FA52F046FC0028C2D12E
:1033F000074A136823F0020313601F485FF0FAFACC
:10340000FFF78EFD0028B6D05EE700BF60300008F1
:1034100064300008508F061078300008788F06104E
:1034200091370010888F06101C8F0610E49006104C
:103430006C3000087430000814910610B08F06102C
:1034400095350010C08F0610E48F0610513600101D
:10345000FC8F0610683000082C9006107D34001098
:103460004090061068900610C49006107C3000084A
:103470007030000858300008A090061000B591B0D8
:1034800062B6002203920123029301920093FF226D
:10349000512105A842F0BCFE60B93C220D4905A8A7
:1034A00043F00AF8014658B905A843F03DF8014633
:1034B00058B9FEE7014608485FF016FA01BEECE78E
:1034C00006485FF011FA01BEEEE705485FF00CFA1E
:1034D00001BEEEE700004842589106108C9106109C
:1034E000C891061008B5012302220021042041F0F2
:1034F00093FD00220549042041F0D4FD012305225B
:103500000221042041F0E6FD08BD00BF1135001086
:1035100000B585B00023039302238DF80030104BD3
:103520000293104B1B68BBB90F4B0193002303AAF6
:1035300069460E48006807F03BFB039B4BB14FF018
:10354000E0234FF08052C3F8042DBFF34F8FBFF339
:103550006F8F05B05DF804FB054B0193E6E700BFF4
:10356000FC910610942300080892061070300008A1
:103570001492061008B500221146042041F092FD75
:10358000002305220221042041F0A4FD042041F083
:103590007BFE08BD70B584B0FFF7A4FF00220C21AC
:1035A000032007F0AAF9234B186001E0FFF7E2FFC0
:1035B0004FF0FF3201A91F4B186807F0D7FB012815
:1035C000F6D19DF80430012BF0D0022B04D0002B53
:1035D000EED1FFF787FFEBE7039E174C666030469E
:1035E0005FF0EEFB2081029DE56028465FF0E8FB7E
:1035F00020613246294611485FF076F92146104B8A
:1036000018683EF073FE014618B90E48FFF736F908
:10361000CEE70D485FF068F901238DF803300023F1
:103620004FF0FF320DF103010848006807F0C3F9BD
:10363000EBE700BF70300008802300081C920610E2
:10364000583000088892061050920610603000082A
:103650002DE9F0438BB002238DF81C3064205DF01F
:10366000B9FD8146FFF736FAFFF7E2FA0026354644
:1036700034462BE0FFF710F90446002006F0B6FCB4
:1036800005460026002CF5D0B6F5967FF2D800202E
:1036900006F0ACFC461BA319049340465CF08AFE7E
:1036A000CDE9020138465CF085FECDE90001022239
:1036B0000D4948465FF008FBCDF8209000234FF4F9
:1036C0007A7207A90948006807F075F9084B099351
:1036D00041F2883008F0D2F9FFF7C8FB0746FFF740
:1036E00049FA8046CEE700BFCC9206107030000841
:1036F000BC92061030B583B00024254604E04FF498
:103700007A7008F0BBF90134022C0ED8012211495D
:10371000114B18683EF0E0FE05460028EFD10D4B36
:103720005A6819890D485FF0DFF80DB903B030BD54
:10373000032229460A485FF0D7F800238DF80730A6
:103740004FF0FF320DF107010648006807F033F92A
:10375000ECE700BF98230008583000080C930610CF
:10376000489306106030000808B501220549064B51
:1037700018683EF0BFFF00B908BD014603485FF07E
:10378000B3F8F9E79823000858300008889306102A
:1037900000B583B00123022219466F2041F03CFCA2
:1037A000FFF7A8FF00220221012007F0A6F8174B1F
:1037B000186001E0FFF7D8FF4FF0FF3201A9134B6B
:1037C000186807F0D3FA0128F6D19DF80430012BD0
:1037D000F0D0022B04D0002BEED1FFF78BFFEBE7EC
:1037E0009DF805200A4B1B689869003A18BF012212
:1037F000072100F5D06046F089FC9DF80520054BB7
:103800001A600548FFF73AF8D6E700BF7C30000899
:103810001C28010894230008C093061030B585B019
:10382000C56804690195009490F9003042680189E7
:1038300017485FF059F802238DF80C30072C17D089
:10384000082C20D12246294612485FF0C1FAD0B98F
:1038500001238DF80D301048FFF710F800234FF0CA
:10386000FF3203A90D48006807F0A5F805B030BD88
:10387000224629460A485FF0ABFA0028E0D100232F
:103880008DF80D30E7E707485FF0B4F8EEE700BFCA
:10389000EC93061008920610A49406107C300008E1
:1038A00014920610689406100230800803D001308C
:1038B0000238FCD100BF00BF7047EFF3108072B632
:1038C000704780F310887047034B0360034B0B6015
:1038D00080231360704700BF9836000898300008B6
:1038E000034B0360034B0B604FF48073136070470E
:1038F000943700089832000830B583B0054600239D
:1039000001931F4B1B68C3B11D4B1B689BB1FFF795
:10391000D4FF044608F0BEFA50B14FF47A7005FBAC
:1039200000F01849A1FB00318D09B0F57A7F0ED265
:103930002046FFF7C6FF03B030BD134842F02EFB10
:1039400018B90F4B104A1A60DEE701BEDCE701230D
:1039500001AA29460A48006844F028FD0028E7D15A
:10396000019BAB4200D901BE019B4FF47A7000FB72
:1039700003F30448A0FB0330800907F05DFFD7E79D
:1039800080300008D34D62108430000808B508F07C
:1039900041FE03680BB14068984708BD2DE9F04728
:1039A00084B00C9D002843D00F4690461C468146AB
:1039B000B5F5967F3ED313B113F0070F3ED184B314
:1039C000002606F5847006F033FE8246002837D0C4
:1039D00025F00705AD083CB3564403220021012021
:1039E00006F08BFFC6F8FC0000B3184BC6F8003198
:1039F000C6F804A116F0070F00D001BE029601948C
:103A00009DF8343000930E9B2A464146384607F015
:103A1000D3FDC9F80000864214D0A8B101BE002031
:103A200009E025F00706CCE70446D5E701BEDCE750
:103A3000074800E0064804B0BDE8F0870548FAE70B
:103A40000548F8E70020F6E70020F4E701EFCDABEA
:103A500005000E0606000E0601000E0610B508F061
:103A60003DFA0446D0F80021074B9A4204D001BE2B
:103A7000204608F0CFF8FBE700231A461946D0F895
:103A8000FC0006F098FFF3E701EFCDABE0B110B515
:103A90000446006807F006FE246807F0BFFED4F86D
:103AA00000210A4B9A4203D007F06CFF002010BDA2
:103AB0000023C4F80031D4F8FC0007F087FBD4F8E9
:103AC000040106F0C5FDEFE70148704701EFCDABFB
:103AD00005000E06A8B110B504460368D3F800111E
:103AE000094A914203D000200023236010BD4FF00B
:103AF000FF31D3F8FC0007F0E8F92046FFF7C6FFD6
:103B0000F2E70248704700BF01EFCDAB05000E069B
:103B100080B110B50446017131B1042007F01CF8E2
:103B2000206028B1002010BD012007F015F8F7E74C
:103B30000148F8E70148704701000E0605000E062F
:103B4000B0B108B54FF47A7202FB01F1094AA2FB49
:103B50000121890902792AB1006807F087FA28B1A2
:103B6000002008BD006807F0B0F9F8E70248F8E760
:103B700002487047D34D621000000E0605000E0685
:103B800088B108B503792BB1006806F0F0FF40B1A9
:103B9000002008BD00231A461946006806F00BFFF6
:103BA000F5E70248F5E70248704700BF02000E063D
:103BB00005000E0628B108B5006807F007FB0020D5
:103BC00008BD0148704700BF05000E0660B110B582
:103BD0000B4611460446184606F0CDFE206008B19B
:103BE000002010BD0148FCE70148704701000E06A7
:103BF00005000E0600B583B000230193D8B103463B
:103C000002B1D1B94FF47A7000FB01F10E48A0FB6C
:103C1000010189094AB101AA0021186807F047FA91
:103C200068B1002003B05DF804FB186807F04DF997
:103C300038B10020F6E70548F4E70448F2E7044805
:103C4000F0E70348EEE700BFD34D621005000E0613
:103C500000000E0600B583B000230193F0B181B1DE
:103C600001A9006807F01BF8019B83B14FF0E02326
:103C70004FF08052C3F8042DBFF34F8FBFF36F8F07
:103C800005E000231A461946006806F094FE18B1B4
:103C9000002003B05DF804FB0148FAE70148F8E7AB
:103CA00002000E0605000E0628B108B5006807F0F0
:103CB0008DFA002008BD0148704700BF05000E06C0
:103CC00068B110B50B46114604460022184606F0AE
:103CD00014FE206008B1002010BD0248FCE7024835
:103CE000704700BF01000E0605000E06C8B1D1B135
:103CF00008B53BB100231A46006806F059FF70B1C1
:103D0000002008BD4FF47A7303FB02F2074BA3FBBC
:103D1000023200239209006806F04DFEEFE70448E6
:103D2000EFE7044870470348704700BFD34D621067
:103D300002000E0605000E06B8B1C1B108B533B1D8
:103D40000022006807F0B3F968B1002008BD4FF405
:103D50007A7303FB02F2074BA3FB0232920900685D
:103D600007F004F8F0E70448F0E704487047034818
:103D7000704700BFD34D621002000E0605000E060C
:103D800028B108B5006807F021FA002008BD0148F5
:103D9000704700BF05000E0630B32DE9F04182B038
:103DA00014461D4607460AB3B1B94FF00108082072
:103DB0005DF010FA0646D8B1046045600D4B0093E3
:103DC0000346424601210C4808F05CFA386030B1E5
:103DD000002002B0BDE8F0814FF00008E7E7304670
:103DE0005DF000FA0548F4E7054870470448F0E73D
:103DF0000248EEE78D3900100C20071001000E0676
:103E000005000E0618B310B582B004464FF47A725E
:103E100002FB01F10F4AA2FB013200230093920939
:103E20000421006808F04AFA012803D068B1002094
:103E300002B010BD246807F0F9FC0246002300938D
:103E40000121204608F03AFAF0E70348F0E703487A
:103E5000704700BFD34D621002000E0605000E062B
:103E600078B100B583B000220092134603210068A8
:103E700008F024FA18B1002003B05DF804FB0248F2
:103E8000FAE70248704700BF02000E0605000E0662
:103E900058B110B50C4651B1006808F0A0FB0038CD
:103EA00018BF01202070002010BD02487047014853
:103EB000FAE700BF05000E06B0B130B583B0054685
:103EC000006808F0A7FB0446002200921346052173
:103ED000286808F0F3F910B9044803B030BD204653
:103EE0005DF080F90020F8E70148704702000E06F7
:103EF00005000E0630B110B5044607F097FC2060AF
:103F0000002010BD0048704705000E0608B54FF4AC
:103F10007A7303FB00F0044BA3FB0030800907F029
:103F2000ADFD002008BD00BFD34D621010B582B0BA
:103F3000044600234FF0FF3269462046FFF7FCFE9F
:103F40000028F6D1009B13B101989847F1E7FFF7DD
:103F500085FD02B010BD000070B584B004460E4669
:103F600001B100B901BEB36813B1736803B901BEF2
:103F7000002323606360A360E360316901B910210D
:103F800008222046FFF79CFE054680B901232373D3
:103F900004F10800F2686AB10294337801937368FF
:103FA0000093B3680749FFF7F9FC054620B9284696
:103FB00004B070BD044AEFE7002323732046FFF7E7
:103FC000DFFEF4E72D3F0010C094061070B582B0FC
:103FD0000446FFF772FC0546237B002B3ED0012BE5
:103FE00013D00026237B042B29D1237BBBB3284687
:103FF000FFF767FC2046FFF7C3FE064690BBFFF7BE
:104000005CFC05460023237329E003232373FFF799
:1040100058FC002200920192EFF305839B1A18BF0F
:10402000012369462046FFF761FE06460028D9D0E5
:10403000FFF743FC01232373FFF743FC12E02846FC
:10404000FFF73FFC04F10800FFF744FD064648B9BE
:10405000FFF733FC054604232373C6E700262846F2
:10406000FFF72FFC304602B070BD000070B582B083
:104070000D461646044640B34DB3FFF71EFC237BA6
:10408000013BDBB2012B24D8636801336360022358
:104090002373FFF716FC00950196EFF30583003BB1
:1040A00018BF0123002269462046FFF71FFE054680
:1040B000FFF703FC6368013B63600BB901232373C3
:1040C000FFF7FFFB284602B070BD01BED4E701BE7A
:1040D000D3E7FFF7F6FB014DF4E700BF20000E0623
:1040E0000020704710B520B1044649B14FF0000CD4
:1040F00011E0144B144A40F2E14114485CF0ECFD2D
:10410000134B114A40F2E24110485CF0E5FD04F81F
:104110000CE00CF1010C94450ED211F80CE0BEF14C
:104120000D0F0BD0BEF10A0F0AD0012BEFD1BEF15B
:104130003A0FECD1002000E0204610BD0020FCE743
:104140000020FAE7CC940610B09C0610DC94061010
:104150004895061070B5F9B18C46092A23D9002874
:1041600028DB4FF0000E0022204981FB0031C317ED
:10417000C3EBA103194603EB8303A0EB430374468F
:1041800002EB0E0030330CF800300132D2B2084698
:104190000029E9D1002321E0154B164A40F2B34132
:1041A00015485CF099FD154B124A40F2B441124893
:1041B0005CF092FD2D230B7040424FF0010ED2E7D0
:1041C000E0181CF800501119C91A01391CF80160D7
:1041D0000CF800600CF801500133DBB2B3EB520F66
:1041E000EED302EB0E00C0B270BD00BF676666661C
:1041F000E8AB06108C9C0610DC940610589506104F
:104200002DE9F84FE0B1884617461C46064643683C
:10421000EBB11AB3234B994227D04FF00A0AC0479B
:1042200081460025002C3AD0002D38D173682246F3
:104230003946B0689847B0F1000B19DA0225F1E76A
:10424000194B1A4A40F2DB6119485CF045FD194BE5
:10425000164A40F2DC6116485CF03EFD164B134AEC
:1042600040F2DD6112485CF037FD4FF0000AD6E7FE
:104270000EDDA34505D8C0478146A4EB0B045F447F
:10428000D0E70E4B094A40F2FE6109485CF024FD7C
:10429000C047A0EB09039A45C4D80225C2E72846C7
:1042A000BDE8F88FE140001088950610449C061088
:1042B000DC9406109C950610B8950610C89506105B
:1042C00008B538B18446406858B18AB16046FFF7F6
:1042D00097FF08BD0A4B0B4A40F26C710A485CF02C
:1042E000FBFC0A4B074A40F26D7107485CF0F4FC96
:1042F000074B044A40F26E7103485CF0EDFC00BFCE
:1043000088950610349C0610DC9406109C950610C7
:10431000F095061008B530B183695BB1022283F8CD
:104320002020002008BD074B074A40F2AA31074869
:104330005CF0D2FC064B044A40F2AB3103485CF01F
:10434000CBFC00BF08960610B49B0610DC94061048
:104350001C96061030B583B0F8B10446436A1BB30F
:10436000026BC2B1826BB2B19A6AB2F1FF3F22D046
:1043700001329A629A684AB1156850681B8C0193A1
:10438000E36B0093A36B626B216BA847002323634D
:104390006363A363E36303B030BD0A4B0A4A4FF47F
:1043A0000C710A485CF098FC094B074A40F2312135
:1043B00006485CF091FC074B034A40F23A2103485F
:1043C0005CF08AFC389606105C9B0610DC940610A4
:1043D000509606107496061038B5002839D001465C
:1043E000806900283CD0436A002B40D0C26A002A72
:1043F00044D01C68A24248D35D682C44A2424BD2F0
:104400001C69002C56D0A2424DD9121B5A618A68F1
:10441000CC68B4F1FF3F08BFB2F1FF3F4DD05A6204
:104420000A8812F0100F03D0DA6A42F00102DA6251
:104430000A8812F0080F03D0DA6A42F00202DA6248
:1044400090F82830012B3BD00024FFF783FF204653
:1044500038BD1C4B1C4A40F205311C485CF03CFC4A
:104460001B4B194A40F2063118485CF035FC194BD9
:10447000154A40F20B3115485CF02EFC164B124ADF
:104480004FF4437111485CF027FC144B0E4A4FF473
:1044900044710E485CF020FC114B0B4A40F2113184
:1044A0000A485CF019FC0F4B074A4FF44771074864
:1044B0005CF012FC00225A61A9E700225A62AFE7C1
:1044C0000124C2E708960610749B0610DC940610BF
:1044D0001C96061098960610AC960610D0960610FC
:1044E000189706107897061008B568B1836993B1DC
:1044F000C1B18818D862986BD8B1D96B0A44DA6315
:104500001B6BCBB1002008BD0F4B104A4FF4367126
:104510000F485CF0E1FB0F4B0C4A40F2D9210C48EC
:104520005CF0DAFB0C4B094A40F2DA2108485CF0F7
:10453000D3FB9963DA63E3E7084B044A40F2F321C3
:1045400003485CF0C9FB00BF08960610749D061076
:10455000DC9406101C960610C0970610D097061023
:1045600070B5B8B10E4615468469D4B101B3636A1B
:104570002BB31A6952B37319E3622046FFF7EAFEC0
:10458000236B2BB3626BEB439A4224D82A446263B9
:10459000002070BD134B144A4FF4287113485CF08F
:1045A0009BFB134B104A40F2A12110485CF094FB96
:1045B000104B0D4A40F2A2210C485CF08DFB0E4BD3
:1045C000094A40F2A72109485CF086FB1961D2E74D
:1045D00026636563DCE7094B034A4FF431710348F6
:1045E0005CF07AFB08960610549D0610DC940610C9
:1045F0001C960610C097061098960610FC97061099
:1046000010B580B184468369A3B1D1B15C6AFCB1B5
:104610001144D9620020186358639863D863BCF8CA
:104620001430238410BD0E4B0E4A40F277210E4801
:104630005CF052FB0D4B0B4A4FF41E710A485CF0C4
:104640004BFB0B4B074A40F2792107485CF044FBD7
:10465000084B044A40F27E2103485CF03DFB00BF5A
:1046600008960610389D0610DC9406101C9606105D
:10467000C09706109896061008B530B183695BB1F3
:10468000012283F82020002008BD074B074A40F292
:10469000612107485CF020FB064B044A40F262218E
:1046A00003485CF019FB00BF08960610149D061025
:1046B000DC9406101C96061008B5B0B1C37D03F05B
:1046C0007F031E2B2CD8DFE803F0172B2B2B2B2B73
:1046D0002B2B2B2B2B172D191D1F2B2B2B2B2B2B68
:1046E0002B232527291B212B21000F4B0F4A40F29A
:1046F000DE310F485CF0F0FA002000E0072008BD32
:104700000820FCE70920FAE70A20F8E70B20F6E783
:104710000B20F4E70B20F2E70C20F0E70C20EEE78B
:104720000D20ECE70620EAE708960610FC9C061030
:10473000DC94061008B5022806D891420BD8B8B10F
:1047400001280FD0002008BD0A4B0B4A4FF4F0613E
:104750000A485CF0C1FA0A4B074A40F282710748E6
:104760005CF0BAFA914201D00320ECE70520EAE7B9
:104770000420E8E738980610E49C0610DC94061044
:10478000849806102DE9F041B0B114461D46074645
:104790000668C6B1F1B122B302F10C0345B3069A23
:1047A0004ABB4FF001089844BB6843447A6893427F
:1047B00024D90520BDE8F081244B254A40F2B451AC
:1047C00024485CF089FA244B214A40F2B551214833
:1047D0005CF082FA214B1E4A40F2B6511D485CF053
:1047E0007BFA1F4B1A4A40F2B7511A485CF074FA30
:1047F0004FF00108D7E7DDF81880D4E722463046AD
:104800005EF0FAFA3319202232555C1C0DB1069A7B
:104810009AB92F225A709E1C3246202302F8013B7F
:10482000104B03CBC6F8010051600F4B1B88A6F854
:104830000930C7F808800020BCE7069A29462046C0
:104840005EF0DAFA069BE618E6E700BFA8980610C5
:10485000D09C0610DC940610C0980610E498061050
:10486000F498061004990610647906102DE9F84FA3
:10487000DDF828A040B30F461646984681460468E6
:104880004CB379B3002B34D0002A39D0BAF1000FE1
:104890003DD0D0F808B05C44BBF1030F08D9042226
:1048A0002F49201F5EF094FA10B9ABF1020B023CC5
:1048B00006EB0A0506355D44D9F804309D422DD932
:1048C00005231846BDE8F88F264B274A40F21451BD
:1048D00026485CF001FA264B234A40F21551234842
:1048E0005CF0FAF9234B204A40F216511F485CF065
:1048F000F3F9214B1C4A40F217511C485CF0ECF9CB
:104900001E4B194A4FF4A36118485CF0E5F91C4BA3
:10491000154A40F2195115485CF0DEF90123324680
:1049200039462046FFF7DEFB68B1A319154A128805
:10493000A2539C1C0023524641462046FFF7D2FB5F
:1049400058B1002300E00B23002BBAD1044A1068B1
:1049500044F80A00C9F80850B3E70B23B1E700BFD9
:1049600050990610A8980610C49C0610DC940610F6
:10497000C09806101099061020990610309906105C
:10498000409906108C85071010B586B002460023AA
:1049900003930493ADF8143078B10846144699B1E6
:1049A0000A2203A9FFF7D6FB009003AB0E220A49A7
:1049B0002046FFF75BFF06B010BD084B084A40F2E7
:1049C000267108485CF088F9074B054A40F22771C8
:1049D00004485CF081F900BF6C990610A898061095
:1049E000549C0610DC9406105899061070B588B1D6
:1049F0000E461446054642689AB1CCB1049A12F0AC
:104A0000010F00D1DBB9A368226831462846FFF7C1
:104A1000F7FB70BD0D4B0E4A4FF4E9610D485CF099
:104A20005BF90D4B0A4A40F249710A485CF054F9AF
:104A30000A4B074A40F24A7106485CF04DF91946A4
:104A40002046FFF7A1FF0028E3D1DCE78895061098
:104A50006C9C0610DC9406109C950610A898061015
:104A6000F0B583B0089FB0B10C461D460646CAB1EA
:104A7000FBB13CB3099B00933B4621463046FFF710
:104A8000B5FF30B92DB13B462A4621463046FFF7E7
:104A900017FC03B0F0BD0F4B0F4A40F624010F483E
:104AA0005CF01AF90E4B0C4A40F625010B485CF0FD
:104AB00013F9002FDDD00B4B074A40F626010748BB
:104AC0005CF00AF9084B044A40F6280103485CF000
:104AD00003F900BF889506107C9C0610DC94061034
:104AE000A89806107C990610D899061070B58AB05F
:104AF00010B30C4615460646002303930493059312
:104B0000069307930893CDF82330194B93E80300DD
:104B10000390ADF8101015220DF112012046FFF799
:104B200019FB831DB5F1FF3F0DD1002C16DB03AA45
:104B30002D21D154C31D11E00E4B0F4A4FF4AE612D
:104B40000E485CF0C9F803A92D22CA54C41DC0F157
:104B5000140221442846FFF7FDFA0319009303AB22
:104B6000052207493046FFF781FE0AB070BD00BF3D
:104B7000F0990610A8980610A09C0610DC94061068
:104B8000F899061038B5D0B10C460546F1B18B68DE
:104B90000F2B22D9012102F099FE4FF4006002F0A0
:104BA000B5FE002385F820306B6204220E49206890
:104BB0005EF00EF910B9012385F8283038BD0B4B93
:104BC0000B4A4FF46F710B485CF086F80A4B084AA9
:104BD00040F2BD3107485CF07FF8084B044A40F2D0
:104BE000BE3104485CF078F8409A061038960610FA
:104BF000EC9B0610DC940610A8980610009A06108C
:104C000070B58AB004460D46164628220021684633
:104C10005CF028FB34B3002D2BD0616A00292FD023
:104C2000A94238D1684602F06BFE1E4B00931E4B22
:104C300002931E4B03931E4B04931E4B05931E4B76
:104C400006931E4B0793A461E56A33462A466946DC
:104C5000204600F0C1FB0544E5622046FFF72CFD2D
:104C60000AB070BD164B174A4FF48B6116485CF0C2
:104C700033F8164B134A40F2594113485CF02CF8B4
:104C800065622B68E3622984A961E9612961696130
:104C9000A962E962C6E70E4B0A4A40F275410A482A
:104CA0005CF01AF8794600100146001061450010CA
:104CB000E9440010D9430010154E001015430010B0
:104CC00038960610D89B0610DC94061098960610AD
:104CD000489A06102DE9F04F93B080460D461446D1
:104CE0004022002102A85CF0BDFAB8F1000F16D0F6
:104CF000D8F80030D3B105B334B3214602A8FFF78A
:104D000041FFEB683C4A934225D04FF00A0B98478D
:104D100001904FF0000A01275646D14645E0374B37
:104D2000374A40F2B57137485BF0D6FF364B344A0C
:104D300040F2B67133485BF0CFFF344B304A40F25B
:104D4000B77130485BF0C8FF314B2D4A4FF4F76123
:104D50002C485BF0C1FF4FF0000BD8E7EB68984799
:104D6000019BC01A834515D9002302E000234FF0B0
:104D70000209012B11D0B9F1000F15D1BAF1000FC2
:104D800026D19DF82830022B24D06B68B3420CD872
:104D900000270AE0BA463B46EBE72246294602A82E
:104DA000FFF72EFF8146E6E70027AFB1D8F80030C5
:104DB00029686A68921B3144D8F808009847041E95
:104DC000D4DBCBDDEB689847019026443B46D0E727
:104DD0000027EAE70027E8E7B9F1000F03D04846CB
:104DE00013B0BDE8F08F6A6831469DF82800FFF7E0
:104DF000A1FC8146F3E700BFE14000108895061052
:104E0000189C0610DC940610709A061098960610EE
:104E1000A8980610F8B5F8B10C461646876917B37E
:104E200041B37D6A002D2CD02B68002B30D08B42F3
:104E300035D86A6813448B4238D9AB69002B3CD013
:104E4000A869EB69184484423AD8EB693344EB61B2
:104E50003444FC620020F8BD1C4B1D4A40F2623114
:104E60001C485BF039FF1C4B194A40F2633119486A
:104E70005BF032FF194B164A4FF4597115485BF03D
:104E80002BFF174B124A40F2693112485BF024FFA6
:104E9000144B0F4A40F26A310E485BF01DFF124B73
:104EA0000B4A40F26B310B485BF016FF0F4B084A80
:104EB0004FF45B7107485BF00FFFA961EB61BFE73F
:104EC000324621465CF0B4F9BFE700BF08960610F1
:104ED000989B0610DC9406101C960610C0970610CE
:104EE000989606108C9A0610A89A0610D89A061062
:104EF00030B583B00C460546B0B10368F3B1F9B1E3
:104F00000B68FBB10B69FBB14B68FBB14B690BB98B
:104F100001200AE000238360CB6800938B684A6815
:104F20000968FFF72FFC00E0012088B1C8B118B96B
:104F3000A36913F0010F1DD103B030BD0120F4E7C8
:104F40000120F2E70120F0E70120EEE70120ECE785
:104F5000142300930B4B0A220B492846FFF786FCCB
:104F6000E4E7636900932369042208492846FFF7B0
:104F70007DFCDCE70A220092054B06492846FFF734
:104F800075FCD9E7209B0610389B06108077061029
:104F9000449B0610509B0610B8B184460068B0B11F
:104FA000B9B1C3B1CAB110B582B00498B8B1DCF8D8
:104FB0000400DCF80840844201D9012010E0049884
:104FC00000906046FFF752FC0AE001207047012084
:104FD0007047012070470120704701207047012071
:104FE00002B010BDF8B103460068F0B110B55868C2
:104FF0009C6884421BD8B2F1FF3F1ADB002909DB11
:10500000B2F1FF3F01D08A4215DBB1F1004F06D16A
:1050100001200DE0B2F1FF3FF2D0012008E0184678
:10502000FFF764FD04E00120704701207047012074
:1050300010BD0120FCE70120FAE7000030B583B085
:105040000C46054648B3416859B3016859B364B387
:10505000216861B3A1680F292BD9606881422AD8E1
:10506000069951B3096851B37AB1002B29DB06992F
:10507000C96871B1079901910093134622460699B8
:10508000C9682846FFF7ECFC08E0002BEDD00120B2
:1050900004E010490698C160ECE7012098B103B024
:1050A00030BD0120FAE70120F8E70120F6E70120F2
:1050B000F4E70120F2E70120F0E70120EEE701200C
:1050C000ECE70120EAE7224606992846FFF702FEB0
:1050D000E5E700BFE1400010202900F0D2800D2953
:1050E00000F0D1800A2900F0D080092900F0CF809B
:1050F0000C2900F0CE80A0F114030B2B00F2CB8022
:10510000DFE803F0061521262E2E2B7F8F8F9EAE13
:105110002F2900F0C2802A2900F0C18041F020032D
:10512000613BDBB2192B40F2BC800120704741F09B
:105130002003613BDBB2192B40F2A1803A2900F039
:10514000B280012070472F2900F0AF800120704706
:105150002F2900F0AC8001207047402900F0A98081
:105160002F2900F0A8803F2900F0A780402900F0F7
:10517000A68041F02003613BDBB2192B40F2A180F5
:10518000A1F13003DBB2092B40F29D802D2900F004
:105190009C805F2900F09B802E2900F09A802129B5
:1051A00000F099807E2900F098802A2900F09780ED
:1051B000272900F09680282900F09580292900F001
:1051C0009480252900F093803B2900F092803A29B1
:1051D00000F09180262900F090803D2900F08F801A
:1051E0002B2900F08E80242900F08D802C2900F0DE
:1051F0008C805B2900F08B805D2900F08A80012083
:105200007047CB084B4AD25C01F0070C012303FA2C
:105210000CF31A4233D123297DD03F297DD11C20A4
:105220007047CB08434AD25C01F00700012383405A
:105230001A4274D1232974D03F2974D11D2070479C
:10524000CB083C4AD25C01F0070C012303FA0CF3B3
:105250001A426AD1232912D03F2968D11F207047F2
:10526000CB08344AD25C01F0070C012303FA0CF39B
:105270001A4204D1232902D03F2901D001207047CE
:1052800070470120704701207047012070470120BE
:10529000704701207047012070471B2070471B207A
:1052A0007047152070471620704717207047182048
:1052B0007047012070471B2070471C2070471A2040
:1052C000704719207047192070471920704719201E
:1052D000704719207047192070471920704719200E
:1052E00070471920704719207047192070471920FE
:1052F00070471920704719207047192070471920EE
:1053000070471920704719207047192070471920DD
:105310007047192070471E207047012070471D20DC
:1053200070471E207047012070471F2070470120E2
:10533000704700BF84A80610037813F0030F24D031
:10534000828AA2F164039BB2632B20D9CC2A20D09D
:10535000B2F5987F1FD00388C3F3870213F4807FD0
:105360001BD1C37813F0200F02D012F0010F16D01A
:1053700012F0010F15D18268C368B3F1FF3F08BF77
:10538000B2F1FF3F0FD1012070470020704700208D
:1053900070470020704700207047002070470120B0
:1053A0007047002070470020704708B5038A3BB162
:1053B000438A2BB1038813F0100F05D0002008E0BA
:1053C000038813F0080F05D0FFF7B6FFB0FA80F09E
:1053D000400908BD0020FCE72DE9F04F8DB00446E0
:1053E000019193461D460368C3F38621C278D6090E
:1053F0000396C2F380120492D0F804A0C27D12F08A
:105400007F02029242F052820B4608465DBB12298F
:105410000FD93F2917D1019BDB693BB12046984743
:10542000C8B9E37D13F07F0F42F04682284602F0B0
:105430003EBA49B239B1012202FA03F3BC4A1A401A
:10544000002A42F03782E37D0B2262F30603E37504
:10545000012002F02CBAC4F804A0E37D072262F315
:105460000603E375DDE72D2919D000220992322BBE
:1054700018D000220892102B02F0EA80C2F0EE80D1
:105480006B3303F07F030A2B0FD8CDF81CB0002339
:105490000693D84600230593A94601F0EABDCDF84E
:1054A00024B0E4E7CDF820B0E5E7002306930793A6
:1054B000EFE7C4F804A0E37D0C2262F30603E37572
:1054C000E37D13F07F0F06D1C4F804A0E37D202212
:1054D00062F30603E375C4F804A0236860F3902325
:1054E0002360A8EB0B0002F0E2B90F2001F0D1BD60
:1054F0000F2001F0CEBD102001F0CBBD0D2D01F02D
:10550000B6850A2D01F0B385C4F804A0E37D0D2211
:1055100062F30603E375D3E70D2D01F0A8850A2D8C
:1055200001F0A58523886FF389032380E3786FF367
:105530004513E3704FF0FF324FF0FF33C4E902230D
:10554000482D06D023786FF301032370122001F059
:10555000A0BDE37D13F07F0F1AD101990B68002BDA
:1055600002F01B802368032262F3902323600B6800
:105570002046984798B92068C0F38620E37D13F051
:105580007F0F01F07485A8EB0B05681C02F08FB942
:10559000684B694A40F2E62168485BF09DFBC4F81D
:1055A00004A0E37D012262F30603E375E3E7542DD3
:1055B0000ED0452D14D123786FF3010323700222FE
:1055C000A275E37862F30403E370132001F04FBD8A
:1055D0002378012262F301032370062001F047BD06
:1055E000C4F804A0E37D1C2262F30603E37567E7B9
:1055F0000D2D01F03C850A2D01F0398523886FF3CC
:1056000089032380E3786FF34513E3704FF0FF3293
:105610004FF0FF33C4E90223482D1ED1E37D13F080
:105620007F0F22D101990B68002B01F0B887236806
:10563000052262F3902323600B6820469847D8B96F
:105640002068C0F38620E37D13F07F0F01F00F8503
:10565000A8EB0B05681C02F02AB9C4F804A0E37D8E
:105660001C2262F30603E3752AE7324B324A4FF4F9
:10567000447132485BF030FBC4F804A0E37D0122A2
:1056800062F30603E375DBE7542D02D1062001F037
:10569000EEBCC4F804A0E37D1E2262F30603E375AA
:1056A0000EE7542D02D1072001F0E1BCC4F804A09C
:1056B000E37D1E2262F30603E37501E7502D02D15C
:1056C000082001F0D4BCC4F804A0E37D1E2262F3DC
:1056D0000603E375F4E62F2D02D1092001F0C7BCC3
:1056E000C4F804A0E37D1E2262F30603E375E7E637
:1056F000A5F13003DBB2092B04D8303D25820A2006
:1057000001F0B5BCC4F804A0E37D0E2262F30603E9
:10571000E375D5E62E2D02D10B2001F0A8BCC4F80C
:1057200004A0E37D0E2262F30603E375C8E600BF22
:10573000160004003C9E0610E8A70610B49D061053
:10574000A5F13003DBB2092B04D8303D65820C2073
:1057500001F08DBCC4F804A0E37D0E2262F30603C1
:10576000E375ADE6202D02D10D2001F080BCC4F818
:1057700004A0E37D0E2262F30603E375A0E6A5F123
:105780003003DBB2092B0AD9202D01F07084C4F854
:1057900004A0E37D0F2262F30603E37590E6303D3B
:1057A000A5820E2001F063BCA5F13003DBB2092B0A
:1057B00010D90D2D3FF499AE202D01F0F2860A2D5F
:1057C0003FF496AEC4F804A0E37D0F2262F3060313
:1057D000E37575E6A38A03EB83035B009BB2A382A8
:1057E0002B44303B9BB2A382B3F57A7FC1F03F8458
:1057F000C4F804A0E37D0F2262F30603E3755FE6BD
:10580000069B5BB1E3786FF30403E3700D2D3FF467
:1058100072AE0A2D05D1102001F03BBCCDF81880E6
:10582000F0E7102001F023BC0D2D26D00A2D41F009
:105830001E84E37D13F07F0F56D10699002901F0F5
:10584000B88601988368002B01F0B58623682C2266
:1058500062F3902323608368A8EB010220469847F7
:10586000002848D12068C0F38620E37D13F07F0F25
:1058700049D10023069301F0FABBE37D13F07F0FBB
:105880001ED10699002901F08E8601988368002BAD
:1058900001F08B862368112262F3902323608368D2
:1058A000A8EB01022046984788B92068C0F38620FB
:1058B000E37D13F07F0F12D10023069301F0D7BBD5
:1058C000A44BA54A40F28E31A4485BF005FAC4F817
:1058D00004A0E37D082262F30603E375E5E7A8EB85
:1058E0000B05681C01F0E3BF9A4B9B4A4FF46571AE
:1058F0009A485BF0F1F9C4F804A0E37D082262F352
:105900000603E375AEE7A8EB0B05681C01F0CFBFFB
:105910000A2D02D12C2001F0AABBC4F804A0E37D1B
:105920001E2262F30603E375CAE50D2D01F09F8385
:105930000A2D01F09C8323886FF389032380E37889
:105940006FF34513E3704FF0FF324FF0FF33C4E9BC
:10595000022345F02003613BDBB2192B16D800234C
:10596000A375E378012262F30403E370413D142D33
:105970005DD8DFE805F0133538155C5C3B3E5C5CB8
:105980005C4144474A4D5C5053565900C4F804A04A
:10599000E37D102262F30603E37591E51323A375FB
:1059A000E37D13F07F0F4AD101990B68002B01F0C2
:1059B00006862368132262F3902323600B68204637
:1059C0009847002842D12068C0F38620E37D13F079
:1059D0007F0F01F04C83A8EB0B05681C01F067BF3B
:1059E0001023A375DCE70523A375D9E70123A3756D
:1059F000D6E70223A375D3E70923A375D0E70A23CB
:105A0000A375CDE71923A375CAE70623A375C7E7D6
:105A10000323A375C4E71423A375C1E71A23A37551
:105A2000BEE70723A375BBE70F23A375B8E7C4F848
:105A300004A0E37D102262F30603E37540E5454BC5
:105A4000454A40F2C63145485BF046F9C4F804A027
:105A5000E37D012262F30603E375B4E76DB3A27D33
:105A60003F4B53F82210202D2FD0E37803F01F0373
:105A7000C95CA94230D0A5F14101C9B2192902D9A6
:105A80002D2D40F0C5801B0243EA02431D43354BD8
:105A90009D4200F0A08045DC334B9D4200F0958094
:105AA00023DD324B9D4200F0998032DD304B9D4228
:105AB00040F0A6801723A3750EE0C4F804A0E37D90
:105AC000102262F30603E375FAE4E37803F01F03A0
:105AD000CB5C002BC9D11420E37803F01F02013204
:105AE00062F30403E37001F0C2BA224B9D4266D018
:105AF00006DD214B9D4240F083801D23A375EBE71B
:105B0000143B9D425ED011339D4279D10C23A37585
:105B1000E2E71A4B9D425BD0194B9D4270D11F2387
:105B2000A375D9E7174B9D4264D009DD164B9D4202
:105B30005AD03BDD154B9D4262D12123A375CBE7A3
:105B4000134B9D4253D027DD124B9D4258D1122357
:105B5000A375C1E73C9E0610E8A70610B49D061089
:105B6000FCA706104F010A00480105002D010A009C
:105B700045010A00550103005202040050020500CD
:105B80004901090053020F0045011A004F011A0094
:105B900050040C0042020F00B54B9D4221D003F58A
:105BA00080739D422CD11E23A37595E7B14B9D4276
:105BB00023D0B14B9D4223D11123A3758CE704233D
:105BC000A37589E71C23A37586E71623A37583E7CE
:105BD0000823A37580E70B23A3757DE71823A3751E
:105BE0007AE71523A37577E70E23A37574E70D23D2
:105BF000A37571E71B23A3756EE72023A3756BE7DD
:105C0000C4F804A0E37D102262F30603E37557E4B1
:105C1000C4F804A0E37D102262F30603E3754FE4A9
:105C2000202D01F02482079B83B1A37D052B10D08A
:105C30002946FFF751FA012841F01982C4F804A05F
:105C4000E37D112262F30603E37539E4CDF81C808D
:105C5000EBE71820ECE7A5F10A03DBB2162B04D81A
:105C600001229A40854B13406BB92946FFF734FA5D
:105C7000012841F0FC81C4F804A0E37D112262F305
:105C80000603E3751CE4C4F804A0E37D112262F36B
:105C90000603E37514E40D2D48D0202D0FD00A2DF6
:105CA00044D02946FFF718FA012841F0E081C4F8F2
:105CB00004A0E37D112262F30603E37500E4E37DB3
:105CC00013F07F0F1ED10799002901F07A84019803
:105CD0004368002B01F077842368202262F390232D
:105CE00023604368A8EB01022046984788B92068E2
:105CF000C0F38620E37D13F07F0F12D100230793BA
:105D000001F0B5B95E4B5F4A40F234415E485AF04B
:105D1000E3FFC4F804A0E37D022262F30603E37507
:105D2000E5E7A8EB0B05681C01F0C1BD0023238249
:105D3000092363820D2D23D02C20E37D13F07F0FE8
:105D400020D1079A002A01F0928101994B68002B1B
:105D500001F03D84236860F3902323604B68114673
:105D6000A8EB02022046984798B92068C0F3862025
:105D7000E37D13F07F0F14D10023079301F077B96F
:105D80002B20DAE73E4B3F4A40F23D413E485AF075
:105D9000A3FFC4F804A0E37D022262F30603E375C7
:105DA000E3E7A8EB0B05681C01F081BD482D01F06D
:105DB0001184492D0BD0202D01F05981C4F804A085
:105DC000E37D1C2262F30603E375FFF779BBA37D35
:105DD000212BF3D1252001F04AB9542D02D12220E4
:105DE00001F045B9C4F804A0E37D1E2262F3060366
:105DF000E375FFF765BB542D02D1232001F037B9BD
:105E0000C4F804A0E37D1E2262F30603E375FFF7E6
:105E100057BB502D02D1242001F029B9C4F804A0A9
:105E2000E37D1E2262F30603E375FFF749BB432DB2
:105E300002D1262001F01BB9C4F804A0E37D1E2284
:105E400062F30603E375FFF73BBB452D02D1242027
:105E500001F00DB9C4F804A0E37D1E2262F306032D
:105E6000E375FFF72DBB2F2D10D1272001F0FFB8D0
:105E700041020A0049030F004202140009004000D9
:105E80003C9E0610E8A70610B49D0610C4F804A0B6
:105E9000E37D1E2262F30603E375FFF711BBA5F154
:105EA0003003DBB2092B04D8303D2582282001F0D5
:105EB000DEB8C4F804A0E37D0E2262F30603E375A6
:105EC000FFF7FEBA2E2D02D1292001F0D0B8C4F878
:105ED00004A0E37D0E2262F30603E375FFF7F0BA38
:105EE000A5F13003DBB2092B04D8303D65822A20AE
:105EF00001F0BDB8C4F804A0E37D0E2262F30603EE
:105F0000E375FFF7DDBA0D2D01F066830A2D02D18E
:105F10002C2001F0ACB8C4F804A0E37D0E2262F39B
:105F20000603E375FFF7CCBA0A2D02D12C2001F04D
:105F30009EB8C4F804A0E37D172262F30603E3755C
:105F4000FFF7BEBA0D2D01F049830A2D02D1392089
:105F500001F09FB8202D17D0AA4B5B5DB3B1099A11
:105F6000EAB1E2786FF30402E270633B122B39D896
:105F7000DFE803F0183838383838383838383838E7
:105F80003820383838283000029BE7E7C4F804A0EE
:105F9000E37D182262F30603E375FFF791BACDF8AB
:105FA0002480DEE7A378012262F34703A3702D204B
:105FB00001F05DB8A378052262F34703A3702D209A
:105FC00001F055B8A378072262F34703A3702D2090
:105FD00001F04DB8A378082262F34703A3702D2087
:105FE00001F045B8A3786FF34703A3702D2001F0AB
:105FF0003EB8BB1B844A12689A4294BF06EB020C5F
:1060000006EB030C33461E460133634515D2727806
:10601000202A12D07B498A5C002AF4D10DE0E37873
:1060200003F01F01013161F30403E3706F2A37D0DD
:106030000022A37862F34703A3700136B74200F051
:106040001B813578202D00F017816E4B5A5D002A98
:1060500000F01281A3785B080E2B00F2048101A1ED
:1060600051F823F0F35F00101F600010A5600010CE
:10607000C7600010FF6000103D6100107D610010DE
:10608000BD6100101D6200105D6200105D620010B5
:1060900067620010676200105D6200105D620010B0
:1060A0000222C6E7E37803F01F01013161F3040324
:1060B000E3706E2A05D00022A37862F34703A37031
:1060C000BBE70322F8E7E37803F01F01013161F336
:1060D0000403E3706E2A06D0742A0AD0A3786FF303
:1060E0004703A370A9E7A378042262F34703A370D0
:1060F000A3E7A378062262F34703A3709DE7E17844
:1061000001F01F03013303F01F0363F30401E17087
:106110000A2B03D83D49CB5C934204D0A3786FF39C
:106120004703A37089E7E37803F01F03092B84D1A9
:10613000A378092262F34703A3707EE7E17801F0B8
:106140001F03013303F01F0363F30401E170102BFD
:1061500003D82F49CB5C934204D0A3786FF3470355
:10616000A3706AE7E37803F01F030F2B7FF465AF9A
:10617000A378092262F34703A3705EE7E17801F098
:106180001F03013303F01F0363F30401E1700E2BBF
:1061900003D82049CB5C934204D0A3786FF3470324
:1061A000A3704AE7E37803F01F030D2B7FF445AF9C
:1061B000A3780A2262F34703A3703EE7E17801F077
:1061C0001F03013303F01F0363F30401E170112B7C
:1061D00003D81149CB5C934204D0A3786FF34703F3
:1061E000A3702AE7E37803F01F03102B7FF425AF99
:1061F000A3780D2262F34703A370E37843F02003F2
:10620000E3701AE7A4A80610A4230008BC9F061098
:10621000C89F0610DC9F0610C0A60610E17801F0AA
:106220001F03013303F01F0363F30401E170072B25
:1062300003D8B349CB5C934204D0A3786FF34703F0
:10624000A370FAE6E37803F01F03062B7FF4F5AEA4
:10625000A3780E2262F34703A370EEE6A3786FF3F0
:106260004703A370E9E6A74BA74A40F25A51A74853
:106270005AF032FD4646E1E6B7422BD0A6EB0808BD
:10628000C244A34B1B68534539D33A2D55D1E37D06
:1062900013F07F0F3DD10999002901F0A1810198E8
:1062A000C368002B01F09F8123682E2262F39023A4
:1062B0002360C368721A2046984788BB2068C0F3E1
:1062C0008620E37D13F07F0F32D1B046002309937F
:1062D00000F0CDBE013EA6EB0808C2448C4B1B6803
:1062E000534502D3B04600F0C2BEC4F804A0E37D1B
:1062F0000C2262F30603E375B046FFF7E1B8C4F879
:1063000004A0E37D0C2262F30603E375B046FFF7B9
:10631000D7B8804B7C4A40F269517C485AF0DCFC8B
:10632000C4F804A0E37D032262F30603E375C5E726
:10633000A6EB0B05681C01F0BABAC4F804A0E37D13
:10634000182262F30603E375B046FFF7B9B8202DB3
:1063500000F08D86092D00F08A860D2D01F0488110
:106360000A2D01F04781089BBBB1E3786FF304036A
:10637000E37045F02002A3785B08093B092B00F28B
:106380008380DFE813F05B002A00810039091800E0
:106390000D003909810081003909CDF82080E4E73A
:1063A000238843F080032380A3786FF34703A3700F
:1063B000322000F05CBE632A07D0A378112262F37A
:1063C0004703A370322000F052BEA378102262F37C
:1063D0004703A370322000F04ABEA5F13003DBB2C0
:1063E000092B17D82288C2F3870312F4007F1BD130
:1063F00063F07F03228863F389022280303DEB172C
:10640000A560E360A3780B2262F34703A3703220F8
:1064100000F02DBEC4F804A0E37D192262F3060348
:10642000E3753220FFF74CB8C4F804A0E37D1A22CC
:1064300062F30603E3753220FFF742B86B2A0BD0F4
:10644000632A11D0752A17D0A378162262F3470366
:10645000A370322000F00BBEA378132262F347032F
:10646000A370322000F003BEA378142262F3470326
:10647000A370322000F0FBBDA378152262F347031E
:10648000A370322000F0F3BDA3786FF34703A3702D
:10649000322000F0ECBDA3785B080A9046468646A1
:1064A000039A10E21A461D46A37862F34703A370CD
:1064B000E37D13F07F0F1CD10899002900F0798249
:1064C00001980369002B00F076822368342262F37E
:1064D000902323600369721A20469847E0B9206828
:1064E000C0F38620E37D13F07F0F1DD100230893B6
